{
	"contracts/Encoding.sol": {
		"Encoding": {
			"abi": [
				{
					"inputs": [],
					"name": "castmultidec",
					"outputs": [
						{
							"internalType": "string",
							"name": "",
							"type": "string"
						}
					],
					"stateMutability": "pure",
					"type": "function"
				},
				{
					"inputs": [],
					"name": "decode",
					"outputs": [
						{
							"internalType": "string",
							"name": "",
							"type": "string"
						}
					],
					"stateMutability": "pure",
					"type": "function"
				},
				{
					"inputs": [],
					"name": "encodingPacked",
					"outputs": [
						{
							"internalType": "bytes",
							"name": "",
							"type": "bytes"
						}
					],
					"stateMutability": "pure",
					"type": "function"
				},
				{
					"inputs": [],
					"name": "encodingnumber",
					"outputs": [
						{
							"internalType": "bytes",
							"name": "",
							"type": "bytes"
						}
					],
					"stateMutability": "pure",
					"type": "function"
				},
				{
					"inputs": [],
					"name": "multidecode",
					"outputs": [
						{
							"internalType": "string",
							"name": "",
							"type": "string"
						},
						{
							"internalType": "string",
							"name": "",
							"type": "string"
						}
					],
					"stateMutability": "pure",
					"type": "function"
				},
				{
					"inputs": [],
					"name": "multiencode",
					"outputs": [
						{
							"internalType": "bytes",
							"name": "",
							"type": "bytes"
						}
					],
					"stateMutability": "pure",
					"type": "function"
				},
				{
					"inputs": [],
					"name": "multipackeddec",
					"outputs": [
						{
							"internalType": "string",
							"name": "",
							"type": "string"
						},
						{
							"internalType": "string",
							"name": "",
							"type": "string"
						}
					],
					"stateMutability": "pure",
					"type": "function"
				},
				{
					"inputs": [],
					"name": "multipackedencode",
					"outputs": [
						{
							"internalType": "bytes",
							"name": "",
							"type": "bytes"
						}
					],
					"stateMutability": "pure",
					"type": "function"
				},
				{
					"inputs": [
						{
							"internalType": "address",
							"name": "recentwinner",
							"type": "address"
						}
					],
					"name": "withdraw",
					"outputs": [],
					"stateMutability": "nonpayable",
					"type": "function"
				}
			],
			"devdoc": {
				"kind": "dev",
				"methods": {},
				"version": 1
			},
			"evm": {
				"assembly": "    /* \"contracts/Encoding.sol\":69:1692  contract Encoding{... */\n  mstore(0x40, 0x80)\n  callvalue\n  dup1\n  iszero\n  tag_1\n  jumpi\n  0x00\n  dup1\n  revert\ntag_1:\n  pop\n  dataSize(sub_0)\n  dup1\n  dataOffset(sub_0)\n  0x00\n  codecopy\n  0x00\n  return\nstop\n\nsub_0: assembly {\n        /* \"contracts/Encoding.sol\":69:1692  contract Encoding{... */\n      mstore(0x40, 0x80)\n      callvalue\n      dup1\n      iszero\n      tag_1\n      jumpi\n      0x00\n      dup1\n      revert\n    tag_1:\n      pop\n      jumpi(tag_2, lt(calldatasize, 0x04))\n      shr(0xe0, calldataload(0x00))\n      dup1\n      0x8707c27e\n      gt\n      tag_12\n      jumpi\n      dup1\n      0x8707c27e\n      eq\n      tag_7\n      jumpi\n      dup1\n      0x9c7325e9\n      eq\n      tag_8\n      jumpi\n      dup1\n      0xa32153db\n      eq\n      tag_9\n      jumpi\n      dup1\n      0xc0f8940c\n      eq\n      tag_10\n      jumpi\n      dup1\n      0xd2145af8\n      eq\n      tag_11\n      jumpi\n      jump(tag_2)\n    tag_12:\n      dup1\n      0x01de1c64\n      eq\n      tag_3\n      jumpi\n      dup1\n      0x0f50eddb\n      eq\n      tag_4\n      jumpi\n      dup1\n      0x2e0074ca\n      eq\n      tag_5\n      jumpi\n      dup1\n      0x51cff8d9\n      eq\n      tag_6\n      jumpi\n    tag_2:\n      0x00\n      dup1\n      revert\n        /* \"contracts/Encoding.sol\":978:1131  function multipackedencode()public pure returns(bytes memory){... */\n    tag_3:\n      tag_13\n      tag_14\n      jump\t// in\n    tag_13:\n      mload(0x40)\n      tag_15\n      swap2\n      swap1\n      tag_16\n      jump\t// in\n    tag_15:\n      mload(0x40)\n      dup1\n      swap2\n      sub\n      swap1\n      return\n        /* \"contracts/Encoding.sol\":1371:1517  function castmultidec() public  pure returns (string memory){... */\n    tag_4:\n      tag_17\n      tag_18\n      jump\t// in\n    tag_17:\n      mload(0x40)\n      tag_19\n      swap2\n      swap1\n      tag_20\n      jump\t// in\n    tag_19:\n      mload(0x40)\n      dup1\n      swap2\n      sub\n      swap1\n      return\n        /* \"contracts/Encoding.sol\":245:407  function encodingPacked() public  pure returns(bytes memory){... */\n    tag_5:\n      tag_21\n      tag_22\n      jump\t// in\n    tag_21:\n      mload(0x40)\n      tag_23\n      swap2\n      swap1\n      tag_16\n      jump\t// in\n    tag_23:\n      mload(0x40)\n      dup1\n      swap2\n      sub\n      swap1\n      return\n        /* \"contracts/Encoding.sol\":1523:1689  function withdraw (address recentwinner)public {... */\n    tag_6:\n      tag_24\n      0x04\n      dup1\n      calldatasize\n      sub\n      dup2\n      add\n      swap1\n      tag_25\n      swap2\n      swap1\n      tag_26\n      jump\t// in\n    tag_25:\n      tag_27\n      jump\t// in\n    tag_24:\n      stop\n        /* \"contracts/Encoding.sol\":630:771  function multiencode()public pure returns(bytes memory){... */\n    tag_7:\n      tag_28\n      tag_29\n      jump\t// in\n    tag_28:\n      mload(0x40)\n      tag_30\n      swap2\n      swap1\n      tag_16\n      jump\t// in\n    tag_30:\n      mload(0x40)\n      dup1\n      swap2\n      sub\n      swap1\n      return\n        /* \"contracts/Encoding.sol\":1161:1365  function multipackeddec() public pure returns (string memory,string memory){... */\n    tag_8:\n      tag_31\n      tag_32\n      jump\t// in\n    tag_31:\n      mload(0x40)\n      tag_33\n      swap3\n      swap2\n      swap1\n      tag_34\n      jump\t// in\n    tag_33:\n      mload(0x40)\n      dup1\n      swap2\n      sub\n      swap1\n      return\n        /* \"contracts/Encoding.sol\":777:970  function multidecode()public  pure returns(string memory,string memory){... */\n    tag_9:\n      tag_35\n      tag_36\n      jump\t// in\n    tag_35:\n      mload(0x40)\n      tag_37\n      swap3\n      swap2\n      swap1\n      tag_34\n      jump\t// in\n    tag_37:\n      mload(0x40)\n      dup1\n      swap2\n      sub\n      swap1\n      return\n        /* \"contracts/Encoding.sol\":413:565  function decode() public pure returns (string memory){... */\n    tag_10:\n      tag_38\n      tag_39\n      jump\t// in\n    tag_38:\n      mload(0x40)\n      tag_40\n      swap2\n      swap1\n      tag_20\n      jump\t// in\n    tag_40:\n      mload(0x40)\n      dup1\n      swap2\n      sub\n      swap1\n      return\n        /* \"contracts/Encoding.sol\":93:239  function encodingnumber()public pure returns(bytes memory){... */\n    tag_11:\n      tag_41\n      tag_42\n      jump\t// in\n    tag_41:\n      mload(0x40)\n      tag_43\n      swap2\n      swap1\n      tag_16\n      jump\t// in\n    tag_43:\n      mload(0x40)\n      dup1\n      swap2\n      sub\n      swap1\n      return\n        /* \"contracts/Encoding.sol\":978:1131  function multipackedencode()public pure returns(bytes memory){... */\n    tag_14:\n        /* \"contracts/Encoding.sol\":1026:1038  bytes memory */\n      0x60\n        /* \"contracts/Encoding.sol\":1050:1066  bytes memory str */\n      0x00\n        /* \"contracts/Encoding.sol\":1068:1102  abi.encodePacked('shiva','vuiyvu') */\n      add(0x20, mload(0x40))\n      tag_45\n      swap1\n      tag_46\n      jump\t// in\n    tag_45:\n      mload(0x40)\n      0x20\n      dup2\n      dup4\n      sub\n      sub\n      dup2\n      mstore\n      swap1\n      0x40\n      mstore\n        /* \"contracts/Encoding.sol\":1050:1102  bytes memory str= abi.encodePacked('shiva','vuiyvu') */\n      swap1\n      pop\n        /* \"contracts/Encoding.sol\":1120:1123  str */\n      dup1\n        /* \"contracts/Encoding.sol\":1113:1123  return str */\n      swap2\n      pop\n      pop\n        /* \"contracts/Encoding.sol\":978:1131  function multipackedencode()public pure returns(bytes memory){... */\n      swap1\n      jump\t// out\n        /* \"contracts/Encoding.sol\":1371:1517  function castmultidec() public  pure returns (string memory){... */\n    tag_18:\n        /* \"contracts/Encoding.sol\":1417:1430  string memory */\n      0x60\n        /* \"contracts/Encoding.sol\":1442:1459  string memory str */\n      0x00\n        /* \"contracts/Encoding.sol\":1468:1487  multipackedencode() */\n      tag_48\n        /* \"contracts/Encoding.sol\":1468:1485  multipackedencode */\n      tag_14\n        /* \"contracts/Encoding.sol\":1468:1487  multipackedencode() */\n      jump\t// in\n    tag_48:\n        /* \"contracts/Encoding.sol\":1442:1488  string memory str= string(multipackedencode()) */\n      swap1\n      pop\n        /* \"contracts/Encoding.sol\":1506:1509  str */\n      dup1\n        /* \"contracts/Encoding.sol\":1499:1509  return str */\n      swap2\n      pop\n      pop\n        /* \"contracts/Encoding.sol\":1371:1517  function castmultidec() public  pure returns (string memory){... */\n      swap1\n      jump\t// out\n        /* \"contracts/Encoding.sol\":245:407  function encodingPacked() public  pure returns(bytes memory){... */\n    tag_22:\n        /* \"contracts/Encoding.sol\":292:304  bytes memory */\n      0x60\n        /* \"contracts/Encoding.sol\":316:339  bytes memory someString */\n      0x00\n        /* \"contracts/Encoding.sol\":340:371  abi.encodePacked(\"some String\") */\n      add(0x20, mload(0x40))\n      tag_50\n      swap1\n      tag_51\n      jump\t// in\n    tag_50:\n      mload(0x40)\n      0x20\n      dup2\n      dup4\n      sub\n      sub\n      dup2\n      mstore\n      swap1\n      0x40\n      mstore\n        /* \"contracts/Encoding.sol\":316:371  bytes memory someString=abi.encodePacked(\"some String\") */\n      swap1\n      pop\n        /* \"contracts/Encoding.sol\":389:399  someString */\n      dup1\n        /* \"contracts/Encoding.sol\":382:399  return someString */\n      swap2\n      pop\n      pop\n        /* \"contracts/Encoding.sol\":245:407  function encodingPacked() public  pure returns(bytes memory){... */\n      swap1\n      jump\t// out\n        /* \"contracts/Encoding.sol\":1523:1689  function withdraw (address recentwinner)public {... */\n    tag_27:\n        /* \"contracts/Encoding.sol\":1582:1588  bool s */\n      0x00\n        /* \"contracts/Encoding.sol\":1591:1603  recentwinner */\n      dup2\n        /* \"contracts/Encoding.sol\":1591:1608  recentwinner.call */\n      0xffffffffffffffffffffffffffffffffffffffff\n      and\n        /* \"contracts/Encoding.sol\":1615:1636  address(this).balance */\n      selfbalance\n        /* \"contracts/Encoding.sol\":1591:1641  recentwinner.call{value:address(this).balance}(\"\") */\n      mload(0x40)\n      tag_53\n      swap1\n      tag_54\n      jump\t// in\n    tag_53:\n      0x00\n      mload(0x40)\n      dup1\n      dup4\n      sub\n      dup2\n      dup6\n      dup8\n      gas\n      call\n      swap3\n      pop\n      pop\n      pop\n      returndatasize\n      dup1\n      0x00\n      dup2\n      eq\n      tag_57\n      jumpi\n      mload(0x40)\n      swap2\n      pop\n      and(add(returndatasize, 0x3f), not(0x1f))\n      dup3\n      add\n      0x40\n      mstore\n      returndatasize\n      dup3\n      mstore\n      returndatasize\n      0x00\n      0x20\n      dup5\n      add\n      returndatacopy\n      jump(tag_56)\n    tag_57:\n      0x60\n      swap2\n      pop\n    tag_56:\n      pop\n        /* \"contracts/Encoding.sol\":1581:1641  (bool s,)=recentwinner.call{value:address(this).balance}(\"\") */\n      pop\n      swap1\n      pop\n        /* \"contracts/Encoding.sol\":1660:1661  s */\n      dup1\n        /* \"contracts/Encoding.sol\":1652:1681  require(s,\"Transfer Failed \") */\n      tag_58\n      jumpi\n      mload(0x40)\n      0x08c379a000000000000000000000000000000000000000000000000000000000\n      dup2\n      mstore\n      0x04\n      add\n      tag_59\n      swap1\n      tag_60\n      jump\t// in\n    tag_59:\n      mload(0x40)\n      dup1\n      swap2\n      sub\n      swap1\n      revert\n    tag_58:\n        /* \"contracts/Encoding.sol\":1570:1689  {... */\n      pop\n        /* \"contracts/Encoding.sol\":1523:1689  function withdraw (address recentwinner)public {... */\n      pop\n      jump\t// out\n        /* \"contracts/Encoding.sol\":630:771  function multiencode()public pure returns(bytes memory){... */\n    tag_29:\n        /* \"contracts/Encoding.sol\":672:684  bytes memory */\n      0x60\n        /* \"contracts/Encoding.sol\":696:712  bytes memory str */\n      0x00\n        /* \"contracts/Encoding.sol\":714:742  abi.encode('shiva','vuiyvu') */\n      add(0x20, mload(0x40))\n      tag_62\n      swap1\n      tag_63\n      jump\t// in\n    tag_62:\n      mload(0x40)\n      0x20\n      dup2\n      dup4\n      sub\n      sub\n      dup2\n      mstore\n      swap1\n      0x40\n      mstore\n        /* \"contracts/Encoding.sol\":696:742  bytes memory str= abi.encode('shiva','vuiyvu') */\n      swap1\n      pop\n        /* \"contracts/Encoding.sol\":760:763  str */\n      dup1\n        /* \"contracts/Encoding.sol\":753:763  return str */\n      swap2\n      pop\n      pop\n        /* \"contracts/Encoding.sol\":630:771  function multiencode()public pure returns(bytes memory){... */\n      swap1\n      jump\t// out\n        /* \"contracts/Encoding.sol\":1161:1365  function multipackeddec() public pure returns (string memory,string memory){... */\n    tag_32:\n        /* \"contracts/Encoding.sol\":1208:1221  string memory */\n      0x60\n        /* \"contracts/Encoding.sol\":1222:1235  string memory */\n      dup1\n        /* \"contracts/Encoding.sol\":1248:1264  string memory s1 */\n      0x00\n        /* \"contracts/Encoding.sol\":1265:1281  string memory s2 */\n      dup1\n        /* \"contracts/Encoding.sol\":1294:1313  multipackedencode() */\n      tag_65\n        /* \"contracts/Encoding.sol\":1294:1311  multipackedencode */\n      tag_14\n        /* \"contracts/Encoding.sol\":1294:1313  multipackedencode() */\n      jump\t// in\n    tag_65:\n        /* \"contracts/Encoding.sol\":1283:1330  abi.decode(multipackedencode(),(string,string)) */\n      dup1\n      0x20\n      add\n      swap1\n      mload\n      dup2\n      add\n      swap1\n      tag_66\n      swap2\n      swap1\n      tag_67\n      jump\t// in\n    tag_66:\n        /* \"contracts/Encoding.sol\":1247:1330  (string memory s1,string memory s2)=abi.decode(multipackedencode(),(string,string)) */\n      swap2\n      pop\n      swap2\n      pop\n        /* \"contracts/Encoding.sol\":1349:1351  s1 */\n      dup2\n        /* \"contracts/Encoding.sol\":1352:1354  s2 */\n      dup2\n        /* \"contracts/Encoding.sol\":1341:1355  return (s1,s2) */\n      swap4\n      pop\n      swap4\n      pop\n      pop\n      pop\n        /* \"contracts/Encoding.sol\":1161:1365  function multipackeddec() public pure returns (string memory,string memory){... */\n      swap1\n      swap2\n      jump\t// out\n        /* \"contracts/Encoding.sol\":777:970  function multidecode()public  pure returns(string memory,string memory){... */\n    tag_36:\n        /* \"contracts/Encoding.sol\":820:833  string memory */\n      0x60\n        /* \"contracts/Encoding.sol\":834:847  string memory */\n      dup1\n        /* \"contracts/Encoding.sol\":860:876  string memory s1 */\n      0x00\n        /* \"contracts/Encoding.sol\":877:893  string memory s2 */\n      dup1\n        /* \"contracts/Encoding.sol\":906:919  multiencode() */\n      tag_69\n        /* \"contracts/Encoding.sol\":906:917  multiencode */\n      tag_29\n        /* \"contracts/Encoding.sol\":906:919  multiencode() */\n      jump\t// in\n    tag_69:\n        /* \"contracts/Encoding.sol\":895:936  abi.decode(multiencode(),(string,string)) */\n      dup1\n      0x20\n      add\n      swap1\n      mload\n      dup2\n      add\n      swap1\n      tag_70\n      swap2\n      swap1\n      tag_67\n      jump\t// in\n    tag_70:\n        /* \"contracts/Encoding.sol\":859:936  (string memory s1,string memory s2)=abi.decode(multiencode(),(string,string)) */\n      swap2\n      pop\n      swap2\n      pop\n        /* \"contracts/Encoding.sol\":955:957  s1 */\n      dup2\n        /* \"contracts/Encoding.sol\":958:960  s2 */\n      dup2\n        /* \"contracts/Encoding.sol\":947:961  return (s1,s2) */\n      swap4\n      pop\n      swap4\n      pop\n      pop\n      pop\n        /* \"contracts/Encoding.sol\":777:970  function multidecode()public  pure returns(string memory,string memory){... */\n      swap1\n      swap2\n      jump\t// out\n        /* \"contracts/Encoding.sol\":413:565  function decode() public pure returns (string memory){... */\n    tag_39:\n        /* \"contracts/Encoding.sol\":452:465  string memory */\n      0x60\n        /* \"contracts/Encoding.sol\":477:494  string memory str */\n      0x00\n        /* \"contracts/Encoding.sol\":506:522  encodingnumber() */\n      tag_72\n        /* \"contracts/Encoding.sol\":506:520  encodingnumber */\n      tag_42\n        /* \"contracts/Encoding.sol\":506:522  encodingnumber() */\n      jump\t// in\n    tag_72:\n        /* \"contracts/Encoding.sol\":495:533  abi.decode(encodingnumber(), (string)) */\n      dup1\n      0x20\n      add\n      swap1\n      mload\n      dup2\n      add\n      swap1\n      tag_73\n      swap2\n      swap1\n      tag_74\n      jump\t// in\n    tag_73:\n        /* \"contracts/Encoding.sol\":477:533  string memory str=abi.decode(encodingnumber(), (string)) */\n      swap1\n      pop\n        /* \"contracts/Encoding.sol\":552:555  str */\n      dup1\n        /* \"contracts/Encoding.sol\":544:555  return  str */\n      swap2\n      pop\n      pop\n        /* \"contracts/Encoding.sol\":413:565  function decode() public pure returns (string memory){... */\n      swap1\n      jump\t// out\n        /* \"contracts/Encoding.sol\":93:239  function encodingnumber()public pure returns(bytes memory){... */\n    tag_42:\n        /* \"contracts/Encoding.sol\":138:150  bytes memory */\n      0x60\n        /* \"contracts/Encoding.sol\":162:181  bytes memory number */\n      0x00\n        /* \"contracts/Encoding.sol\":182:207  abi.encode(\"some String\") */\n      add(0x20, mload(0x40))\n      tag_76\n      swap1\n      tag_77\n      jump\t// in\n    tag_76:\n      mload(0x40)\n      0x20\n      dup2\n      dup4\n      sub\n      sub\n      dup2\n      mstore\n      swap1\n      0x40\n      mstore\n        /* \"contracts/Encoding.sol\":162:207  bytes memory number=abi.encode(\"some String\") */\n      swap1\n      pop\n        /* \"contracts/Encoding.sol\":225:231  number */\n      dup1\n        /* \"contracts/Encoding.sol\":218:231  return number */\n      swap2\n      pop\n      pop\n        /* \"contracts/Encoding.sol\":93:239  function encodingnumber()public pure returns(bytes memory){... */\n      swap1\n      jump\t// out\n        /* \"#utility.yul\":7:105   */\n    tag_78:\n        /* \"#utility.yul\":58:64   */\n      0x00\n        /* \"#utility.yul\":92:97   */\n      dup2\n        /* \"#utility.yul\":86:98   */\n      mload\n        /* \"#utility.yul\":76:98   */\n      swap1\n      pop\n        /* \"#utility.yul\":7:105   */\n      swap2\n      swap1\n      pop\n      jump\t// out\n        /* \"#utility.yul\":111:279   */\n    tag_79:\n        /* \"#utility.yul\":194:205   */\n      0x00\n        /* \"#utility.yul\":228:234   */\n      dup3\n        /* \"#utility.yul\":223:226   */\n      dup3\n        /* \"#utility.yul\":216:235   */\n      mstore\n        /* \"#utility.yul\":268:272   */\n      0x20\n        /* \"#utility.yul\":263:266   */\n      dup3\n        /* \"#utility.yul\":259:273   */\n      add\n        /* \"#utility.yul\":244:273   */\n      swap1\n      pop\n        /* \"#utility.yul\":111:279   */\n      swap3\n      swap2\n      pop\n      pop\n      jump\t// out\n        /* \"#utility.yul\":285:531   */\n    tag_80:\n        /* \"#utility.yul\":366:367   */\n      0x00\n        /* \"#utility.yul\":376:489   */\n    tag_120:\n        /* \"#utility.yul\":390:396   */\n      dup4\n        /* \"#utility.yul\":387:388   */\n      dup2\n        /* \"#utility.yul\":384:397   */\n      lt\n        /* \"#utility.yul\":376:489   */\n      iszero\n      tag_122\n      jumpi\n        /* \"#utility.yul\":475:476   */\n      dup1\n        /* \"#utility.yul\":470:473   */\n      dup3\n        /* \"#utility.yul\":466:477   */\n      add\n        /* \"#utility.yul\":460:478   */\n      mload\n        /* \"#utility.yul\":456:457   */\n      dup2\n        /* \"#utility.yul\":451:454   */\n      dup5\n        /* \"#utility.yul\":447:458   */\n      add\n        /* \"#utility.yul\":440:479   */\n      mstore\n        /* \"#utility.yul\":412:414   */\n      0x20\n        /* \"#utility.yul\":409:410   */\n      dup2\n        /* \"#utility.yul\":405:415   */\n      add\n        /* \"#utility.yul\":400:415   */\n      swap1\n      pop\n        /* \"#utility.yul\":376:489   */\n      jump(tag_120)\n    tag_122:\n        /* \"#utility.yul\":523:524   */\n      0x00\n        /* \"#utility.yul\":514:520   */\n      dup5\n        /* \"#utility.yul\":509:512   */\n      dup5\n        /* \"#utility.yul\":505:521   */\n      add\n        /* \"#utility.yul\":498:525   */\n      mstore\n        /* \"#utility.yul\":347:531   */\n      pop\n        /* \"#utility.yul\":285:531   */\n      pop\n      pop\n      pop\n      jump\t// out\n        /* \"#utility.yul\":537:639   */\n    tag_81:\n        /* \"#utility.yul\":578:584   */\n      0x00\n        /* \"#utility.yul\":629:631   */\n      0x1f\n        /* \"#utility.yul\":625:632   */\n      not\n        /* \"#utility.yul\":620:622   */\n      0x1f\n        /* \"#utility.yul\":613:618   */\n      dup4\n        /* \"#utility.yul\":609:623   */\n      add\n        /* \"#utility.yul\":605:633   */\n      and\n        /* \"#utility.yul\":595:633   */\n      swap1\n      pop\n        /* \"#utility.yul\":537:639   */\n      swap2\n      swap1\n      pop\n      jump\t// out\n        /* \"#utility.yul\":645:1018   */\n    tag_82:\n        /* \"#utility.yul\":731:734   */\n      0x00\n        /* \"#utility.yul\":759:797   */\n      tag_125\n        /* \"#utility.yul\":791:796   */\n      dup3\n        /* \"#utility.yul\":759:797   */\n      tag_78\n      jump\t// in\n    tag_125:\n        /* \"#utility.yul\":813:883   */\n      tag_126\n        /* \"#utility.yul\":876:882   */\n      dup2\n        /* \"#utility.yul\":871:874   */\n      dup6\n        /* \"#utility.yul\":813:883   */\n      tag_79\n      jump\t// in\n    tag_126:\n        /* \"#utility.yul\":806:883   */\n      swap4\n      pop\n        /* \"#utility.yul\":892:957   */\n      tag_127\n        /* \"#utility.yul\":950:956   */\n      dup2\n        /* \"#utility.yul\":945:948   */\n      dup6\n        /* \"#utility.yul\":938:942   */\n      0x20\n        /* \"#utility.yul\":931:936   */\n      dup7\n        /* \"#utility.yul\":927:943   */\n      add\n        /* \"#utility.yul\":892:957   */\n      tag_80\n      jump\t// in\n    tag_127:\n        /* \"#utility.yul\":982:1011   */\n      tag_128\n        /* \"#utility.yul\":1004:1010   */\n      dup2\n        /* \"#utility.yul\":982:1011   */\n      tag_81\n      jump\t// in\n    tag_128:\n        /* \"#utility.yul\":977:980   */\n      dup5\n        /* \"#utility.yul\":973:1012   */\n      add\n        /* \"#utility.yul\":966:1012   */\n      swap2\n      pop\n        /* \"#utility.yul\":735:1018   */\n      pop\n        /* \"#utility.yul\":645:1018   */\n      swap3\n      swap2\n      pop\n      pop\n      jump\t// out\n        /* \"#utility.yul\":1024:1333   */\n    tag_16:\n        /* \"#utility.yul\":1135:1139   */\n      0x00\n        /* \"#utility.yul\":1173:1175   */\n      0x20\n        /* \"#utility.yul\":1162:1171   */\n      dup3\n        /* \"#utility.yul\":1158:1176   */\n      add\n        /* \"#utility.yul\":1150:1176   */\n      swap1\n      pop\n        /* \"#utility.yul\":1222:1231   */\n      dup2\n        /* \"#utility.yul\":1216:1220   */\n      dup2\n        /* \"#utility.yul\":1212:1232   */\n      sub\n        /* \"#utility.yul\":1208:1209   */\n      0x00\n        /* \"#utility.yul\":1197:1206   */\n      dup4\n        /* \"#utility.yul\":1193:1210   */\n      add\n        /* \"#utility.yul\":1186:1233   */\n      mstore\n        /* \"#utility.yul\":1250:1326   */\n      tag_130\n        /* \"#utility.yul\":1321:1325   */\n      dup2\n        /* \"#utility.yul\":1312:1318   */\n      dup5\n        /* \"#utility.yul\":1250:1326   */\n      tag_82\n      jump\t// in\n    tag_130:\n        /* \"#utility.yul\":1242:1326   */\n      swap1\n      pop\n        /* \"#utility.yul\":1024:1333   */\n      swap3\n      swap2\n      pop\n      pop\n      jump\t// out\n        /* \"#utility.yul\":1339:1438   */\n    tag_83:\n        /* \"#utility.yul\":1391:1397   */\n      0x00\n        /* \"#utility.yul\":1425:1430   */\n      dup2\n        /* \"#utility.yul\":1419:1431   */\n      mload\n        /* \"#utility.yul\":1409:1431   */\n      swap1\n      pop\n        /* \"#utility.yul\":1339:1438   */\n      swap2\n      swap1\n      pop\n      jump\t// out\n        /* \"#utility.yul\":1444:1613   */\n    tag_84:\n        /* \"#utility.yul\":1528:1539   */\n      0x00\n        /* \"#utility.yul\":1562:1568   */\n      dup3\n        /* \"#utility.yul\":1557:1560   */\n      dup3\n        /* \"#utility.yul\":1550:1569   */\n      mstore\n        /* \"#utility.yul\":1602:1606   */\n      0x20\n        /* \"#utility.yul\":1597:1600   */\n      dup3\n        /* \"#utility.yul\":1593:1607   */\n      add\n        /* \"#utility.yul\":1578:1607   */\n      swap1\n      pop\n        /* \"#utility.yul\":1444:1613   */\n      swap3\n      swap2\n      pop\n      pop\n      jump\t// out\n        /* \"#utility.yul\":1619:1996   */\n    tag_85:\n        /* \"#utility.yul\":1707:1710   */\n      0x00\n        /* \"#utility.yul\":1735:1774   */\n      tag_134\n        /* \"#utility.yul\":1768:1773   */\n      dup3\n        /* \"#utility.yul\":1735:1774   */\n      tag_83\n      jump\t// in\n    tag_134:\n        /* \"#utility.yul\":1790:1861   */\n      tag_135\n        /* \"#utility.yul\":1854:1860   */\n      dup2\n        /* \"#utility.yul\":1849:1852   */\n      dup6\n        /* \"#utility.yul\":1790:1861   */\n      tag_84\n      jump\t// in\n    tag_135:\n        /* \"#utility.yul\":1783:1861   */\n      swap4\n      pop\n        /* \"#utility.yul\":1870:1935   */\n      tag_136\n        /* \"#utility.yul\":1928:1934   */\n      dup2\n        /* \"#utility.yul\":1923:1926   */\n      dup6\n        /* \"#utility.yul\":1916:1920   */\n      0x20\n        /* \"#utility.yul\":1909:1914   */\n      dup7\n        /* \"#utility.yul\":1905:1921   */\n      add\n        /* \"#utility.yul\":1870:1935   */\n      tag_80\n      jump\t// in\n    tag_136:\n        /* \"#utility.yul\":1960:1989   */\n      tag_137\n        /* \"#utility.yul\":1982:1988   */\n      dup2\n        /* \"#utility.yul\":1960:1989   */\n      tag_81\n      jump\t// in\n    tag_137:\n        /* \"#utility.yul\":1955:1958   */\n      dup5\n        /* \"#utility.yul\":1951:1990   */\n      add\n        /* \"#utility.yul\":1944:1990   */\n      swap2\n      pop\n        /* \"#utility.yul\":1711:1996   */\n      pop\n        /* \"#utility.yul\":1619:1996   */\n      swap3\n      swap2\n      pop\n      pop\n      jump\t// out\n        /* \"#utility.yul\":2002:2315   */\n    tag_20:\n        /* \"#utility.yul\":2115:2119   */\n      0x00\n        /* \"#utility.yul\":2153:2155   */\n      0x20\n        /* \"#utility.yul\":2142:2151   */\n      dup3\n        /* \"#utility.yul\":2138:2156   */\n      add\n        /* \"#utility.yul\":2130:2156   */\n      swap1\n      pop\n        /* \"#utility.yul\":2202:2211   */\n      dup2\n        /* \"#utility.yul\":2196:2200   */\n      dup2\n        /* \"#utility.yul\":2192:2212   */\n      sub\n        /* \"#utility.yul\":2188:2189   */\n      0x00\n        /* \"#utility.yul\":2177:2186   */\n      dup4\n        /* \"#utility.yul\":2173:2190   */\n      add\n        /* \"#utility.yul\":2166:2213   */\n      mstore\n        /* \"#utility.yul\":2230:2308   */\n      tag_139\n        /* \"#utility.yul\":2303:2307   */\n      dup2\n        /* \"#utility.yul\":2294:2300   */\n      dup5\n        /* \"#utility.yul\":2230:2308   */\n      tag_85\n      jump\t// in\n    tag_139:\n        /* \"#utility.yul\":2222:2308   */\n      swap1\n      pop\n        /* \"#utility.yul\":2002:2315   */\n      swap3\n      swap2\n      pop\n      pop\n      jump\t// out\n        /* \"#utility.yul\":2321:2396   */\n    tag_86:\n        /* \"#utility.yul\":2354:2360   */\n      0x00\n        /* \"#utility.yul\":2387:2389   */\n      0x40\n        /* \"#utility.yul\":2381:2390   */\n      mload\n        /* \"#utility.yul\":2371:2390   */\n      swap1\n      pop\n        /* \"#utility.yul\":2321:2396   */\n      swap1\n      jump\t// out\n        /* \"#utility.yul\":2402:2519   */\n    tag_87:\n        /* \"#utility.yul\":2511:2512   */\n      0x00\n        /* \"#utility.yul\":2508:2509   */\n      dup1\n        /* \"#utility.yul\":2501:2513   */\n      revert\n        /* \"#utility.yul\":2525:2642   */\n    tag_88:\n        /* \"#utility.yul\":2634:2635   */\n      0x00\n        /* \"#utility.yul\":2631:2632   */\n      dup1\n        /* \"#utility.yul\":2624:2636   */\n      revert\n        /* \"#utility.yul\":2648:2774   */\n    tag_89:\n        /* \"#utility.yul\":2685:2692   */\n      0x00\n        /* \"#utility.yul\":2725:2767   */\n      0xffffffffffffffffffffffffffffffffffffffff\n        /* \"#utility.yul\":2718:2723   */\n      dup3\n        /* \"#utility.yul\":2714:2768   */\n      and\n        /* \"#utility.yul\":2703:2768   */\n      swap1\n      pop\n        /* \"#utility.yul\":2648:2774   */\n      swap2\n      swap1\n      pop\n      jump\t// out\n        /* \"#utility.yul\":2780:2876   */\n    tag_90:\n        /* \"#utility.yul\":2817:2824   */\n      0x00\n        /* \"#utility.yul\":2846:2870   */\n      tag_145\n        /* \"#utility.yul\":2864:2869   */\n      dup3\n        /* \"#utility.yul\":2846:2870   */\n      tag_89\n      jump\t// in\n    tag_145:\n        /* \"#utility.yul\":2835:2870   */\n      swap1\n      pop\n        /* \"#utility.yul\":2780:2876   */\n      swap2\n      swap1\n      pop\n      jump\t// out\n        /* \"#utility.yul\":2882:3004   */\n    tag_91:\n        /* \"#utility.yul\":2955:2979   */\n      tag_147\n        /* \"#utility.yul\":2973:2978   */\n      dup2\n        /* \"#utility.yul\":2955:2979   */\n      tag_90\n      jump\t// in\n    tag_147:\n        /* \"#utility.yul\":2948:2953   */\n      dup2\n        /* \"#utility.yul\":2945:2980   */\n      eq\n        /* \"#utility.yul\":2935:2998   */\n      tag_148\n      jumpi\n        /* \"#utility.yul\":2994:2995   */\n      0x00\n        /* \"#utility.yul\":2991:2992   */\n      dup1\n        /* \"#utility.yul\":2984:2996   */\n      revert\n        /* \"#utility.yul\":2935:2998   */\n    tag_148:\n        /* \"#utility.yul\":2882:3004   */\n      pop\n      jump\t// out\n        /* \"#utility.yul\":3010:3149   */\n    tag_92:\n        /* \"#utility.yul\":3056:3061   */\n      0x00\n        /* \"#utility.yul\":3094:3100   */\n      dup2\n        /* \"#utility.yul\":3081:3101   */\n      calldataload\n        /* \"#utility.yul\":3072:3101   */\n      swap1\n      pop\n        /* \"#utility.yul\":3110:3143   */\n      tag_150\n        /* \"#utility.yul\":3137:3142   */\n      dup2\n        /* \"#utility.yul\":3110:3143   */\n      tag_91\n      jump\t// in\n    tag_150:\n        /* \"#utility.yul\":3010:3149   */\n      swap3\n      swap2\n      pop\n      pop\n      jump\t// out\n        /* \"#utility.yul\":3155:3484   */\n    tag_26:\n        /* \"#utility.yul\":3214:3220   */\n      0x00\n        /* \"#utility.yul\":3263:3265   */\n      0x20\n        /* \"#utility.yul\":3251:3260   */\n      dup3\n        /* \"#utility.yul\":3242:3249   */\n      dup5\n        /* \"#utility.yul\":3238:3261   */\n      sub\n        /* \"#utility.yul\":3234:3266   */\n      slt\n        /* \"#utility.yul\":3231:3350   */\n      iszero\n      tag_152\n      jumpi\n        /* \"#utility.yul\":3269:3348   */\n      tag_153\n      tag_87\n      jump\t// in\n    tag_153:\n        /* \"#utility.yul\":3231:3350   */\n    tag_152:\n        /* \"#utility.yul\":3389:3390   */\n      0x00\n        /* \"#utility.yul\":3414:3467   */\n      tag_154\n        /* \"#utility.yul\":3459:3466   */\n      dup5\n        /* \"#utility.yul\":3450:3456   */\n      dup3\n        /* \"#utility.yul\":3439:3448   */\n      dup6\n        /* \"#utility.yul\":3435:3457   */\n      add\n        /* \"#utility.yul\":3414:3467   */\n      tag_92\n      jump\t// in\n    tag_154:\n        /* \"#utility.yul\":3404:3467   */\n      swap2\n      pop\n        /* \"#utility.yul\":3360:3477   */\n      pop\n        /* \"#utility.yul\":3155:3484   */\n      swap3\n      swap2\n      pop\n      pop\n      jump\t// out\n        /* \"#utility.yul\":3490:4004   */\n    tag_34:\n        /* \"#utility.yul\":3651:3655   */\n      0x00\n        /* \"#utility.yul\":3689:3691   */\n      0x40\n        /* \"#utility.yul\":3678:3687   */\n      dup3\n        /* \"#utility.yul\":3674:3692   */\n      add\n        /* \"#utility.yul\":3666:3692   */\n      swap1\n      pop\n        /* \"#utility.yul\":3738:3747   */\n      dup2\n        /* \"#utility.yul\":3732:3736   */\n      dup2\n        /* \"#utility.yul\":3728:3748   */\n      sub\n        /* \"#utility.yul\":3724:3725   */\n      0x00\n        /* \"#utility.yul\":3713:3722   */\n      dup4\n        /* \"#utility.yul\":3709:3726   */\n      add\n        /* \"#utility.yul\":3702:3749   */\n      mstore\n        /* \"#utility.yul\":3766:3844   */\n      tag_156\n        /* \"#utility.yul\":3839:3843   */\n      dup2\n        /* \"#utility.yul\":3830:3836   */\n      dup6\n        /* \"#utility.yul\":3766:3844   */\n      tag_85\n      jump\t// in\n    tag_156:\n        /* \"#utility.yul\":3758:3844   */\n      swap1\n      pop\n        /* \"#utility.yul\":3891:3900   */\n      dup2\n        /* \"#utility.yul\":3885:3889   */\n      dup2\n        /* \"#utility.yul\":3881:3901   */\n      sub\n        /* \"#utility.yul\":3876:3878   */\n      0x20\n        /* \"#utility.yul\":3865:3874   */\n      dup4\n        /* \"#utility.yul\":3861:3879   */\n      add\n        /* \"#utility.yul\":3854:3902   */\n      mstore\n        /* \"#utility.yul\":3919:3997   */\n      tag_157\n        /* \"#utility.yul\":3992:3996   */\n      dup2\n        /* \"#utility.yul\":3983:3989   */\n      dup5\n        /* \"#utility.yul\":3919:3997   */\n      tag_85\n      jump\t// in\n    tag_157:\n        /* \"#utility.yul\":3911:3997   */\n      swap1\n      pop\n        /* \"#utility.yul\":3490:4004   */\n      swap4\n      swap3\n      pop\n      pop\n      pop\n      jump\t// out\n        /* \"#utility.yul\":4010:4158   */\n    tag_93:\n        /* \"#utility.yul\":4112:4123   */\n      0x00\n        /* \"#utility.yul\":4149:4152   */\n      dup2\n        /* \"#utility.yul\":4134:4152   */\n      swap1\n      pop\n        /* \"#utility.yul\":4010:4158   */\n      swap3\n      swap2\n      pop\n      pop\n      jump\t// out\n        /* \"#utility.yul\":4164:4319   */\n    tag_94:\n        /* \"#utility.yul\":4304:4311   */\n      0x7368697661000000000000000000000000000000000000000000000000000000\n        /* \"#utility.yul\":4300:4301   */\n      0x00\n        /* \"#utility.yul\":4292:4298   */\n      dup3\n        /* \"#utility.yul\":4288:4302   */\n      add\n        /* \"#utility.yul\":4281:4312   */\n      mstore\n        /* \"#utility.yul\":4164:4319   */\n      pop\n      jump\t// out\n        /* \"#utility.yul\":4325:4725   */\n    tag_95:\n        /* \"#utility.yul\":4485:4488   */\n      0x00\n        /* \"#utility.yul\":4506:4590   */\n      tag_161\n        /* \"#utility.yul\":4588:4589   */\n      0x05\n        /* \"#utility.yul\":4583:4586   */\n      dup4\n        /* \"#utility.yul\":4506:4590   */\n      tag_93\n      jump\t// in\n    tag_161:\n        /* \"#utility.yul\":4499:4590   */\n      swap2\n      pop\n        /* \"#utility.yul\":4599:4692   */\n      tag_162\n        /* \"#utility.yul\":4688:4691   */\n      dup3\n        /* \"#utility.yul\":4599:4692   */\n      tag_94\n      jump\t// in\n    tag_162:\n        /* \"#utility.yul\":4717:4718   */\n      0x05\n        /* \"#utility.yul\":4712:4715   */\n      dup3\n        /* \"#utility.yul\":4708:4719   */\n      add\n        /* \"#utility.yul\":4701:4719   */\n      swap1\n      pop\n        /* \"#utility.yul\":4325:4725   */\n      swap2\n      swap1\n      pop\n      jump\t// out\n        /* \"#utility.yul\":4731:4887   */\n    tag_96:\n        /* \"#utility.yul\":4871:4879   */\n      0x7675697976750000000000000000000000000000000000000000000000000000\n        /* \"#utility.yul\":4867:4868   */\n      0x00\n        /* \"#utility.yul\":4859:4865   */\n      dup3\n        /* \"#utility.yul\":4855:4869   */\n      add\n        /* \"#utility.yul\":4848:4880   */\n      mstore\n        /* \"#utility.yul\":4731:4887   */\n      pop\n      jump\t// out\n        /* \"#utility.yul\":4893:5293   */\n    tag_97:\n        /* \"#utility.yul\":5053:5056   */\n      0x00\n        /* \"#utility.yul\":5074:5158   */\n      tag_165\n        /* \"#utility.yul\":5156:5157   */\n      0x06\n        /* \"#utility.yul\":5151:5154   */\n      dup4\n        /* \"#utility.yul\":5074:5158   */\n      tag_93\n      jump\t// in\n    tag_165:\n        /* \"#utility.yul\":5067:5158   */\n      swap2\n      pop\n        /* \"#utility.yul\":5167:5260   */\n      tag_166\n        /* \"#utility.yul\":5256:5259   */\n      dup3\n        /* \"#utility.yul\":5167:5260   */\n      tag_96\n      jump\t// in\n    tag_166:\n        /* \"#utility.yul\":5285:5286   */\n      0x06\n        /* \"#utility.yul\":5280:5283   */\n      dup3\n        /* \"#utility.yul\":5276:5287   */\n      add\n        /* \"#utility.yul\":5269:5287   */\n      swap1\n      pop\n        /* \"#utility.yul\":4893:5293   */\n      swap2\n      swap1\n      pop\n      jump\t// out\n        /* \"#utility.yul\":5299:5946   */\n    tag_46:\n        /* \"#utility.yul\":5585:5588   */\n      0x00\n        /* \"#utility.yul\":5607:5755   */\n      tag_168\n        /* \"#utility.yul\":5751:5754   */\n      dup3\n        /* \"#utility.yul\":5607:5755   */\n      tag_95\n      jump\t// in\n    tag_168:\n        /* \"#utility.yul\":5600:5755   */\n      swap2\n      pop\n        /* \"#utility.yul\":5772:5920   */\n      tag_169\n        /* \"#utility.yul\":5916:5919   */\n      dup3\n        /* \"#utility.yul\":5772:5920   */\n      tag_97\n      jump\t// in\n    tag_169:\n        /* \"#utility.yul\":5765:5920   */\n      swap2\n      pop\n        /* \"#utility.yul\":5937:5940   */\n      dup2\n        /* \"#utility.yul\":5930:5940   */\n      swap1\n      pop\n        /* \"#utility.yul\":5299:5946   */\n      swap2\n      swap1\n      pop\n      jump\t// out\n        /* \"#utility.yul\":5952:6113   */\n    tag_98:\n        /* \"#utility.yul\":6092:6105   */\n      0x736f6d6520537472696e67000000000000000000000000000000000000000000\n        /* \"#utility.yul\":6088:6089   */\n      0x00\n        /* \"#utility.yul\":6080:6086   */\n      dup3\n        /* \"#utility.yul\":6076:6090   */\n      add\n        /* \"#utility.yul\":6069:6106   */\n      mstore\n        /* \"#utility.yul\":5952:6113   */\n      pop\n      jump\t// out\n        /* \"#utility.yul\":6119:6521   */\n    tag_99:\n        /* \"#utility.yul\":6279:6282   */\n      0x00\n        /* \"#utility.yul\":6300:6385   */\n      tag_172\n        /* \"#utility.yul\":6382:6384   */\n      0x0b\n        /* \"#utility.yul\":6377:6380   */\n      dup4\n        /* \"#utility.yul\":6300:6385   */\n      tag_93\n      jump\t// in\n    tag_172:\n        /* \"#utility.yul\":6293:6385   */\n      swap2\n      pop\n        /* \"#utility.yul\":6394:6487   */\n      tag_173\n        /* \"#utility.yul\":6483:6486   */\n      dup3\n        /* \"#utility.yul\":6394:6487   */\n      tag_98\n      jump\t// in\n    tag_173:\n        /* \"#utility.yul\":6512:6514   */\n      0x0b\n        /* \"#utility.yul\":6507:6510   */\n      dup3\n        /* \"#utility.yul\":6503:6515   */\n      add\n        /* \"#utility.yul\":6496:6515   */\n      swap1\n      pop\n        /* \"#utility.yul\":6119:6521   */\n      swap2\n      swap1\n      pop\n      jump\t// out\n        /* \"#utility.yul\":6527:6908   */\n    tag_51:\n        /* \"#utility.yul\":6712:6715   */\n      0x00\n        /* \"#utility.yul\":6734:6882   */\n      tag_175\n        /* \"#utility.yul\":6878:6881   */\n      dup3\n        /* \"#utility.yul\":6734:6882   */\n      tag_99\n      jump\t// in\n    tag_175:\n        /* \"#utility.yul\":6727:6882   */\n      swap2\n      pop\n        /* \"#utility.yul\":6899:6902   */\n      dup2\n        /* \"#utility.yul\":6892:6902   */\n      swap1\n      pop\n        /* \"#utility.yul\":6527:6908   */\n      swap2\n      swap1\n      pop\n      jump\t// out\n        /* \"#utility.yul\":6914:7061   */\n    tag_100:\n        /* \"#utility.yul\":7015:7026   */\n      0x00\n        /* \"#utility.yul\":7052:7055   */\n      dup2\n        /* \"#utility.yul\":7037:7055   */\n      swap1\n      pop\n        /* \"#utility.yul\":6914:7061   */\n      swap3\n      swap2\n      pop\n      pop\n      jump\t// out\n        /* \"#utility.yul\":7067:7181   */\n    tag_101:\n      pop\n      jump\t// out\n        /* \"#utility.yul\":7187:7585   */\n    tag_102:\n        /* \"#utility.yul\":7346:7349   */\n      0x00\n        /* \"#utility.yul\":7367:7450   */\n      tag_179\n        /* \"#utility.yul\":7448:7449   */\n      0x00\n        /* \"#utility.yul\":7443:7446   */\n      dup4\n        /* \"#utility.yul\":7367:7450   */\n      tag_100\n      jump\t// in\n    tag_179:\n        /* \"#utility.yul\":7360:7450   */\n      swap2\n      pop\n        /* \"#utility.yul\":7459:7552   */\n      tag_180\n        /* \"#utility.yul\":7548:7551   */\n      dup3\n        /* \"#utility.yul\":7459:7552   */\n      tag_101\n      jump\t// in\n    tag_180:\n        /* \"#utility.yul\":7577:7578   */\n      0x00\n        /* \"#utility.yul\":7572:7575   */\n      dup3\n        /* \"#utility.yul\":7568:7579   */\n      add\n        /* \"#utility.yul\":7561:7579   */\n      swap1\n      pop\n        /* \"#utility.yul\":7187:7585   */\n      swap2\n      swap1\n      pop\n      jump\t// out\n        /* \"#utility.yul\":7591:7970   */\n    tag_54:\n        /* \"#utility.yul\":7775:7778   */\n      0x00\n        /* \"#utility.yul\":7797:7944   */\n      tag_182\n        /* \"#utility.yul\":7940:7943   */\n      dup3\n        /* \"#utility.yul\":7797:7944   */\n      tag_102\n      jump\t// in\n    tag_182:\n        /* \"#utility.yul\":7790:7944   */\n      swap2\n      pop\n        /* \"#utility.yul\":7961:7964   */\n      dup2\n        /* \"#utility.yul\":7954:7964   */\n      swap1\n      pop\n        /* \"#utility.yul\":7591:7970   */\n      swap2\n      swap1\n      pop\n      jump\t// out\n        /* \"#utility.yul\":7976:8142   */\n    tag_103:\n        /* \"#utility.yul\":8116:8134   */\n      0x5472616e73666572204661696c65642000000000000000000000000000000000\n        /* \"#utility.yul\":8112:8113   */\n      0x00\n        /* \"#utility.yul\":8104:8110   */\n      dup3\n        /* \"#utility.yul\":8100:8114   */\n      add\n        /* \"#utility.yul\":8093:8135   */\n      mstore\n        /* \"#utility.yul\":7976:8142   */\n      pop\n      jump\t// out\n        /* \"#utility.yul\":8148:8514   */\n    tag_104:\n        /* \"#utility.yul\":8290:8293   */\n      0x00\n        /* \"#utility.yul\":8311:8378   */\n      tag_185\n        /* \"#utility.yul\":8375:8377   */\n      0x10\n        /* \"#utility.yul\":8370:8373   */\n      dup4\n        /* \"#utility.yul\":8311:8378   */\n      tag_84\n      jump\t// in\n    tag_185:\n        /* \"#utility.yul\":8304:8378   */\n      swap2\n      pop\n        /* \"#utility.yul\":8387:8480   */\n      tag_186\n        /* \"#utility.yul\":8476:8479   */\n      dup3\n        /* \"#utility.yul\":8387:8480   */\n      tag_103\n      jump\t// in\n    tag_186:\n        /* \"#utility.yul\":8505:8507   */\n      0x20\n        /* \"#utility.yul\":8500:8503   */\n      dup3\n        /* \"#utility.yul\":8496:8508   */\n      add\n        /* \"#utility.yul\":8489:8508   */\n      swap1\n      pop\n        /* \"#utility.yul\":8148:8514   */\n      swap2\n      swap1\n      pop\n      jump\t// out\n        /* \"#utility.yul\":8520:8939   */\n    tag_60:\n        /* \"#utility.yul\":8686:8690   */\n      0x00\n        /* \"#utility.yul\":8724:8726   */\n      0x20\n        /* \"#utility.yul\":8713:8722   */\n      dup3\n        /* \"#utility.yul\":8709:8727   */\n      add\n        /* \"#utility.yul\":8701:8727   */\n      swap1\n      pop\n        /* \"#utility.yul\":8773:8782   */\n      dup2\n        /* \"#utility.yul\":8767:8771   */\n      dup2\n        /* \"#utility.yul\":8763:8783   */\n      sub\n        /* \"#utility.yul\":8759:8760   */\n      0x00\n        /* \"#utility.yul\":8748:8757   */\n      dup4\n        /* \"#utility.yul\":8744:8761   */\n      add\n        /* \"#utility.yul\":8737:8784   */\n      mstore\n        /* \"#utility.yul\":8801:8932   */\n      tag_188\n        /* \"#utility.yul\":8927:8931   */\n      dup2\n        /* \"#utility.yul\":8801:8932   */\n      tag_104\n      jump\t// in\n    tag_188:\n        /* \"#utility.yul\":8793:8932   */\n      swap1\n      pop\n        /* \"#utility.yul\":8520:8939   */\n      swap2\n      swap1\n      pop\n      jump\t// out\n        /* \"#utility.yul\":8945:9310   */\n    tag_105:\n        /* \"#utility.yul\":9087:9090   */\n      0x00\n        /* \"#utility.yul\":9108:9174   */\n      tag_190\n        /* \"#utility.yul\":9172:9173   */\n      0x05\n        /* \"#utility.yul\":9167:9170   */\n      dup4\n        /* \"#utility.yul\":9108:9174   */\n      tag_84\n      jump\t// in\n    tag_190:\n        /* \"#utility.yul\":9101:9174   */\n      swap2\n      pop\n        /* \"#utility.yul\":9183:9276   */\n      tag_191\n        /* \"#utility.yul\":9272:9275   */\n      dup3\n        /* \"#utility.yul\":9183:9276   */\n      tag_94\n      jump\t// in\n    tag_191:\n        /* \"#utility.yul\":9301:9303   */\n      0x20\n        /* \"#utility.yul\":9296:9299   */\n      dup3\n        /* \"#utility.yul\":9292:9304   */\n      add\n        /* \"#utility.yul\":9285:9304   */\n      swap1\n      pop\n        /* \"#utility.yul\":8945:9310   */\n      swap2\n      swap1\n      pop\n      jump\t// out\n        /* \"#utility.yul\":9316:9681   */\n    tag_106:\n        /* \"#utility.yul\":9458:9461   */\n      0x00\n        /* \"#utility.yul\":9479:9545   */\n      tag_193\n        /* \"#utility.yul\":9543:9544   */\n      0x06\n        /* \"#utility.yul\":9538:9541   */\n      dup4\n        /* \"#utility.yul\":9479:9545   */\n      tag_84\n      jump\t// in\n    tag_193:\n        /* \"#utility.yul\":9472:9545   */\n      swap2\n      pop\n        /* \"#utility.yul\":9554:9647   */\n      tag_194\n        /* \"#utility.yul\":9643:9646   */\n      dup3\n        /* \"#utility.yul\":9554:9647   */\n      tag_96\n      jump\t// in\n    tag_194:\n        /* \"#utility.yul\":9672:9674   */\n      0x20\n        /* \"#utility.yul\":9667:9670   */\n      dup3\n        /* \"#utility.yul\":9663:9675   */\n      add\n        /* \"#utility.yul\":9656:9675   */\n      swap1\n      pop\n        /* \"#utility.yul\":9316:9681   */\n      swap2\n      swap1\n      pop\n      jump\t// out\n        /* \"#utility.yul\":9687:10413   */\n    tag_63:\n        /* \"#utility.yul\":9954:9958   */\n      0x00\n        /* \"#utility.yul\":9992:9994   */\n      0x40\n        /* \"#utility.yul\":9981:9990   */\n      dup3\n        /* \"#utility.yul\":9977:9995   */\n      add\n        /* \"#utility.yul\":9969:9995   */\n      swap1\n      pop\n        /* \"#utility.yul\":10041:10050   */\n      dup2\n        /* \"#utility.yul\":10035:10039   */\n      dup2\n        /* \"#utility.yul\":10031:10051   */\n      sub\n        /* \"#utility.yul\":10027:10028   */\n      0x00\n        /* \"#utility.yul\":10016:10025   */\n      dup4\n        /* \"#utility.yul\":10012:10029   */\n      add\n        /* \"#utility.yul\":10005:10052   */\n      mstore\n        /* \"#utility.yul\":10069:10200   */\n      tag_196\n        /* \"#utility.yul\":10195:10199   */\n      dup2\n        /* \"#utility.yul\":10069:10200   */\n      tag_105\n      jump\t// in\n    tag_196:\n        /* \"#utility.yul\":10061:10200   */\n      swap1\n      pop\n        /* \"#utility.yul\":10247:10256   */\n      dup2\n        /* \"#utility.yul\":10241:10245   */\n      dup2\n        /* \"#utility.yul\":10237:10257   */\n      sub\n        /* \"#utility.yul\":10232:10234   */\n      0x20\n        /* \"#utility.yul\":10221:10230   */\n      dup4\n        /* \"#utility.yul\":10217:10235   */\n      add\n        /* \"#utility.yul\":10210:10258   */\n      mstore\n        /* \"#utility.yul\":10275:10406   */\n      tag_197\n        /* \"#utility.yul\":10401:10405   */\n      dup2\n        /* \"#utility.yul\":10275:10406   */\n      tag_106\n      jump\t// in\n    tag_197:\n        /* \"#utility.yul\":10267:10406   */\n      swap1\n      pop\n        /* \"#utility.yul\":9687:10413   */\n      swap2\n      swap1\n      pop\n      jump\t// out\n        /* \"#utility.yul\":10419:10536   */\n    tag_107:\n        /* \"#utility.yul\":10528:10529   */\n      0x00\n        /* \"#utility.yul\":10525:10526   */\n      dup1\n        /* \"#utility.yul\":10518:10530   */\n      revert\n        /* \"#utility.yul\":10542:10659   */\n    tag_108:\n        /* \"#utility.yul\":10651:10652   */\n      0x00\n        /* \"#utility.yul\":10648:10649   */\n      dup1\n        /* \"#utility.yul\":10641:10653   */\n      revert\n        /* \"#utility.yul\":10665:10845   */\n    tag_109:\n        /* \"#utility.yul\":10713:10790   */\n      0x4e487b7100000000000000000000000000000000000000000000000000000000\n        /* \"#utility.yul\":10710:10711   */\n      0x00\n        /* \"#utility.yul\":10703:10791   */\n      mstore\n        /* \"#utility.yul\":10810:10814   */\n      0x41\n        /* \"#utility.yul\":10807:10808   */\n      0x04\n        /* \"#utility.yul\":10800:10815   */\n      mstore\n        /* \"#utility.yul\":10834:10838   */\n      0x24\n        /* \"#utility.yul\":10831:10832   */\n      0x00\n        /* \"#utility.yul\":10824:10839   */\n      revert\n        /* \"#utility.yul\":10851:11132   */\n    tag_110:\n        /* \"#utility.yul\":10934:10961   */\n      tag_202\n        /* \"#utility.yul\":10956:10960   */\n      dup3\n        /* \"#utility.yul\":10934:10961   */\n      tag_81\n      jump\t// in\n    tag_202:\n        /* \"#utility.yul\":10926:10932   */\n      dup2\n        /* \"#utility.yul\":10922:10962   */\n      add\n        /* \"#utility.yul\":11064:11070   */\n      dup2\n        /* \"#utility.yul\":11052:11062   */\n      dup2\n        /* \"#utility.yul\":11049:11071   */\n      lt\n        /* \"#utility.yul\":11028:11046   */\n      0xffffffffffffffff\n        /* \"#utility.yul\":11016:11026   */\n      dup3\n        /* \"#utility.yul\":11013:11047   */\n      gt\n        /* \"#utility.yul\":11010:11072   */\n      or\n        /* \"#utility.yul\":11007:11095   */\n      iszero\n      tag_203\n      jumpi\n        /* \"#utility.yul\":11075:11093   */\n      tag_204\n      tag_109\n      jump\t// in\n    tag_204:\n        /* \"#utility.yul\":11007:11095   */\n    tag_203:\n        /* \"#utility.yul\":11115:11125   */\n      dup1\n        /* \"#utility.yul\":11111:11113   */\n      0x40\n        /* \"#utility.yul\":11104:11126   */\n      mstore\n        /* \"#utility.yul\":10894:11132   */\n      pop\n        /* \"#utility.yul\":10851:11132   */\n      pop\n      pop\n      jump\t// out\n        /* \"#utility.yul\":11138:11267   */\n    tag_111:\n        /* \"#utility.yul\":11172:11178   */\n      0x00\n        /* \"#utility.yul\":11199:11219   */\n      tag_206\n      tag_86\n      jump\t// in\n    tag_206:\n        /* \"#utility.yul\":11189:11219   */\n      swap1\n      pop\n        /* \"#utility.yul\":11228:11261   */\n      tag_207\n        /* \"#utility.yul\":11256:11260   */\n      dup3\n        /* \"#utility.yul\":11248:11254   */\n      dup3\n        /* \"#utility.yul\":11228:11261   */\n      tag_110\n      jump\t// in\n    tag_207:\n        /* \"#utility.yul\":11138:11267   */\n      swap2\n      swap1\n      pop\n      jump\t// out\n        /* \"#utility.yul\":11273:11581   */\n    tag_112:\n        /* \"#utility.yul\":11335:11339   */\n      0x00\n        /* \"#utility.yul\":11425:11443   */\n      0xffffffffffffffff\n        /* \"#utility.yul\":11417:11423   */\n      dup3\n        /* \"#utility.yul\":11414:11444   */\n      gt\n        /* \"#utility.yul\":11411:11467   */\n      iszero\n      tag_209\n      jumpi\n        /* \"#utility.yul\":11447:11465   */\n      tag_210\n      tag_109\n      jump\t// in\n    tag_210:\n        /* \"#utility.yul\":11411:11467   */\n    tag_209:\n        /* \"#utility.yul\":11485:11514   */\n      tag_211\n        /* \"#utility.yul\":11507:11513   */\n      dup3\n        /* \"#utility.yul\":11485:11514   */\n      tag_81\n      jump\t// in\n    tag_211:\n        /* \"#utility.yul\":11477:11514   */\n      swap1\n      pop\n        /* \"#utility.yul\":11569:11573   */\n      0x20\n        /* \"#utility.yul\":11563:11567   */\n      dup2\n        /* \"#utility.yul\":11559:11574   */\n      add\n        /* \"#utility.yul\":11551:11574   */\n      swap1\n      pop\n        /* \"#utility.yul\":11273:11581   */\n      swap2\n      swap1\n      pop\n      jump\t// out\n        /* \"#utility.yul\":11587:12021   */\n    tag_113:\n        /* \"#utility.yul\":11676:11681   */\n      0x00\n        /* \"#utility.yul\":11701:11767   */\n      tag_213\n        /* \"#utility.yul\":11717:11766   */\n      tag_214\n        /* \"#utility.yul\":11759:11765   */\n      dup5\n        /* \"#utility.yul\":11717:11766   */\n      tag_112\n      jump\t// in\n    tag_214:\n        /* \"#utility.yul\":11701:11767   */\n      tag_111\n      jump\t// in\n    tag_213:\n        /* \"#utility.yul\":11692:11767   */\n      swap1\n      pop\n        /* \"#utility.yul\":11790:11796   */\n      dup3\n        /* \"#utility.yul\":11783:11788   */\n      dup2\n        /* \"#utility.yul\":11776:11797   */\n      mstore\n        /* \"#utility.yul\":11828:11832   */\n      0x20\n        /* \"#utility.yul\":11821:11826   */\n      dup2\n        /* \"#utility.yul\":11817:11833   */\n      add\n        /* \"#utility.yul\":11866:11869   */\n      dup5\n        /* \"#utility.yul\":11857:11863   */\n      dup5\n        /* \"#utility.yul\":11852:11855   */\n      dup5\n        /* \"#utility.yul\":11848:11864   */\n      add\n        /* \"#utility.yul\":11845:11870   */\n      gt\n        /* \"#utility.yul\":11842:11954   */\n      iszero\n      tag_215\n      jumpi\n        /* \"#utility.yul\":11873:11952   */\n      tag_216\n      tag_108\n      jump\t// in\n    tag_216:\n        /* \"#utility.yul\":11842:11954   */\n    tag_215:\n        /* \"#utility.yul\":11963:12015   */\n      tag_217\n        /* \"#utility.yul\":12008:12014   */\n      dup5\n        /* \"#utility.yul\":12003:12006   */\n      dup3\n        /* \"#utility.yul\":11998:12001   */\n      dup6\n        /* \"#utility.yul\":11963:12015   */\n      tag_80\n      jump\t// in\n    tag_217:\n        /* \"#utility.yul\":11682:12021   */\n      pop\n        /* \"#utility.yul\":11587:12021   */\n      swap4\n      swap3\n      pop\n      pop\n      pop\n      jump\t// out\n        /* \"#utility.yul\":12041:12396   */\n    tag_114:\n        /* \"#utility.yul\":12108:12113   */\n      0x00\n        /* \"#utility.yul\":12157:12160   */\n      dup3\n        /* \"#utility.yul\":12150:12154   */\n      0x1f\n        /* \"#utility.yul\":12142:12148   */\n      dup4\n        /* \"#utility.yul\":12138:12155   */\n      add\n        /* \"#utility.yul\":12134:12161   */\n      slt\n        /* \"#utility.yul\":12124:12246   */\n      tag_219\n      jumpi\n        /* \"#utility.yul\":12165:12244   */\n      tag_220\n      tag_107\n      jump\t// in\n    tag_220:\n        /* \"#utility.yul\":12124:12246   */\n    tag_219:\n        /* \"#utility.yul\":12275:12281   */\n      dup2\n        /* \"#utility.yul\":12269:12282   */\n      mload\n        /* \"#utility.yul\":12300:12390   */\n      tag_221\n        /* \"#utility.yul\":12386:12389   */\n      dup5\n        /* \"#utility.yul\":12378:12384   */\n      dup3\n        /* \"#utility.yul\":12371:12375   */\n      0x20\n        /* \"#utility.yul\":12363:12369   */\n      dup7\n        /* \"#utility.yul\":12359:12376   */\n      add\n        /* \"#utility.yul\":12300:12390   */\n      tag_113\n      jump\t// in\n    tag_221:\n        /* \"#utility.yul\":12291:12390   */\n      swap2\n      pop\n        /* \"#utility.yul\":12114:12396   */\n      pop\n        /* \"#utility.yul\":12041:12396   */\n      swap3\n      swap2\n      pop\n      pop\n      jump\t// out\n        /* \"#utility.yul\":12402:13255   */\n    tag_67:\n        /* \"#utility.yul\":12501:12507   */\n      0x00\n        /* \"#utility.yul\":12509:12515   */\n      dup1\n        /* \"#utility.yul\":12558:12560   */\n      0x40\n        /* \"#utility.yul\":12546:12555   */\n      dup4\n        /* \"#utility.yul\":12537:12544   */\n      dup6\n        /* \"#utility.yul\":12533:12556   */\n      sub\n        /* \"#utility.yul\":12529:12561   */\n      slt\n        /* \"#utility.yul\":12526:12645   */\n      iszero\n      tag_223\n      jumpi\n        /* \"#utility.yul\":12564:12643   */\n      tag_224\n      tag_87\n      jump\t// in\n    tag_224:\n        /* \"#utility.yul\":12526:12645   */\n    tag_223:\n        /* \"#utility.yul\":12705:12706   */\n      0x00\n        /* \"#utility.yul\":12694:12703   */\n      dup4\n        /* \"#utility.yul\":12690:12707   */\n      add\n        /* \"#utility.yul\":12684:12708   */\n      mload\n        /* \"#utility.yul\":12735:12753   */\n      0xffffffffffffffff\n        /* \"#utility.yul\":12727:12733   */\n      dup2\n        /* \"#utility.yul\":12724:12754   */\n      gt\n        /* \"#utility.yul\":12721:12838   */\n      iszero\n      tag_225\n      jumpi\n        /* \"#utility.yul\":12757:12836   */\n      tag_226\n      tag_88\n      jump\t// in\n    tag_226:\n        /* \"#utility.yul\":12721:12838   */\n    tag_225:\n        /* \"#utility.yul\":12862:12936   */\n      tag_227\n        /* \"#utility.yul\":12928:12935   */\n      dup6\n        /* \"#utility.yul\":12919:12925   */\n      dup3\n        /* \"#utility.yul\":12908:12917   */\n      dup7\n        /* \"#utility.yul\":12904:12926   */\n      add\n        /* \"#utility.yul\":12862:12936   */\n      tag_114\n      jump\t// in\n    tag_227:\n        /* \"#utility.yul\":12852:12936   */\n      swap3\n      pop\n        /* \"#utility.yul\":12655:12946   */\n      pop\n        /* \"#utility.yul\":13006:13008   */\n      0x20\n        /* \"#utility.yul\":12995:13004   */\n      dup4\n        /* \"#utility.yul\":12991:13009   */\n      add\n        /* \"#utility.yul\":12985:13010   */\n      mload\n        /* \"#utility.yul\":13037:13055   */\n      0xffffffffffffffff\n        /* \"#utility.yul\":13029:13035   */\n      dup2\n        /* \"#utility.yul\":13026:13056   */\n      gt\n        /* \"#utility.yul\":13023:13140   */\n      iszero\n      tag_228\n      jumpi\n        /* \"#utility.yul\":13059:13138   */\n      tag_229\n      tag_88\n      jump\t// in\n    tag_229:\n        /* \"#utility.yul\":13023:13140   */\n    tag_228:\n        /* \"#utility.yul\":13164:13238   */\n      tag_230\n        /* \"#utility.yul\":13230:13237   */\n      dup6\n        /* \"#utility.yul\":13221:13227   */\n      dup3\n        /* \"#utility.yul\":13210:13219   */\n      dup7\n        /* \"#utility.yul\":13206:13228   */\n      add\n        /* \"#utility.yul\":13164:13238   */\n      tag_114\n      jump\t// in\n    tag_230:\n        /* \"#utility.yul\":13154:13238   */\n      swap2\n      pop\n        /* \"#utility.yul\":12956:13248   */\n      pop\n        /* \"#utility.yul\":12402:13255   */\n      swap3\n      pop\n      swap3\n      swap1\n      pop\n      jump\t// out\n        /* \"#utility.yul\":13261:13785   */\n    tag_74:\n        /* \"#utility.yul\":13341:13347   */\n      0x00\n        /* \"#utility.yul\":13390:13392   */\n      0x20\n        /* \"#utility.yul\":13378:13387   */\n      dup3\n        /* \"#utility.yul\":13369:13376   */\n      dup5\n        /* \"#utility.yul\":13365:13388   */\n      sub\n        /* \"#utility.yul\":13361:13393   */\n      slt\n        /* \"#utility.yul\":13358:13477   */\n      iszero\n      tag_232\n      jumpi\n        /* \"#utility.yul\":13396:13475   */\n      tag_233\n      tag_87\n      jump\t// in\n    tag_233:\n        /* \"#utility.yul\":13358:13477   */\n    tag_232:\n        /* \"#utility.yul\":13537:13538   */\n      0x00\n        /* \"#utility.yul\":13526:13535   */\n      dup3\n        /* \"#utility.yul\":13522:13539   */\n      add\n        /* \"#utility.yul\":13516:13540   */\n      mload\n        /* \"#utility.yul\":13567:13585   */\n      0xffffffffffffffff\n        /* \"#utility.yul\":13559:13565   */\n      dup2\n        /* \"#utility.yul\":13556:13586   */\n      gt\n        /* \"#utility.yul\":13553:13670   */\n      iszero\n      tag_234\n      jumpi\n        /* \"#utility.yul\":13589:13668   */\n      tag_235\n      tag_88\n      jump\t// in\n    tag_235:\n        /* \"#utility.yul\":13553:13670   */\n    tag_234:\n        /* \"#utility.yul\":13694:13768   */\n      tag_236\n        /* \"#utility.yul\":13760:13767   */\n      dup5\n        /* \"#utility.yul\":13751:13757   */\n      dup3\n        /* \"#utility.yul\":13740:13749   */\n      dup6\n        /* \"#utility.yul\":13736:13758   */\n      add\n        /* \"#utility.yul\":13694:13768   */\n      tag_114\n      jump\t// in\n    tag_236:\n        /* \"#utility.yul\":13684:13768   */\n      swap2\n      pop\n        /* \"#utility.yul\":13487:13778   */\n      pop\n        /* \"#utility.yul\":13261:13785   */\n      swap3\n      swap2\n      pop\n      pop\n      jump\t// out\n        /* \"#utility.yul\":13791:14157   */\n    tag_115:\n        /* \"#utility.yul\":13933:13936   */\n      0x00\n        /* \"#utility.yul\":13954:14021   */\n      tag_238\n        /* \"#utility.yul\":14018:14020   */\n      0x0b\n        /* \"#utility.yul\":14013:14016   */\n      dup4\n        /* \"#utility.yul\":13954:14021   */\n      tag_84\n      jump\t// in\n    tag_238:\n        /* \"#utility.yul\":13947:14021   */\n      swap2\n      pop\n        /* \"#utility.yul\":14030:14123   */\n      tag_239\n        /* \"#utility.yul\":14119:14122   */\n      dup3\n        /* \"#utility.yul\":14030:14123   */\n      tag_98\n      jump\t// in\n    tag_239:\n        /* \"#utility.yul\":14148:14150   */\n      0x20\n        /* \"#utility.yul\":14143:14146   */\n      dup3\n        /* \"#utility.yul\":14139:14151   */\n      add\n        /* \"#utility.yul\":14132:14151   */\n      swap1\n      pop\n        /* \"#utility.yul\":13791:14157   */\n      swap2\n      swap1\n      pop\n      jump\t// out\n        /* \"#utility.yul\":14163:14582   */\n    tag_77:\n        /* \"#utility.yul\":14329:14333   */\n      0x00\n        /* \"#utility.yul\":14367:14369   */\n      0x20\n        /* \"#utility.yul\":14356:14365   */\n      dup3\n        /* \"#utility.yul\":14352:14370   */\n      add\n        /* \"#utility.yul\":14344:14370   */\n      swap1\n      pop\n        /* \"#utility.yul\":14416:14425   */\n      dup2\n        /* \"#utility.yul\":14410:14414   */\n      dup2\n        /* \"#utility.yul\":14406:14426   */\n      sub\n        /* \"#utility.yul\":14402:14403   */\n      0x00\n        /* \"#utility.yul\":14391:14400   */\n      dup4\n        /* \"#utility.yul\":14387:14404   */\n      add\n        /* \"#utility.yul\":14380:14427   */\n      mstore\n        /* \"#utility.yul\":14444:14575   */\n      tag_241\n        /* \"#utility.yul\":14570:14574   */\n      dup2\n        /* \"#utility.yul\":14444:14575   */\n      tag_115\n      jump\t// in\n    tag_241:\n        /* \"#utility.yul\":14436:14575   */\n      swap1\n      pop\n        /* \"#utility.yul\":14163:14582   */\n      swap2\n      swap1\n      pop\n      jump\t// out\n\n    auxdata: 0xa264697066735822122030c1f3caafd5630a747c830d25ee861c6d115fdbbb091fef018659e62fa3070164736f6c63430008180033\n}\n",
				"bytecode": {
					"linkReferences": {},
					"object": "608060405234801561000f575f80fd5b50610a038061001d5f395ff3fe608060405234801561000f575f80fd5b5060043610610091575f3560e01c80638707c27e116100645780638707c27e1461010b5780639c7325e914610129578063a32153db14610148578063c0f8940c14610167578063d2145af81461018557610091565b806301de1c64146100955780630f50eddb146100b35780632e0074ca146100d157806351cff8d9146100ef575b5f80fd5b61009d6101a3565b6040516100aa919061041c565b60405180910390f35b6100bb6101cd565b6040516100c8919061048e565b60405180910390f35b6100d96101e1565b6040516100e6919061041c565b60405180910390f35b61010960048036038101906101049190610519565b61020b565b005b6101136102b7565b604051610120919061041c565b60405180910390f35b6101316102e1565b60405161013f929190610544565b60405180910390f35b610150610311565b60405161015e929190610544565b60405180910390f35b61016f610341565b60405161017c919061048e565b60405180910390f35b61018d610368565b60405161019a919061041c565b60405180910390f35b60605f6040516020016101b590610617565b60405160208183030381529060405290508091505090565b60605f6101d86101a3565b90508091505090565b60605f6040516020016101f390610680565b60405160208183030381529060405290508091505090565b5f8173ffffffffffffffffffffffffffffffffffffffff1647604051610230906106c1565b5f6040518083038185875af1925050503d805f811461026a576040519150601f19603f3d011682016040523d82523d5f602084013e61026f565b606091505b50509050806102b3576040517f08c379a00000000000000000000000000000000000000000000000000000000081526004016102aa9061071f565b60405180910390fd5b5050565b60605f6040516020016102c990610781565b60405160208183030381529060405290508091505090565b6060805f806102ee6101a3565b80602001905181019061030191906108d0565b9150915081819350935050509091565b6060805f8061031e6102b7565b80602001905181019061033191906108d0565b9150915081819350935050509091565b60605f61034c610368565b80602001905181019061035f9190610946565b90508091505090565b60605f60405160200161037a906109af565b60405160208183030381529060405290508091505090565b5f81519050919050565b5f82825260208201905092915050565b5f5b838110156103c95780820151818401526020810190506103ae565b5f8484015250505050565b5f601f19601f8301169050919050565b5f6103ee82610392565b6103f8818561039c565b93506104088185602086016103ac565b610411816103d4565b840191505092915050565b5f6020820190508181035f83015261043481846103e4565b905092915050565b5f81519050919050565b5f82825260208201905092915050565b5f6104608261043c565b61046a8185610446565b935061047a8185602086016103ac565b610483816103d4565b840191505092915050565b5f6020820190508181035f8301526104a68184610456565b905092915050565b5f604051905090565b5f80fd5b5f80fd5b5f73ffffffffffffffffffffffffffffffffffffffff82169050919050565b5f6104e8826104bf565b9050919050565b6104f8816104de565b8114610502575f80fd5b50565b5f81359050610513816104ef565b92915050565b5f6020828403121561052e5761052d6104b7565b5b5f61053b84828501610505565b91505092915050565b5f6040820190508181035f83015261055c8185610456565b905081810360208301526105708184610456565b90509392505050565b5f81905092915050565b7f73686976610000000000000000000000000000000000000000000000000000005f82015250565b5f6105b7600583610579565b91506105c282610583565b600582019050919050565b7f76756979767500000000000000000000000000000000000000000000000000005f82015250565b5f610601600683610579565b915061060c826105cd565b600682019050919050565b5f610621826105ab565b915061062c826105f5565b9150819050919050565b7f736f6d6520537472696e670000000000000000000000000000000000000000005f82015250565b5f61066a600b83610579565b915061067582610636565b600b82019050919050565b5f61068a8261065e565b9150819050919050565b5f81905092915050565b50565b5f6106ac5f83610694565b91506106b78261069e565b5f82019050919050565b5f6106cb826106a1565b9150819050919050565b7f5472616e73666572204661696c656420000000000000000000000000000000005f82015250565b5f610709601083610446565b9150610714826106d5565b602082019050919050565b5f6020820190508181035f830152610736816106fd565b9050919050565b5f610749600583610446565b915061075482610583565b602082019050919050565b5f61076b600683610446565b9150610776826105cd565b602082019050919050565b5f6040820190508181035f8301526107988161073d565b905081810360208301526107ab8161075f565b9050919050565b5f80fd5b5f80fd5b7f4e487b71000000000000000000000000000000000000000000000000000000005f52604160045260245ffd5b6107f0826103d4565b810181811067ffffffffffffffff8211171561080f5761080e6107ba565b5b80604052505050565b5f6108216104ae565b905061082d82826107e7565b919050565b5f67ffffffffffffffff82111561084c5761084b6107ba565b5b610855826103d4565b9050602081019050919050565b5f61087461086f84610832565b610818565b9050828152602081018484840111156108905761088f6107b6565b5b61089b8482856103ac565b509392505050565b5f82601f8301126108b7576108b66107b2565b5b81516108c7848260208601610862565b91505092915050565b5f80604083850312156108e6576108e56104b7565b5b5f83015167ffffffffffffffff811115610903576109026104bb565b5b61090f858286016108a3565b925050602083015167ffffffffffffffff8111156109305761092f6104bb565b5b61093c858286016108a3565b9150509250929050565b5f6020828403121561095b5761095a6104b7565b5b5f82015167ffffffffffffffff811115610978576109776104bb565b5b610984848285016108a3565b91505092915050565b5f610999600b83610446565b91506109a482610636565b602082019050919050565b5f6020820190508181035f8301526109c68161098d565b905091905056fea264697066735822122030c1f3caafd5630a747c830d25ee861c6d115fdbbb091fef018659e62fa3070164736f6c63430008180033",
					"opcodes": "PUSH1 0x80 PUSH1 0x40 MSTORE CALLVALUE DUP1 ISZERO PUSH2 0xF JUMPI PUSH0 DUP1 REVERT JUMPDEST POP PUSH2 0xA03 DUP1 PUSH2 0x1D PUSH0 CODECOPY PUSH0 RETURN INVALID PUSH1 0x80 PUSH1 0x40 MSTORE CALLVALUE DUP1 ISZERO PUSH2 0xF JUMPI PUSH0 DUP1 REVERT JUMPDEST POP PUSH1 0x4 CALLDATASIZE LT PUSH2 0x91 JUMPI PUSH0 CALLDATALOAD PUSH1 0xE0 SHR DUP1 PUSH4 0x8707C27E GT PUSH2 0x64 JUMPI DUP1 PUSH4 0x8707C27E EQ PUSH2 0x10B JUMPI DUP1 PUSH4 0x9C7325E9 EQ PUSH2 0x129 JUMPI DUP1 PUSH4 0xA32153DB EQ PUSH2 0x148 JUMPI DUP1 PUSH4 0xC0F8940C EQ PUSH2 0x167 JUMPI DUP1 PUSH4 0xD2145AF8 EQ PUSH2 0x185 JUMPI PUSH2 0x91 JUMP JUMPDEST DUP1 PUSH4 0x1DE1C64 EQ PUSH2 0x95 JUMPI DUP1 PUSH4 0xF50EDDB EQ PUSH2 0xB3 JUMPI DUP1 PUSH4 0x2E0074CA EQ PUSH2 0xD1 JUMPI DUP1 PUSH4 0x51CFF8D9 EQ PUSH2 0xEF JUMPI JUMPDEST PUSH0 DUP1 REVERT JUMPDEST PUSH2 0x9D PUSH2 0x1A3 JUMP JUMPDEST PUSH1 0x40 MLOAD PUSH2 0xAA SWAP2 SWAP1 PUSH2 0x41C JUMP JUMPDEST PUSH1 0x40 MLOAD DUP1 SWAP2 SUB SWAP1 RETURN JUMPDEST PUSH2 0xBB PUSH2 0x1CD JUMP JUMPDEST PUSH1 0x40 MLOAD PUSH2 0xC8 SWAP2 SWAP1 PUSH2 0x48E JUMP JUMPDEST PUSH1 0x40 MLOAD DUP1 SWAP2 SUB SWAP1 RETURN JUMPDEST PUSH2 0xD9 PUSH2 0x1E1 JUMP JUMPDEST PUSH1 0x40 MLOAD PUSH2 0xE6 SWAP2 SWAP1 PUSH2 0x41C JUMP JUMPDEST PUSH1 0x40 MLOAD DUP1 SWAP2 SUB SWAP1 RETURN JUMPDEST PUSH2 0x109 PUSH1 0x4 DUP1 CALLDATASIZE SUB DUP2 ADD SWAP1 PUSH2 0x104 SWAP2 SWAP1 PUSH2 0x519 JUMP JUMPDEST PUSH2 0x20B JUMP JUMPDEST STOP JUMPDEST PUSH2 0x113 PUSH2 0x2B7 JUMP JUMPDEST PUSH1 0x40 MLOAD PUSH2 0x120 SWAP2 SWAP1 PUSH2 0x41C JUMP JUMPDEST PUSH1 0x40 MLOAD DUP1 SWAP2 SUB SWAP1 RETURN JUMPDEST PUSH2 0x131 PUSH2 0x2E1 JUMP JUMPDEST PUSH1 0x40 MLOAD PUSH2 0x13F SWAP3 SWAP2 SWAP1 PUSH2 0x544 JUMP JUMPDEST PUSH1 0x40 MLOAD DUP1 SWAP2 SUB SWAP1 RETURN JUMPDEST PUSH2 0x150 PUSH2 0x311 JUMP JUMPDEST PUSH1 0x40 MLOAD PUSH2 0x15E SWAP3 SWAP2 SWAP1 PUSH2 0x544 JUMP JUMPDEST PUSH1 0x40 MLOAD DUP1 SWAP2 SUB SWAP1 RETURN JUMPDEST PUSH2 0x16F PUSH2 0x341 JUMP JUMPDEST PUSH1 0x40 MLOAD PUSH2 0x17C SWAP2 SWAP1 PUSH2 0x48E JUMP JUMPDEST PUSH1 0x40 MLOAD DUP1 SWAP2 SUB SWAP1 RETURN JUMPDEST PUSH2 0x18D PUSH2 0x368 JUMP JUMPDEST PUSH1 0x40 MLOAD PUSH2 0x19A SWAP2 SWAP1 PUSH2 0x41C JUMP JUMPDEST PUSH1 0x40 MLOAD DUP1 SWAP2 SUB SWAP1 RETURN JUMPDEST PUSH1 0x60 PUSH0 PUSH1 0x40 MLOAD PUSH1 0x20 ADD PUSH2 0x1B5 SWAP1 PUSH2 0x617 JUMP JUMPDEST PUSH1 0x40 MLOAD PUSH1 0x20 DUP2 DUP4 SUB SUB DUP2 MSTORE SWAP1 PUSH1 0x40 MSTORE SWAP1 POP DUP1 SWAP2 POP POP SWAP1 JUMP JUMPDEST PUSH1 0x60 PUSH0 PUSH2 0x1D8 PUSH2 0x1A3 JUMP JUMPDEST SWAP1 POP DUP1 SWAP2 POP POP SWAP1 JUMP JUMPDEST PUSH1 0x60 PUSH0 PUSH1 0x40 MLOAD PUSH1 0x20 ADD PUSH2 0x1F3 SWAP1 PUSH2 0x680 JUMP JUMPDEST PUSH1 0x40 MLOAD PUSH1 0x20 DUP2 DUP4 SUB SUB DUP2 MSTORE SWAP1 PUSH1 0x40 MSTORE SWAP1 POP DUP1 SWAP2 POP POP SWAP1 JUMP JUMPDEST PUSH0 DUP2 PUSH20 0xFFFFFFFFFFFFFFFFFFFFFFFFFFFFFFFFFFFFFFFF AND SELFBALANCE PUSH1 0x40 MLOAD PUSH2 0x230 SWAP1 PUSH2 0x6C1 JUMP JUMPDEST PUSH0 PUSH1 0x40 MLOAD DUP1 DUP4 SUB DUP2 DUP6 DUP8 GAS CALL SWAP3 POP POP POP RETURNDATASIZE DUP1 PUSH0 DUP2 EQ PUSH2 0x26A JUMPI PUSH1 0x40 MLOAD SWAP2 POP PUSH1 0x1F NOT PUSH1 0x3F RETURNDATASIZE ADD AND DUP3 ADD PUSH1 0x40 MSTORE RETURNDATASIZE DUP3 MSTORE RETURNDATASIZE PUSH0 PUSH1 0x20 DUP5 ADD RETURNDATACOPY PUSH2 0x26F JUMP JUMPDEST PUSH1 0x60 SWAP2 POP JUMPDEST POP POP SWAP1 POP DUP1 PUSH2 0x2B3 JUMPI PUSH1 0x40 MLOAD PUSH32 0x8C379A000000000000000000000000000000000000000000000000000000000 DUP2 MSTORE PUSH1 0x4 ADD PUSH2 0x2AA SWAP1 PUSH2 0x71F JUMP JUMPDEST PUSH1 0x40 MLOAD DUP1 SWAP2 SUB SWAP1 REVERT JUMPDEST POP POP JUMP JUMPDEST PUSH1 0x60 PUSH0 PUSH1 0x40 MLOAD PUSH1 0x20 ADD PUSH2 0x2C9 SWAP1 PUSH2 0x781 JUMP JUMPDEST PUSH1 0x40 MLOAD PUSH1 0x20 DUP2 DUP4 SUB SUB DUP2 MSTORE SWAP1 PUSH1 0x40 MSTORE SWAP1 POP DUP1 SWAP2 POP POP SWAP1 JUMP JUMPDEST PUSH1 0x60 DUP1 PUSH0 DUP1 PUSH2 0x2EE PUSH2 0x1A3 JUMP JUMPDEST DUP1 PUSH1 0x20 ADD SWAP1 MLOAD DUP2 ADD SWAP1 PUSH2 0x301 SWAP2 SWAP1 PUSH2 0x8D0 JUMP JUMPDEST SWAP2 POP SWAP2 POP DUP2 DUP2 SWAP4 POP SWAP4 POP POP POP SWAP1 SWAP2 JUMP JUMPDEST PUSH1 0x60 DUP1 PUSH0 DUP1 PUSH2 0x31E PUSH2 0x2B7 JUMP JUMPDEST DUP1 PUSH1 0x20 ADD SWAP1 MLOAD DUP2 ADD SWAP1 PUSH2 0x331 SWAP2 SWAP1 PUSH2 0x8D0 JUMP JUMPDEST SWAP2 POP SWAP2 POP DUP2 DUP2 SWAP4 POP SWAP4 POP POP POP SWAP1 SWAP2 JUMP JUMPDEST PUSH1 0x60 PUSH0 PUSH2 0x34C PUSH2 0x368 JUMP JUMPDEST DUP1 PUSH1 0x20 ADD SWAP1 MLOAD DUP2 ADD SWAP1 PUSH2 0x35F SWAP2 SWAP1 PUSH2 0x946 JUMP JUMPDEST SWAP1 POP DUP1 SWAP2 POP POP SWAP1 JUMP JUMPDEST PUSH1 0x60 PUSH0 PUSH1 0x40 MLOAD PUSH1 0x20 ADD PUSH2 0x37A SWAP1 PUSH2 0x9AF JUMP JUMPDEST PUSH1 0x40 MLOAD PUSH1 0x20 DUP2 DUP4 SUB SUB DUP2 MSTORE SWAP1 PUSH1 0x40 MSTORE SWAP1 POP DUP1 SWAP2 POP POP SWAP1 JUMP JUMPDEST PUSH0 DUP2 MLOAD SWAP1 POP SWAP2 SWAP1 POP JUMP JUMPDEST PUSH0 DUP3 DUP3 MSTORE PUSH1 0x20 DUP3 ADD SWAP1 POP SWAP3 SWAP2 POP POP JUMP JUMPDEST PUSH0 JUMPDEST DUP4 DUP2 LT ISZERO PUSH2 0x3C9 JUMPI DUP1 DUP3 ADD MLOAD DUP2 DUP5 ADD MSTORE PUSH1 0x20 DUP2 ADD SWAP1 POP PUSH2 0x3AE JUMP JUMPDEST PUSH0 DUP5 DUP5 ADD MSTORE POP POP POP POP JUMP JUMPDEST PUSH0 PUSH1 0x1F NOT PUSH1 0x1F DUP4 ADD AND SWAP1 POP SWAP2 SWAP1 POP JUMP JUMPDEST PUSH0 PUSH2 0x3EE DUP3 PUSH2 0x392 JUMP JUMPDEST PUSH2 0x3F8 DUP2 DUP6 PUSH2 0x39C JUMP JUMPDEST SWAP4 POP PUSH2 0x408 DUP2 DUP6 PUSH1 0x20 DUP7 ADD PUSH2 0x3AC JUMP JUMPDEST PUSH2 0x411 DUP2 PUSH2 0x3D4 JUMP JUMPDEST DUP5 ADD SWAP2 POP POP SWAP3 SWAP2 POP POP JUMP JUMPDEST PUSH0 PUSH1 0x20 DUP3 ADD SWAP1 POP DUP2 DUP2 SUB PUSH0 DUP4 ADD MSTORE PUSH2 0x434 DUP2 DUP5 PUSH2 0x3E4 JUMP JUMPDEST SWAP1 POP SWAP3 SWAP2 POP POP JUMP JUMPDEST PUSH0 DUP2 MLOAD SWAP1 POP SWAP2 SWAP1 POP JUMP JUMPDEST PUSH0 DUP3 DUP3 MSTORE PUSH1 0x20 DUP3 ADD SWAP1 POP SWAP3 SWAP2 POP POP JUMP JUMPDEST PUSH0 PUSH2 0x460 DUP3 PUSH2 0x43C JUMP JUMPDEST PUSH2 0x46A DUP2 DUP6 PUSH2 0x446 JUMP JUMPDEST SWAP4 POP PUSH2 0x47A DUP2 DUP6 PUSH1 0x20 DUP7 ADD PUSH2 0x3AC JUMP JUMPDEST PUSH2 0x483 DUP2 PUSH2 0x3D4 JUMP JUMPDEST DUP5 ADD SWAP2 POP POP SWAP3 SWAP2 POP POP JUMP JUMPDEST PUSH0 PUSH1 0x20 DUP3 ADD SWAP1 POP DUP2 DUP2 SUB PUSH0 DUP4 ADD MSTORE PUSH2 0x4A6 DUP2 DUP5 PUSH2 0x456 JUMP JUMPDEST SWAP1 POP SWAP3 SWAP2 POP POP JUMP JUMPDEST PUSH0 PUSH1 0x40 MLOAD SWAP1 POP SWAP1 JUMP JUMPDEST PUSH0 DUP1 REVERT JUMPDEST PUSH0 DUP1 REVERT JUMPDEST PUSH0 PUSH20 0xFFFFFFFFFFFFFFFFFFFFFFFFFFFFFFFFFFFFFFFF DUP3 AND SWAP1 POP SWAP2 SWAP1 POP JUMP JUMPDEST PUSH0 PUSH2 0x4E8 DUP3 PUSH2 0x4BF JUMP JUMPDEST SWAP1 POP SWAP2 SWAP1 POP JUMP JUMPDEST PUSH2 0x4F8 DUP2 PUSH2 0x4DE JUMP JUMPDEST DUP2 EQ PUSH2 0x502 JUMPI PUSH0 DUP1 REVERT JUMPDEST POP JUMP JUMPDEST PUSH0 DUP2 CALLDATALOAD SWAP1 POP PUSH2 0x513 DUP2 PUSH2 0x4EF JUMP JUMPDEST SWAP3 SWAP2 POP POP JUMP JUMPDEST PUSH0 PUSH1 0x20 DUP3 DUP5 SUB SLT ISZERO PUSH2 0x52E JUMPI PUSH2 0x52D PUSH2 0x4B7 JUMP JUMPDEST JUMPDEST PUSH0 PUSH2 0x53B DUP5 DUP3 DUP6 ADD PUSH2 0x505 JUMP JUMPDEST SWAP2 POP POP SWAP3 SWAP2 POP POP JUMP JUMPDEST PUSH0 PUSH1 0x40 DUP3 ADD SWAP1 POP DUP2 DUP2 SUB PUSH0 DUP4 ADD MSTORE PUSH2 0x55C DUP2 DUP6 PUSH2 0x456 JUMP JUMPDEST SWAP1 POP DUP2 DUP2 SUB PUSH1 0x20 DUP4 ADD MSTORE PUSH2 0x570 DUP2 DUP5 PUSH2 0x456 JUMP JUMPDEST SWAP1 POP SWAP4 SWAP3 POP POP POP JUMP JUMPDEST PUSH0 DUP2 SWAP1 POP SWAP3 SWAP2 POP POP JUMP JUMPDEST PUSH32 0x7368697661000000000000000000000000000000000000000000000000000000 PUSH0 DUP3 ADD MSTORE POP JUMP JUMPDEST PUSH0 PUSH2 0x5B7 PUSH1 0x5 DUP4 PUSH2 0x579 JUMP JUMPDEST SWAP2 POP PUSH2 0x5C2 DUP3 PUSH2 0x583 JUMP JUMPDEST PUSH1 0x5 DUP3 ADD SWAP1 POP SWAP2 SWAP1 POP JUMP JUMPDEST PUSH32 0x7675697976750000000000000000000000000000000000000000000000000000 PUSH0 DUP3 ADD MSTORE POP JUMP JUMPDEST PUSH0 PUSH2 0x601 PUSH1 0x6 DUP4 PUSH2 0x579 JUMP JUMPDEST SWAP2 POP PUSH2 0x60C DUP3 PUSH2 0x5CD JUMP JUMPDEST PUSH1 0x6 DUP3 ADD SWAP1 POP SWAP2 SWAP1 POP JUMP JUMPDEST PUSH0 PUSH2 0x621 DUP3 PUSH2 0x5AB JUMP JUMPDEST SWAP2 POP PUSH2 0x62C DUP3 PUSH2 0x5F5 JUMP JUMPDEST SWAP2 POP DUP2 SWAP1 POP SWAP2 SWAP1 POP JUMP JUMPDEST PUSH32 0x736F6D6520537472696E67000000000000000000000000000000000000000000 PUSH0 DUP3 ADD MSTORE POP JUMP JUMPDEST PUSH0 PUSH2 0x66A PUSH1 0xB DUP4 PUSH2 0x579 JUMP JUMPDEST SWAP2 POP PUSH2 0x675 DUP3 PUSH2 0x636 JUMP JUMPDEST PUSH1 0xB DUP3 ADD SWAP1 POP SWAP2 SWAP1 POP JUMP JUMPDEST PUSH0 PUSH2 0x68A DUP3 PUSH2 0x65E JUMP JUMPDEST SWAP2 POP DUP2 SWAP1 POP SWAP2 SWAP1 POP JUMP JUMPDEST PUSH0 DUP2 SWAP1 POP SWAP3 SWAP2 POP POP JUMP JUMPDEST POP JUMP JUMPDEST PUSH0 PUSH2 0x6AC PUSH0 DUP4 PUSH2 0x694 JUMP JUMPDEST SWAP2 POP PUSH2 0x6B7 DUP3 PUSH2 0x69E JUMP JUMPDEST PUSH0 DUP3 ADD SWAP1 POP SWAP2 SWAP1 POP JUMP JUMPDEST PUSH0 PUSH2 0x6CB DUP3 PUSH2 0x6A1 JUMP JUMPDEST SWAP2 POP DUP2 SWAP1 POP SWAP2 SWAP1 POP JUMP JUMPDEST PUSH32 0x5472616E73666572204661696C65642000000000000000000000000000000000 PUSH0 DUP3 ADD MSTORE POP JUMP JUMPDEST PUSH0 PUSH2 0x709 PUSH1 0x10 DUP4 PUSH2 0x446 JUMP JUMPDEST SWAP2 POP PUSH2 0x714 DUP3 PUSH2 0x6D5 JUMP JUMPDEST PUSH1 0x20 DUP3 ADD SWAP1 POP SWAP2 SWAP1 POP JUMP JUMPDEST PUSH0 PUSH1 0x20 DUP3 ADD SWAP1 POP DUP2 DUP2 SUB PUSH0 DUP4 ADD MSTORE PUSH2 0x736 DUP2 PUSH2 0x6FD JUMP JUMPDEST SWAP1 POP SWAP2 SWAP1 POP JUMP JUMPDEST PUSH0 PUSH2 0x749 PUSH1 0x5 DUP4 PUSH2 0x446 JUMP JUMPDEST SWAP2 POP PUSH2 0x754 DUP3 PUSH2 0x583 JUMP JUMPDEST PUSH1 0x20 DUP3 ADD SWAP1 POP SWAP2 SWAP1 POP JUMP JUMPDEST PUSH0 PUSH2 0x76B PUSH1 0x6 DUP4 PUSH2 0x446 JUMP JUMPDEST SWAP2 POP PUSH2 0x776 DUP3 PUSH2 0x5CD JUMP JUMPDEST PUSH1 0x20 DUP3 ADD SWAP1 POP SWAP2 SWAP1 POP JUMP JUMPDEST PUSH0 PUSH1 0x40 DUP3 ADD SWAP1 POP DUP2 DUP2 SUB PUSH0 DUP4 ADD MSTORE PUSH2 0x798 DUP2 PUSH2 0x73D JUMP JUMPDEST SWAP1 POP DUP2 DUP2 SUB PUSH1 0x20 DUP4 ADD MSTORE PUSH2 0x7AB DUP2 PUSH2 0x75F JUMP JUMPDEST SWAP1 POP SWAP2 SWAP1 POP JUMP JUMPDEST PUSH0 DUP1 REVERT JUMPDEST PUSH0 DUP1 REVERT JUMPDEST PUSH32 0x4E487B7100000000000000000000000000000000000000000000000000000000 PUSH0 MSTORE PUSH1 0x41 PUSH1 0x4 MSTORE PUSH1 0x24 PUSH0 REVERT JUMPDEST PUSH2 0x7F0 DUP3 PUSH2 0x3D4 JUMP JUMPDEST DUP2 ADD DUP2 DUP2 LT PUSH8 0xFFFFFFFFFFFFFFFF DUP3 GT OR ISZERO PUSH2 0x80F JUMPI PUSH2 0x80E PUSH2 0x7BA JUMP JUMPDEST JUMPDEST DUP1 PUSH1 0x40 MSTORE POP POP POP JUMP JUMPDEST PUSH0 PUSH2 0x821 PUSH2 0x4AE JUMP JUMPDEST SWAP1 POP PUSH2 0x82D DUP3 DUP3 PUSH2 0x7E7 JUMP JUMPDEST SWAP2 SWAP1 POP JUMP JUMPDEST PUSH0 PUSH8 0xFFFFFFFFFFFFFFFF DUP3 GT ISZERO PUSH2 0x84C JUMPI PUSH2 0x84B PUSH2 0x7BA JUMP JUMPDEST JUMPDEST PUSH2 0x855 DUP3 PUSH2 0x3D4 JUMP JUMPDEST SWAP1 POP PUSH1 0x20 DUP2 ADD SWAP1 POP SWAP2 SWAP1 POP JUMP JUMPDEST PUSH0 PUSH2 0x874 PUSH2 0x86F DUP5 PUSH2 0x832 JUMP JUMPDEST PUSH2 0x818 JUMP JUMPDEST SWAP1 POP DUP3 DUP2 MSTORE PUSH1 0x20 DUP2 ADD DUP5 DUP5 DUP5 ADD GT ISZERO PUSH2 0x890 JUMPI PUSH2 0x88F PUSH2 0x7B6 JUMP JUMPDEST JUMPDEST PUSH2 0x89B DUP5 DUP3 DUP6 PUSH2 0x3AC JUMP JUMPDEST POP SWAP4 SWAP3 POP POP POP JUMP JUMPDEST PUSH0 DUP3 PUSH1 0x1F DUP4 ADD SLT PUSH2 0x8B7 JUMPI PUSH2 0x8B6 PUSH2 0x7B2 JUMP JUMPDEST JUMPDEST DUP2 MLOAD PUSH2 0x8C7 DUP5 DUP3 PUSH1 0x20 DUP7 ADD PUSH2 0x862 JUMP JUMPDEST SWAP2 POP POP SWAP3 SWAP2 POP POP JUMP JUMPDEST PUSH0 DUP1 PUSH1 0x40 DUP4 DUP6 SUB SLT ISZERO PUSH2 0x8E6 JUMPI PUSH2 0x8E5 PUSH2 0x4B7 JUMP JUMPDEST JUMPDEST PUSH0 DUP4 ADD MLOAD PUSH8 0xFFFFFFFFFFFFFFFF DUP2 GT ISZERO PUSH2 0x903 JUMPI PUSH2 0x902 PUSH2 0x4BB JUMP JUMPDEST JUMPDEST PUSH2 0x90F DUP6 DUP3 DUP7 ADD PUSH2 0x8A3 JUMP JUMPDEST SWAP3 POP POP PUSH1 0x20 DUP4 ADD MLOAD PUSH8 0xFFFFFFFFFFFFFFFF DUP2 GT ISZERO PUSH2 0x930 JUMPI PUSH2 0x92F PUSH2 0x4BB JUMP JUMPDEST JUMPDEST PUSH2 0x93C DUP6 DUP3 DUP7 ADD PUSH2 0x8A3 JUMP JUMPDEST SWAP2 POP POP SWAP3 POP SWAP3 SWAP1 POP JUMP JUMPDEST PUSH0 PUSH1 0x20 DUP3 DUP5 SUB SLT ISZERO PUSH2 0x95B JUMPI PUSH2 0x95A PUSH2 0x4B7 JUMP JUMPDEST JUMPDEST PUSH0 DUP3 ADD MLOAD PUSH8 0xFFFFFFFFFFFFFFFF DUP2 GT ISZERO PUSH2 0x978 JUMPI PUSH2 0x977 PUSH2 0x4BB JUMP JUMPDEST JUMPDEST PUSH2 0x984 DUP5 DUP3 DUP6 ADD PUSH2 0x8A3 JUMP JUMPDEST SWAP2 POP POP SWAP3 SWAP2 POP POP JUMP JUMPDEST PUSH0 PUSH2 0x999 PUSH1 0xB DUP4 PUSH2 0x446 JUMP JUMPDEST SWAP2 POP PUSH2 0x9A4 DUP3 PUSH2 0x636 JUMP JUMPDEST PUSH1 0x20 DUP3 ADD SWAP1 POP SWAP2 SWAP1 POP JUMP JUMPDEST PUSH0 PUSH1 0x20 DUP3 ADD SWAP1 POP DUP2 DUP2 SUB PUSH0 DUP4 ADD MSTORE PUSH2 0x9C6 DUP2 PUSH2 0x98D JUMP JUMPDEST SWAP1 POP SWAP2 SWAP1 POP JUMP INVALID LOG2 PUSH5 0x6970667358 0x22 SLT KECCAK256 ADDRESS 0xC1 RETURN 0xCA 0xAF 0xD5 PUSH4 0xA747C83 0xD 0x25 0xEE DUP7 SHR PUSH14 0x115FDBBB091FEF018659E62FA307 ADD PUSH5 0x736F6C6343 STOP ADDMOD XOR STOP CALLER "
				},
				"gasEstimates": {
					"creation": {
						"codeDepositCost": "512600",
						"executionCost": "547",
						"totalCost": "513147"
					},
					"external": {
						"castmultidec()": "infinite",
						"decode()": "infinite",
						"encodingPacked()": "infinite",
						"encodingnumber()": "infinite",
						"multidecode()": "infinite",
						"multiencode()": "infinite",
						"multipackeddec()": "infinite",
						"multipackedencode()": "infinite",
						"withdraw(address)": "infinite"
					}
				},
				"methodIdentifiers": {
					"castmultidec()": "0f50eddb",
					"decode()": "c0f8940c",
					"encodingPacked()": "2e0074ca",
					"encodingnumber()": "d2145af8",
					"multidecode()": "a32153db",
					"multiencode()": "8707c27e",
					"multipackeddec()": "9c7325e9",
					"multipackedencode()": "01de1c64",
					"withdraw(address)": "51cff8d9"
				}
			},
			"storageLayout": {
				"storage": [],
				"types": null
			},
			"userdoc": {
				"kind": "user",
				"methods": {},
				"version": 1
			}
		}
	}
}