{
	"contracts/lab1.sol": {
		"Derived_contract": {
			"abi": [
				{
					"inputs": [],
					"name": "Init_DeriverdContract",
					"outputs": [
						{
							"internalType": "uint256",
							"name": "",
							"type": "uint256"
						}
					],
					"stateMutability": "view",
					"type": "function"
				},
				{
					"inputs": [],
					"name": "Init_MainContract",
					"outputs": [
						{
							"internalType": "uint256",
							"name": "",
							"type": "uint256"
						}
					],
					"stateMutability": "view",
					"type": "function"
				},
				{
					"inputs": [],
					"name": "a",
					"outputs": [
						{
							"internalType": "uint256",
							"name": "",
							"type": "uint256"
						}
					],
					"stateMutability": "view",
					"type": "function"
				}
			],
			"devdoc": {
				"kind": "dev",
				"methods": {},
				"version": 1
			},
			"evm": {
				"assembly": "    /* \"contracts/lab1.sol\":200:357  contract Derived_contract is MainContract{... */\n  mstore(0x40, 0x80)\n    /* \"contracts/lab1.sol\":102:104  20 */\n  0x14\n    /* \"contracts/lab1.sol\":88:104  uint public a=20 */\n  0x00\n  sstore\n    /* \"contracts/lab1.sol\":200:357  contract Derived_contract is MainContract{... */\n  callvalue\n  dup1\n  iszero\n  tag_1\n  jumpi\n  0x00\n  dup1\n  revert\ntag_1:\n  pop\n  dataSize(sub_0)\n  dup1\n  dataOffset(sub_0)\n  0x00\n  codecopy\n  0x00\n  return\nstop\n\nsub_0: assembly {\n        /* \"contracts/lab1.sol\":200:357  contract Derived_contract is MainContract{... */\n      mstore(0x40, 0x80)\n      callvalue\n      dup1\n      iszero\n      tag_1\n      jumpi\n      0x00\n      dup1\n      revert\n    tag_1:\n      pop\n      jumpi(tag_2, lt(calldatasize, 0x04))\n      shr(0xe0, calldataload(0x00))\n      dup1\n      0x0dbe671f\n      eq\n      tag_3\n      jumpi\n      dup1\n      0x347a5436\n      eq\n      tag_4\n      jumpi\n      dup1\n      0xaca26c33\n      eq\n      tag_5\n      jumpi\n    tag_2:\n      0x00\n      dup1\n      revert\n        /* \"contracts/lab1.sol\":88:104  uint public a=20 */\n    tag_3:\n      tag_6\n      tag_7\n      jump\t// in\n    tag_6:\n      mload(0x40)\n      tag_8\n      swap2\n      swap1\n      tag_9\n      jump\t// in\n    tag_8:\n      mload(0x40)\n      dup1\n      swap2\n      sub\n      swap1\n      return\n        /* \"contracts/lab1.sol\":248:354  function Init_DeriverdContract()public  view  returns (uint){... */\n    tag_4:\n      tag_10\n      tag_11\n      jump\t// in\n    tag_10:\n      mload(0x40)\n      tag_12\n      swap2\n      swap1\n      tag_9\n      jump\t// in\n    tag_12:\n      mload(0x40)\n      dup1\n      swap2\n      sub\n      swap1\n      return\n        /* \"contracts/lab1.sol\":111:194  function Init_MainContract() public view returns(uint){... */\n    tag_5:\n      tag_13\n      tag_14\n      jump\t// in\n    tag_13:\n      mload(0x40)\n      tag_15\n      swap2\n      swap1\n      tag_9\n      jump\t// in\n    tag_15:\n      mload(0x40)\n      dup1\n      swap2\n      sub\n      swap1\n      return\n        /* \"contracts/lab1.sol\":88:104  uint public a=20 */\n    tag_7:\n      sload(0x00)\n      dup2\n      jump\t// out\n        /* \"contracts/lab1.sol\":248:354  function Init_DeriverdContract()public  view  returns (uint){... */\n    tag_11:\n        /* \"contracts/lab1.sol\":303:307  uint */\n      0x00\n        /* \"contracts/lab1.sol\":327:346  Init_MainContract() */\n      tag_17\n        /* \"contracts/lab1.sol\":327:344  Init_MainContract */\n      tag_14\n        /* \"contracts/lab1.sol\":327:346  Init_MainContract() */\n      jump\t// in\n    tag_17:\n        /* \"contracts/lab1.sol\":319:346  return  Init_MainContract() */\n      swap1\n      pop\n        /* \"contracts/lab1.sol\":248:354  function Init_DeriverdContract()public  view  returns (uint){... */\n      swap1\n      jump\t// out\n        /* \"contracts/lab1.sol\":111:194  function Init_MainContract() public view returns(uint){... */\n    tag_14:\n        /* \"contracts/lab1.sol\":160:164  uint */\n      0x00\n        /* \"contracts/lab1.sol\":183:184  a */\n      dup1\n      sload\n        /* \"contracts/lab1.sol\":176:184  return a */\n      swap1\n      pop\n        /* \"contracts/lab1.sol\":111:194  function Init_MainContract() public view returns(uint){... */\n      swap1\n      jump\t// out\n        /* \"#utility.yul\":7:84   */\n    tag_19:\n        /* \"#utility.yul\":44:51   */\n      0x00\n        /* \"#utility.yul\":73:78   */\n      dup2\n        /* \"#utility.yul\":62:78   */\n      swap1\n      pop\n        /* \"#utility.yul\":7:84   */\n      swap2\n      swap1\n      pop\n      jump\t// out\n        /* \"#utility.yul\":90:208   */\n    tag_20:\n        /* \"#utility.yul\":177:201   */\n      tag_24\n        /* \"#utility.yul\":195:200   */\n      dup2\n        /* \"#utility.yul\":177:201   */\n      tag_19\n      jump\t// in\n    tag_24:\n        /* \"#utility.yul\":172:175   */\n      dup3\n        /* \"#utility.yul\":165:202   */\n      mstore\n        /* \"#utility.yul\":90:208   */\n      pop\n      pop\n      jump\t// out\n        /* \"#utility.yul\":214:436   */\n    tag_9:\n        /* \"#utility.yul\":307:311   */\n      0x00\n        /* \"#utility.yul\":345:347   */\n      0x20\n        /* \"#utility.yul\":334:343   */\n      dup3\n        /* \"#utility.yul\":330:348   */\n      add\n        /* \"#utility.yul\":322:348   */\n      swap1\n      pop\n        /* \"#utility.yul\":358:429   */\n      tag_26\n        /* \"#utility.yul\":426:427   */\n      0x00\n        /* \"#utility.yul\":415:424   */\n      dup4\n        /* \"#utility.yul\":411:428   */\n      add\n        /* \"#utility.yul\":402:408   */\n      dup5\n        /* \"#utility.yul\":358:429   */\n      tag_20\n      jump\t// in\n    tag_26:\n        /* \"#utility.yul\":214:436   */\n      swap3\n      swap2\n      pop\n      pop\n      jump\t// out\n\n    auxdata: 0xa2646970667358221220ee052932f2c31bf39d985f6ed30198a7888a3b1d62ff8d155ab7570ea09c3b4164736f6c63430008180033\n}\n",
				"bytecode": {
					"linkReferences": {},
					"object": "608060405260145f55348015610013575f80fd5b50610108806100215f395ff3fe6080604052348015600e575f80fd5b5060043610603a575f3560e01c80630dbe671f14603e578063347a5436146058578063aca26c33146072575b5f80fd5b6044608c565b604051604f919060bb565b60405180910390f35b605e6091565b6040516069919060bb565b60405180910390f35b6078609d565b6040516083919060bb565b60405180910390f35b5f5481565b5f6098609d565b905090565b5f8054905090565b5f819050919050565b60b58160a5565b82525050565b5f60208201905060cc5f83018460ae565b9291505056fea2646970667358221220ee052932f2c31bf39d985f6ed30198a7888a3b1d62ff8d155ab7570ea09c3b4164736f6c63430008180033",
					"opcodes": "PUSH1 0x80 PUSH1 0x40 MSTORE PUSH1 0x14 PUSH0 SSTORE CALLVALUE DUP1 ISZERO PUSH2 0x13 JUMPI PUSH0 DUP1 REVERT JUMPDEST POP PUSH2 0x108 DUP1 PUSH2 0x21 PUSH0 CODECOPY PUSH0 RETURN INVALID PUSH1 0x80 PUSH1 0x40 MSTORE CALLVALUE DUP1 ISZERO PUSH1 0xE JUMPI PUSH0 DUP1 REVERT JUMPDEST POP PUSH1 0x4 CALLDATASIZE LT PUSH1 0x3A JUMPI PUSH0 CALLDATALOAD PUSH1 0xE0 SHR DUP1 PUSH4 0xDBE671F EQ PUSH1 0x3E JUMPI DUP1 PUSH4 0x347A5436 EQ PUSH1 0x58 JUMPI DUP1 PUSH4 0xACA26C33 EQ PUSH1 0x72 JUMPI JUMPDEST PUSH0 DUP1 REVERT JUMPDEST PUSH1 0x44 PUSH1 0x8C JUMP JUMPDEST PUSH1 0x40 MLOAD PUSH1 0x4F SWAP2 SWAP1 PUSH1 0xBB JUMP JUMPDEST PUSH1 0x40 MLOAD DUP1 SWAP2 SUB SWAP1 RETURN JUMPDEST PUSH1 0x5E PUSH1 0x91 JUMP JUMPDEST PUSH1 0x40 MLOAD PUSH1 0x69 SWAP2 SWAP1 PUSH1 0xBB JUMP JUMPDEST PUSH1 0x40 MLOAD DUP1 SWAP2 SUB SWAP1 RETURN JUMPDEST PUSH1 0x78 PUSH1 0x9D JUMP JUMPDEST PUSH1 0x40 MLOAD PUSH1 0x83 SWAP2 SWAP1 PUSH1 0xBB JUMP JUMPDEST PUSH1 0x40 MLOAD DUP1 SWAP2 SUB SWAP1 RETURN JUMPDEST PUSH0 SLOAD DUP2 JUMP JUMPDEST PUSH0 PUSH1 0x98 PUSH1 0x9D JUMP JUMPDEST SWAP1 POP SWAP1 JUMP JUMPDEST PUSH0 DUP1 SLOAD SWAP1 POP SWAP1 JUMP JUMPDEST PUSH0 DUP2 SWAP1 POP SWAP2 SWAP1 POP JUMP JUMPDEST PUSH1 0xB5 DUP2 PUSH1 0xA5 JUMP JUMPDEST DUP3 MSTORE POP POP JUMP JUMPDEST PUSH0 PUSH1 0x20 DUP3 ADD SWAP1 POP PUSH1 0xCC PUSH0 DUP4 ADD DUP5 PUSH1 0xAE JUMP JUMPDEST SWAP3 SWAP2 POP POP JUMP INVALID LOG2 PUSH5 0x6970667358 0x22 SLT KECCAK256 0xEE SDIV 0x29 ORIGIN CALLCODE 0xC3 SHL RETURN SWAP14 SWAP9 PUSH0 PUSH15 0xD30198A7888A3B1D62FF8D155AB757 0xE LOG0 SWAP13 EXTCODESIZE COINBASE PUSH5 0x736F6C6343 STOP ADDMOD XOR STOP CALLER "
				},
				"gasEstimates": {
					"creation": {
						"codeDepositCost": "52800",
						"executionCost": "22208",
						"totalCost": "75008"
					},
					"external": {
						"Init_DeriverdContract()": "2466",
						"Init_MainContract()": "2454",
						"a()": "2402"
					}
				},
				"methodIdentifiers": {
					"Init_DeriverdContract()": "347a5436",
					"Init_MainContract()": "aca26c33",
					"a()": "0dbe671f"
				}
			},
			"storageLayout": {
				"storage": [
					{
						"astId": 4,
						"contract": "contracts/lab1.sol:Derived_contract",
						"label": "a",
						"offset": 0,
						"slot": "0",
						"type": "t_uint256"
					}
				],
				"types": {
					"t_uint256": {
						"encoding": "inplace",
						"label": "uint256",
						"numberOfBytes": "32"
					}
				}
			},
			"userdoc": {
				"kind": "user",
				"methods": {},
				"version": 1
			}
		}
	}
}