{
	"contracts/lab4ii.sol": {
		"AccessControl": {
			"abi": [
				{
					"inputs": [],
					"stateMutability": "nonpayable",
					"type": "constructor"
				},
				{
					"inputs": [
						{
							"internalType": "address",
							"name": "_admin",
							"type": "address"
						}
					],
					"name": "addAdmin",
					"outputs": [],
					"stateMutability": "nonpayable",
					"type": "function"
				},
				{
					"inputs": [
						{
							"internalType": "address",
							"name": "_user",
							"type": "address"
						}
					],
					"name": "addUser",
					"outputs": [],
					"stateMutability": "nonpayable",
					"type": "function"
				},
				{
					"inputs": [],
					"name": "admincount",
					"outputs": [
						{
							"internalType": "uint256",
							"name": "",
							"type": "uint256"
						}
					],
					"stateMutability": "view",
					"type": "function"
				},
				{
					"inputs": [
						{
							"internalType": "address",
							"name": "",
							"type": "address"
						}
					],
					"name": "admins",
					"outputs": [
						{
							"internalType": "bool",
							"name": "",
							"type": "bool"
						}
					],
					"stateMutability": "view",
					"type": "function"
				},
				{
					"inputs": [],
					"name": "owner",
					"outputs": [
						{
							"internalType": "address",
							"name": "",
							"type": "address"
						}
					],
					"stateMutability": "view",
					"type": "function"
				},
				{
					"inputs": [],
					"name": "performAdminTask",
					"outputs": [],
					"stateMutability": "nonpayable",
					"type": "function"
				},
				{
					"inputs": [],
					"name": "performUserTask",
					"outputs": [],
					"stateMutability": "nonpayable",
					"type": "function"
				},
				{
					"inputs": [
						{
							"internalType": "address",
							"name": "_admin",
							"type": "address"
						}
					],
					"name": "removeAdmin",
					"outputs": [],
					"stateMutability": "nonpayable",
					"type": "function"
				},
				{
					"inputs": [
						{
							"internalType": "address",
							"name": "_user",
							"type": "address"
						}
					],
					"name": "removeUser",
					"outputs": [],
					"stateMutability": "nonpayable",
					"type": "function"
				},
				{
					"inputs": [],
					"name": "usercount",
					"outputs": [
						{
							"internalType": "uint256",
							"name": "",
							"type": "uint256"
						}
					],
					"stateMutability": "view",
					"type": "function"
				},
				{
					"inputs": [
						{
							"internalType": "address",
							"name": "",
							"type": "address"
						}
					],
					"name": "users",
					"outputs": [
						{
							"internalType": "bool",
							"name": "",
							"type": "bool"
						}
					],
					"stateMutability": "view",
					"type": "function"
				}
			],
			"devdoc": {
				"kind": "dev",
				"methods": {},
				"version": 1
			},
			"evm": {
				"assembly": "    /* \"contracts/lab4ii.sol\":62:1374  contract AccessControl {... */\n  mstore(0x40, 0x80)\n    /* \"contracts/lab4ii.sol\":651:738  constructor() {... */\n  callvalue\n  dup1\n  iszero\n  tag_1\n  jumpi\n  0x00\n  dup1\n  revert\ntag_1:\n  pop\n    /* \"contracts/lab4ii.sol\":684:694  msg.sender */\n  caller\n    /* \"contracts/lab4ii.sol\":676:681  owner */\n  0x00\n  dup1\n    /* \"contracts/lab4ii.sol\":676:694  owner = msg.sender */\n  0x0100\n  exp\n  dup2\n  sload\n  dup2\n  0xffffffffffffffffffffffffffffffffffffffff\n  mul\n  not\n  and\n  swap1\n  dup4\n  0xffffffffffffffffffffffffffffffffffffffff\n  and\n  mul\n  or\n  swap1\n  sstore\n  pop\n    /* \"contracts/lab4ii.sol\":726:730  true */\n  0x01\n    /* \"contracts/lab4ii.sol\":705:711  admins */\n  dup1\n    /* \"contracts/lab4ii.sol\":705:723  admins[msg.sender] */\n  0x00\n    /* \"contracts/lab4ii.sol\":712:722  msg.sender */\n  caller\n    /* \"contracts/lab4ii.sol\":705:723  admins[msg.sender] */\n  0xffffffffffffffffffffffffffffffffffffffff\n  and\n  0xffffffffffffffffffffffffffffffffffffffff\n  and\n  dup2\n  mstore\n  0x20\n  add\n  swap1\n  dup2\n  mstore\n  0x20\n  add\n  0x00\n  keccak256\n  0x00\n    /* \"contracts/lab4ii.sol\":705:730  admins[msg.sender] = true */\n  0x0100\n  exp\n  dup2\n  sload\n  dup2\n  0xff\n  mul\n  not\n  and\n  swap1\n  dup4\n  iszero\n  iszero\n  mul\n  or\n  swap1\n  sstore\n  pop\n    /* \"contracts/lab4ii.sol\":62:1374  contract AccessControl {... */\n  dataSize(sub_0)\n  dup1\n  dataOffset(sub_0)\n  0x00\n  codecopy\n  0x00\n  return\nstop\n\nsub_0: assembly {\n        /* \"contracts/lab4ii.sol\":62:1374  contract AccessControl {... */\n      mstore(0x40, 0x80)\n      callvalue\n      dup1\n      iszero\n      tag_1\n      jumpi\n      0x00\n      dup1\n      revert\n    tag_1:\n      pop\n      jumpi(tag_2, lt(calldatasize, 0x04))\n      shr(0xe0, calldataload(0x00))\n      dup1\n      0x70480275\n      gt\n      tag_14\n      jumpi\n      dup1\n      0x70480275\n      eq\n      tag_8\n      jumpi\n      dup1\n      0x843d50ca\n      eq\n      tag_9\n      jumpi\n      dup1\n      0x8da5cb5b\n      eq\n      tag_10\n      jumpi\n      dup1\n      0x98575188\n      eq\n      tag_11\n      jumpi\n      dup1\n      0xa87430ba\n      eq\n      tag_12\n      jumpi\n      dup1\n      0xce9f1b03\n      eq\n      tag_13\n      jumpi\n      jump(tag_2)\n    tag_14:\n      dup1\n      0x0f322c1e\n      eq\n      tag_3\n      jumpi\n      dup1\n      0x0fe2e5a8\n      eq\n      tag_4\n      jumpi\n      dup1\n      0x1785f53c\n      eq\n      tag_5\n      jumpi\n      dup1\n      0x421b2d8b\n      eq\n      tag_6\n      jumpi\n      dup1\n      0x429b62e5\n      eq\n      tag_7\n      jumpi\n    tag_2:\n      0x00\n      dup1\n      revert\n        /* \"contracts/lab4ii.sol\":208:229  uint public usercount */\n    tag_3:\n      tag_15\n      tag_16\n      jump\t// in\n    tag_15:\n      mload(0x40)\n      tag_17\n      swap2\n      swap1\n      tag_18\n      jump\t// in\n    tag_17:\n      mload(0x40)\n      dup1\n      swap2\n      sub\n      swap1\n      return\n        /* \"contracts/lab4ii.sol\":1298:1371  function performUserTask() public onlyUser {... */\n    tag_4:\n      tag_19\n      tag_20\n      jump\t// in\n    tag_19:\n      stop\n        /* \"contracts/lab4ii.sol\":845:1012  function removeAdmin(address _admin) public onlyOwner {... */\n    tag_5:\n      tag_21\n      0x04\n      dup1\n      calldatasize\n      sub\n      dup2\n      add\n      swap1\n      tag_22\n      swap2\n      swap1\n      tag_23\n      jump\t// in\n    tag_22:\n      tag_24\n      jump\t// in\n    tag_21:\n      stop\n        /* \"contracts/lab4ii.sol\":1020:1107  function addUser(address _user) public onlyAdmin {... */\n    tag_6:\n      tag_25\n      0x04\n      dup1\n      calldatasize\n      sub\n      dup2\n      add\n      swap1\n      tag_26\n      swap2\n      swap1\n      tag_23\n      jump\t// in\n    tag_26:\n      tag_27\n      jump\t// in\n    tag_25:\n      stop\n        /* \"contracts/lab4ii.sol\":119:157  mapping(address => bool) public admins */\n    tag_7:\n      tag_28\n      0x04\n      dup1\n      calldatasize\n      sub\n      dup2\n      add\n      swap1\n      tag_29\n      swap2\n      swap1\n      tag_23\n      jump\t// in\n    tag_29:\n      tag_30\n      jump\t// in\n    tag_28:\n      mload(0x40)\n      tag_31\n      swap2\n      swap1\n      tag_32\n      jump\t// in\n    tag_31:\n      mload(0x40)\n      dup1\n      swap2\n      sub\n      swap1\n      return\n        /* \"contracts/lab4ii.sol\":746:837  function addAdmin(address _admin) public onlyOwner {... */\n    tag_8:\n      tag_33\n      0x04\n      dup1\n      calldatasize\n      sub\n      dup2\n      add\n      swap1\n      tag_34\n      swap2\n      swap1\n      tag_23\n      jump\t// in\n    tag_34:\n      tag_35\n      jump\t// in\n    tag_33:\n      stop\n        /* \"contracts/lab4ii.sol\":1214:1290  function performAdminTask() public onlyAdmin {... */\n    tag_9:\n      tag_36\n      tag_37\n      jump\t// in\n    tag_36:\n      stop\n        /* \"contracts/lab4ii.sol\":92:112  address public owner */\n    tag_10:\n      tag_38\n      tag_39\n      jump\t// in\n    tag_38:\n      mload(0x40)\n      tag_40\n      swap2\n      swap1\n      tag_41\n      jump\t// in\n    tag_40:\n      mload(0x40)\n      dup1\n      swap2\n      sub\n      swap1\n      return\n        /* \"contracts/lab4ii.sol\":1115:1206  function removeUser(address _user) public onlyAdmin {... */\n    tag_11:\n      tag_42\n      0x04\n      dup1\n      calldatasize\n      sub\n      dup2\n      add\n      swap1\n      tag_43\n      swap2\n      swap1\n      tag_23\n      jump\t// in\n    tag_43:\n      tag_44\n      jump\t// in\n    tag_42:\n      stop\n        /* \"contracts/lab4ii.sol\":164:201  mapping(address => bool) public users */\n    tag_12:\n      tag_45\n      0x04\n      dup1\n      calldatasize\n      sub\n      dup2\n      add\n      swap1\n      tag_46\n      swap2\n      swap1\n      tag_23\n      jump\t// in\n    tag_46:\n      tag_47\n      jump\t// in\n    tag_45:\n      mload(0x40)\n      tag_48\n      swap2\n      swap1\n      tag_32\n      jump\t// in\n    tag_48:\n      mload(0x40)\n      dup1\n      swap2\n      sub\n      swap1\n      return\n        /* \"contracts/lab4ii.sol\":236:258  uint public admincount */\n    tag_13:\n      tag_49\n      tag_50\n      jump\t// in\n    tag_49:\n      mload(0x40)\n      tag_51\n      swap2\n      swap1\n      tag_18\n      jump\t// in\n    tag_51:\n      mload(0x40)\n      dup1\n      swap2\n      sub\n      swap1\n      return\n        /* \"contracts/lab4ii.sol\":208:229  uint public usercount */\n    tag_16:\n      sload(0x03)\n      dup2\n      jump\t// out\n        /* \"contracts/lab4ii.sol\":1298:1371  function performUserTask() public onlyUser {... */\n    tag_20:\n        /* \"contracts/lab4ii.sol\":567:572  users */\n      0x02\n        /* \"contracts/lab4ii.sol\":567:584  users[msg.sender] */\n      0x00\n        /* \"contracts/lab4ii.sol\":573:583  msg.sender */\n      caller\n        /* \"contracts/lab4ii.sol\":567:584  users[msg.sender] */\n      0xffffffffffffffffffffffffffffffffffffffff\n      and\n      0xffffffffffffffffffffffffffffffffffffffff\n      and\n      dup2\n      mstore\n      0x20\n      add\n      swap1\n      dup2\n      mstore\n      0x20\n      add\n      0x00\n      keccak256\n      0x00\n      swap1\n      sload\n      swap1\n      0x0100\n      exp\n      swap1\n      div\n      0xff\n      and\n        /* \"contracts/lab4ii.sol\":559:623  require(users[msg.sender], \"Only users can call this function.\") */\n      tag_53\n      jumpi\n      mload(0x40)\n      0x08c379a000000000000000000000000000000000000000000000000000000000\n      dup2\n      mstore\n      0x04\n      add\n      tag_54\n      swap1\n      tag_55\n      jump\t// in\n    tag_54:\n      mload(0x40)\n      dup1\n      swap2\n      sub\n      swap1\n      revert\n    tag_53:\n        /* \"contracts/lab4ii.sol\":1352:1361  usercount */\n      0x03\n      0x00\n        /* \"contracts/lab4ii.sol\":1352:1363  usercount++ */\n      dup2\n      sload\n      dup1\n      swap3\n      swap2\n      swap1\n      tag_57\n      swap1\n      tag_58\n      jump\t// in\n    tag_57:\n      swap2\n      swap1\n      pop\n      sstore\n      pop\n        /* \"contracts/lab4ii.sol\":1298:1371  function performUserTask() public onlyUser {... */\n      jump\t// out\n        /* \"contracts/lab4ii.sol\":845:1012  function removeAdmin(address _admin) public onlyOwner {... */\n    tag_24:\n        /* \"contracts/lab4ii.sol\":321:326  owner */\n      0x00\n      dup1\n      sload\n      swap1\n      0x0100\n      exp\n      swap1\n      div\n      0xffffffffffffffffffffffffffffffffffffffff\n      and\n        /* \"contracts/lab4ii.sol\":307:326  msg.sender == owner */\n      0xffffffffffffffffffffffffffffffffffffffff\n      and\n        /* \"contracts/lab4ii.sol\":307:317  msg.sender */\n      caller\n        /* \"contracts/lab4ii.sol\":307:326  msg.sender == owner */\n      0xffffffffffffffffffffffffffffffffffffffff\n      and\n      eq\n        /* \"contracts/lab4ii.sol\":299:374  require(msg.sender == owner, \"Only contract owner can call this function.\") */\n      tag_60\n      jumpi\n      mload(0x40)\n      0x08c379a000000000000000000000000000000000000000000000000000000000\n      dup2\n      mstore\n      0x04\n      add\n      tag_61\n      swap1\n      tag_62\n      jump\t// in\n    tag_61:\n      mload(0x40)\n      dup1\n      swap2\n      sub\n      swap1\n      revert\n    tag_60:\n        /* \"contracts/lab4ii.sol\":928:933  owner */\n      0x00\n      dup1\n      sload\n      swap1\n      0x0100\n      exp\n      swap1\n      div\n      0xffffffffffffffffffffffffffffffffffffffff\n      and\n        /* \"contracts/lab4ii.sol\":918:933  _admin != owner */\n      0xffffffffffffffffffffffffffffffffffffffff\n      and\n        /* \"contracts/lab4ii.sol\":918:924  _admin */\n      dup2\n        /* \"contracts/lab4ii.sol\":918:933  _admin != owner */\n      0xffffffffffffffffffffffffffffffffffffffff\n      and\n      sub\n        /* \"contracts/lab4ii.sol\":910:971  require(_admin != owner, \"Owner cannot be removed as admin.\") */\n      tag_64\n      jumpi\n      mload(0x40)\n      0x08c379a000000000000000000000000000000000000000000000000000000000\n      dup2\n      mstore\n      0x04\n      add\n      tag_65\n      swap1\n      tag_66\n      jump\t// in\n    tag_65:\n      mload(0x40)\n      dup1\n      swap2\n      sub\n      swap1\n      revert\n    tag_64:\n        /* \"contracts/lab4ii.sol\":999:1004  false */\n      0x00\n        /* \"contracts/lab4ii.sol\":982:988  admins */\n      0x01\n        /* \"contracts/lab4ii.sol\":982:996  admins[_admin] */\n      0x00\n        /* \"contracts/lab4ii.sol\":989:995  _admin */\n      dup4\n        /* \"contracts/lab4ii.sol\":982:996  admins[_admin] */\n      0xffffffffffffffffffffffffffffffffffffffff\n      and\n      0xffffffffffffffffffffffffffffffffffffffff\n      and\n      dup2\n      mstore\n      0x20\n      add\n      swap1\n      dup2\n      mstore\n      0x20\n      add\n      0x00\n      keccak256\n      0x00\n        /* \"contracts/lab4ii.sol\":982:1004  admins[_admin] = false */\n      0x0100\n      exp\n      dup2\n      sload\n      dup2\n      0xff\n      mul\n      not\n      and\n      swap1\n      dup4\n      iszero\n      iszero\n      mul\n      or\n      swap1\n      sstore\n      pop\n        /* \"contracts/lab4ii.sol\":845:1012  function removeAdmin(address _admin) public onlyOwner {... */\n      pop\n      jump\t// out\n        /* \"contracts/lab4ii.sol\":1020:1107  function addUser(address _user) public onlyAdmin {... */\n    tag_27:\n        /* \"contracts/lab4ii.sol\":442:448  admins */\n      0x01\n        /* \"contracts/lab4ii.sol\":442:460  admins[msg.sender] */\n      0x00\n        /* \"contracts/lab4ii.sol\":449:459  msg.sender */\n      caller\n        /* \"contracts/lab4ii.sol\":442:460  admins[msg.sender] */\n      0xffffffffffffffffffffffffffffffffffffffff\n      and\n      0xffffffffffffffffffffffffffffffffffffffff\n      and\n      dup2\n      mstore\n      0x20\n      add\n      swap1\n      dup2\n      mstore\n      0x20\n      add\n      0x00\n      keccak256\n      0x00\n      swap1\n      sload\n      swap1\n      0x0100\n      exp\n      swap1\n      div\n      0xff\n      and\n        /* \"contracts/lab4ii.sol\":434:500  require(admins[msg.sender], \"Only admins can call this function.\") */\n      tag_68\n      jumpi\n      mload(0x40)\n      0x08c379a000000000000000000000000000000000000000000000000000000000\n      dup2\n      mstore\n      0x04\n      add\n      tag_69\n      swap1\n      tag_70\n      jump\t// in\n    tag_69:\n      mload(0x40)\n      dup1\n      swap2\n      sub\n      swap1\n      revert\n    tag_68:\n        /* \"contracts/lab4ii.sol\":1095:1099  true */\n      0x01\n        /* \"contracts/lab4ii.sol\":1080:1085  users */\n      0x02\n        /* \"contracts/lab4ii.sol\":1080:1092  users[_user] */\n      0x00\n        /* \"contracts/lab4ii.sol\":1086:1091  _user */\n      dup4\n        /* \"contracts/lab4ii.sol\":1080:1092  users[_user] */\n      0xffffffffffffffffffffffffffffffffffffffff\n      and\n      0xffffffffffffffffffffffffffffffffffffffff\n      and\n      dup2\n      mstore\n      0x20\n      add\n      swap1\n      dup2\n      mstore\n      0x20\n      add\n      0x00\n      keccak256\n      0x00\n        /* \"contracts/lab4ii.sol\":1080:1099  users[_user] = true */\n      0x0100\n      exp\n      dup2\n      sload\n      dup2\n      0xff\n      mul\n      not\n      and\n      swap1\n      dup4\n      iszero\n      iszero\n      mul\n      or\n      swap1\n      sstore\n      pop\n        /* \"contracts/lab4ii.sol\":1020:1107  function addUser(address _user) public onlyAdmin {... */\n      pop\n      jump\t// out\n        /* \"contracts/lab4ii.sol\":119:157  mapping(address => bool) public admins */\n    tag_30:\n      mstore(0x20, 0x01)\n      dup1\n      0x00\n      mstore\n      keccak256(0x00, 0x40)\n      0x00\n      swap2\n      pop\n      sload\n      swap1\n      0x0100\n      exp\n      swap1\n      div\n      0xff\n      and\n      dup2\n      jump\t// out\n        /* \"contracts/lab4ii.sol\":746:837  function addAdmin(address _admin) public onlyOwner {... */\n    tag_35:\n        /* \"contracts/lab4ii.sol\":321:326  owner */\n      0x00\n      dup1\n      sload\n      swap1\n      0x0100\n      exp\n      swap1\n      div\n      0xffffffffffffffffffffffffffffffffffffffff\n      and\n        /* \"contracts/lab4ii.sol\":307:326  msg.sender == owner */\n      0xffffffffffffffffffffffffffffffffffffffff\n      and\n        /* \"contracts/lab4ii.sol\":307:317  msg.sender */\n      caller\n        /* \"contracts/lab4ii.sol\":307:326  msg.sender == owner */\n      0xffffffffffffffffffffffffffffffffffffffff\n      and\n      eq\n        /* \"contracts/lab4ii.sol\":299:374  require(msg.sender == owner, \"Only contract owner can call this function.\") */\n      tag_73\n      jumpi\n      mload(0x40)\n      0x08c379a000000000000000000000000000000000000000000000000000000000\n      dup2\n      mstore\n      0x04\n      add\n      tag_74\n      swap1\n      tag_62\n      jump\t// in\n    tag_74:\n      mload(0x40)\n      dup1\n      swap2\n      sub\n      swap1\n      revert\n    tag_73:\n        /* \"contracts/lab4ii.sol\":825:829  true */\n      0x01\n        /* \"contracts/lab4ii.sol\":808:814  admins */\n      dup1\n        /* \"contracts/lab4ii.sol\":808:822  admins[_admin] */\n      0x00\n        /* \"contracts/lab4ii.sol\":815:821  _admin */\n      dup4\n        /* \"contracts/lab4ii.sol\":808:822  admins[_admin] */\n      0xffffffffffffffffffffffffffffffffffffffff\n      and\n      0xffffffffffffffffffffffffffffffffffffffff\n      and\n      dup2\n      mstore\n      0x20\n      add\n      swap1\n      dup2\n      mstore\n      0x20\n      add\n      0x00\n      keccak256\n      0x00\n        /* \"contracts/lab4ii.sol\":808:829  admins[_admin] = true */\n      0x0100\n      exp\n      dup2\n      sload\n      dup2\n      0xff\n      mul\n      not\n      and\n      swap1\n      dup4\n      iszero\n      iszero\n      mul\n      or\n      swap1\n      sstore\n      pop\n        /* \"contracts/lab4ii.sol\":746:837  function addAdmin(address _admin) public onlyOwner {... */\n      pop\n      jump\t// out\n        /* \"contracts/lab4ii.sol\":1214:1290  function performAdminTask() public onlyAdmin {... */\n    tag_37:\n        /* \"contracts/lab4ii.sol\":442:448  admins */\n      0x01\n        /* \"contracts/lab4ii.sol\":442:460  admins[msg.sender] */\n      0x00\n        /* \"contracts/lab4ii.sol\":449:459  msg.sender */\n      caller\n        /* \"contracts/lab4ii.sol\":442:460  admins[msg.sender] */\n      0xffffffffffffffffffffffffffffffffffffffff\n      and\n      0xffffffffffffffffffffffffffffffffffffffff\n      and\n      dup2\n      mstore\n      0x20\n      add\n      swap1\n      dup2\n      mstore\n      0x20\n      add\n      0x00\n      keccak256\n      0x00\n      swap1\n      sload\n      swap1\n      0x0100\n      exp\n      swap1\n      div\n      0xff\n      and\n        /* \"contracts/lab4ii.sol\":434:500  require(admins[msg.sender], \"Only admins can call this function.\") */\n      tag_77\n      jumpi\n      mload(0x40)\n      0x08c379a000000000000000000000000000000000000000000000000000000000\n      dup2\n      mstore\n      0x04\n      add\n      tag_78\n      swap1\n      tag_70\n      jump\t// in\n    tag_78:\n      mload(0x40)\n      dup1\n      swap2\n      sub\n      swap1\n      revert\n    tag_77:\n        /* \"contracts/lab4ii.sol\":1270:1280  admincount */\n      0x04\n      0x00\n        /* \"contracts/lab4ii.sol\":1270:1282  admincount++ */\n      dup2\n      sload\n      dup1\n      swap3\n      swap2\n      swap1\n      tag_80\n      swap1\n      tag_58\n      jump\t// in\n    tag_80:\n      swap2\n      swap1\n      pop\n      sstore\n      pop\n        /* \"contracts/lab4ii.sol\":1214:1290  function performAdminTask() public onlyAdmin {... */\n      jump\t// out\n        /* \"contracts/lab4ii.sol\":92:112  address public owner */\n    tag_39:\n      0x00\n      dup1\n      sload\n      swap1\n      0x0100\n      exp\n      swap1\n      div\n      0xffffffffffffffffffffffffffffffffffffffff\n      and\n      dup2\n      jump\t// out\n        /* \"contracts/lab4ii.sol\":1115:1206  function removeUser(address _user) public onlyAdmin {... */\n    tag_44:\n        /* \"contracts/lab4ii.sol\":442:448  admins */\n      0x01\n        /* \"contracts/lab4ii.sol\":442:460  admins[msg.sender] */\n      0x00\n        /* \"contracts/lab4ii.sol\":449:459  msg.sender */\n      caller\n        /* \"contracts/lab4ii.sol\":442:460  admins[msg.sender] */\n      0xffffffffffffffffffffffffffffffffffffffff\n      and\n      0xffffffffffffffffffffffffffffffffffffffff\n      and\n      dup2\n      mstore\n      0x20\n      add\n      swap1\n      dup2\n      mstore\n      0x20\n      add\n      0x00\n      keccak256\n      0x00\n      swap1\n      sload\n      swap1\n      0x0100\n      exp\n      swap1\n      div\n      0xff\n      and\n        /* \"contracts/lab4ii.sol\":434:500  require(admins[msg.sender], \"Only admins can call this function.\") */\n      tag_82\n      jumpi\n      mload(0x40)\n      0x08c379a000000000000000000000000000000000000000000000000000000000\n      dup2\n      mstore\n      0x04\n      add\n      tag_83\n      swap1\n      tag_70\n      jump\t// in\n    tag_83:\n      mload(0x40)\n      dup1\n      swap2\n      sub\n      swap1\n      revert\n    tag_82:\n        /* \"contracts/lab4ii.sol\":1193:1198  false */\n      0x00\n        /* \"contracts/lab4ii.sol\":1178:1183  users */\n      0x02\n        /* \"contracts/lab4ii.sol\":1178:1190  users[_user] */\n      0x00\n        /* \"contracts/lab4ii.sol\":1184:1189  _user */\n      dup4\n        /* \"contracts/lab4ii.sol\":1178:1190  users[_user] */\n      0xffffffffffffffffffffffffffffffffffffffff\n      and\n      0xffffffffffffffffffffffffffffffffffffffff\n      and\n      dup2\n      mstore\n      0x20\n      add\n      swap1\n      dup2\n      mstore\n      0x20\n      add\n      0x00\n      keccak256\n      0x00\n        /* \"contracts/lab4ii.sol\":1178:1198  users[_user] = false */\n      0x0100\n      exp\n      dup2\n      sload\n      dup2\n      0xff\n      mul\n      not\n      and\n      swap1\n      dup4\n      iszero\n      iszero\n      mul\n      or\n      swap1\n      sstore\n      pop\n        /* \"contracts/lab4ii.sol\":1115:1206  function removeUser(address _user) public onlyAdmin {... */\n      pop\n      jump\t// out\n        /* \"contracts/lab4ii.sol\":164:201  mapping(address => bool) public users */\n    tag_47:\n      mstore(0x20, 0x02)\n      dup1\n      0x00\n      mstore\n      keccak256(0x00, 0x40)\n      0x00\n      swap2\n      pop\n      sload\n      swap1\n      0x0100\n      exp\n      swap1\n      div\n      0xff\n      and\n      dup2\n      jump\t// out\n        /* \"contracts/lab4ii.sol\":236:258  uint public admincount */\n    tag_50:\n      sload(0x04)\n      dup2\n      jump\t// out\n        /* \"#utility.yul\":7:84   */\n    tag_85:\n        /* \"#utility.yul\":44:51   */\n      0x00\n        /* \"#utility.yul\":73:78   */\n      dup2\n        /* \"#utility.yul\":62:78   */\n      swap1\n      pop\n        /* \"#utility.yul\":7:84   */\n      swap2\n      swap1\n      pop\n      jump\t// out\n        /* \"#utility.yul\":90:208   */\n    tag_86:\n        /* \"#utility.yul\":177:201   */\n      tag_110\n        /* \"#utility.yul\":195:200   */\n      dup2\n        /* \"#utility.yul\":177:201   */\n      tag_85\n      jump\t// in\n    tag_110:\n        /* \"#utility.yul\":172:175   */\n      dup3\n        /* \"#utility.yul\":165:202   */\n      mstore\n        /* \"#utility.yul\":90:208   */\n      pop\n      pop\n      jump\t// out\n        /* \"#utility.yul\":214:436   */\n    tag_18:\n        /* \"#utility.yul\":307:311   */\n      0x00\n        /* \"#utility.yul\":345:347   */\n      0x20\n        /* \"#utility.yul\":334:343   */\n      dup3\n        /* \"#utility.yul\":330:348   */\n      add\n        /* \"#utility.yul\":322:348   */\n      swap1\n      pop\n        /* \"#utility.yul\":358:429   */\n      tag_112\n        /* \"#utility.yul\":426:427   */\n      0x00\n        /* \"#utility.yul\":415:424   */\n      dup4\n        /* \"#utility.yul\":411:428   */\n      add\n        /* \"#utility.yul\":402:408   */\n      dup5\n        /* \"#utility.yul\":358:429   */\n      tag_86\n      jump\t// in\n    tag_112:\n        /* \"#utility.yul\":214:436   */\n      swap3\n      swap2\n      pop\n      pop\n      jump\t// out\n        /* \"#utility.yul\":523:640   */\n    tag_88:\n        /* \"#utility.yul\":632:633   */\n      0x00\n        /* \"#utility.yul\":629:630   */\n      dup1\n        /* \"#utility.yul\":622:634   */\n      revert\n        /* \"#utility.yul\":769:895   */\n    tag_90:\n        /* \"#utility.yul\":806:813   */\n      0x00\n        /* \"#utility.yul\":846:888   */\n      0xffffffffffffffffffffffffffffffffffffffff\n        /* \"#utility.yul\":839:844   */\n      dup3\n        /* \"#utility.yul\":835:889   */\n      and\n        /* \"#utility.yul\":824:889   */\n      swap1\n      pop\n        /* \"#utility.yul\":769:895   */\n      swap2\n      swap1\n      pop\n      jump\t// out\n        /* \"#utility.yul\":901:997   */\n    tag_91:\n        /* \"#utility.yul\":938:945   */\n      0x00\n        /* \"#utility.yul\":967:991   */\n      tag_118\n        /* \"#utility.yul\":985:990   */\n      dup3\n        /* \"#utility.yul\":967:991   */\n      tag_90\n      jump\t// in\n    tag_118:\n        /* \"#utility.yul\":956:991   */\n      swap1\n      pop\n        /* \"#utility.yul\":901:997   */\n      swap2\n      swap1\n      pop\n      jump\t// out\n        /* \"#utility.yul\":1003:1125   */\n    tag_92:\n        /* \"#utility.yul\":1076:1100   */\n      tag_120\n        /* \"#utility.yul\":1094:1099   */\n      dup2\n        /* \"#utility.yul\":1076:1100   */\n      tag_91\n      jump\t// in\n    tag_120:\n        /* \"#utility.yul\":1069:1074   */\n      dup2\n        /* \"#utility.yul\":1066:1101   */\n      eq\n        /* \"#utility.yul\":1056:1119   */\n      tag_121\n      jumpi\n        /* \"#utility.yul\":1115:1116   */\n      0x00\n        /* \"#utility.yul\":1112:1113   */\n      dup1\n        /* \"#utility.yul\":1105:1117   */\n      revert\n        /* \"#utility.yul\":1056:1119   */\n    tag_121:\n        /* \"#utility.yul\":1003:1125   */\n      pop\n      jump\t// out\n        /* \"#utility.yul\":1131:1270   */\n    tag_93:\n        /* \"#utility.yul\":1177:1182   */\n      0x00\n        /* \"#utility.yul\":1215:1221   */\n      dup2\n        /* \"#utility.yul\":1202:1222   */\n      calldataload\n        /* \"#utility.yul\":1193:1222   */\n      swap1\n      pop\n        /* \"#utility.yul\":1231:1264   */\n      tag_123\n        /* \"#utility.yul\":1258:1263   */\n      dup2\n        /* \"#utility.yul\":1231:1264   */\n      tag_92\n      jump\t// in\n    tag_123:\n        /* \"#utility.yul\":1131:1270   */\n      swap3\n      swap2\n      pop\n      pop\n      jump\t// out\n        /* \"#utility.yul\":1276:1605   */\n    tag_23:\n        /* \"#utility.yul\":1335:1341   */\n      0x00\n        /* \"#utility.yul\":1384:1386   */\n      0x20\n        /* \"#utility.yul\":1372:1381   */\n      dup3\n        /* \"#utility.yul\":1363:1370   */\n      dup5\n        /* \"#utility.yul\":1359:1382   */\n      sub\n        /* \"#utility.yul\":1355:1387   */\n      slt\n        /* \"#utility.yul\":1352:1471   */\n      iszero\n      tag_125\n      jumpi\n        /* \"#utility.yul\":1390:1469   */\n      tag_126\n      tag_88\n      jump\t// in\n    tag_126:\n        /* \"#utility.yul\":1352:1471   */\n    tag_125:\n        /* \"#utility.yul\":1510:1511   */\n      0x00\n        /* \"#utility.yul\":1535:1588   */\n      tag_127\n        /* \"#utility.yul\":1580:1587   */\n      dup5\n        /* \"#utility.yul\":1571:1577   */\n      dup3\n        /* \"#utility.yul\":1560:1569   */\n      dup6\n        /* \"#utility.yul\":1556:1578   */\n      add\n        /* \"#utility.yul\":1535:1588   */\n      tag_93\n      jump\t// in\n    tag_127:\n        /* \"#utility.yul\":1525:1588   */\n      swap2\n      pop\n        /* \"#utility.yul\":1481:1598   */\n      pop\n        /* \"#utility.yul\":1276:1605   */\n      swap3\n      swap2\n      pop\n      pop\n      jump\t// out\n        /* \"#utility.yul\":1611:1701   */\n    tag_94:\n        /* \"#utility.yul\":1645:1652   */\n      0x00\n        /* \"#utility.yul\":1688:1693   */\n      dup2\n        /* \"#utility.yul\":1681:1694   */\n      iszero\n        /* \"#utility.yul\":1674:1695   */\n      iszero\n        /* \"#utility.yul\":1663:1695   */\n      swap1\n      pop\n        /* \"#utility.yul\":1611:1701   */\n      swap2\n      swap1\n      pop\n      jump\t// out\n        /* \"#utility.yul\":1707:1816   */\n    tag_95:\n        /* \"#utility.yul\":1788:1809   */\n      tag_130\n        /* \"#utility.yul\":1803:1808   */\n      dup2\n        /* \"#utility.yul\":1788:1809   */\n      tag_94\n      jump\t// in\n    tag_130:\n        /* \"#utility.yul\":1783:1786   */\n      dup3\n        /* \"#utility.yul\":1776:1810   */\n      mstore\n        /* \"#utility.yul\":1707:1816   */\n      pop\n      pop\n      jump\t// out\n        /* \"#utility.yul\":1822:2032   */\n    tag_32:\n        /* \"#utility.yul\":1909:1913   */\n      0x00\n        /* \"#utility.yul\":1947:1949   */\n      0x20\n        /* \"#utility.yul\":1936:1945   */\n      dup3\n        /* \"#utility.yul\":1932:1950   */\n      add\n        /* \"#utility.yul\":1924:1950   */\n      swap1\n      pop\n        /* \"#utility.yul\":1960:2025   */\n      tag_132\n        /* \"#utility.yul\":2022:2023   */\n      0x00\n        /* \"#utility.yul\":2011:2020   */\n      dup4\n        /* \"#utility.yul\":2007:2024   */\n      add\n        /* \"#utility.yul\":1998:2004   */\n      dup5\n        /* \"#utility.yul\":1960:2025   */\n      tag_95\n      jump\t// in\n    tag_132:\n        /* \"#utility.yul\":1822:2032   */\n      swap3\n      swap2\n      pop\n      pop\n      jump\t// out\n        /* \"#utility.yul\":2038:2156   */\n    tag_96:\n        /* \"#utility.yul\":2125:2149   */\n      tag_134\n        /* \"#utility.yul\":2143:2148   */\n      dup2\n        /* \"#utility.yul\":2125:2149   */\n      tag_91\n      jump\t// in\n    tag_134:\n        /* \"#utility.yul\":2120:2123   */\n      dup3\n        /* \"#utility.yul\":2113:2150   */\n      mstore\n        /* \"#utility.yul\":2038:2156   */\n      pop\n      pop\n      jump\t// out\n        /* \"#utility.yul\":2162:2384   */\n    tag_41:\n        /* \"#utility.yul\":2255:2259   */\n      0x00\n        /* \"#utility.yul\":2293:2295   */\n      0x20\n        /* \"#utility.yul\":2282:2291   */\n      dup3\n        /* \"#utility.yul\":2278:2296   */\n      add\n        /* \"#utility.yul\":2270:2296   */\n      swap1\n      pop\n        /* \"#utility.yul\":2306:2377   */\n      tag_136\n        /* \"#utility.yul\":2374:2375   */\n      0x00\n        /* \"#utility.yul\":2363:2372   */\n      dup4\n        /* \"#utility.yul\":2359:2376   */\n      add\n        /* \"#utility.yul\":2350:2356   */\n      dup5\n        /* \"#utility.yul\":2306:2377   */\n      tag_96\n      jump\t// in\n    tag_136:\n        /* \"#utility.yul\":2162:2384   */\n      swap3\n      swap2\n      pop\n      pop\n      jump\t// out\n        /* \"#utility.yul\":2390:2559   */\n    tag_97:\n        /* \"#utility.yul\":2474:2485   */\n      0x00\n        /* \"#utility.yul\":2508:2514   */\n      dup3\n        /* \"#utility.yul\":2503:2506   */\n      dup3\n        /* \"#utility.yul\":2496:2515   */\n      mstore\n        /* \"#utility.yul\":2548:2552   */\n      0x20\n        /* \"#utility.yul\":2543:2546   */\n      dup3\n        /* \"#utility.yul\":2539:2553   */\n      add\n        /* \"#utility.yul\":2524:2553   */\n      swap1\n      pop\n        /* \"#utility.yul\":2390:2559   */\n      swap3\n      swap2\n      pop\n      pop\n      jump\t// out\n        /* \"#utility.yul\":2565:2786   */\n    tag_98:\n        /* \"#utility.yul\":2705:2739   */\n      0x4f6e6c792075736572732063616e2063616c6c20746869732066756e6374696f\n        /* \"#utility.yul\":2701:2702   */\n      0x00\n        /* \"#utility.yul\":2693:2699   */\n      dup3\n        /* \"#utility.yul\":2689:2703   */\n      add\n        /* \"#utility.yul\":2682:2740   */\n      mstore\n        /* \"#utility.yul\":2774:2778   */\n      0x6e2e000000000000000000000000000000000000000000000000000000000000\n        /* \"#utility.yul\":2769:2771   */\n      0x20\n        /* \"#utility.yul\":2761:2767   */\n      dup3\n        /* \"#utility.yul\":2757:2772   */\n      add\n        /* \"#utility.yul\":2750:2779   */\n      mstore\n        /* \"#utility.yul\":2565:2786   */\n      pop\n      jump\t// out\n        /* \"#utility.yul\":2792:3158   */\n    tag_99:\n        /* \"#utility.yul\":2934:2937   */\n      0x00\n        /* \"#utility.yul\":2955:3022   */\n      tag_140\n        /* \"#utility.yul\":3019:3021   */\n      0x22\n        /* \"#utility.yul\":3014:3017   */\n      dup4\n        /* \"#utility.yul\":2955:3022   */\n      tag_97\n      jump\t// in\n    tag_140:\n        /* \"#utility.yul\":2948:3022   */\n      swap2\n      pop\n        /* \"#utility.yul\":3031:3124   */\n      tag_141\n        /* \"#utility.yul\":3120:3123   */\n      dup3\n        /* \"#utility.yul\":3031:3124   */\n      tag_98\n      jump\t// in\n    tag_141:\n        /* \"#utility.yul\":3149:3151   */\n      0x40\n        /* \"#utility.yul\":3144:3147   */\n      dup3\n        /* \"#utility.yul\":3140:3152   */\n      add\n        /* \"#utility.yul\":3133:3152   */\n      swap1\n      pop\n        /* \"#utility.yul\":2792:3158   */\n      swap2\n      swap1\n      pop\n      jump\t// out\n        /* \"#utility.yul\":3164:3583   */\n    tag_55:\n        /* \"#utility.yul\":3330:3334   */\n      0x00\n        /* \"#utility.yul\":3368:3370   */\n      0x20\n        /* \"#utility.yul\":3357:3366   */\n      dup3\n        /* \"#utility.yul\":3353:3371   */\n      add\n        /* \"#utility.yul\":3345:3371   */\n      swap1\n      pop\n        /* \"#utility.yul\":3417:3426   */\n      dup2\n        /* \"#utility.yul\":3411:3415   */\n      dup2\n        /* \"#utility.yul\":3407:3427   */\n      sub\n        /* \"#utility.yul\":3403:3404   */\n      0x00\n        /* \"#utility.yul\":3392:3401   */\n      dup4\n        /* \"#utility.yul\":3388:3405   */\n      add\n        /* \"#utility.yul\":3381:3428   */\n      mstore\n        /* \"#utility.yul\":3445:3576   */\n      tag_143\n        /* \"#utility.yul\":3571:3575   */\n      dup2\n        /* \"#utility.yul\":3445:3576   */\n      tag_99\n      jump\t// in\n    tag_143:\n        /* \"#utility.yul\":3437:3576   */\n      swap1\n      pop\n        /* \"#utility.yul\":3164:3583   */\n      swap2\n      swap1\n      pop\n      jump\t// out\n        /* \"#utility.yul\":3589:3769   */\n    tag_100:\n        /* \"#utility.yul\":3637:3714   */\n      0x4e487b7100000000000000000000000000000000000000000000000000000000\n        /* \"#utility.yul\":3634:3635   */\n      0x00\n        /* \"#utility.yul\":3627:3715   */\n      mstore\n        /* \"#utility.yul\":3734:3738   */\n      0x11\n        /* \"#utility.yul\":3731:3732   */\n      0x04\n        /* \"#utility.yul\":3724:3739   */\n      mstore\n        /* \"#utility.yul\":3758:3762   */\n      0x24\n        /* \"#utility.yul\":3755:3756   */\n      0x00\n        /* \"#utility.yul\":3748:3763   */\n      revert\n        /* \"#utility.yul\":3775:4008   */\n    tag_58:\n        /* \"#utility.yul\":3814:3817   */\n      0x00\n        /* \"#utility.yul\":3837:3861   */\n      tag_146\n        /* \"#utility.yul\":3855:3860   */\n      dup3\n        /* \"#utility.yul\":3837:3861   */\n      tag_85\n      jump\t// in\n    tag_146:\n        /* \"#utility.yul\":3828:3861   */\n      swap2\n      pop\n        /* \"#utility.yul\":3883:3949   */\n      0xffffffffffffffffffffffffffffffffffffffffffffffffffffffffffffffff\n        /* \"#utility.yul\":3876:3881   */\n      dup3\n        /* \"#utility.yul\":3873:3950   */\n      sub\n        /* \"#utility.yul\":3870:3973   */\n      tag_147\n      jumpi\n        /* \"#utility.yul\":3953:3971   */\n      tag_148\n      tag_100\n      jump\t// in\n    tag_148:\n        /* \"#utility.yul\":3870:3973   */\n    tag_147:\n        /* \"#utility.yul\":4000:4001   */\n      0x01\n        /* \"#utility.yul\":3993:3998   */\n      dup3\n        /* \"#utility.yul\":3989:4002   */\n      add\n        /* \"#utility.yul\":3982:4002   */\n      swap1\n      pop\n        /* \"#utility.yul\":3775:4008   */\n      swap2\n      swap1\n      pop\n      jump\t// out\n        /* \"#utility.yul\":4014:4244   */\n    tag_101:\n        /* \"#utility.yul\":4154:4188   */\n      0x4f6e6c7920636f6e7472616374206f776e65722063616e2063616c6c20746869\n        /* \"#utility.yul\":4150:4151   */\n      0x00\n        /* \"#utility.yul\":4142:4148   */\n      dup3\n        /* \"#utility.yul\":4138:4152   */\n      add\n        /* \"#utility.yul\":4131:4189   */\n      mstore\n        /* \"#utility.yul\":4223:4236   */\n      0x732066756e6374696f6e2e000000000000000000000000000000000000000000\n        /* \"#utility.yul\":4218:4220   */\n      0x20\n        /* \"#utility.yul\":4210:4216   */\n      dup3\n        /* \"#utility.yul\":4206:4221   */\n      add\n        /* \"#utility.yul\":4199:4237   */\n      mstore\n        /* \"#utility.yul\":4014:4244   */\n      pop\n      jump\t// out\n        /* \"#utility.yul\":4250:4616   */\n    tag_102:\n        /* \"#utility.yul\":4392:4395   */\n      0x00\n        /* \"#utility.yul\":4413:4480   */\n      tag_151\n        /* \"#utility.yul\":4477:4479   */\n      0x2b\n        /* \"#utility.yul\":4472:4475   */\n      dup4\n        /* \"#utility.yul\":4413:4480   */\n      tag_97\n      jump\t// in\n    tag_151:\n        /* \"#utility.yul\":4406:4480   */\n      swap2\n      pop\n        /* \"#utility.yul\":4489:4582   */\n      tag_152\n        /* \"#utility.yul\":4578:4581   */\n      dup3\n        /* \"#utility.yul\":4489:4582   */\n      tag_101\n      jump\t// in\n    tag_152:\n        /* \"#utility.yul\":4607:4609   */\n      0x40\n        /* \"#utility.yul\":4602:4605   */\n      dup3\n        /* \"#utility.yul\":4598:4610   */\n      add\n        /* \"#utility.yul\":4591:4610   */\n      swap1\n      pop\n        /* \"#utility.yul\":4250:4616   */\n      swap2\n      swap1\n      pop\n      jump\t// out\n        /* \"#utility.yul\":4622:5041   */\n    tag_62:\n        /* \"#utility.yul\":4788:4792   */\n      0x00\n        /* \"#utility.yul\":4826:4828   */\n      0x20\n        /* \"#utility.yul\":4815:4824   */\n      dup3\n        /* \"#utility.yul\":4811:4829   */\n      add\n        /* \"#utility.yul\":4803:4829   */\n      swap1\n      pop\n        /* \"#utility.yul\":4875:4884   */\n      dup2\n        /* \"#utility.yul\":4869:4873   */\n      dup2\n        /* \"#utility.yul\":4865:4885   */\n      sub\n        /* \"#utility.yul\":4861:4862   */\n      0x00\n        /* \"#utility.yul\":4850:4859   */\n      dup4\n        /* \"#utility.yul\":4846:4863   */\n      add\n        /* \"#utility.yul\":4839:4886   */\n      mstore\n        /* \"#utility.yul\":4903:5034   */\n      tag_154\n        /* \"#utility.yul\":5029:5033   */\n      dup2\n        /* \"#utility.yul\":4903:5034   */\n      tag_102\n      jump\t// in\n    tag_154:\n        /* \"#utility.yul\":4895:5034   */\n      swap1\n      pop\n        /* \"#utility.yul\":4622:5041   */\n      swap2\n      swap1\n      pop\n      jump\t// out\n        /* \"#utility.yul\":5047:5267   */\n    tag_103:\n        /* \"#utility.yul\":5187:5221   */\n      0x4f776e65722063616e6e6f742062652072656d6f7665642061732061646d696e\n        /* \"#utility.yul\":5183:5184   */\n      0x00\n        /* \"#utility.yul\":5175:5181   */\n      dup3\n        /* \"#utility.yul\":5171:5185   */\n      add\n        /* \"#utility.yul\":5164:5222   */\n      mstore\n        /* \"#utility.yul\":5256:5259   */\n      0x2e00000000000000000000000000000000000000000000000000000000000000\n        /* \"#utility.yul\":5251:5253   */\n      0x20\n        /* \"#utility.yul\":5243:5249   */\n      dup3\n        /* \"#utility.yul\":5239:5254   */\n      add\n        /* \"#utility.yul\":5232:5260   */\n      mstore\n        /* \"#utility.yul\":5047:5267   */\n      pop\n      jump\t// out\n        /* \"#utility.yul\":5273:5639   */\n    tag_104:\n        /* \"#utility.yul\":5415:5418   */\n      0x00\n        /* \"#utility.yul\":5436:5503   */\n      tag_157\n        /* \"#utility.yul\":5500:5502   */\n      0x21\n        /* \"#utility.yul\":5495:5498   */\n      dup4\n        /* \"#utility.yul\":5436:5503   */\n      tag_97\n      jump\t// in\n    tag_157:\n        /* \"#utility.yul\":5429:5503   */\n      swap2\n      pop\n        /* \"#utility.yul\":5512:5605   */\n      tag_158\n        /* \"#utility.yul\":5601:5604   */\n      dup3\n        /* \"#utility.yul\":5512:5605   */\n      tag_103\n      jump\t// in\n    tag_158:\n        /* \"#utility.yul\":5630:5632   */\n      0x40\n        /* \"#utility.yul\":5625:5628   */\n      dup3\n        /* \"#utility.yul\":5621:5633   */\n      add\n        /* \"#utility.yul\":5614:5633   */\n      swap1\n      pop\n        /* \"#utility.yul\":5273:5639   */\n      swap2\n      swap1\n      pop\n      jump\t// out\n        /* \"#utility.yul\":5645:6064   */\n    tag_66:\n        /* \"#utility.yul\":5811:5815   */\n      0x00\n        /* \"#utility.yul\":5849:5851   */\n      0x20\n        /* \"#utility.yul\":5838:5847   */\n      dup3\n        /* \"#utility.yul\":5834:5852   */\n      add\n        /* \"#utility.yul\":5826:5852   */\n      swap1\n      pop\n        /* \"#utility.yul\":5898:5907   */\n      dup2\n        /* \"#utility.yul\":5892:5896   */\n      dup2\n        /* \"#utility.yul\":5888:5908   */\n      sub\n        /* \"#utility.yul\":5884:5885   */\n      0x00\n        /* \"#utility.yul\":5873:5882   */\n      dup4\n        /* \"#utility.yul\":5869:5886   */\n      add\n        /* \"#utility.yul\":5862:5909   */\n      mstore\n        /* \"#utility.yul\":5926:6057   */\n      tag_160\n        /* \"#utility.yul\":6052:6056   */\n      dup2\n        /* \"#utility.yul\":5926:6057   */\n      tag_104\n      jump\t// in\n    tag_160:\n        /* \"#utility.yul\":5918:6057   */\n      swap1\n      pop\n        /* \"#utility.yul\":5645:6064   */\n      swap2\n      swap1\n      pop\n      jump\t// out\n        /* \"#utility.yul\":6070:6292   */\n    tag_105:\n        /* \"#utility.yul\":6210:6244   */\n      0x4f6e6c792061646d696e732063616e2063616c6c20746869732066756e637469\n        /* \"#utility.yul\":6206:6207   */\n      0x00\n        /* \"#utility.yul\":6198:6204   */\n      dup3\n        /* \"#utility.yul\":6194:6208   */\n      add\n        /* \"#utility.yul\":6187:6245   */\n      mstore\n        /* \"#utility.yul\":6279:6284   */\n      0x6f6e2e0000000000000000000000000000000000000000000000000000000000\n        /* \"#utility.yul\":6274:6276   */\n      0x20\n        /* \"#utility.yul\":6266:6272   */\n      dup3\n        /* \"#utility.yul\":6262:6277   */\n      add\n        /* \"#utility.yul\":6255:6285   */\n      mstore\n        /* \"#utility.yul\":6070:6292   */\n      pop\n      jump\t// out\n        /* \"#utility.yul\":6298:6664   */\n    tag_106:\n        /* \"#utility.yul\":6440:6443   */\n      0x00\n        /* \"#utility.yul\":6461:6528   */\n      tag_163\n        /* \"#utility.yul\":6525:6527   */\n      0x23\n        /* \"#utility.yul\":6520:6523   */\n      dup4\n        /* \"#utility.yul\":6461:6528   */\n      tag_97\n      jump\t// in\n    tag_163:\n        /* \"#utility.yul\":6454:6528   */\n      swap2\n      pop\n        /* \"#utility.yul\":6537:6630   */\n      tag_164\n        /* \"#utility.yul\":6626:6629   */\n      dup3\n        /* \"#utility.yul\":6537:6630   */\n      tag_105\n      jump\t// in\n    tag_164:\n        /* \"#utility.yul\":6655:6657   */\n      0x40\n        /* \"#utility.yul\":6650:6653   */\n      dup3\n        /* \"#utility.yul\":6646:6658   */\n      add\n        /* \"#utility.yul\":6639:6658   */\n      swap1\n      pop\n        /* \"#utility.yul\":6298:6664   */\n      swap2\n      swap1\n      pop\n      jump\t// out\n        /* \"#utility.yul\":6670:7089   */\n    tag_70:\n        /* \"#utility.yul\":6836:6840   */\n      0x00\n        /* \"#utility.yul\":6874:6876   */\n      0x20\n        /* \"#utility.yul\":6863:6872   */\n      dup3\n        /* \"#utility.yul\":6859:6877   */\n      add\n        /* \"#utility.yul\":6851:6877   */\n      swap1\n      pop\n        /* \"#utility.yul\":6923:6932   */\n      dup2\n        /* \"#utility.yul\":6917:6921   */\n      dup2\n        /* \"#utility.yul\":6913:6933   */\n      sub\n        /* \"#utility.yul\":6909:6910   */\n      0x00\n        /* \"#utility.yul\":6898:6907   */\n      dup4\n        /* \"#utility.yul\":6894:6911   */\n      add\n        /* \"#utility.yul\":6887:6934   */\n      mstore\n        /* \"#utility.yul\":6951:7082   */\n      tag_166\n        /* \"#utility.yul\":7077:7081   */\n      dup2\n        /* \"#utility.yul\":6951:7082   */\n      tag_106\n      jump\t// in\n    tag_166:\n        /* \"#utility.yul\":6943:7082   */\n      swap1\n      pop\n        /* \"#utility.yul\":6670:7089   */\n      swap2\n      swap1\n      pop\n      jump\t// out\n\n    auxdata: 0xa264697066735822122013eea846fab248f6bb392121c9187ef8fb025f066776d68a99bfd00c1580716964736f6c63430008180033\n}\n",
				"bytecode": {
					"linkReferences": {},
					"object": "608060405234801561000f575f80fd5b50335f806101000a81548173ffffffffffffffffffffffffffffffffffffffff021916908373ffffffffffffffffffffffffffffffffffffffff1602179055506001805f3373ffffffffffffffffffffffffffffffffffffffff1673ffffffffffffffffffffffffffffffffffffffff1681526020019081526020015f205f6101000a81548160ff021916908315150217905550610bb3806100b05f395ff3fe608060405234801561000f575f80fd5b50600436106100a7575f3560e01c8063704802751161006f578063704802751461013b578063843d50ca146101575780638da5cb5b14610161578063985751881461017f578063a87430ba1461019b578063ce9f1b03146101cb576100a7565b80630f322c1e146100ab5780630fe2e5a8146100c95780631785f53c146100d3578063421b2d8b146100ef578063429b62e51461010b575b5f80fd5b6100b36101e9565b6040516100c091906107c4565b60405180910390f35b6100d16101ef565b005b6100ed60048036038101906100e8919061083b565b610291565b005b6101096004803603810190610104919061083b565b610402565b005b6101256004803603810190610120919061083b565b6104e3565b6040516101329190610880565b60405180910390f35b6101556004803603810190610150919061083b565b610500565b005b61015f6105e4565b005b610169610686565b60405161017691906108a8565b60405180910390f35b6101996004803603810190610194919061083b565b6106a9565b005b6101b560048036038101906101b0919061083b565b610789565b6040516101c29190610880565b60405180910390f35b6101d36107a6565b6040516101e091906107c4565b60405180910390f35b60035481565b60025f3373ffffffffffffffffffffffffffffffffffffffff1673ffffffffffffffffffffffffffffffffffffffff1681526020019081526020015f205f9054906101000a900460ff16610278576040517f08c379a000000000000000000000000000000000000000000000000000000000815260040161026f90610941565b60405180910390fd5b60035f81548092919061028a9061098c565b9190505550565b5f8054906101000a900473ffffffffffffffffffffffffffffffffffffffff1673ffffffffffffffffffffffffffffffffffffffff163373ffffffffffffffffffffffffffffffffffffffff161461031e576040517f08c379a000000000000000000000000000000000000000000000000000000000815260040161031590610a43565b60405180910390fd5b5f8054906101000a900473ffffffffffffffffffffffffffffffffffffffff1673ffffffffffffffffffffffffffffffffffffffff168173ffffffffffffffffffffffffffffffffffffffff16036103ab576040517f08c379a00000000000000000000000000000000000000000000000000000000081526004016103a290610ad1565b60405180910390fd5b5f60015f8373ffffffffffffffffffffffffffffffffffffffff1673ffffffffffffffffffffffffffffffffffffffff1681526020019081526020015f205f6101000a81548160ff02191690831515021790555050565b60015f3373ffffffffffffffffffffffffffffffffffffffff1673ffffffffffffffffffffffffffffffffffffffff1681526020019081526020015f205f9054906101000a900460ff1661048b576040517f08c379a000000000000000000000000000000000000000000000000000000000815260040161048290610b5f565b60405180910390fd5b600160025f8373ffffffffffffffffffffffffffffffffffffffff1673ffffffffffffffffffffffffffffffffffffffff1681526020019081526020015f205f6101000a81548160ff02191690831515021790555050565b6001602052805f5260405f205f915054906101000a900460ff1681565b5f8054906101000a900473ffffffffffffffffffffffffffffffffffffffff1673ffffffffffffffffffffffffffffffffffffffff163373ffffffffffffffffffffffffffffffffffffffff161461058d576040517f08c379a000000000000000000000000000000000000000000000000000000000815260040161058490610a43565b60405180910390fd5b6001805f8373ffffffffffffffffffffffffffffffffffffffff1673ffffffffffffffffffffffffffffffffffffffff1681526020019081526020015f205f6101000a81548160ff02191690831515021790555050565b60015f3373ffffffffffffffffffffffffffffffffffffffff1673ffffffffffffffffffffffffffffffffffffffff1681526020019081526020015f205f9054906101000a900460ff1661066d576040517f08c379a000000000000000000000000000000000000000000000000000000000815260040161066490610b5f565b60405180910390fd5b60045f81548092919061067f9061098c565b9190505550565b5f8054906101000a900473ffffffffffffffffffffffffffffffffffffffff1681565b60015f3373ffffffffffffffffffffffffffffffffffffffff1673ffffffffffffffffffffffffffffffffffffffff1681526020019081526020015f205f9054906101000a900460ff16610732576040517f08c379a000000000000000000000000000000000000000000000000000000000815260040161072990610b5f565b60405180910390fd5b5f60025f8373ffffffffffffffffffffffffffffffffffffffff1673ffffffffffffffffffffffffffffffffffffffff1681526020019081526020015f205f6101000a81548160ff02191690831515021790555050565b6002602052805f5260405f205f915054906101000a900460ff1681565b60045481565b5f819050919050565b6107be816107ac565b82525050565b5f6020820190506107d75f8301846107b5565b92915050565b5f80fd5b5f73ffffffffffffffffffffffffffffffffffffffff82169050919050565b5f61080a826107e1565b9050919050565b61081a81610800565b8114610824575f80fd5b50565b5f8135905061083581610811565b92915050565b5f602082840312156108505761084f6107dd565b5b5f61085d84828501610827565b91505092915050565b5f8115159050919050565b61087a81610866565b82525050565b5f6020820190506108935f830184610871565b92915050565b6108a281610800565b82525050565b5f6020820190506108bb5f830184610899565b92915050565b5f82825260208201905092915050565b7f4f6e6c792075736572732063616e2063616c6c20746869732066756e6374696f5f8201527f6e2e000000000000000000000000000000000000000000000000000000000000602082015250565b5f61092b6022836108c1565b9150610936826108d1565b604082019050919050565b5f6020820190508181035f8301526109588161091f565b9050919050565b7f4e487b71000000000000000000000000000000000000000000000000000000005f52601160045260245ffd5b5f610996826107ac565b91507fffffffffffffffffffffffffffffffffffffffffffffffffffffffffffffffff82036109c8576109c761095f565b5b600182019050919050565b7f4f6e6c7920636f6e7472616374206f776e65722063616e2063616c6c207468695f8201527f732066756e6374696f6e2e000000000000000000000000000000000000000000602082015250565b5f610a2d602b836108c1565b9150610a38826109d3565b604082019050919050565b5f6020820190508181035f830152610a5a81610a21565b9050919050565b7f4f776e65722063616e6e6f742062652072656d6f7665642061732061646d696e5f8201527f2e00000000000000000000000000000000000000000000000000000000000000602082015250565b5f610abb6021836108c1565b9150610ac682610a61565b604082019050919050565b5f6020820190508181035f830152610ae881610aaf565b9050919050565b7f4f6e6c792061646d696e732063616e2063616c6c20746869732066756e6374695f8201527f6f6e2e0000000000000000000000000000000000000000000000000000000000602082015250565b5f610b496023836108c1565b9150610b5482610aef565b604082019050919050565b5f6020820190508181035f830152610b7681610b3d565b905091905056fea264697066735822122013eea846fab248f6bb392121c9187ef8fb025f066776d68a99bfd00c1580716964736f6c63430008180033",
					"opcodes": "PUSH1 0x80 PUSH1 0x40 MSTORE CALLVALUE DUP1 ISZERO PUSH2 0xF JUMPI PUSH0 DUP1 REVERT JUMPDEST POP CALLER PUSH0 DUP1 PUSH2 0x100 EXP DUP2 SLOAD DUP2 PUSH20 0xFFFFFFFFFFFFFFFFFFFFFFFFFFFFFFFFFFFFFFFF MUL NOT AND SWAP1 DUP4 PUSH20 0xFFFFFFFFFFFFFFFFFFFFFFFFFFFFFFFFFFFFFFFF AND MUL OR SWAP1 SSTORE POP PUSH1 0x1 DUP1 PUSH0 CALLER PUSH20 0xFFFFFFFFFFFFFFFFFFFFFFFFFFFFFFFFFFFFFFFF AND PUSH20 0xFFFFFFFFFFFFFFFFFFFFFFFFFFFFFFFFFFFFFFFF AND DUP2 MSTORE PUSH1 0x20 ADD SWAP1 DUP2 MSTORE PUSH1 0x20 ADD PUSH0 KECCAK256 PUSH0 PUSH2 0x100 EXP DUP2 SLOAD DUP2 PUSH1 0xFF MUL NOT AND SWAP1 DUP4 ISZERO ISZERO MUL OR SWAP1 SSTORE POP PUSH2 0xBB3 DUP1 PUSH2 0xB0 PUSH0 CODECOPY PUSH0 RETURN INVALID PUSH1 0x80 PUSH1 0x40 MSTORE CALLVALUE DUP1 ISZERO PUSH2 0xF JUMPI PUSH0 DUP1 REVERT JUMPDEST POP PUSH1 0x4 CALLDATASIZE LT PUSH2 0xA7 JUMPI PUSH0 CALLDATALOAD PUSH1 0xE0 SHR DUP1 PUSH4 0x70480275 GT PUSH2 0x6F JUMPI DUP1 PUSH4 0x70480275 EQ PUSH2 0x13B JUMPI DUP1 PUSH4 0x843D50CA EQ PUSH2 0x157 JUMPI DUP1 PUSH4 0x8DA5CB5B EQ PUSH2 0x161 JUMPI DUP1 PUSH4 0x98575188 EQ PUSH2 0x17F JUMPI DUP1 PUSH4 0xA87430BA EQ PUSH2 0x19B JUMPI DUP1 PUSH4 0xCE9F1B03 EQ PUSH2 0x1CB JUMPI PUSH2 0xA7 JUMP JUMPDEST DUP1 PUSH4 0xF322C1E EQ PUSH2 0xAB JUMPI DUP1 PUSH4 0xFE2E5A8 EQ PUSH2 0xC9 JUMPI DUP1 PUSH4 0x1785F53C EQ PUSH2 0xD3 JUMPI DUP1 PUSH4 0x421B2D8B EQ PUSH2 0xEF JUMPI DUP1 PUSH4 0x429B62E5 EQ PUSH2 0x10B JUMPI JUMPDEST PUSH0 DUP1 REVERT JUMPDEST PUSH2 0xB3 PUSH2 0x1E9 JUMP JUMPDEST PUSH1 0x40 MLOAD PUSH2 0xC0 SWAP2 SWAP1 PUSH2 0x7C4 JUMP JUMPDEST PUSH1 0x40 MLOAD DUP1 SWAP2 SUB SWAP1 RETURN JUMPDEST PUSH2 0xD1 PUSH2 0x1EF JUMP JUMPDEST STOP JUMPDEST PUSH2 0xED PUSH1 0x4 DUP1 CALLDATASIZE SUB DUP2 ADD SWAP1 PUSH2 0xE8 SWAP2 SWAP1 PUSH2 0x83B JUMP JUMPDEST PUSH2 0x291 JUMP JUMPDEST STOP JUMPDEST PUSH2 0x109 PUSH1 0x4 DUP1 CALLDATASIZE SUB DUP2 ADD SWAP1 PUSH2 0x104 SWAP2 SWAP1 PUSH2 0x83B JUMP JUMPDEST PUSH2 0x402 JUMP JUMPDEST STOP JUMPDEST PUSH2 0x125 PUSH1 0x4 DUP1 CALLDATASIZE SUB DUP2 ADD SWAP1 PUSH2 0x120 SWAP2 SWAP1 PUSH2 0x83B JUMP JUMPDEST PUSH2 0x4E3 JUMP JUMPDEST PUSH1 0x40 MLOAD PUSH2 0x132 SWAP2 SWAP1 PUSH2 0x880 JUMP JUMPDEST PUSH1 0x40 MLOAD DUP1 SWAP2 SUB SWAP1 RETURN JUMPDEST PUSH2 0x155 PUSH1 0x4 DUP1 CALLDATASIZE SUB DUP2 ADD SWAP1 PUSH2 0x150 SWAP2 SWAP1 PUSH2 0x83B JUMP JUMPDEST PUSH2 0x500 JUMP JUMPDEST STOP JUMPDEST PUSH2 0x15F PUSH2 0x5E4 JUMP JUMPDEST STOP JUMPDEST PUSH2 0x169 PUSH2 0x686 JUMP JUMPDEST PUSH1 0x40 MLOAD PUSH2 0x176 SWAP2 SWAP1 PUSH2 0x8A8 JUMP JUMPDEST PUSH1 0x40 MLOAD DUP1 SWAP2 SUB SWAP1 RETURN JUMPDEST PUSH2 0x199 PUSH1 0x4 DUP1 CALLDATASIZE SUB DUP2 ADD SWAP1 PUSH2 0x194 SWAP2 SWAP1 PUSH2 0x83B JUMP JUMPDEST PUSH2 0x6A9 JUMP JUMPDEST STOP JUMPDEST PUSH2 0x1B5 PUSH1 0x4 DUP1 CALLDATASIZE SUB DUP2 ADD SWAP1 PUSH2 0x1B0 SWAP2 SWAP1 PUSH2 0x83B JUMP JUMPDEST PUSH2 0x789 JUMP JUMPDEST PUSH1 0x40 MLOAD PUSH2 0x1C2 SWAP2 SWAP1 PUSH2 0x880 JUMP JUMPDEST PUSH1 0x40 MLOAD DUP1 SWAP2 SUB SWAP1 RETURN JUMPDEST PUSH2 0x1D3 PUSH2 0x7A6 JUMP JUMPDEST PUSH1 0x40 MLOAD PUSH2 0x1E0 SWAP2 SWAP1 PUSH2 0x7C4 JUMP JUMPDEST PUSH1 0x40 MLOAD DUP1 SWAP2 SUB SWAP1 RETURN JUMPDEST PUSH1 0x3 SLOAD DUP2 JUMP JUMPDEST PUSH1 0x2 PUSH0 CALLER PUSH20 0xFFFFFFFFFFFFFFFFFFFFFFFFFFFFFFFFFFFFFFFF AND PUSH20 0xFFFFFFFFFFFFFFFFFFFFFFFFFFFFFFFFFFFFFFFF AND DUP2 MSTORE PUSH1 0x20 ADD SWAP1 DUP2 MSTORE PUSH1 0x20 ADD PUSH0 KECCAK256 PUSH0 SWAP1 SLOAD SWAP1 PUSH2 0x100 EXP SWAP1 DIV PUSH1 0xFF AND PUSH2 0x278 JUMPI PUSH1 0x40 MLOAD PUSH32 0x8C379A000000000000000000000000000000000000000000000000000000000 DUP2 MSTORE PUSH1 0x4 ADD PUSH2 0x26F SWAP1 PUSH2 0x941 JUMP JUMPDEST PUSH1 0x40 MLOAD DUP1 SWAP2 SUB SWAP1 REVERT JUMPDEST PUSH1 0x3 PUSH0 DUP2 SLOAD DUP1 SWAP3 SWAP2 SWAP1 PUSH2 0x28A SWAP1 PUSH2 0x98C JUMP JUMPDEST SWAP2 SWAP1 POP SSTORE POP JUMP JUMPDEST PUSH0 DUP1 SLOAD SWAP1 PUSH2 0x100 EXP SWAP1 DIV PUSH20 0xFFFFFFFFFFFFFFFFFFFFFFFFFFFFFFFFFFFFFFFF AND PUSH20 0xFFFFFFFFFFFFFFFFFFFFFFFFFFFFFFFFFFFFFFFF AND CALLER PUSH20 0xFFFFFFFFFFFFFFFFFFFFFFFFFFFFFFFFFFFFFFFF AND EQ PUSH2 0x31E JUMPI PUSH1 0x40 MLOAD PUSH32 0x8C379A000000000000000000000000000000000000000000000000000000000 DUP2 MSTORE PUSH1 0x4 ADD PUSH2 0x315 SWAP1 PUSH2 0xA43 JUMP JUMPDEST PUSH1 0x40 MLOAD DUP1 SWAP2 SUB SWAP1 REVERT JUMPDEST PUSH0 DUP1 SLOAD SWAP1 PUSH2 0x100 EXP SWAP1 DIV PUSH20 0xFFFFFFFFFFFFFFFFFFFFFFFFFFFFFFFFFFFFFFFF AND PUSH20 0xFFFFFFFFFFFFFFFFFFFFFFFFFFFFFFFFFFFFFFFF AND DUP2 PUSH20 0xFFFFFFFFFFFFFFFFFFFFFFFFFFFFFFFFFFFFFFFF AND SUB PUSH2 0x3AB JUMPI PUSH1 0x40 MLOAD PUSH32 0x8C379A000000000000000000000000000000000000000000000000000000000 DUP2 MSTORE PUSH1 0x4 ADD PUSH2 0x3A2 SWAP1 PUSH2 0xAD1 JUMP JUMPDEST PUSH1 0x40 MLOAD DUP1 SWAP2 SUB SWAP1 REVERT JUMPDEST PUSH0 PUSH1 0x1 PUSH0 DUP4 PUSH20 0xFFFFFFFFFFFFFFFFFFFFFFFFFFFFFFFFFFFFFFFF AND PUSH20 0xFFFFFFFFFFFFFFFFFFFFFFFFFFFFFFFFFFFFFFFF AND DUP2 MSTORE PUSH1 0x20 ADD SWAP1 DUP2 MSTORE PUSH1 0x20 ADD PUSH0 KECCAK256 PUSH0 PUSH2 0x100 EXP DUP2 SLOAD DUP2 PUSH1 0xFF MUL NOT AND SWAP1 DUP4 ISZERO ISZERO MUL OR SWAP1 SSTORE POP POP JUMP JUMPDEST PUSH1 0x1 PUSH0 CALLER PUSH20 0xFFFFFFFFFFFFFFFFFFFFFFFFFFFFFFFFFFFFFFFF AND PUSH20 0xFFFFFFFFFFFFFFFFFFFFFFFFFFFFFFFFFFFFFFFF AND DUP2 MSTORE PUSH1 0x20 ADD SWAP1 DUP2 MSTORE PUSH1 0x20 ADD PUSH0 KECCAK256 PUSH0 SWAP1 SLOAD SWAP1 PUSH2 0x100 EXP SWAP1 DIV PUSH1 0xFF AND PUSH2 0x48B JUMPI PUSH1 0x40 MLOAD PUSH32 0x8C379A000000000000000000000000000000000000000000000000000000000 DUP2 MSTORE PUSH1 0x4 ADD PUSH2 0x482 SWAP1 PUSH2 0xB5F JUMP JUMPDEST PUSH1 0x40 MLOAD DUP1 SWAP2 SUB SWAP1 REVERT JUMPDEST PUSH1 0x1 PUSH1 0x2 PUSH0 DUP4 PUSH20 0xFFFFFFFFFFFFFFFFFFFFFFFFFFFFFFFFFFFFFFFF AND PUSH20 0xFFFFFFFFFFFFFFFFFFFFFFFFFFFFFFFFFFFFFFFF AND DUP2 MSTORE PUSH1 0x20 ADD SWAP1 DUP2 MSTORE PUSH1 0x20 ADD PUSH0 KECCAK256 PUSH0 PUSH2 0x100 EXP DUP2 SLOAD DUP2 PUSH1 0xFF MUL NOT AND SWAP1 DUP4 ISZERO ISZERO MUL OR SWAP1 SSTORE POP POP JUMP JUMPDEST PUSH1 0x1 PUSH1 0x20 MSTORE DUP1 PUSH0 MSTORE PUSH1 0x40 PUSH0 KECCAK256 PUSH0 SWAP2 POP SLOAD SWAP1 PUSH2 0x100 EXP SWAP1 DIV PUSH1 0xFF AND DUP2 JUMP JUMPDEST PUSH0 DUP1 SLOAD SWAP1 PUSH2 0x100 EXP SWAP1 DIV PUSH20 0xFFFFFFFFFFFFFFFFFFFFFFFFFFFFFFFFFFFFFFFF AND PUSH20 0xFFFFFFFFFFFFFFFFFFFFFFFFFFFFFFFFFFFFFFFF AND CALLER PUSH20 0xFFFFFFFFFFFFFFFFFFFFFFFFFFFFFFFFFFFFFFFF AND EQ PUSH2 0x58D JUMPI PUSH1 0x40 MLOAD PUSH32 0x8C379A000000000000000000000000000000000000000000000000000000000 DUP2 MSTORE PUSH1 0x4 ADD PUSH2 0x584 SWAP1 PUSH2 0xA43 JUMP JUMPDEST PUSH1 0x40 MLOAD DUP1 SWAP2 SUB SWAP1 REVERT JUMPDEST PUSH1 0x1 DUP1 PUSH0 DUP4 PUSH20 0xFFFFFFFFFFFFFFFFFFFFFFFFFFFFFFFFFFFFFFFF AND PUSH20 0xFFFFFFFFFFFFFFFFFFFFFFFFFFFFFFFFFFFFFFFF AND DUP2 MSTORE PUSH1 0x20 ADD SWAP1 DUP2 MSTORE PUSH1 0x20 ADD PUSH0 KECCAK256 PUSH0 PUSH2 0x100 EXP DUP2 SLOAD DUP2 PUSH1 0xFF MUL NOT AND SWAP1 DUP4 ISZERO ISZERO MUL OR SWAP1 SSTORE POP POP JUMP JUMPDEST PUSH1 0x1 PUSH0 CALLER PUSH20 0xFFFFFFFFFFFFFFFFFFFFFFFFFFFFFFFFFFFFFFFF AND PUSH20 0xFFFFFFFFFFFFFFFFFFFFFFFFFFFFFFFFFFFFFFFF AND DUP2 MSTORE PUSH1 0x20 ADD SWAP1 DUP2 MSTORE PUSH1 0x20 ADD PUSH0 KECCAK256 PUSH0 SWAP1 SLOAD SWAP1 PUSH2 0x100 EXP SWAP1 DIV PUSH1 0xFF AND PUSH2 0x66D JUMPI PUSH1 0x40 MLOAD PUSH32 0x8C379A000000000000000000000000000000000000000000000000000000000 DUP2 MSTORE PUSH1 0x4 ADD PUSH2 0x664 SWAP1 PUSH2 0xB5F JUMP JUMPDEST PUSH1 0x40 MLOAD DUP1 SWAP2 SUB SWAP1 REVERT JUMPDEST PUSH1 0x4 PUSH0 DUP2 SLOAD DUP1 SWAP3 SWAP2 SWAP1 PUSH2 0x67F SWAP1 PUSH2 0x98C JUMP JUMPDEST SWAP2 SWAP1 POP SSTORE POP JUMP JUMPDEST PUSH0 DUP1 SLOAD SWAP1 PUSH2 0x100 EXP SWAP1 DIV PUSH20 0xFFFFFFFFFFFFFFFFFFFFFFFFFFFFFFFFFFFFFFFF AND DUP2 JUMP JUMPDEST PUSH1 0x1 PUSH0 CALLER PUSH20 0xFFFFFFFFFFFFFFFFFFFFFFFFFFFFFFFFFFFFFFFF AND PUSH20 0xFFFFFFFFFFFFFFFFFFFFFFFFFFFFFFFFFFFFFFFF AND DUP2 MSTORE PUSH1 0x20 ADD SWAP1 DUP2 MSTORE PUSH1 0x20 ADD PUSH0 KECCAK256 PUSH0 SWAP1 SLOAD SWAP1 PUSH2 0x100 EXP SWAP1 DIV PUSH1 0xFF AND PUSH2 0x732 JUMPI PUSH1 0x40 MLOAD PUSH32 0x8C379A000000000000000000000000000000000000000000000000000000000 DUP2 MSTORE PUSH1 0x4 ADD PUSH2 0x729 SWAP1 PUSH2 0xB5F JUMP JUMPDEST PUSH1 0x40 MLOAD DUP1 SWAP2 SUB SWAP1 REVERT JUMPDEST PUSH0 PUSH1 0x2 PUSH0 DUP4 PUSH20 0xFFFFFFFFFFFFFFFFFFFFFFFFFFFFFFFFFFFFFFFF AND PUSH20 0xFFFFFFFFFFFFFFFFFFFFFFFFFFFFFFFFFFFFFFFF AND DUP2 MSTORE PUSH1 0x20 ADD SWAP1 DUP2 MSTORE PUSH1 0x20 ADD PUSH0 KECCAK256 PUSH0 PUSH2 0x100 EXP DUP2 SLOAD DUP2 PUSH1 0xFF MUL NOT AND SWAP1 DUP4 ISZERO ISZERO MUL OR SWAP1 SSTORE POP POP JUMP JUMPDEST PUSH1 0x2 PUSH1 0x20 MSTORE DUP1 PUSH0 MSTORE PUSH1 0x40 PUSH0 KECCAK256 PUSH0 SWAP2 POP SLOAD SWAP1 PUSH2 0x100 EXP SWAP1 DIV PUSH1 0xFF AND DUP2 JUMP JUMPDEST PUSH1 0x4 SLOAD DUP2 JUMP JUMPDEST PUSH0 DUP2 SWAP1 POP SWAP2 SWAP1 POP JUMP JUMPDEST PUSH2 0x7BE DUP2 PUSH2 0x7AC JUMP JUMPDEST DUP3 MSTORE POP POP JUMP JUMPDEST PUSH0 PUSH1 0x20 DUP3 ADD SWAP1 POP PUSH2 0x7D7 PUSH0 DUP4 ADD DUP5 PUSH2 0x7B5 JUMP JUMPDEST SWAP3 SWAP2 POP POP JUMP JUMPDEST PUSH0 DUP1 REVERT JUMPDEST PUSH0 PUSH20 0xFFFFFFFFFFFFFFFFFFFFFFFFFFFFFFFFFFFFFFFF DUP3 AND SWAP1 POP SWAP2 SWAP1 POP JUMP JUMPDEST PUSH0 PUSH2 0x80A DUP3 PUSH2 0x7E1 JUMP JUMPDEST SWAP1 POP SWAP2 SWAP1 POP JUMP JUMPDEST PUSH2 0x81A DUP2 PUSH2 0x800 JUMP JUMPDEST DUP2 EQ PUSH2 0x824 JUMPI PUSH0 DUP1 REVERT JUMPDEST POP JUMP JUMPDEST PUSH0 DUP2 CALLDATALOAD SWAP1 POP PUSH2 0x835 DUP2 PUSH2 0x811 JUMP JUMPDEST SWAP3 SWAP2 POP POP JUMP JUMPDEST PUSH0 PUSH1 0x20 DUP3 DUP5 SUB SLT ISZERO PUSH2 0x850 JUMPI PUSH2 0x84F PUSH2 0x7DD JUMP JUMPDEST JUMPDEST PUSH0 PUSH2 0x85D DUP5 DUP3 DUP6 ADD PUSH2 0x827 JUMP JUMPDEST SWAP2 POP POP SWAP3 SWAP2 POP POP JUMP JUMPDEST PUSH0 DUP2 ISZERO ISZERO SWAP1 POP SWAP2 SWAP1 POP JUMP JUMPDEST PUSH2 0x87A DUP2 PUSH2 0x866 JUMP JUMPDEST DUP3 MSTORE POP POP JUMP JUMPDEST PUSH0 PUSH1 0x20 DUP3 ADD SWAP1 POP PUSH2 0x893 PUSH0 DUP4 ADD DUP5 PUSH2 0x871 JUMP JUMPDEST SWAP3 SWAP2 POP POP JUMP JUMPDEST PUSH2 0x8A2 DUP2 PUSH2 0x800 JUMP JUMPDEST DUP3 MSTORE POP POP JUMP JUMPDEST PUSH0 PUSH1 0x20 DUP3 ADD SWAP1 POP PUSH2 0x8BB PUSH0 DUP4 ADD DUP5 PUSH2 0x899 JUMP JUMPDEST SWAP3 SWAP2 POP POP JUMP JUMPDEST PUSH0 DUP3 DUP3 MSTORE PUSH1 0x20 DUP3 ADD SWAP1 POP SWAP3 SWAP2 POP POP JUMP JUMPDEST PUSH32 0x4F6E6C792075736572732063616E2063616C6C20746869732066756E6374696F PUSH0 DUP3 ADD MSTORE PUSH32 0x6E2E000000000000000000000000000000000000000000000000000000000000 PUSH1 0x20 DUP3 ADD MSTORE POP JUMP JUMPDEST PUSH0 PUSH2 0x92B PUSH1 0x22 DUP4 PUSH2 0x8C1 JUMP JUMPDEST SWAP2 POP PUSH2 0x936 DUP3 PUSH2 0x8D1 JUMP JUMPDEST PUSH1 0x40 DUP3 ADD SWAP1 POP SWAP2 SWAP1 POP JUMP JUMPDEST PUSH0 PUSH1 0x20 DUP3 ADD SWAP1 POP DUP2 DUP2 SUB PUSH0 DUP4 ADD MSTORE PUSH2 0x958 DUP2 PUSH2 0x91F JUMP JUMPDEST SWAP1 POP SWAP2 SWAP1 POP JUMP JUMPDEST PUSH32 0x4E487B7100000000000000000000000000000000000000000000000000000000 PUSH0 MSTORE PUSH1 0x11 PUSH1 0x4 MSTORE PUSH1 0x24 PUSH0 REVERT JUMPDEST PUSH0 PUSH2 0x996 DUP3 PUSH2 0x7AC JUMP JUMPDEST SWAP2 POP PUSH32 0xFFFFFFFFFFFFFFFFFFFFFFFFFFFFFFFFFFFFFFFFFFFFFFFFFFFFFFFFFFFFFFFF DUP3 SUB PUSH2 0x9C8 JUMPI PUSH2 0x9C7 PUSH2 0x95F JUMP JUMPDEST JUMPDEST PUSH1 0x1 DUP3 ADD SWAP1 POP SWAP2 SWAP1 POP JUMP JUMPDEST PUSH32 0x4F6E6C7920636F6E7472616374206F776E65722063616E2063616C6C20746869 PUSH0 DUP3 ADD MSTORE PUSH32 0x732066756E6374696F6E2E000000000000000000000000000000000000000000 PUSH1 0x20 DUP3 ADD MSTORE POP JUMP JUMPDEST PUSH0 PUSH2 0xA2D PUSH1 0x2B DUP4 PUSH2 0x8C1 JUMP JUMPDEST SWAP2 POP PUSH2 0xA38 DUP3 PUSH2 0x9D3 JUMP JUMPDEST PUSH1 0x40 DUP3 ADD SWAP1 POP SWAP2 SWAP1 POP JUMP JUMPDEST PUSH0 PUSH1 0x20 DUP3 ADD SWAP1 POP DUP2 DUP2 SUB PUSH0 DUP4 ADD MSTORE PUSH2 0xA5A DUP2 PUSH2 0xA21 JUMP JUMPDEST SWAP1 POP SWAP2 SWAP1 POP JUMP JUMPDEST PUSH32 0x4F776E65722063616E6E6F742062652072656D6F7665642061732061646D696E PUSH0 DUP3 ADD MSTORE PUSH32 0x2E00000000000000000000000000000000000000000000000000000000000000 PUSH1 0x20 DUP3 ADD MSTORE POP JUMP JUMPDEST PUSH0 PUSH2 0xABB PUSH1 0x21 DUP4 PUSH2 0x8C1 JUMP JUMPDEST SWAP2 POP PUSH2 0xAC6 DUP3 PUSH2 0xA61 JUMP JUMPDEST PUSH1 0x40 DUP3 ADD SWAP1 POP SWAP2 SWAP1 POP JUMP JUMPDEST PUSH0 PUSH1 0x20 DUP3 ADD SWAP1 POP DUP2 DUP2 SUB PUSH0 DUP4 ADD MSTORE PUSH2 0xAE8 DUP2 PUSH2 0xAAF JUMP JUMPDEST SWAP1 POP SWAP2 SWAP1 POP JUMP JUMPDEST PUSH32 0x4F6E6C792061646D696E732063616E2063616C6C20746869732066756E637469 PUSH0 DUP3 ADD MSTORE PUSH32 0x6F6E2E0000000000000000000000000000000000000000000000000000000000 PUSH1 0x20 DUP3 ADD MSTORE POP JUMP JUMPDEST PUSH0 PUSH2 0xB49 PUSH1 0x23 DUP4 PUSH2 0x8C1 JUMP JUMPDEST SWAP2 POP PUSH2 0xB54 DUP3 PUSH2 0xAEF JUMP JUMPDEST PUSH1 0x40 DUP3 ADD SWAP1 POP SWAP2 SWAP1 POP JUMP JUMPDEST PUSH0 PUSH1 0x20 DUP3 ADD SWAP1 POP DUP2 DUP2 SUB PUSH0 DUP4 ADD MSTORE PUSH2 0xB76 DUP2 PUSH2 0xB3D JUMP JUMPDEST SWAP1 POP SWAP2 SWAP1 POP JUMP INVALID LOG2 PUSH5 0x6970667358 0x22 SLT KECCAK256 SGT 0xEE 0xA8 CHAINID STATICCALL 0xB2 BASEFEE 0xF6 0xBB CODECOPY 0x21 0x21 0xC9 XOR PUSH31 0xF8FB025F066776D68A99BFD00C1580716964736F6C63430008180033000000 "
				},
				"gasEstimates": {
					"creation": {
						"codeDepositCost": "599000",
						"executionCost": "49248",
						"totalCost": "648248"
					},
					"external": {
						"addAdmin(address)": "26969",
						"addUser(address)": "27109",
						"admincount()": "2535",
						"admins(address)": "2922",
						"owner()": "2549",
						"performAdminTask()": "26758",
						"performUserTask()": "26759",
						"removeAdmin(address)": "29180",
						"removeUser(address)": "27107",
						"usercount()": "2426",
						"users(address)": "2921"
					}
				},
				"methodIdentifiers": {
					"addAdmin(address)": "70480275",
					"addUser(address)": "421b2d8b",
					"admincount()": "ce9f1b03",
					"admins(address)": "429b62e5",
					"owner()": "8da5cb5b",
					"performAdminTask()": "843d50ca",
					"performUserTask()": "0fe2e5a8",
					"removeAdmin(address)": "1785f53c",
					"removeUser(address)": "98575188",
					"usercount()": "0f322c1e",
					"users(address)": "a87430ba"
				}
			},
			"storageLayout": {
				"storage": [
					{
						"astId": 3,
						"contract": "contracts/lab4ii.sol:AccessControl",
						"label": "owner",
						"offset": 0,
						"slot": "0",
						"type": "t_address"
					},
					{
						"astId": 7,
						"contract": "contracts/lab4ii.sol:AccessControl",
						"label": "admins",
						"offset": 0,
						"slot": "1",
						"type": "t_mapping(t_address,t_bool)"
					},
					{
						"astId": 11,
						"contract": "contracts/lab4ii.sol:AccessControl",
						"label": "users",
						"offset": 0,
						"slot": "2",
						"type": "t_mapping(t_address,t_bool)"
					},
					{
						"astId": 13,
						"contract": "contracts/lab4ii.sol:AccessControl",
						"label": "usercount",
						"offset": 0,
						"slot": "3",
						"type": "t_uint256"
					},
					{
						"astId": 15,
						"contract": "contracts/lab4ii.sol:AccessControl",
						"label": "admincount",
						"offset": 0,
						"slot": "4",
						"type": "t_uint256"
					}
				],
				"types": {
					"t_address": {
						"encoding": "inplace",
						"label": "address",
						"numberOfBytes": "20"
					},
					"t_bool": {
						"encoding": "inplace",
						"label": "bool",
						"numberOfBytes": "1"
					},
					"t_mapping(t_address,t_bool)": {
						"encoding": "mapping",
						"key": "t_address",
						"label": "mapping(address => bool)",
						"numberOfBytes": "32",
						"value": "t_bool"
					},
					"t_uint256": {
						"encoding": "inplace",
						"label": "uint256",
						"numberOfBytes": "32"
					}
				}
			},
			"userdoc": {
				"kind": "user",
				"methods": {},
				"version": 1
			}
		}
	}
}