{
	"contracts/attackethergame.sol": {
		"EtherGame": {
			"abi": [
				{
					"inputs": [],
					"name": "deposit",
					"outputs": [],
					"stateMutability": "payable",
					"type": "function"
				},
				{
					"inputs": [],
					"name": "winner",
					"outputs": [
						{
							"internalType": "address",
							"name": "",
							"type": "address"
						}
					],
					"stateMutability": "view",
					"type": "function"
				}
			],
			"devdoc": {
				"kind": "dev",
				"methods": {},
				"version": 1
			},
			"evm": {
				"assembly": "    /* \"contracts/attackethergame.sol\":61:475  contract EtherGame{... */\n  mstore(0x40, 0x80)\n    /* \"contracts/attackethergame.sol\":101:108  7 ether */\n  0x6124fee993bc0000\n    /* \"contracts/attackethergame.sol\":86:108  uint targetamt=7 ether */\n  0x00\n  sstore\n    /* \"contracts/attackethergame.sol\":61:475  contract EtherGame{... */\n  callvalue\n  dup1\n  iszero\n  tag_1\n  jumpi\n  0x00\n  dup1\n  revert\ntag_1:\n  pop\n  dataSize(sub_0)\n  dup1\n  dataOffset(sub_0)\n  0x00\n  codecopy\n  0x00\n  return\nstop\n\nsub_0: assembly {\n        /* \"contracts/attackethergame.sol\":61:475  contract EtherGame{... */\n      mstore(0x40, 0x80)\n      jumpi(tag_1, lt(calldatasize, 0x04))\n      shr(0xe0, calldataload(0x00))\n      dup1\n      0xd0e30db0\n      eq\n      tag_2\n      jumpi\n      dup1\n      0xdfbf53ae\n      eq\n      tag_3\n      jumpi\n    tag_1:\n      0x00\n      dup1\n      revert\n        /* \"contracts/attackethergame.sol\":144:470  function deposit()public  payable {... */\n    tag_2:\n      tag_4\n      tag_5\n      jump\t// in\n    tag_4:\n      stop\n        /* \"contracts/attackethergame.sol\":115:137  address public  winner */\n    tag_3:\n      callvalue\n      dup1\n      iszero\n      tag_6\n      jumpi\n      0x00\n      dup1\n      revert\n    tag_6:\n      pop\n      tag_7\n      tag_8\n      jump\t// in\n    tag_7:\n      mload(0x40)\n      tag_9\n      swap2\n      swap1\n      tag_10\n      jump\t// in\n    tag_9:\n      mload(0x40)\n      dup1\n      swap2\n      sub\n      swap1\n      return\n        /* \"contracts/attackethergame.sol\":144:470  function deposit()public  payable {... */\n    tag_5:\n        /* \"contracts/attackethergame.sol\":206:213  1 ether */\n      0x0de0b6b3a7640000\n        /* \"contracts/attackethergame.sol\":195:204  msg.value */\n      callvalue\n        /* \"contracts/attackethergame.sol\":195:213  msg.value==1 ether */\n      eq\n        /* \"contracts/attackethergame.sol\":185:240  require ( msg.value==1 ether,\"you can onlysend 1 eth\" ) */\n      tag_12\n      jumpi\n      mload(0x40)\n      0x08c379a000000000000000000000000000000000000000000000000000000000\n      dup2\n      mstore\n      0x04\n      add\n      tag_13\n      swap1\n      tag_14\n      jump\t// in\n    tag_13:\n      mload(0x40)\n      dup1\n      swap2\n      sub\n      swap1\n      revert\n    tag_12:\n        /* \"contracts/attackethergame.sol\":278:287  targetamt */\n      sload(0x00)\n        /* \"contracts/attackethergame.sol\":255:276  address(this).balance */\n      selfbalance\n        /* \"contracts/attackethergame.sol\":255:287  address(this).balance<=targetamt */\n      gt\n      iszero\n        /* \"contracts/attackethergame.sol\":247:300  require(address(this).balance<=targetamt,\"Game Over\") */\n      tag_15\n      jumpi\n      mload(0x40)\n      0x08c379a000000000000000000000000000000000000000000000000000000000\n      dup2\n      mstore\n      0x04\n      add\n      tag_16\n      swap1\n      tag_17\n      jump\t// in\n    tag_16:\n      mload(0x40)\n      dup1\n      swap2\n      sub\n      swap1\n      revert\n    tag_15:\n        /* \"contracts/attackethergame.sol\":336:345  targetamt */\n      sload(0x00)\n        /* \"contracts/attackethergame.sol\":311:332  address(this).balance */\n      selfbalance\n        /* \"contracts/attackethergame.sol\":311:345  address(this).balance == targetamt */\n      sub\n        /* \"contracts/attackethergame.sol\":307:453  if (address(this).balance == targetamt){... */\n      tag_18\n      jumpi\n        /* \"contracts/attackethergame.sol\":358:364  bool s */\n      0x00\n        /* \"contracts/attackethergame.sol\":367:377  msg.sender */\n      caller\n        /* \"contracts/attackethergame.sol\":367:382  msg.sender.call */\n      0xffffffffffffffffffffffffffffffffffffffff\n      and\n        /* \"contracts/attackethergame.sol\":389:410  address(this).balance */\n      selfbalance\n        /* \"contracts/attackethergame.sol\":367:415  msg.sender.call{value:address(this).balance}(\"\") */\n      mload(0x40)\n      tag_19\n      swap1\n      tag_20\n      jump\t// in\n    tag_19:\n      0x00\n      mload(0x40)\n      dup1\n      dup4\n      sub\n      dup2\n      dup6\n      dup8\n      gas\n      call\n      swap3\n      pop\n      pop\n      pop\n      returndatasize\n      dup1\n      0x00\n      dup2\n      eq\n      tag_23\n      jumpi\n      mload(0x40)\n      swap2\n      pop\n      and(add(returndatasize, 0x3f), not(0x1f))\n      dup3\n      add\n      0x40\n      mstore\n      returndatasize\n      dup3\n      mstore\n      returndatasize\n      0x00\n      0x20\n      dup5\n      add\n      returndatacopy\n      jump(tag_22)\n    tag_23:\n      0x60\n      swap2\n      pop\n    tag_22:\n      pop\n        /* \"contracts/attackethergame.sol\":357:415  (bool s,)=msg.sender.call{value:address(this).balance}(\"\") */\n      pop\n      swap1\n      pop\n        /* \"contracts/attackethergame.sol\":434:435  s */\n      dup1\n        /* \"contracts/attackethergame.sol\":426:445  require(s,\"Failed\") */\n      tag_24\n      jumpi\n      mload(0x40)\n      0x08c379a000000000000000000000000000000000000000000000000000000000\n      dup2\n      mstore\n      0x04\n      add\n      tag_25\n      swap1\n      tag_26\n      jump\t// in\n    tag_25:\n      mload(0x40)\n      dup1\n      swap2\n      sub\n      swap1\n      revert\n    tag_24:\n        /* \"contracts/attackethergame.sol\":346:453  {... */\n      pop\n        /* \"contracts/attackethergame.sol\":307:453  if (address(this).balance == targetamt){... */\n    tag_18:\n        /* \"contracts/attackethergame.sol\":144:470  function deposit()public  payable {... */\n      jump\t// out\n        /* \"contracts/attackethergame.sol\":115:137  address public  winner */\n    tag_8:\n      0x01\n      0x00\n      swap1\n      sload\n      swap1\n      0x0100\n      exp\n      swap1\n      div\n      0xffffffffffffffffffffffffffffffffffffffff\n      and\n      dup2\n      jump\t// out\n        /* \"#utility.yul\":7:133   */\n    tag_27:\n        /* \"#utility.yul\":44:51   */\n      0x00\n        /* \"#utility.yul\":84:126   */\n      0xffffffffffffffffffffffffffffffffffffffff\n        /* \"#utility.yul\":77:82   */\n      dup3\n        /* \"#utility.yul\":73:127   */\n      and\n        /* \"#utility.yul\":62:127   */\n      swap1\n      pop\n        /* \"#utility.yul\":7:133   */\n      swap2\n      swap1\n      pop\n      jump\t// out\n        /* \"#utility.yul\":139:235   */\n    tag_28:\n        /* \"#utility.yul\":176:183   */\n      0x00\n        /* \"#utility.yul\":205:229   */\n      tag_43\n        /* \"#utility.yul\":223:228   */\n      dup3\n        /* \"#utility.yul\":205:229   */\n      tag_27\n      jump\t// in\n    tag_43:\n        /* \"#utility.yul\":194:229   */\n      swap1\n      pop\n        /* \"#utility.yul\":139:235   */\n      swap2\n      swap1\n      pop\n      jump\t// out\n        /* \"#utility.yul\":241:359   */\n    tag_29:\n        /* \"#utility.yul\":328:352   */\n      tag_45\n        /* \"#utility.yul\":346:351   */\n      dup2\n        /* \"#utility.yul\":328:352   */\n      tag_28\n      jump\t// in\n    tag_45:\n        /* \"#utility.yul\":323:326   */\n      dup3\n        /* \"#utility.yul\":316:353   */\n      mstore\n        /* \"#utility.yul\":241:359   */\n      pop\n      pop\n      jump\t// out\n        /* \"#utility.yul\":365:587   */\n    tag_10:\n        /* \"#utility.yul\":458:462   */\n      0x00\n        /* \"#utility.yul\":496:498   */\n      0x20\n        /* \"#utility.yul\":485:494   */\n      dup3\n        /* \"#utility.yul\":481:499   */\n      add\n        /* \"#utility.yul\":473:499   */\n      swap1\n      pop\n        /* \"#utility.yul\":509:580   */\n      tag_47\n        /* \"#utility.yul\":577:578   */\n      0x00\n        /* \"#utility.yul\":566:575   */\n      dup4\n        /* \"#utility.yul\":562:579   */\n      add\n        /* \"#utility.yul\":553:559   */\n      dup5\n        /* \"#utility.yul\":509:580   */\n      tag_29\n      jump\t// in\n    tag_47:\n        /* \"#utility.yul\":365:587   */\n      swap3\n      swap2\n      pop\n      pop\n      jump\t// out\n        /* \"#utility.yul\":593:762   */\n    tag_30:\n        /* \"#utility.yul\":677:688   */\n      0x00\n        /* \"#utility.yul\":711:717   */\n      dup3\n        /* \"#utility.yul\":706:709   */\n      dup3\n        /* \"#utility.yul\":699:718   */\n      mstore\n        /* \"#utility.yul\":751:755   */\n      0x20\n        /* \"#utility.yul\":746:749   */\n      dup3\n        /* \"#utility.yul\":742:756   */\n      add\n        /* \"#utility.yul\":727:756   */\n      swap1\n      pop\n        /* \"#utility.yul\":593:762   */\n      swap3\n      swap2\n      pop\n      pop\n      jump\t// out\n        /* \"#utility.yul\":768:940   */\n    tag_31:\n        /* \"#utility.yul\":908:932   */\n      0x796f752063616e206f6e6c7973656e6420312065746800000000000000000000\n        /* \"#utility.yul\":904:905   */\n      0x00\n        /* \"#utility.yul\":896:902   */\n      dup3\n        /* \"#utility.yul\":892:906   */\n      add\n        /* \"#utility.yul\":885:933   */\n      mstore\n        /* \"#utility.yul\":768:940   */\n      pop\n      jump\t// out\n        /* \"#utility.yul\":946:1312   */\n    tag_32:\n        /* \"#utility.yul\":1088:1091   */\n      0x00\n        /* \"#utility.yul\":1109:1176   */\n      tag_51\n        /* \"#utility.yul\":1173:1175   */\n      0x16\n        /* \"#utility.yul\":1168:1171   */\n      dup4\n        /* \"#utility.yul\":1109:1176   */\n      tag_30\n      jump\t// in\n    tag_51:\n        /* \"#utility.yul\":1102:1176   */\n      swap2\n      pop\n        /* \"#utility.yul\":1185:1278   */\n      tag_52\n        /* \"#utility.yul\":1274:1277   */\n      dup3\n        /* \"#utility.yul\":1185:1278   */\n      tag_31\n      jump\t// in\n    tag_52:\n        /* \"#utility.yul\":1303:1305   */\n      0x20\n        /* \"#utility.yul\":1298:1301   */\n      dup3\n        /* \"#utility.yul\":1294:1306   */\n      add\n        /* \"#utility.yul\":1287:1306   */\n      swap1\n      pop\n        /* \"#utility.yul\":946:1312   */\n      swap2\n      swap1\n      pop\n      jump\t// out\n        /* \"#utility.yul\":1318:1737   */\n    tag_14:\n        /* \"#utility.yul\":1484:1488   */\n      0x00\n        /* \"#utility.yul\":1522:1524   */\n      0x20\n        /* \"#utility.yul\":1511:1520   */\n      dup3\n        /* \"#utility.yul\":1507:1525   */\n      add\n        /* \"#utility.yul\":1499:1525   */\n      swap1\n      pop\n        /* \"#utility.yul\":1571:1580   */\n      dup2\n        /* \"#utility.yul\":1565:1569   */\n      dup2\n        /* \"#utility.yul\":1561:1581   */\n      sub\n        /* \"#utility.yul\":1557:1558   */\n      0x00\n        /* \"#utility.yul\":1546:1555   */\n      dup4\n        /* \"#utility.yul\":1542:1559   */\n      add\n        /* \"#utility.yul\":1535:1582   */\n      mstore\n        /* \"#utility.yul\":1599:1730   */\n      tag_54\n        /* \"#utility.yul\":1725:1729   */\n      dup2\n        /* \"#utility.yul\":1599:1730   */\n      tag_32\n      jump\t// in\n    tag_54:\n        /* \"#utility.yul\":1591:1730   */\n      swap1\n      pop\n        /* \"#utility.yul\":1318:1737   */\n      swap2\n      swap1\n      pop\n      jump\t// out\n        /* \"#utility.yul\":1743:1902   */\n    tag_33:\n        /* \"#utility.yul\":1883:1894   */\n      0x47616d65204f7665720000000000000000000000000000000000000000000000\n        /* \"#utility.yul\":1879:1880   */\n      0x00\n        /* \"#utility.yul\":1871:1877   */\n      dup3\n        /* \"#utility.yul\":1867:1881   */\n      add\n        /* \"#utility.yul\":1860:1895   */\n      mstore\n        /* \"#utility.yul\":1743:1902   */\n      pop\n      jump\t// out\n        /* \"#utility.yul\":1908:2273   */\n    tag_34:\n        /* \"#utility.yul\":2050:2053   */\n      0x00\n        /* \"#utility.yul\":2071:2137   */\n      tag_57\n        /* \"#utility.yul\":2135:2136   */\n      0x09\n        /* \"#utility.yul\":2130:2133   */\n      dup4\n        /* \"#utility.yul\":2071:2137   */\n      tag_30\n      jump\t// in\n    tag_57:\n        /* \"#utility.yul\":2064:2137   */\n      swap2\n      pop\n        /* \"#utility.yul\":2146:2239   */\n      tag_58\n        /* \"#utility.yul\":2235:2238   */\n      dup3\n        /* \"#utility.yul\":2146:2239   */\n      tag_33\n      jump\t// in\n    tag_58:\n        /* \"#utility.yul\":2264:2266   */\n      0x20\n        /* \"#utility.yul\":2259:2262   */\n      dup3\n        /* \"#utility.yul\":2255:2267   */\n      add\n        /* \"#utility.yul\":2248:2267   */\n      swap1\n      pop\n        /* \"#utility.yul\":1908:2273   */\n      swap2\n      swap1\n      pop\n      jump\t// out\n        /* \"#utility.yul\":2279:2698   */\n    tag_17:\n        /* \"#utility.yul\":2445:2449   */\n      0x00\n        /* \"#utility.yul\":2483:2485   */\n      0x20\n        /* \"#utility.yul\":2472:2481   */\n      dup3\n        /* \"#utility.yul\":2468:2486   */\n      add\n        /* \"#utility.yul\":2460:2486   */\n      swap1\n      pop\n        /* \"#utility.yul\":2532:2541   */\n      dup2\n        /* \"#utility.yul\":2526:2530   */\n      dup2\n        /* \"#utility.yul\":2522:2542   */\n      sub\n        /* \"#utility.yul\":2518:2519   */\n      0x00\n        /* \"#utility.yul\":2507:2516   */\n      dup4\n        /* \"#utility.yul\":2503:2520   */\n      add\n        /* \"#utility.yul\":2496:2543   */\n      mstore\n        /* \"#utility.yul\":2560:2691   */\n      tag_60\n        /* \"#utility.yul\":2686:2690   */\n      dup2\n        /* \"#utility.yul\":2560:2691   */\n      tag_34\n      jump\t// in\n    tag_60:\n        /* \"#utility.yul\":2552:2691   */\n      swap1\n      pop\n        /* \"#utility.yul\":2279:2698   */\n      swap2\n      swap1\n      pop\n      jump\t// out\n        /* \"#utility.yul\":2704:2851   */\n    tag_35:\n        /* \"#utility.yul\":2805:2816   */\n      0x00\n        /* \"#utility.yul\":2842:2845   */\n      dup2\n        /* \"#utility.yul\":2827:2845   */\n      swap1\n      pop\n        /* \"#utility.yul\":2704:2851   */\n      swap3\n      swap2\n      pop\n      pop\n      jump\t// out\n        /* \"#utility.yul\":2857:2971   */\n    tag_36:\n      pop\n      jump\t// out\n        /* \"#utility.yul\":2977:3375   */\n    tag_37:\n        /* \"#utility.yul\":3136:3139   */\n      0x00\n        /* \"#utility.yul\":3157:3240   */\n      tag_64\n        /* \"#utility.yul\":3238:3239   */\n      0x00\n        /* \"#utility.yul\":3233:3236   */\n      dup4\n        /* \"#utility.yul\":3157:3240   */\n      tag_35\n      jump\t// in\n    tag_64:\n        /* \"#utility.yul\":3150:3240   */\n      swap2\n      pop\n        /* \"#utility.yul\":3249:3342   */\n      tag_65\n        /* \"#utility.yul\":3338:3341   */\n      dup3\n        /* \"#utility.yul\":3249:3342   */\n      tag_36\n      jump\t// in\n    tag_65:\n        /* \"#utility.yul\":3367:3368   */\n      0x00\n        /* \"#utility.yul\":3362:3365   */\n      dup3\n        /* \"#utility.yul\":3358:3369   */\n      add\n        /* \"#utility.yul\":3351:3369   */\n      swap1\n      pop\n        /* \"#utility.yul\":2977:3375   */\n      swap2\n      swap1\n      pop\n      jump\t// out\n        /* \"#utility.yul\":3381:3760   */\n    tag_20:\n        /* \"#utility.yul\":3565:3568   */\n      0x00\n        /* \"#utility.yul\":3587:3734   */\n      tag_67\n        /* \"#utility.yul\":3730:3733   */\n      dup3\n        /* \"#utility.yul\":3587:3734   */\n      tag_37\n      jump\t// in\n    tag_67:\n        /* \"#utility.yul\":3580:3734   */\n      swap2\n      pop\n        /* \"#utility.yul\":3751:3754   */\n      dup2\n        /* \"#utility.yul\":3744:3754   */\n      swap1\n      pop\n        /* \"#utility.yul\":3381:3760   */\n      swap2\n      swap1\n      pop\n      jump\t// out\n        /* \"#utility.yul\":3766:3922   */\n    tag_38:\n        /* \"#utility.yul\":3906:3914   */\n      0x4661696c65640000000000000000000000000000000000000000000000000000\n        /* \"#utility.yul\":3902:3903   */\n      0x00\n        /* \"#utility.yul\":3894:3900   */\n      dup3\n        /* \"#utility.yul\":3890:3904   */\n      add\n        /* \"#utility.yul\":3883:3915   */\n      mstore\n        /* \"#utility.yul\":3766:3922   */\n      pop\n      jump\t// out\n        /* \"#utility.yul\":3928:4293   */\n    tag_39:\n        /* \"#utility.yul\":4070:4073   */\n      0x00\n        /* \"#utility.yul\":4091:4157   */\n      tag_70\n        /* \"#utility.yul\":4155:4156   */\n      0x06\n        /* \"#utility.yul\":4150:4153   */\n      dup4\n        /* \"#utility.yul\":4091:4157   */\n      tag_30\n      jump\t// in\n    tag_70:\n        /* \"#utility.yul\":4084:4157   */\n      swap2\n      pop\n        /* \"#utility.yul\":4166:4259   */\n      tag_71\n        /* \"#utility.yul\":4255:4258   */\n      dup3\n        /* \"#utility.yul\":4166:4259   */\n      tag_38\n      jump\t// in\n    tag_71:\n        /* \"#utility.yul\":4284:4286   */\n      0x20\n        /* \"#utility.yul\":4279:4282   */\n      dup3\n        /* \"#utility.yul\":4275:4287   */\n      add\n        /* \"#utility.yul\":4268:4287   */\n      swap1\n      pop\n        /* \"#utility.yul\":3928:4293   */\n      swap2\n      swap1\n      pop\n      jump\t// out\n        /* \"#utility.yul\":4299:4718   */\n    tag_26:\n        /* \"#utility.yul\":4465:4469   */\n      0x00\n        /* \"#utility.yul\":4503:4505   */\n      0x20\n        /* \"#utility.yul\":4492:4501   */\n      dup3\n        /* \"#utility.yul\":4488:4506   */\n      add\n        /* \"#utility.yul\":4480:4506   */\n      swap1\n      pop\n        /* \"#utility.yul\":4552:4561   */\n      dup2\n        /* \"#utility.yul\":4546:4550   */\n      dup2\n        /* \"#utility.yul\":4542:4562   */\n      sub\n        /* \"#utility.yul\":4538:4539   */\n      0x00\n        /* \"#utility.yul\":4527:4536   */\n      dup4\n        /* \"#utility.yul\":4523:4540   */\n      add\n        /* \"#utility.yul\":4516:4563   */\n      mstore\n        /* \"#utility.yul\":4580:4711   */\n      tag_73\n        /* \"#utility.yul\":4706:4710   */\n      dup2\n        /* \"#utility.yul\":4580:4711   */\n      tag_39\n      jump\t// in\n    tag_73:\n        /* \"#utility.yul\":4572:4711   */\n      swap1\n      pop\n        /* \"#utility.yul\":4299:4718   */\n      swap2\n      swap1\n      pop\n      jump\t// out\n\n    auxdata: 0xa264697066735822122096990762baf2ea833e26f35e30f0efafc3f7a6eb6c3ceb013160ea142eba1bd764736f6c63430008180033\n}\n",
				"bytecode": {
					"linkReferences": {},
					"object": "6080604052676124fee993bc00005f5534801561001a575f80fd5b506103de806100285f395ff3fe608060405260043610610028575f3560e01c8063d0e30db01461002c578063dfbf53ae14610036575b5f80fd5b610034610060565b005b348015610041575f80fd5b5061004a6101a2565b6040516100579190610206565b60405180910390f35b670de0b6b3a764000034146100aa576040517f08c379a00000000000000000000000000000000000000000000000000000000081526004016100a190610279565b60405180910390fd5b5f544711156100ee576040517f08c379a00000000000000000000000000000000000000000000000000000000081526004016100e5906102e1565b60405180910390fd5b5f5447036101a0575f3373ffffffffffffffffffffffffffffffffffffffff164760405161011b9061032c565b5f6040518083038185875af1925050503d805f8114610155576040519150601f19603f3d011682016040523d82523d5f602084013e61015a565b606091505b505090508061019e576040517f08c379a00000000000000000000000000000000000000000000000000000000081526004016101959061038a565b60405180910390fd5b505b565b60015f9054906101000a900473ffffffffffffffffffffffffffffffffffffffff1681565b5f73ffffffffffffffffffffffffffffffffffffffff82169050919050565b5f6101f0826101c7565b9050919050565b610200816101e6565b82525050565b5f6020820190506102195f8301846101f7565b92915050565b5f82825260208201905092915050565b7f796f752063616e206f6e6c7973656e64203120657468000000000000000000005f82015250565b5f61026360168361021f565b915061026e8261022f565b602082019050919050565b5f6020820190508181035f83015261029081610257565b9050919050565b7f47616d65204f76657200000000000000000000000000000000000000000000005f82015250565b5f6102cb60098361021f565b91506102d682610297565b602082019050919050565b5f6020820190508181035f8301526102f8816102bf565b9050919050565b5f81905092915050565b50565b5f6103175f836102ff565b915061032282610309565b5f82019050919050565b5f6103368261030c565b9150819050919050565b7f4661696c656400000000000000000000000000000000000000000000000000005f82015250565b5f61037460068361021f565b915061037f82610340565b602082019050919050565b5f6020820190508181035f8301526103a181610368565b905091905056fea264697066735822122096990762baf2ea833e26f35e30f0efafc3f7a6eb6c3ceb013160ea142eba1bd764736f6c63430008180033",
					"opcodes": "PUSH1 0x80 PUSH1 0x40 MSTORE PUSH8 0x6124FEE993BC0000 PUSH0 SSTORE CALLVALUE DUP1 ISZERO PUSH2 0x1A JUMPI PUSH0 DUP1 REVERT JUMPDEST POP PUSH2 0x3DE DUP1 PUSH2 0x28 PUSH0 CODECOPY PUSH0 RETURN INVALID PUSH1 0x80 PUSH1 0x40 MSTORE PUSH1 0x4 CALLDATASIZE LT PUSH2 0x28 JUMPI PUSH0 CALLDATALOAD PUSH1 0xE0 SHR DUP1 PUSH4 0xD0E30DB0 EQ PUSH2 0x2C JUMPI DUP1 PUSH4 0xDFBF53AE EQ PUSH2 0x36 JUMPI JUMPDEST PUSH0 DUP1 REVERT JUMPDEST PUSH2 0x34 PUSH2 0x60 JUMP JUMPDEST STOP JUMPDEST CALLVALUE DUP1 ISZERO PUSH2 0x41 JUMPI PUSH0 DUP1 REVERT JUMPDEST POP PUSH2 0x4A PUSH2 0x1A2 JUMP JUMPDEST PUSH1 0x40 MLOAD PUSH2 0x57 SWAP2 SWAP1 PUSH2 0x206 JUMP JUMPDEST PUSH1 0x40 MLOAD DUP1 SWAP2 SUB SWAP1 RETURN JUMPDEST PUSH8 0xDE0B6B3A7640000 CALLVALUE EQ PUSH2 0xAA JUMPI PUSH1 0x40 MLOAD PUSH32 0x8C379A000000000000000000000000000000000000000000000000000000000 DUP2 MSTORE PUSH1 0x4 ADD PUSH2 0xA1 SWAP1 PUSH2 0x279 JUMP JUMPDEST PUSH1 0x40 MLOAD DUP1 SWAP2 SUB SWAP1 REVERT JUMPDEST PUSH0 SLOAD SELFBALANCE GT ISZERO PUSH2 0xEE JUMPI PUSH1 0x40 MLOAD PUSH32 0x8C379A000000000000000000000000000000000000000000000000000000000 DUP2 MSTORE PUSH1 0x4 ADD PUSH2 0xE5 SWAP1 PUSH2 0x2E1 JUMP JUMPDEST PUSH1 0x40 MLOAD DUP1 SWAP2 SUB SWAP1 REVERT JUMPDEST PUSH0 SLOAD SELFBALANCE SUB PUSH2 0x1A0 JUMPI PUSH0 CALLER PUSH20 0xFFFFFFFFFFFFFFFFFFFFFFFFFFFFFFFFFFFFFFFF AND SELFBALANCE PUSH1 0x40 MLOAD PUSH2 0x11B SWAP1 PUSH2 0x32C JUMP JUMPDEST PUSH0 PUSH1 0x40 MLOAD DUP1 DUP4 SUB DUP2 DUP6 DUP8 GAS CALL SWAP3 POP POP POP RETURNDATASIZE DUP1 PUSH0 DUP2 EQ PUSH2 0x155 JUMPI PUSH1 0x40 MLOAD SWAP2 POP PUSH1 0x1F NOT PUSH1 0x3F RETURNDATASIZE ADD AND DUP3 ADD PUSH1 0x40 MSTORE RETURNDATASIZE DUP3 MSTORE RETURNDATASIZE PUSH0 PUSH1 0x20 DUP5 ADD RETURNDATACOPY PUSH2 0x15A JUMP JUMPDEST PUSH1 0x60 SWAP2 POP JUMPDEST POP POP SWAP1 POP DUP1 PUSH2 0x19E JUMPI PUSH1 0x40 MLOAD PUSH32 0x8C379A000000000000000000000000000000000000000000000000000000000 DUP2 MSTORE PUSH1 0x4 ADD PUSH2 0x195 SWAP1 PUSH2 0x38A JUMP JUMPDEST PUSH1 0x40 MLOAD DUP1 SWAP2 SUB SWAP1 REVERT JUMPDEST POP JUMPDEST JUMP JUMPDEST PUSH1 0x1 PUSH0 SWAP1 SLOAD SWAP1 PUSH2 0x100 EXP SWAP1 DIV PUSH20 0xFFFFFFFFFFFFFFFFFFFFFFFFFFFFFFFFFFFFFFFF AND DUP2 JUMP JUMPDEST PUSH0 PUSH20 0xFFFFFFFFFFFFFFFFFFFFFFFFFFFFFFFFFFFFFFFF DUP3 AND SWAP1 POP SWAP2 SWAP1 POP JUMP JUMPDEST PUSH0 PUSH2 0x1F0 DUP3 PUSH2 0x1C7 JUMP JUMPDEST SWAP1 POP SWAP2 SWAP1 POP JUMP JUMPDEST PUSH2 0x200 DUP2 PUSH2 0x1E6 JUMP JUMPDEST DUP3 MSTORE POP POP JUMP JUMPDEST PUSH0 PUSH1 0x20 DUP3 ADD SWAP1 POP PUSH2 0x219 PUSH0 DUP4 ADD DUP5 PUSH2 0x1F7 JUMP JUMPDEST SWAP3 SWAP2 POP POP JUMP JUMPDEST PUSH0 DUP3 DUP3 MSTORE PUSH1 0x20 DUP3 ADD SWAP1 POP SWAP3 SWAP2 POP POP JUMP JUMPDEST PUSH32 0x796F752063616E206F6E6C7973656E6420312065746800000000000000000000 PUSH0 DUP3 ADD MSTORE POP JUMP JUMPDEST PUSH0 PUSH2 0x263 PUSH1 0x16 DUP4 PUSH2 0x21F JUMP JUMPDEST SWAP2 POP PUSH2 0x26E DUP3 PUSH2 0x22F JUMP JUMPDEST PUSH1 0x20 DUP3 ADD SWAP1 POP SWAP2 SWAP1 POP JUMP JUMPDEST PUSH0 PUSH1 0x20 DUP3 ADD SWAP1 POP DUP2 DUP2 SUB PUSH0 DUP4 ADD MSTORE PUSH2 0x290 DUP2 PUSH2 0x257 JUMP JUMPDEST SWAP1 POP SWAP2 SWAP1 POP JUMP JUMPDEST PUSH32 0x47616D65204F7665720000000000000000000000000000000000000000000000 PUSH0 DUP3 ADD MSTORE POP JUMP JUMPDEST PUSH0 PUSH2 0x2CB PUSH1 0x9 DUP4 PUSH2 0x21F JUMP JUMPDEST SWAP2 POP PUSH2 0x2D6 DUP3 PUSH2 0x297 JUMP JUMPDEST PUSH1 0x20 DUP3 ADD SWAP1 POP SWAP2 SWAP1 POP JUMP JUMPDEST PUSH0 PUSH1 0x20 DUP3 ADD SWAP1 POP DUP2 DUP2 SUB PUSH0 DUP4 ADD MSTORE PUSH2 0x2F8 DUP2 PUSH2 0x2BF JUMP JUMPDEST SWAP1 POP SWAP2 SWAP1 POP JUMP JUMPDEST PUSH0 DUP2 SWAP1 POP SWAP3 SWAP2 POP POP JUMP JUMPDEST POP JUMP JUMPDEST PUSH0 PUSH2 0x317 PUSH0 DUP4 PUSH2 0x2FF JUMP JUMPDEST SWAP2 POP PUSH2 0x322 DUP3 PUSH2 0x309 JUMP JUMPDEST PUSH0 DUP3 ADD SWAP1 POP SWAP2 SWAP1 POP JUMP JUMPDEST PUSH0 PUSH2 0x336 DUP3 PUSH2 0x30C JUMP JUMPDEST SWAP2 POP DUP2 SWAP1 POP SWAP2 SWAP1 POP JUMP JUMPDEST PUSH32 0x4661696C65640000000000000000000000000000000000000000000000000000 PUSH0 DUP3 ADD MSTORE POP JUMP JUMPDEST PUSH0 PUSH2 0x374 PUSH1 0x6 DUP4 PUSH2 0x21F JUMP JUMPDEST SWAP2 POP PUSH2 0x37F DUP3 PUSH2 0x340 JUMP JUMPDEST PUSH1 0x20 DUP3 ADD SWAP1 POP SWAP2 SWAP1 POP JUMP JUMPDEST PUSH0 PUSH1 0x20 DUP3 ADD SWAP1 POP DUP2 DUP2 SUB PUSH0 DUP4 ADD MSTORE PUSH2 0x3A1 DUP2 PUSH2 0x368 JUMP JUMPDEST SWAP1 POP SWAP2 SWAP1 POP JUMP INVALID LOG2 PUSH5 0x6970667358 0x22 SLT KECCAK256 SWAP7 SWAP10 SMOD PUSH3 0xBAF2EA DUP4 RETURNDATACOPY 0x26 RETURN MCOPY ADDRESS CREATE 0xEF 0xAF 0xC3 0xF7 0xA6 0xEB PUSH13 0x3CEB013160EA142EBA1BD76473 PUSH16 0x6C634300081800330000000000000000 "
				},
				"gasEstimates": {
					"creation": {
						"codeDepositCost": "198000",
						"executionCost": "22341",
						"totalCost": "220341"
					},
					"external": {
						"deposit()": "infinite",
						"winner()": "2508"
					}
				},
				"methodIdentifiers": {
					"deposit()": "d0e30db0",
					"winner()": "dfbf53ae"
				}
			},
			"storageLayout": {
				"storage": [
					{
						"astId": 4,
						"contract": "contracts/attackethergame.sol:EtherGame",
						"label": "targetamt",
						"offset": 0,
						"slot": "0",
						"type": "t_uint256"
					},
					{
						"astId": 6,
						"contract": "contracts/attackethergame.sol:EtherGame",
						"label": "winner",
						"offset": 0,
						"slot": "1",
						"type": "t_address"
					}
				],
				"types": {
					"t_address": {
						"encoding": "inplace",
						"label": "address",
						"numberOfBytes": "20"
					},
					"t_uint256": {
						"encoding": "inplace",
						"label": "uint256",
						"numberOfBytes": "32"
					}
				}
			},
			"userdoc": {
				"kind": "user",
				"methods": {},
				"version": 1
			}
		}
	}
}