{
	"contracts/lab2.sol": {
		"Lab2": {
			"abi": [
				{
					"inputs": [],
					"stateMutability": "nonpayable",
					"type": "constructor"
				},
				{
					"inputs": [],
					"name": "blockNumber",
					"outputs": [
						{
							"internalType": "uint256",
							"name": "",
							"type": "uint256"
						}
					],
					"stateMutability": "view",
					"type": "function"
				},
				{
					"inputs": [],
					"name": "coinbase",
					"outputs": [
						{
							"internalType": "address payable",
							"name": "",
							"type": "address"
						}
					],
					"stateMutability": "view",
					"type": "function"
				},
				{
					"inputs": [],
					"name": "contractAddress",
					"outputs": [
						{
							"internalType": "address",
							"name": "",
							"type": "address"
						}
					],
					"stateMutability": "view",
					"type": "function"
				},
				{
					"inputs": [],
					"name": "diff",
					"outputs": [
						{
							"internalType": "uint256",
							"name": "",
							"type": "uint256"
						}
					],
					"stateMutability": "view",
					"type": "function"
				},
				{
					"inputs": [],
					"name": "msgValue",
					"outputs": [
						{
							"internalType": "uint256",
							"name": "",
							"type": "uint256"
						}
					],
					"stateMutability": "view",
					"type": "function"
				},
				{
					"inputs": [],
					"name": "senderAddress",
					"outputs": [
						{
							"internalType": "address",
							"name": "",
							"type": "address"
						}
					],
					"stateMutability": "view",
					"type": "function"
				},
				{
					"inputs": [],
					"name": "timestamp",
					"outputs": [
						{
							"internalType": "uint256",
							"name": "",
							"type": "uint256"
						}
					],
					"stateMutability": "view",
					"type": "function"
				},
				{
					"stateMutability": "payable",
					"type": "receive"
				}
			],
			"devdoc": {
				"kind": "dev",
				"methods": {},
				"version": 1
			},
			"evm": {
				"assembly": "    /* \"contracts/lab2.sol\":60:682  contract Lab2 {... */\n  mstore(0x40, 0x80)\n    /* \"contracts/lab2.sol\":311:605  constructor() {... */\n  callvalue\n  dup1\n  iszero\n  tag_1\n  jumpi\n  0x00\n  dup1\n  revert\ntag_1:\n  pop\n    /* \"contracts/lab2.sol\":412:416  this */\n  address\n    /* \"contracts/lab2.sol\":386:401  contractAddress */\n  0x00\n  dup1\n    /* \"contracts/lab2.sol\":386:417  contractAddress = address(this) */\n  0x0100\n  exp\n  dup2\n  sload\n  dup2\n  0xffffffffffffffffffffffffffffffffffffffff\n  mul\n  not\n  and\n  swap1\n  dup4\n  0xffffffffffffffffffffffffffffffffffffffff\n  and\n  mul\n  or\n  swap1\n  sstore\n  pop\n    /* \"contracts/lab2.sol\":444:454  msg.sender */\n  caller\n    /* \"contracts/lab2.sol\":428:441  senderAddress */\n  0x01\n  0x00\n    /* \"contracts/lab2.sol\":428:454  senderAddress = msg.sender */\n  0x0100\n  exp\n  dup2\n  sload\n  dup2\n  0xffffffffffffffffffffffffffffffffffffffff\n  mul\n  not\n  and\n  swap1\n  dup4\n  0xffffffffffffffffffffffffffffffffffffffff\n  and\n  mul\n  or\n  swap1\n  sstore\n  pop\n    /* \"contracts/lab2.sol\":479:491  block.number */\n  number\n    /* \"contracts/lab2.sol\":465:476  blockNumber */\n  0x02\n    /* \"contracts/lab2.sol\":465:491  blockNumber = block.number */\n  dup2\n  swap1\n  sstore\n  pop\n    /* \"contracts/lab2.sol\":514:529  block.timestamp */\n  timestamp\n    /* \"contracts/lab2.sol\":502:511  timestamp */\n  0x03\n    /* \"contracts/lab2.sol\":502:529  timestamp = block.timestamp */\n  dup2\n  swap1\n  sstore\n  pop\n    /* \"contracts/lab2.sol\":545:561  block.difficulty */\n  prevrandao\n    /* \"contracts/lab2.sol\":540:544  diff */\n  0x05\n    /* \"contracts/lab2.sol\":540:561  diff=block.difficulty */\n  dup2\n  swap1\n  sstore\n  pop\n    /* \"contracts/lab2.sol\":581:595  block.coinbase */\n  coinbase\n    /* \"contracts/lab2.sol\":572:580  coinbase */\n  0x06\n  0x00\n    /* \"contracts/lab2.sol\":572:595  coinbase=block.coinbase */\n  0x0100\n  exp\n  dup2\n  sload\n  dup2\n  0xffffffffffffffffffffffffffffffffffffffff\n  mul\n  not\n  and\n  swap1\n  dup4\n  0xffffffffffffffffffffffffffffffffffffffff\n  and\n  mul\n  or\n  swap1\n  sstore\n  pop\n    /* \"contracts/lab2.sol\":60:682  contract Lab2 {... */\n  dataSize(sub_0)\n  dup1\n  dataOffset(sub_0)\n  0x00\n  codecopy\n  0x00\n  return\nstop\n\nsub_0: assembly {\n        /* \"contracts/lab2.sol\":60:682  contract Lab2 {... */\n      mstore(0x40, 0x80)\n      jumpi(tag_1, lt(calldatasize, 0x04))\n      shr(0xe0, calldataload(0x00))\n      dup1\n      0xa6ae0aac\n      gt\n      tag_10\n      jumpi\n      dup1\n      0xa6ae0aac\n      eq\n      tag_6\n      jumpi\n      dup1\n      0xb80777ea\n      eq\n      tag_7\n      jumpi\n      dup1\n      0xddf363d7\n      eq\n      tag_8\n      jumpi\n      dup1\n      0xf6b4dfb4\n      eq\n      tag_9\n      jumpi\n      jump(tag_2)\n    tag_10:\n      dup1\n      0x4fc84791\n      eq\n      tag_3\n      jumpi\n      dup1\n      0x57e871e7\n      eq\n      tag_4\n      jumpi\n      dup1\n      0xa0d7afb7\n      eq\n      tag_5\n      jumpi\n      jump(tag_2)\n    tag_1:\n      jumpi(tag_2, calldatasize)\n        /* \"contracts/lab2.sol\":662:671  msg.value */\n      callvalue\n        /* \"contracts/lab2.sol\":651:659  msgValue */\n      0x04\n        /* \"contracts/lab2.sol\":651:671  msgValue = msg.value */\n      dup2\n      swap1\n      sstore\n      stop\n        /* \"contracts/lab2.sol\":60:682  contract Lab2 {... */\n    tag_2:\n      0x00\n      dup1\n      revert\n        /* \"contracts/lab2.sol\":118:146  address public senderAddress */\n    tag_3:\n      callvalue\n      dup1\n      iszero\n      tag_13\n      jumpi\n      0x00\n      dup1\n      revert\n    tag_13:\n      pop\n      tag_14\n      tag_15\n      jump\t// in\n    tag_14:\n      mload(0x40)\n      tag_16\n      swap2\n      swap1\n      tag_17\n      jump\t// in\n    tag_16:\n      mload(0x40)\n      dup1\n      swap2\n      sub\n      swap1\n      return\n        /* \"contracts/lab2.sol\":153:179  uint256 public blockNumber */\n    tag_4:\n      callvalue\n      dup1\n      iszero\n      tag_18\n      jumpi\n      0x00\n      dup1\n      revert\n    tag_18:\n      pop\n      tag_19\n      tag_20\n      jump\t// in\n    tag_19:\n      mload(0x40)\n      tag_21\n      swap2\n      swap1\n      tag_22\n      jump\t// in\n    tag_21:\n      mload(0x40)\n      dup1\n      swap2\n      sub\n      swap1\n      return\n        /* \"contracts/lab2.sol\":247:263  uint public diff */\n    tag_5:\n      callvalue\n      dup1\n      iszero\n      tag_23\n      jumpi\n      0x00\n      dup1\n      revert\n    tag_23:\n      pop\n      tag_24\n      tag_25\n      jump\t// in\n    tag_24:\n      mload(0x40)\n      tag_26\n      swap2\n      swap1\n      tag_22\n      jump\t// in\n    tag_26:\n      mload(0x40)\n      dup1\n      swap2\n      sub\n      swap1\n      return\n        /* \"contracts/lab2.sol\":270:302  address payable  public coinbase */\n    tag_6:\n      callvalue\n      dup1\n      iszero\n      tag_27\n      jumpi\n      0x00\n      dup1\n      revert\n    tag_27:\n      pop\n      tag_28\n      tag_29\n      jump\t// in\n    tag_28:\n      mload(0x40)\n      tag_30\n      swap2\n      swap1\n      tag_31\n      jump\t// in\n    tag_30:\n      mload(0x40)\n      dup1\n      swap2\n      sub\n      swap1\n      return\n        /* \"contracts/lab2.sol\":186:210  uint256 public timestamp */\n    tag_7:\n      callvalue\n      dup1\n      iszero\n      tag_32\n      jumpi\n      0x00\n      dup1\n      revert\n    tag_32:\n      pop\n      tag_33\n      tag_34\n      jump\t// in\n    tag_33:\n      mload(0x40)\n      tag_35\n      swap2\n      swap1\n      tag_22\n      jump\t// in\n    tag_35:\n      mload(0x40)\n      dup1\n      swap2\n      sub\n      swap1\n      return\n        /* \"contracts/lab2.sol\":217:240  uint256 public msgValue */\n    tag_8:\n      callvalue\n      dup1\n      iszero\n      tag_36\n      jumpi\n      0x00\n      dup1\n      revert\n    tag_36:\n      pop\n      tag_37\n      tag_38\n      jump\t// in\n    tag_37:\n      mload(0x40)\n      tag_39\n      swap2\n      swap1\n      tag_22\n      jump\t// in\n    tag_39:\n      mload(0x40)\n      dup1\n      swap2\n      sub\n      swap1\n      return\n        /* \"contracts/lab2.sol\":81:111  address public contractAddress */\n    tag_9:\n      callvalue\n      dup1\n      iszero\n      tag_40\n      jumpi\n      0x00\n      dup1\n      revert\n    tag_40:\n      pop\n      tag_41\n      tag_42\n      jump\t// in\n    tag_41:\n      mload(0x40)\n      tag_43\n      swap2\n      swap1\n      tag_17\n      jump\t// in\n    tag_43:\n      mload(0x40)\n      dup1\n      swap2\n      sub\n      swap1\n      return\n        /* \"contracts/lab2.sol\":118:146  address public senderAddress */\n    tag_15:\n      0x01\n      0x00\n      swap1\n      sload\n      swap1\n      0x0100\n      exp\n      swap1\n      div\n      0xffffffffffffffffffffffffffffffffffffffff\n      and\n      dup2\n      jump\t// out\n        /* \"contracts/lab2.sol\":153:179  uint256 public blockNumber */\n    tag_20:\n      sload(0x02)\n      dup2\n      jump\t// out\n        /* \"contracts/lab2.sol\":247:263  uint public diff */\n    tag_25:\n      sload(0x05)\n      dup2\n      jump\t// out\n        /* \"contracts/lab2.sol\":270:302  address payable  public coinbase */\n    tag_29:\n      0x06\n      0x00\n      swap1\n      sload\n      swap1\n      0x0100\n      exp\n      swap1\n      div\n      0xffffffffffffffffffffffffffffffffffffffff\n      and\n      dup2\n      jump\t// out\n        /* \"contracts/lab2.sol\":186:210  uint256 public timestamp */\n    tag_34:\n      sload(0x03)\n      dup2\n      jump\t// out\n        /* \"contracts/lab2.sol\":217:240  uint256 public msgValue */\n    tag_38:\n      sload(0x04)\n      dup2\n      jump\t// out\n        /* \"contracts/lab2.sol\":81:111  address public contractAddress */\n    tag_42:\n      0x00\n      dup1\n      sload\n      swap1\n      0x0100\n      exp\n      swap1\n      div\n      0xffffffffffffffffffffffffffffffffffffffff\n      and\n      dup2\n      jump\t// out\n        /* \"#utility.yul\":7:133   */\n    tag_44:\n        /* \"#utility.yul\":44:51   */\n      0x00\n        /* \"#utility.yul\":84:126   */\n      0xffffffffffffffffffffffffffffffffffffffff\n        /* \"#utility.yul\":77:82   */\n      dup3\n        /* \"#utility.yul\":73:127   */\n      and\n        /* \"#utility.yul\":62:127   */\n      swap1\n      pop\n        /* \"#utility.yul\":7:133   */\n      swap2\n      swap1\n      pop\n      jump\t// out\n        /* \"#utility.yul\":139:235   */\n    tag_45:\n        /* \"#utility.yul\":176:183   */\n      0x00\n        /* \"#utility.yul\":205:229   */\n      tag_54\n        /* \"#utility.yul\":223:228   */\n      dup3\n        /* \"#utility.yul\":205:229   */\n      tag_44\n      jump\t// in\n    tag_54:\n        /* \"#utility.yul\":194:229   */\n      swap1\n      pop\n        /* \"#utility.yul\":139:235   */\n      swap2\n      swap1\n      pop\n      jump\t// out\n        /* \"#utility.yul\":241:359   */\n    tag_46:\n        /* \"#utility.yul\":328:352   */\n      tag_56\n        /* \"#utility.yul\":346:351   */\n      dup2\n        /* \"#utility.yul\":328:352   */\n      tag_45\n      jump\t// in\n    tag_56:\n        /* \"#utility.yul\":323:326   */\n      dup3\n        /* \"#utility.yul\":316:353   */\n      mstore\n        /* \"#utility.yul\":241:359   */\n      pop\n      pop\n      jump\t// out\n        /* \"#utility.yul\":365:587   */\n    tag_17:\n        /* \"#utility.yul\":458:462   */\n      0x00\n        /* \"#utility.yul\":496:498   */\n      0x20\n        /* \"#utility.yul\":485:494   */\n      dup3\n        /* \"#utility.yul\":481:499   */\n      add\n        /* \"#utility.yul\":473:499   */\n      swap1\n      pop\n        /* \"#utility.yul\":509:580   */\n      tag_58\n        /* \"#utility.yul\":577:578   */\n      0x00\n        /* \"#utility.yul\":566:575   */\n      dup4\n        /* \"#utility.yul\":562:579   */\n      add\n        /* \"#utility.yul\":553:559   */\n      dup5\n        /* \"#utility.yul\":509:580   */\n      tag_46\n      jump\t// in\n    tag_58:\n        /* \"#utility.yul\":365:587   */\n      swap3\n      swap2\n      pop\n      pop\n      jump\t// out\n        /* \"#utility.yul\":593:670   */\n    tag_47:\n        /* \"#utility.yul\":630:637   */\n      0x00\n        /* \"#utility.yul\":659:664   */\n      dup2\n        /* \"#utility.yul\":648:664   */\n      swap1\n      pop\n        /* \"#utility.yul\":593:670   */\n      swap2\n      swap1\n      pop\n      jump\t// out\n        /* \"#utility.yul\":676:794   */\n    tag_48:\n        /* \"#utility.yul\":763:787   */\n      tag_61\n        /* \"#utility.yul\":781:786   */\n      dup2\n        /* \"#utility.yul\":763:787   */\n      tag_47\n      jump\t// in\n    tag_61:\n        /* \"#utility.yul\":758:761   */\n      dup3\n        /* \"#utility.yul\":751:788   */\n      mstore\n        /* \"#utility.yul\":676:794   */\n      pop\n      pop\n      jump\t// out\n        /* \"#utility.yul\":800:1022   */\n    tag_22:\n        /* \"#utility.yul\":893:897   */\n      0x00\n        /* \"#utility.yul\":931:933   */\n      0x20\n        /* \"#utility.yul\":920:929   */\n      dup3\n        /* \"#utility.yul\":916:934   */\n      add\n        /* \"#utility.yul\":908:934   */\n      swap1\n      pop\n        /* \"#utility.yul\":944:1015   */\n      tag_63\n        /* \"#utility.yul\":1012:1013   */\n      0x00\n        /* \"#utility.yul\":1001:1010   */\n      dup4\n        /* \"#utility.yul\":997:1014   */\n      add\n        /* \"#utility.yul\":988:994   */\n      dup5\n        /* \"#utility.yul\":944:1015   */\n      tag_48\n      jump\t// in\n    tag_63:\n        /* \"#utility.yul\":800:1022   */\n      swap3\n      swap2\n      pop\n      pop\n      jump\t// out\n        /* \"#utility.yul\":1028:1132   */\n    tag_49:\n        /* \"#utility.yul\":1073:1080   */\n      0x00\n        /* \"#utility.yul\":1102:1126   */\n      tag_65\n        /* \"#utility.yul\":1120:1125   */\n      dup3\n        /* \"#utility.yul\":1102:1126   */\n      tag_44\n      jump\t// in\n    tag_65:\n        /* \"#utility.yul\":1091:1126   */\n      swap1\n      pop\n        /* \"#utility.yul\":1028:1132   */\n      swap2\n      swap1\n      pop\n      jump\t// out\n        /* \"#utility.yul\":1138:1280   */\n    tag_50:\n        /* \"#utility.yul\":1241:1273   */\n      tag_67\n        /* \"#utility.yul\":1267:1272   */\n      dup2\n        /* \"#utility.yul\":1241:1273   */\n      tag_49\n      jump\t// in\n    tag_67:\n        /* \"#utility.yul\":1236:1239   */\n      dup3\n        /* \"#utility.yul\":1229:1274   */\n      mstore\n        /* \"#utility.yul\":1138:1280   */\n      pop\n      pop\n      jump\t// out\n        /* \"#utility.yul\":1286:1540   */\n    tag_31:\n        /* \"#utility.yul\":1395:1399   */\n      0x00\n        /* \"#utility.yul\":1433:1435   */\n      0x20\n        /* \"#utility.yul\":1422:1431   */\n      dup3\n        /* \"#utility.yul\":1418:1436   */\n      add\n        /* \"#utility.yul\":1410:1436   */\n      swap1\n      pop\n        /* \"#utility.yul\":1446:1533   */\n      tag_69\n        /* \"#utility.yul\":1530:1531   */\n      0x00\n        /* \"#utility.yul\":1519:1528   */\n      dup4\n        /* \"#utility.yul\":1515:1532   */\n      add\n        /* \"#utility.yul\":1506:1512   */\n      dup5\n        /* \"#utility.yul\":1446:1533   */\n      tag_50\n      jump\t// in\n    tag_69:\n        /* \"#utility.yul\":1286:1540   */\n      swap3\n      swap2\n      pop\n      pop\n      jump\t// out\n\n    auxdata: 0xa2646970667358221220a27cde98a423a8d62f79d8843128c66faf4bd058bf5736b108ab8b15380bb95d64736f6c63430008180033\n}\n",
				"bytecode": {
					"linkReferences": {},
					"object": "608060405234801561000f575f80fd5b50305f806101000a81548173ffffffffffffffffffffffffffffffffffffffff021916908373ffffffffffffffffffffffffffffffffffffffff1602179055503360015f6101000a81548173ffffffffffffffffffffffffffffffffffffffff021916908373ffffffffffffffffffffffffffffffffffffffff1602179055504360028190555042600381905550446005819055504160065f6101000a81548173ffffffffffffffffffffffffffffffffffffffff021916908373ffffffffffffffffffffffffffffffffffffffff160217905550610327806100f15f395ff3fe608060405260043610610073575f3560e01c8063a6ae0aac1161004d578063a6ae0aac14610102578063b80777ea1461012c578063ddf363d714610156578063f6b4dfb41461018057610080565b80634fc847911461008457806357e871e7146100ae578063a0d7afb7146100d857610080565b3661008057346004819055005b5f80fd5b34801561008f575f80fd5b506100986101aa565b6040516100a5919061026e565b60405180910390f35b3480156100b9575f80fd5b506100c26101cf565b6040516100cf919061029f565b60405180910390f35b3480156100e3575f80fd5b506100ec6101d5565b6040516100f9919061029f565b60405180910390f35b34801561010d575f80fd5b506101166101db565b60405161012391906102d8565b60405180910390f35b348015610137575f80fd5b50610140610200565b60405161014d919061029f565b60405180910390f35b348015610161575f80fd5b5061016a610206565b604051610177919061029f565b60405180910390f35b34801561018b575f80fd5b5061019461020c565b6040516101a1919061026e565b60405180910390f35b60015f9054906101000a900473ffffffffffffffffffffffffffffffffffffffff1681565b60025481565b60055481565b60065f9054906101000a900473ffffffffffffffffffffffffffffffffffffffff1681565b60035481565b60045481565b5f8054906101000a900473ffffffffffffffffffffffffffffffffffffffff1681565b5f73ffffffffffffffffffffffffffffffffffffffff82169050919050565b5f6102588261022f565b9050919050565b6102688161024e565b82525050565b5f6020820190506102815f83018461025f565b92915050565b5f819050919050565b61029981610287565b82525050565b5f6020820190506102b25f830184610290565b92915050565b5f6102c28261022f565b9050919050565b6102d2816102b8565b82525050565b5f6020820190506102eb5f8301846102c9565b9291505056fea2646970667358221220a27cde98a423a8d62f79d8843128c66faf4bd058bf5736b108ab8b15380bb95d64736f6c63430008180033",
					"opcodes": "PUSH1 0x80 PUSH1 0x40 MSTORE CALLVALUE DUP1 ISZERO PUSH2 0xF JUMPI PUSH0 DUP1 REVERT JUMPDEST POP ADDRESS PUSH0 DUP1 PUSH2 0x100 EXP DUP2 SLOAD DUP2 PUSH20 0xFFFFFFFFFFFFFFFFFFFFFFFFFFFFFFFFFFFFFFFF MUL NOT AND SWAP1 DUP4 PUSH20 0xFFFFFFFFFFFFFFFFFFFFFFFFFFFFFFFFFFFFFFFF AND MUL OR SWAP1 SSTORE POP CALLER PUSH1 0x1 PUSH0 PUSH2 0x100 EXP DUP2 SLOAD DUP2 PUSH20 0xFFFFFFFFFFFFFFFFFFFFFFFFFFFFFFFFFFFFFFFF MUL NOT AND SWAP1 DUP4 PUSH20 0xFFFFFFFFFFFFFFFFFFFFFFFFFFFFFFFFFFFFFFFF AND MUL OR SWAP1 SSTORE POP NUMBER PUSH1 0x2 DUP2 SWAP1 SSTORE POP TIMESTAMP PUSH1 0x3 DUP2 SWAP1 SSTORE POP PREVRANDAO PUSH1 0x5 DUP2 SWAP1 SSTORE POP COINBASE PUSH1 0x6 PUSH0 PUSH2 0x100 EXP DUP2 SLOAD DUP2 PUSH20 0xFFFFFFFFFFFFFFFFFFFFFFFFFFFFFFFFFFFFFFFF MUL NOT AND SWAP1 DUP4 PUSH20 0xFFFFFFFFFFFFFFFFFFFFFFFFFFFFFFFFFFFFFFFF AND MUL OR SWAP1 SSTORE POP PUSH2 0x327 DUP1 PUSH2 0xF1 PUSH0 CODECOPY PUSH0 RETURN INVALID PUSH1 0x80 PUSH1 0x40 MSTORE PUSH1 0x4 CALLDATASIZE LT PUSH2 0x73 JUMPI PUSH0 CALLDATALOAD PUSH1 0xE0 SHR DUP1 PUSH4 0xA6AE0AAC GT PUSH2 0x4D JUMPI DUP1 PUSH4 0xA6AE0AAC EQ PUSH2 0x102 JUMPI DUP1 PUSH4 0xB80777EA EQ PUSH2 0x12C JUMPI DUP1 PUSH4 0xDDF363D7 EQ PUSH2 0x156 JUMPI DUP1 PUSH4 0xF6B4DFB4 EQ PUSH2 0x180 JUMPI PUSH2 0x80 JUMP JUMPDEST DUP1 PUSH4 0x4FC84791 EQ PUSH2 0x84 JUMPI DUP1 PUSH4 0x57E871E7 EQ PUSH2 0xAE JUMPI DUP1 PUSH4 0xA0D7AFB7 EQ PUSH2 0xD8 JUMPI PUSH2 0x80 JUMP JUMPDEST CALLDATASIZE PUSH2 0x80 JUMPI CALLVALUE PUSH1 0x4 DUP2 SWAP1 SSTORE STOP JUMPDEST PUSH0 DUP1 REVERT JUMPDEST CALLVALUE DUP1 ISZERO PUSH2 0x8F JUMPI PUSH0 DUP1 REVERT JUMPDEST POP PUSH2 0x98 PUSH2 0x1AA JUMP JUMPDEST PUSH1 0x40 MLOAD PUSH2 0xA5 SWAP2 SWAP1 PUSH2 0x26E JUMP JUMPDEST PUSH1 0x40 MLOAD DUP1 SWAP2 SUB SWAP1 RETURN JUMPDEST CALLVALUE DUP1 ISZERO PUSH2 0xB9 JUMPI PUSH0 DUP1 REVERT JUMPDEST POP PUSH2 0xC2 PUSH2 0x1CF JUMP JUMPDEST PUSH1 0x40 MLOAD PUSH2 0xCF SWAP2 SWAP1 PUSH2 0x29F JUMP JUMPDEST PUSH1 0x40 MLOAD DUP1 SWAP2 SUB SWAP1 RETURN JUMPDEST CALLVALUE DUP1 ISZERO PUSH2 0xE3 JUMPI PUSH0 DUP1 REVERT JUMPDEST POP PUSH2 0xEC PUSH2 0x1D5 JUMP JUMPDEST PUSH1 0x40 MLOAD PUSH2 0xF9 SWAP2 SWAP1 PUSH2 0x29F JUMP JUMPDEST PUSH1 0x40 MLOAD DUP1 SWAP2 SUB SWAP1 RETURN JUMPDEST CALLVALUE DUP1 ISZERO PUSH2 0x10D JUMPI PUSH0 DUP1 REVERT JUMPDEST POP PUSH2 0x116 PUSH2 0x1DB JUMP JUMPDEST PUSH1 0x40 MLOAD PUSH2 0x123 SWAP2 SWAP1 PUSH2 0x2D8 JUMP JUMPDEST PUSH1 0x40 MLOAD DUP1 SWAP2 SUB SWAP1 RETURN JUMPDEST CALLVALUE DUP1 ISZERO PUSH2 0x137 JUMPI PUSH0 DUP1 REVERT JUMPDEST POP PUSH2 0x140 PUSH2 0x200 JUMP JUMPDEST PUSH1 0x40 MLOAD PUSH2 0x14D SWAP2 SWAP1 PUSH2 0x29F JUMP JUMPDEST PUSH1 0x40 MLOAD DUP1 SWAP2 SUB SWAP1 RETURN JUMPDEST CALLVALUE DUP1 ISZERO PUSH2 0x161 JUMPI PUSH0 DUP1 REVERT JUMPDEST POP PUSH2 0x16A PUSH2 0x206 JUMP JUMPDEST PUSH1 0x40 MLOAD PUSH2 0x177 SWAP2 SWAP1 PUSH2 0x29F JUMP JUMPDEST PUSH1 0x40 MLOAD DUP1 SWAP2 SUB SWAP1 RETURN JUMPDEST CALLVALUE DUP1 ISZERO PUSH2 0x18B JUMPI PUSH0 DUP1 REVERT JUMPDEST POP PUSH2 0x194 PUSH2 0x20C JUMP JUMPDEST PUSH1 0x40 MLOAD PUSH2 0x1A1 SWAP2 SWAP1 PUSH2 0x26E JUMP JUMPDEST PUSH1 0x40 MLOAD DUP1 SWAP2 SUB SWAP1 RETURN JUMPDEST PUSH1 0x1 PUSH0 SWAP1 SLOAD SWAP1 PUSH2 0x100 EXP SWAP1 DIV PUSH20 0xFFFFFFFFFFFFFFFFFFFFFFFFFFFFFFFFFFFFFFFF AND DUP2 JUMP JUMPDEST PUSH1 0x2 SLOAD DUP2 JUMP JUMPDEST PUSH1 0x5 SLOAD DUP2 JUMP JUMPDEST PUSH1 0x6 PUSH0 SWAP1 SLOAD SWAP1 PUSH2 0x100 EXP SWAP1 DIV PUSH20 0xFFFFFFFFFFFFFFFFFFFFFFFFFFFFFFFFFFFFFFFF AND DUP2 JUMP JUMPDEST PUSH1 0x3 SLOAD DUP2 JUMP JUMPDEST PUSH1 0x4 SLOAD DUP2 JUMP JUMPDEST PUSH0 DUP1 SLOAD SWAP1 PUSH2 0x100 EXP SWAP1 DIV PUSH20 0xFFFFFFFFFFFFFFFFFFFFFFFFFFFFFFFFFFFFFFFF AND DUP2 JUMP JUMPDEST PUSH0 PUSH20 0xFFFFFFFFFFFFFFFFFFFFFFFFFFFFFFFFFFFFFFFF DUP3 AND SWAP1 POP SWAP2 SWAP1 POP JUMP JUMPDEST PUSH0 PUSH2 0x258 DUP3 PUSH2 0x22F JUMP JUMPDEST SWAP1 POP SWAP2 SWAP1 POP JUMP JUMPDEST PUSH2 0x268 DUP2 PUSH2 0x24E JUMP JUMPDEST DUP3 MSTORE POP POP JUMP JUMPDEST PUSH0 PUSH1 0x20 DUP3 ADD SWAP1 POP PUSH2 0x281 PUSH0 DUP4 ADD DUP5 PUSH2 0x25F JUMP JUMPDEST SWAP3 SWAP2 POP POP JUMP JUMPDEST PUSH0 DUP2 SWAP1 POP SWAP2 SWAP1 POP JUMP JUMPDEST PUSH2 0x299 DUP2 PUSH2 0x287 JUMP JUMPDEST DUP3 MSTORE POP POP JUMP JUMPDEST PUSH0 PUSH1 0x20 DUP3 ADD SWAP1 POP PUSH2 0x2B2 PUSH0 DUP4 ADD DUP5 PUSH2 0x290 JUMP JUMPDEST SWAP3 SWAP2 POP POP JUMP JUMPDEST PUSH0 PUSH2 0x2C2 DUP3 PUSH2 0x22F JUMP JUMPDEST SWAP1 POP SWAP2 SWAP1 POP JUMP JUMPDEST PUSH2 0x2D2 DUP2 PUSH2 0x2B8 JUMP JUMPDEST DUP3 MSTORE POP POP JUMP JUMPDEST PUSH0 PUSH1 0x20 DUP3 ADD SWAP1 POP PUSH2 0x2EB PUSH0 DUP4 ADD DUP5 PUSH2 0x2C9 JUMP JUMPDEST SWAP3 SWAP2 POP POP JUMP INVALID LOG2 PUSH5 0x6970667358 0x22 SLT KECCAK256 LOG2 PUSH29 0xDE98A423A8D62F79D8843128C66FAF4BD058BF5736B108AB8B15380BB9 TSTORE PUSH5 0x736F6C6343 STOP ADDMOD XOR STOP CALLER "
				},
				"gasEstimates": {
					"creation": {
						"codeDepositCost": "161400",
						"executionCost": "139340",
						"totalCost": "300740"
					},
					"external": {
						"blockNumber()": "2448",
						"coinbase()": "2508",
						"contractAddress()": "2571",
						"diff()": "2470",
						"msgValue()": "2469",
						"senderAddress()": "2509",
						"timestamp()": "2447"
					}
				},
				"methodIdentifiers": {
					"blockNumber()": "57e871e7",
					"coinbase()": "a6ae0aac",
					"contractAddress()": "f6b4dfb4",
					"diff()": "a0d7afb7",
					"msgValue()": "ddf363d7",
					"senderAddress()": "4fc84791",
					"timestamp()": "b80777ea"
				}
			},
			"storageLayout": {
				"storage": [
					{
						"astId": 3,
						"contract": "contracts/lab2.sol:Lab2",
						"label": "contractAddress",
						"offset": 0,
						"slot": "0",
						"type": "t_address"
					},
					{
						"astId": 5,
						"contract": "contracts/lab2.sol:Lab2",
						"label": "senderAddress",
						"offset": 0,
						"slot": "1",
						"type": "t_address"
					},
					{
						"astId": 7,
						"contract": "contracts/lab2.sol:Lab2",
						"label": "blockNumber",
						"offset": 0,
						"slot": "2",
						"type": "t_uint256"
					},
					{
						"astId": 9,
						"contract": "contracts/lab2.sol:Lab2",
						"label": "timestamp",
						"offset": 0,
						"slot": "3",
						"type": "t_uint256"
					},
					{
						"astId": 11,
						"contract": "contracts/lab2.sol:Lab2",
						"label": "msgValue",
						"offset": 0,
						"slot": "4",
						"type": "t_uint256"
					},
					{
						"astId": 13,
						"contract": "contracts/lab2.sol:Lab2",
						"label": "diff",
						"offset": 0,
						"slot": "5",
						"type": "t_uint256"
					},
					{
						"astId": 15,
						"contract": "contracts/lab2.sol:Lab2",
						"label": "coinbase",
						"offset": 0,
						"slot": "6",
						"type": "t_address_payable"
					}
				],
				"types": {
					"t_address": {
						"encoding": "inplace",
						"label": "address",
						"numberOfBytes": "20"
					},
					"t_address_payable": {
						"encoding": "inplace",
						"label": "address payable",
						"numberOfBytes": "20"
					},
					"t_uint256": {
						"encoding": "inplace",
						"label": "uint256",
						"numberOfBytes": "32"
					}
				}
			},
			"userdoc": {
				"kind": "user",
				"methods": {},
				"version": 1
			}
		}
	}
}