{
	"contracts/lab3iii.sol": {
		"PayableContract": {
			"abi": [
				{
					"inputs": [],
					"name": "transferToSelf",
					"outputs": [],
					"stateMutability": "payable",
					"type": "function"
				}
			],
			"devdoc": {
				"kind": "dev",
				"methods": {},
				"version": 1
			},
			"evm": {
				"assembly": "    /* \"contracts/lab3iii.sol\":60:146  contract PayableContract {... */\n  mstore(0x40, 0x80)\n  callvalue\n  dup1\n  iszero\n  tag_1\n  jumpi\n  0x00\n  dup1\n  revert\ntag_1:\n  pop\n  dataSize(sub_0)\n  dup1\n  dataOffset(sub_0)\n  0x00\n  codecopy\n  0x00\n  return\nstop\n\nsub_0: assembly {\n        /* \"contracts/lab3iii.sol\":60:146  contract PayableContract {... */\n      mstore(0x40, 0x80)\n      jumpi(tag_1, lt(calldatasize, 0x04))\n      shr(0xe0, calldataload(0x00))\n      dup1\n      0xf62de28e\n      eq\n      tag_2\n      jumpi\n    tag_1:\n      0x00\n      dup1\n      revert\n        /* \"contracts/lab3iii.sol\":92:143  function transferToSelf() external payable {... */\n    tag_2:\n      tag_3\n      tag_4\n      jump\t// in\n    tag_3:\n      stop\n    tag_4:\n      jump\t// out\n\n    auxdata: 0xa2646970667358221220ca499536041e31c2cb1cd8a2badf2bb0ea5e461e27ba323b8d22fd02e8b0c7f964736f6c63430008180033\n}\n",
				"bytecode": {
					"linkReferences": {},
					"object": "6080604052348015600e575f80fd5b50605f80601a5f395ff3fe608060405260043610601b575f3560e01c8063f62de28e14601f575b5f80fd5b60256027565b005b56fea2646970667358221220ca499536041e31c2cb1cd8a2badf2bb0ea5e461e27ba323b8d22fd02e8b0c7f964736f6c63430008180033",
					"opcodes": "PUSH1 0x80 PUSH1 0x40 MSTORE CALLVALUE DUP1 ISZERO PUSH1 0xE JUMPI PUSH0 DUP1 REVERT JUMPDEST POP PUSH1 0x5F DUP1 PUSH1 0x1A PUSH0 CODECOPY PUSH0 RETURN INVALID PUSH1 0x80 PUSH1 0x40 MSTORE PUSH1 0x4 CALLDATASIZE LT PUSH1 0x1B JUMPI PUSH0 CALLDATALOAD PUSH1 0xE0 SHR DUP1 PUSH4 0xF62DE28E EQ PUSH1 0x1F JUMPI JUMPDEST PUSH0 DUP1 REVERT JUMPDEST PUSH1 0x25 PUSH1 0x27 JUMP JUMPDEST STOP JUMPDEST JUMP INVALID LOG2 PUSH5 0x6970667358 0x22 SLT KECCAK256 0xCA BLOBHASH SWAP6 CALLDATASIZE DIV 0x1E BALANCE 0xC2 0xCB SHR 0xD8 LOG2 0xBA 0xDF 0x2B 0xB0 0xEA MCOPY CHAINID 0x1E 0x27 0xBA ORIGIN EXTCODESIZE DUP14 0x22 REVERT MUL 0xE8 0xB0 0xC7 0xF9 PUSH5 0x736F6C6343 STOP ADDMOD XOR STOP CALLER "
				},
				"deployedBytecode": {
					"immutableReferences": {},
					"linkReferences": {},
					"object": "608060405260043610601b575f3560e01c8063f62de28e14601f575b5f80fd5b60256027565b005b56fea2646970667358221220ca499536041e31c2cb1cd8a2badf2bb0ea5e461e27ba323b8d22fd02e8b0c7f964736f6c63430008180033",
					"opcodes": "PUSH1 0x80 PUSH1 0x40 MSTORE PUSH1 0x4 CALLDATASIZE LT PUSH1 0x1B JUMPI PUSH0 CALLDATALOAD PUSH1 0xE0 SHR DUP1 PUSH4 0xF62DE28E EQ PUSH1 0x1F JUMPI JUMPDEST PUSH0 DUP1 REVERT JUMPDEST PUSH1 0x25 PUSH1 0x27 JUMP JUMPDEST STOP JUMPDEST JUMP INVALID LOG2 PUSH5 0x6970667358 0x22 SLT KECCAK256 0xCA BLOBHASH SWAP6 CALLDATASIZE DIV 0x1E BALANCE 0xC2 0xCB SHR 0xD8 LOG2 0xBA 0xDF 0x2B 0xB0 0xEA MCOPY CHAINID 0x1E 0x27 0xBA ORIGIN EXTCODESIZE DUP14 0x22 REVERT MUL 0xE8 0xB0 0xC7 0xF9 PUSH5 0x736F6C6343 STOP ADDMOD XOR STOP CALLER "
				},
				"gasEstimates": {
					"creation": {
						"codeDepositCost": "19000",
						"executionCost": "67",
						"totalCost": "19067"
					},
					"external": {
						"transferToSelf()": "97"
					}
				},
				"methodIdentifiers": {
					"transferToSelf()": "f62de28e"
				}
			},
			"storageLayout": {
				"storage": [],
				"types": null
			},
			"userdoc": {
				"kind": "user",
				"methods": {},
				"version": 1
			}
		}
	}
}