{
	"data": {
		"bytecode": {
			"linkReferences": {},
			"object": "608060405234801561000f575f80fd5b506105508061001d5f395ff3fe608060405234801561000f575f80fd5b5060043610610034575f3560e01c806393e0141814610038578063bbc22f3f14610054575b5f80fd5b610052600480360381019061004d9190610291565b610084565b005b61006e60048036038101906100699190610321565b610134565b60405161007b91906103e9565b60405180910390f35b5f8373ffffffffffffffffffffffffffffffffffffffff1683836040516100ac929190610445565b5f604051808303815f865af19150503d805f81146100e5576040519150601f19603f3d011682016040523d82523d5f602084013e6100ea565b606091505b505090508061012e576040517f08c379a0000000000000000000000000000000000000000000000000000000008152600401610125906104b7565b60405180910390fd5b50505050565b606082826040516024016101499291906104f3565b6040516020818303038152906040527f6cb927d8000000000000000000000000000000000000000000000000000000007bffffffffffffffffffffffffffffffffffffffffffffffffffffffff19166020820180517bffffffffffffffffffffffffffffffffffffffffffffffffffffffff8381831617835250505050905092915050565b5f80fd5b5f80fd5b5f73ffffffffffffffffffffffffffffffffffffffff82169050919050565b5f6101ff826101d6565b9050919050565b61020f816101f5565b8114610219575f80fd5b50565b5f8135905061022a81610206565b92915050565b5f80fd5b5f80fd5b5f80fd5b5f8083601f84011261025157610250610230565b5b8235905067ffffffffffffffff81111561026e5761026d610234565b5b60208301915083600182028301111561028a57610289610238565b5b9250929050565b5f805f604084860312156102a8576102a76101ce565b5b5f6102b58682870161021c565b935050602084013567ffffffffffffffff8111156102d6576102d56101d2565b5b6102e28682870161023c565b92509250509250925092565b5f819050919050565b610300816102ee565b811461030a575f80fd5b50565b5f8135905061031b816102f7565b92915050565b5f8060408385031215610337576103366101ce565b5b5f6103448582860161021c565b92505060206103558582860161030d565b9150509250929050565b5f81519050919050565b5f82825260208201905092915050565b5f5b8381101561039657808201518184015260208101905061037b565b5f8484015250505050565b5f601f19601f8301169050919050565b5f6103bb8261035f565b6103c58185610369565b93506103d5818560208601610379565b6103de816103a1565b840191505092915050565b5f6020820190508181035f83015261040181846103b1565b905092915050565b5f81905092915050565b828183375f83830152505050565b5f61042c8385610409565b9350610439838584610413565b82840190509392505050565b5f610451828486610421565b91508190509392505050565b5f82825260208201905092915050565b7f4661696c000000000000000000000000000000000000000000000000000000005f82015250565b5f6104a160048361045d565b91506104ac8261046d565b602082019050919050565b5f6020820190508181035f8301526104ce81610495565b9050919050565b6104de816101f5565b82525050565b6104ed816102ee565b82525050565b5f6040820190506105065f8301856104d5565b61051360208301846104e4565b939250505056fea2646970667358221220862c378e1f1e9ee46883f022deedb3251100ba0903b5a01d69300f8c8e4cdd1464736f6c63430008180033",
			"opcodes": "PUSH1 0x80 PUSH1 0x40 MSTORE CALLVALUE DUP1 ISZERO PUSH2 0xF JUMPI PUSH0 DUP1 REVERT JUMPDEST POP PUSH2 0x550 DUP1 PUSH2 0x1D PUSH0 CODECOPY PUSH0 RETURN INVALID PUSH1 0x80 PUSH1 0x40 MSTORE CALLVALUE DUP1 ISZERO PUSH2 0xF JUMPI PUSH0 DUP1 REVERT JUMPDEST POP PUSH1 0x4 CALLDATASIZE LT PUSH2 0x34 JUMPI PUSH0 CALLDATALOAD PUSH1 0xE0 SHR DUP1 PUSH4 0x93E01418 EQ PUSH2 0x38 JUMPI DUP1 PUSH4 0xBBC22F3F EQ PUSH2 0x54 JUMPI JUMPDEST PUSH0 DUP1 REVERT JUMPDEST PUSH2 0x52 PUSH1 0x4 DUP1 CALLDATASIZE SUB DUP2 ADD SWAP1 PUSH2 0x4D SWAP2 SWAP1 PUSH2 0x291 JUMP JUMPDEST PUSH2 0x84 JUMP JUMPDEST STOP JUMPDEST PUSH2 0x6E PUSH1 0x4 DUP1 CALLDATASIZE SUB DUP2 ADD SWAP1 PUSH2 0x69 SWAP2 SWAP1 PUSH2 0x321 JUMP JUMPDEST PUSH2 0x134 JUMP JUMPDEST PUSH1 0x40 MLOAD PUSH2 0x7B SWAP2 SWAP1 PUSH2 0x3E9 JUMP JUMPDEST PUSH1 0x40 MLOAD DUP1 SWAP2 SUB SWAP1 RETURN JUMPDEST PUSH0 DUP4 PUSH20 0xFFFFFFFFFFFFFFFFFFFFFFFFFFFFFFFFFFFFFFFF AND DUP4 DUP4 PUSH1 0x40 MLOAD PUSH2 0xAC SWAP3 SWAP2 SWAP1 PUSH2 0x445 JUMP JUMPDEST PUSH0 PUSH1 0x40 MLOAD DUP1 DUP4 SUB DUP2 PUSH0 DUP7 GAS CALL SWAP2 POP POP RETURNDATASIZE DUP1 PUSH0 DUP2 EQ PUSH2 0xE5 JUMPI PUSH1 0x40 MLOAD SWAP2 POP PUSH1 0x1F NOT PUSH1 0x3F RETURNDATASIZE ADD AND DUP3 ADD PUSH1 0x40 MSTORE RETURNDATASIZE DUP3 MSTORE RETURNDATASIZE PUSH0 PUSH1 0x20 DUP5 ADD RETURNDATACOPY PUSH2 0xEA JUMP JUMPDEST PUSH1 0x60 SWAP2 POP JUMPDEST POP POP SWAP1 POP DUP1 PUSH2 0x12E JUMPI PUSH1 0x40 MLOAD PUSH32 0x8C379A000000000000000000000000000000000000000000000000000000000 DUP2 MSTORE PUSH1 0x4 ADD PUSH2 0x125 SWAP1 PUSH2 0x4B7 JUMP JUMPDEST PUSH1 0x40 MLOAD DUP1 SWAP2 SUB SWAP1 REVERT JUMPDEST POP POP POP POP JUMP JUMPDEST PUSH1 0x60 DUP3 DUP3 PUSH1 0x40 MLOAD PUSH1 0x24 ADD PUSH2 0x149 SWAP3 SWAP2 SWAP1 PUSH2 0x4F3 JUMP JUMPDEST PUSH1 0x40 MLOAD PUSH1 0x20 DUP2 DUP4 SUB SUB DUP2 MSTORE SWAP1 PUSH1 0x40 MSTORE PUSH32 0x6CB927D800000000000000000000000000000000000000000000000000000000 PUSH28 0xFFFFFFFFFFFFFFFFFFFFFFFFFFFFFFFFFFFFFFFFFFFFFFFFFFFFFFFF NOT AND PUSH1 0x20 DUP3 ADD DUP1 MLOAD PUSH28 0xFFFFFFFFFFFFFFFFFFFFFFFFFFFFFFFFFFFFFFFFFFFFFFFFFFFFFFFF DUP4 DUP2 DUP4 AND OR DUP4 MSTORE POP POP POP POP SWAP1 POP SWAP3 SWAP2 POP POP JUMP JUMPDEST PUSH0 DUP1 REVERT JUMPDEST PUSH0 DUP1 REVERT JUMPDEST PUSH0 PUSH20 0xFFFFFFFFFFFFFFFFFFFFFFFFFFFFFFFFFFFFFFFF DUP3 AND SWAP1 POP SWAP2 SWAP1 POP JUMP JUMPDEST PUSH0 PUSH2 0x1FF DUP3 PUSH2 0x1D6 JUMP JUMPDEST SWAP1 POP SWAP2 SWAP1 POP JUMP JUMPDEST PUSH2 0x20F DUP2 PUSH2 0x1F5 JUMP JUMPDEST DUP2 EQ PUSH2 0x219 JUMPI PUSH0 DUP1 REVERT JUMPDEST POP JUMP JUMPDEST PUSH0 DUP2 CALLDATALOAD SWAP1 POP PUSH2 0x22A DUP2 PUSH2 0x206 JUMP JUMPDEST SWAP3 SWAP2 POP POP JUMP JUMPDEST PUSH0 DUP1 REVERT JUMPDEST PUSH0 DUP1 REVERT JUMPDEST PUSH0 DUP1 REVERT JUMPDEST PUSH0 DUP1 DUP4 PUSH1 0x1F DUP5 ADD SLT PUSH2 0x251 JUMPI PUSH2 0x250 PUSH2 0x230 JUMP JUMPDEST JUMPDEST DUP3 CALLDATALOAD SWAP1 POP PUSH8 0xFFFFFFFFFFFFFFFF DUP2 GT ISZERO PUSH2 0x26E JUMPI PUSH2 0x26D PUSH2 0x234 JUMP JUMPDEST JUMPDEST PUSH1 0x20 DUP4 ADD SWAP2 POP DUP4 PUSH1 0x1 DUP3 MUL DUP4 ADD GT ISZERO PUSH2 0x28A JUMPI PUSH2 0x289 PUSH2 0x238 JUMP JUMPDEST JUMPDEST SWAP3 POP SWAP3 SWAP1 POP JUMP JUMPDEST PUSH0 DUP1 PUSH0 PUSH1 0x40 DUP5 DUP7 SUB SLT ISZERO PUSH2 0x2A8 JUMPI PUSH2 0x2A7 PUSH2 0x1CE JUMP JUMPDEST JUMPDEST PUSH0 PUSH2 0x2B5 DUP7 DUP3 DUP8 ADD PUSH2 0x21C JUMP JUMPDEST SWAP4 POP POP PUSH1 0x20 DUP5 ADD CALLDATALOAD PUSH8 0xFFFFFFFFFFFFFFFF DUP2 GT ISZERO PUSH2 0x2D6 JUMPI PUSH2 0x2D5 PUSH2 0x1D2 JUMP JUMPDEST JUMPDEST PUSH2 0x2E2 DUP7 DUP3 DUP8 ADD PUSH2 0x23C JUMP JUMPDEST SWAP3 POP SWAP3 POP POP SWAP3 POP SWAP3 POP SWAP3 JUMP JUMPDEST PUSH0 DUP2 SWAP1 POP SWAP2 SWAP1 POP JUMP JUMPDEST PUSH2 0x300 DUP2 PUSH2 0x2EE JUMP JUMPDEST DUP2 EQ PUSH2 0x30A JUMPI PUSH0 DUP1 REVERT JUMPDEST POP JUMP JUMPDEST PUSH0 DUP2 CALLDATALOAD SWAP1 POP PUSH2 0x31B DUP2 PUSH2 0x2F7 JUMP JUMPDEST SWAP3 SWAP2 POP POP JUMP JUMPDEST PUSH0 DUP1 PUSH1 0x40 DUP4 DUP6 SUB SLT ISZERO PUSH2 0x337 JUMPI PUSH2 0x336 PUSH2 0x1CE JUMP JUMPDEST JUMPDEST PUSH0 PUSH2 0x344 DUP6 DUP3 DUP7 ADD PUSH2 0x21C JUMP JUMPDEST SWAP3 POP POP PUSH1 0x20 PUSH2 0x355 DUP6 DUP3 DUP7 ADD PUSH2 0x30D JUMP JUMPDEST SWAP2 POP POP SWAP3 POP SWAP3 SWAP1 POP JUMP JUMPDEST PUSH0 DUP2 MLOAD SWAP1 POP SWAP2 SWAP1 POP JUMP JUMPDEST PUSH0 DUP3 DUP3 MSTORE PUSH1 0x20 DUP3 ADD SWAP1 POP SWAP3 SWAP2 POP POP JUMP JUMPDEST PUSH0 JUMPDEST DUP4 DUP2 LT ISZERO PUSH2 0x396 JUMPI DUP1 DUP3 ADD MLOAD DUP2 DUP5 ADD MSTORE PUSH1 0x20 DUP2 ADD SWAP1 POP PUSH2 0x37B JUMP JUMPDEST PUSH0 DUP5 DUP5 ADD MSTORE POP POP POP POP JUMP JUMPDEST PUSH0 PUSH1 0x1F NOT PUSH1 0x1F DUP4 ADD AND SWAP1 POP SWAP2 SWAP1 POP JUMP JUMPDEST PUSH0 PUSH2 0x3BB DUP3 PUSH2 0x35F JUMP JUMPDEST PUSH2 0x3C5 DUP2 DUP6 PUSH2 0x369 JUMP JUMPDEST SWAP4 POP PUSH2 0x3D5 DUP2 DUP6 PUSH1 0x20 DUP7 ADD PUSH2 0x379 JUMP JUMPDEST PUSH2 0x3DE DUP2 PUSH2 0x3A1 JUMP JUMPDEST DUP5 ADD SWAP2 POP POP SWAP3 SWAP2 POP POP JUMP JUMPDEST PUSH0 PUSH1 0x20 DUP3 ADD SWAP1 POP DUP2 DUP2 SUB PUSH0 DUP4 ADD MSTORE PUSH2 0x401 DUP2 DUP5 PUSH2 0x3B1 JUMP JUMPDEST SWAP1 POP SWAP3 SWAP2 POP POP JUMP JUMPDEST PUSH0 DUP2 SWAP1 POP SWAP3 SWAP2 POP POP JUMP JUMPDEST DUP3 DUP2 DUP4 CALLDATACOPY PUSH0 DUP4 DUP4 ADD MSTORE POP POP POP JUMP JUMPDEST PUSH0 PUSH2 0x42C DUP4 DUP6 PUSH2 0x409 JUMP JUMPDEST SWAP4 POP PUSH2 0x439 DUP4 DUP6 DUP5 PUSH2 0x413 JUMP JUMPDEST DUP3 DUP5 ADD SWAP1 POP SWAP4 SWAP3 POP POP POP JUMP JUMPDEST PUSH0 PUSH2 0x451 DUP3 DUP5 DUP7 PUSH2 0x421 JUMP JUMPDEST SWAP2 POP DUP2 SWAP1 POP SWAP4 SWAP3 POP POP POP JUMP JUMPDEST PUSH0 DUP3 DUP3 MSTORE PUSH1 0x20 DUP3 ADD SWAP1 POP SWAP3 SWAP2 POP POP JUMP JUMPDEST PUSH32 0x4661696C00000000000000000000000000000000000000000000000000000000 PUSH0 DUP3 ADD MSTORE POP JUMP JUMPDEST PUSH0 PUSH2 0x4A1 PUSH1 0x4 DUP4 PUSH2 0x45D JUMP JUMPDEST SWAP2 POP PUSH2 0x4AC DUP3 PUSH2 0x46D JUMP JUMPDEST PUSH1 0x20 DUP3 ADD SWAP1 POP SWAP2 SWAP1 POP JUMP JUMPDEST PUSH0 PUSH1 0x20 DUP3 ADD SWAP1 POP DUP2 DUP2 SUB PUSH0 DUP4 ADD MSTORE PUSH2 0x4CE DUP2 PUSH2 0x495 JUMP JUMPDEST SWAP1 POP SWAP2 SWAP1 POP JUMP JUMPDEST PUSH2 0x4DE DUP2 PUSH2 0x1F5 JUMP JUMPDEST DUP3 MSTORE POP POP JUMP JUMPDEST PUSH2 0x4ED DUP2 PUSH2 0x2EE JUMP JUMPDEST DUP3 MSTORE POP POP JUMP JUMPDEST PUSH0 PUSH1 0x40 DUP3 ADD SWAP1 POP PUSH2 0x506 PUSH0 DUP4 ADD DUP6 PUSH2 0x4D5 JUMP JUMPDEST PUSH2 0x513 PUSH1 0x20 DUP4 ADD DUP5 PUSH2 0x4E4 JUMP JUMPDEST SWAP4 SWAP3 POP POP POP JUMP INVALID LOG2 PUSH5 0x6970667358 0x22 SLT KECCAK256 DUP7 0x2C CALLDATACOPY DUP15 0x1F 0x1E SWAP15 0xE4 PUSH9 0x83F022DEEDB3251100 0xBA MULMOD SUB 0xB5 LOG0 SAR PUSH10 0x300F8C8E4CDD1464736F PUSH13 0x63430008180033000000000000 "
		},
		"gasEstimates": {
			"creation": {
				"codeDepositCost": "272000",
				"executionCost": "310",
				"totalCost": "272310"
			},
			"external": {
				"encodewithsign(address,uint256)": "infinite",
				"test(address,bytes)": "infinite"
			}
		},
		"methodIdentifiers": {
			"encodewithsign(address,uint256)": "bbc22f3f",
			"test(address,bytes)": "93e01418"
		}
	},
	"abi": [
		{
			"inputs": [
				{
					"internalType": "address",
					"name": "to",
					"type": "address"
				},
				{
					"internalType": "uint256",
					"name": "amount",
					"type": "uint256"
				}
			],
			"name": "encodewithsign",
			"outputs": [
				{
					"internalType": "bytes",
					"name": "",
					"type": "bytes"
				}
			],
			"stateMutability": "pure",
			"type": "function"
		},
		{
			"inputs": [
				{
					"internalType": "address",
					"name": "_contract",
					"type": "address"
				},
				{
					"internalType": "bytes",
					"name": "data",
					"type": "bytes"
				}
			],
			"name": "test",
			"outputs": [],
			"stateMutability": "nonpayable",
			"type": "function"
		}
	]
}