{
	"data": {
		"bytecode": {
			"linkReferences": {},
			"object": "608060405234801561000f575f80fd5b5061044e8061001d5f395ff3fe608060405234801561000f575f80fd5b506004361061003f575f3560e01c80634df7e3d014610043578063c45f574414610061578063e31f2d6e1461007f575b5f80fd5b61004b61009d565b60405161005891906101ea565b60405180910390f35b6100696100a3565b60405161007691906101ea565b60405180910390f35b6100876101a2565b604051610094919061027d565b60405180910390f35b60015481565b5f6040516100b0906101c5565b604051809103905ff0801580156100c9573d5f803e3d5ffd5b505f806101000a81548173ffffffffffffffffffffffffffffffffffffffff021916908373ffffffffffffffffffffffffffffffffffffffff1602179055505f8054906101000a900473ffffffffffffffffffffffffffffffffffffffff1673ffffffffffffffffffffffffffffffffffffffff1663347a54366040518163ffffffff1660e01b8152600401602060405180830381865afa158015610170573d5f803e3d5ffd5b505050506040513d601f19601f8201168201806040525081019061019491906102c4565b600181905550600154905090565b5f8054906101000a900473ffffffffffffffffffffffffffffffffffffffff1681565b610129806102f083390190565b5f819050919050565b6101e4816101d2565b82525050565b5f6020820190506101fd5f8301846101db565b92915050565b5f73ffffffffffffffffffffffffffffffffffffffff82169050919050565b5f819050919050565b5f61024561024061023b84610203565b610222565b610203565b9050919050565b5f6102568261022b565b9050919050565b5f6102678261024c565b9050919050565b6102778161025d565b82525050565b5f6020820190506102905f83018461026e565b92915050565b5f80fd5b6102a3816101d2565b81146102ad575f80fd5b50565b5f815190506102be8161029a565b92915050565b5f602082840312156102d9576102d8610296565b5b5f6102e6848285016102b0565b9150509291505056fe608060405260145f55348015610013575f80fd5b50610108806100215f395ff3fe6080604052348015600e575f80fd5b5060043610603a575f3560e01c80630dbe671f14603e578063347a5436146058578063aca26c33146072575b5f80fd5b6044608c565b604051604f919060bb565b60405180910390f35b605e6091565b6040516069919060bb565b60405180910390f35b6078609d565b6040516083919060bb565b60405180910390f35b5f5481565b5f6098609d565b905090565b5f8054905090565b5f819050919050565b60b58160a5565b82525050565b5f60208201905060cc5f83018460ae565b9291505056fea2646970667358221220ee052932f2c31bf39d985f6ed30198a7888a3b1d62ff8d155ab7570ea09c3b4164736f6c63430008180033a264697066735822122097b18244b3dc64eea64c4f5838734038905b4ba96e3508ee59084859ce397cae64736f6c63430008180033",
			"opcodes": "PUSH1 0x80 PUSH1 0x40 MSTORE CALLVALUE DUP1 ISZERO PUSH2 0xF JUMPI PUSH0 DUP1 REVERT JUMPDEST POP PUSH2 0x44E DUP1 PUSH2 0x1D PUSH0 CODECOPY PUSH0 RETURN INVALID PUSH1 0x80 PUSH1 0x40 MSTORE CALLVALUE DUP1 ISZERO PUSH2 0xF JUMPI PUSH0 DUP1 REVERT JUMPDEST POP PUSH1 0x4 CALLDATASIZE LT PUSH2 0x3F JUMPI PUSH0 CALLDATALOAD PUSH1 0xE0 SHR DUP1 PUSH4 0x4DF7E3D0 EQ PUSH2 0x43 JUMPI DUP1 PUSH4 0xC45F5744 EQ PUSH2 0x61 JUMPI DUP1 PUSH4 0xE31F2D6E EQ PUSH2 0x7F JUMPI JUMPDEST PUSH0 DUP1 REVERT JUMPDEST PUSH2 0x4B PUSH2 0x9D JUMP JUMPDEST PUSH1 0x40 MLOAD PUSH2 0x58 SWAP2 SWAP1 PUSH2 0x1EA JUMP JUMPDEST PUSH1 0x40 MLOAD DUP1 SWAP2 SUB SWAP1 RETURN JUMPDEST PUSH2 0x69 PUSH2 0xA3 JUMP JUMPDEST PUSH1 0x40 MLOAD PUSH2 0x76 SWAP2 SWAP1 PUSH2 0x1EA JUMP JUMPDEST PUSH1 0x40 MLOAD DUP1 SWAP2 SUB SWAP1 RETURN JUMPDEST PUSH2 0x87 PUSH2 0x1A2 JUMP JUMPDEST PUSH1 0x40 MLOAD PUSH2 0x94 SWAP2 SWAP1 PUSH2 0x27D JUMP JUMPDEST PUSH1 0x40 MLOAD DUP1 SWAP2 SUB SWAP1 RETURN JUMPDEST PUSH1 0x1 SLOAD DUP2 JUMP JUMPDEST PUSH0 PUSH1 0x40 MLOAD PUSH2 0xB0 SWAP1 PUSH2 0x1C5 JUMP JUMPDEST PUSH1 0x40 MLOAD DUP1 SWAP2 SUB SWAP1 PUSH0 CREATE DUP1 ISZERO DUP1 ISZERO PUSH2 0xC9 JUMPI RETURNDATASIZE PUSH0 DUP1 RETURNDATACOPY RETURNDATASIZE PUSH0 REVERT JUMPDEST POP PUSH0 DUP1 PUSH2 0x100 EXP DUP2 SLOAD DUP2 PUSH20 0xFFFFFFFFFFFFFFFFFFFFFFFFFFFFFFFFFFFFFFFF MUL NOT AND SWAP1 DUP4 PUSH20 0xFFFFFFFFFFFFFFFFFFFFFFFFFFFFFFFFFFFFFFFF AND MUL OR SWAP1 SSTORE POP PUSH0 DUP1 SLOAD SWAP1 PUSH2 0x100 EXP SWAP1 DIV PUSH20 0xFFFFFFFFFFFFFFFFFFFFFFFFFFFFFFFFFFFFFFFF AND PUSH20 0xFFFFFFFFFFFFFFFFFFFFFFFFFFFFFFFFFFFFFFFF AND PUSH4 0x347A5436 PUSH1 0x40 MLOAD DUP2 PUSH4 0xFFFFFFFF AND PUSH1 0xE0 SHL DUP2 MSTORE PUSH1 0x4 ADD PUSH1 0x20 PUSH1 0x40 MLOAD DUP1 DUP4 SUB DUP2 DUP7 GAS STATICCALL ISZERO DUP1 ISZERO PUSH2 0x170 JUMPI RETURNDATASIZE PUSH0 DUP1 RETURNDATACOPY RETURNDATASIZE PUSH0 REVERT JUMPDEST POP POP POP POP PUSH1 0x40 MLOAD RETURNDATASIZE PUSH1 0x1F NOT PUSH1 0x1F DUP3 ADD AND DUP3 ADD DUP1 PUSH1 0x40 MSTORE POP DUP2 ADD SWAP1 PUSH2 0x194 SWAP2 SWAP1 PUSH2 0x2C4 JUMP JUMPDEST PUSH1 0x1 DUP2 SWAP1 SSTORE POP PUSH1 0x1 SLOAD SWAP1 POP SWAP1 JUMP JUMPDEST PUSH0 DUP1 SLOAD SWAP1 PUSH2 0x100 EXP SWAP1 DIV PUSH20 0xFFFFFFFFFFFFFFFFFFFFFFFFFFFFFFFFFFFFFFFF AND DUP2 JUMP JUMPDEST PUSH2 0x129 DUP1 PUSH2 0x2F0 DUP4 CODECOPY ADD SWAP1 JUMP JUMPDEST PUSH0 DUP2 SWAP1 POP SWAP2 SWAP1 POP JUMP JUMPDEST PUSH2 0x1E4 DUP2 PUSH2 0x1D2 JUMP JUMPDEST DUP3 MSTORE POP POP JUMP JUMPDEST PUSH0 PUSH1 0x20 DUP3 ADD SWAP1 POP PUSH2 0x1FD PUSH0 DUP4 ADD DUP5 PUSH2 0x1DB JUMP JUMPDEST SWAP3 SWAP2 POP POP JUMP JUMPDEST PUSH0 PUSH20 0xFFFFFFFFFFFFFFFFFFFFFFFFFFFFFFFFFFFFFFFF DUP3 AND SWAP1 POP SWAP2 SWAP1 POP JUMP JUMPDEST PUSH0 DUP2 SWAP1 POP SWAP2 SWAP1 POP JUMP JUMPDEST PUSH0 PUSH2 0x245 PUSH2 0x240 PUSH2 0x23B DUP5 PUSH2 0x203 JUMP JUMPDEST PUSH2 0x222 JUMP JUMPDEST PUSH2 0x203 JUMP JUMPDEST SWAP1 POP SWAP2 SWAP1 POP JUMP JUMPDEST PUSH0 PUSH2 0x256 DUP3 PUSH2 0x22B JUMP JUMPDEST SWAP1 POP SWAP2 SWAP1 POP JUMP JUMPDEST PUSH0 PUSH2 0x267 DUP3 PUSH2 0x24C JUMP JUMPDEST SWAP1 POP SWAP2 SWAP1 POP JUMP JUMPDEST PUSH2 0x277 DUP2 PUSH2 0x25D JUMP JUMPDEST DUP3 MSTORE POP POP JUMP JUMPDEST PUSH0 PUSH1 0x20 DUP3 ADD SWAP1 POP PUSH2 0x290 PUSH0 DUP4 ADD DUP5 PUSH2 0x26E JUMP JUMPDEST SWAP3 SWAP2 POP POP JUMP JUMPDEST PUSH0 DUP1 REVERT JUMPDEST PUSH2 0x2A3 DUP2 PUSH2 0x1D2 JUMP JUMPDEST DUP2 EQ PUSH2 0x2AD JUMPI PUSH0 DUP1 REVERT JUMPDEST POP JUMP JUMPDEST PUSH0 DUP2 MLOAD SWAP1 POP PUSH2 0x2BE DUP2 PUSH2 0x29A JUMP JUMPDEST SWAP3 SWAP2 POP POP JUMP JUMPDEST PUSH0 PUSH1 0x20 DUP3 DUP5 SUB SLT ISZERO PUSH2 0x2D9 JUMPI PUSH2 0x2D8 PUSH2 0x296 JUMP JUMPDEST JUMPDEST PUSH0 PUSH2 0x2E6 DUP5 DUP3 DUP6 ADD PUSH2 0x2B0 JUMP JUMPDEST SWAP2 POP POP SWAP3 SWAP2 POP POP JUMP INVALID PUSH1 0x80 PUSH1 0x40 MSTORE PUSH1 0x14 PUSH0 SSTORE CALLVALUE DUP1 ISZERO PUSH2 0x13 JUMPI PUSH0 DUP1 REVERT JUMPDEST POP PUSH2 0x108 DUP1 PUSH2 0x21 PUSH0 CODECOPY PUSH0 RETURN INVALID PUSH1 0x80 PUSH1 0x40 MSTORE CALLVALUE DUP1 ISZERO PUSH1 0xE JUMPI PUSH0 DUP1 REVERT JUMPDEST POP PUSH1 0x4 CALLDATASIZE LT PUSH1 0x3A JUMPI PUSH0 CALLDATALOAD PUSH1 0xE0 SHR DUP1 PUSH4 0xDBE671F EQ PUSH1 0x3E JUMPI DUP1 PUSH4 0x347A5436 EQ PUSH1 0x58 JUMPI DUP1 PUSH4 0xACA26C33 EQ PUSH1 0x72 JUMPI JUMPDEST PUSH0 DUP1 REVERT JUMPDEST PUSH1 0x44 PUSH1 0x8C JUMP JUMPDEST PUSH1 0x40 MLOAD PUSH1 0x4F SWAP2 SWAP1 PUSH1 0xBB JUMP JUMPDEST PUSH1 0x40 MLOAD DUP1 SWAP2 SUB SWAP1 RETURN JUMPDEST PUSH1 0x5E PUSH1 0x91 JUMP JUMPDEST PUSH1 0x40 MLOAD PUSH1 0x69 SWAP2 SWAP1 PUSH1 0xBB JUMP JUMPDEST PUSH1 0x40 MLOAD DUP1 SWAP2 SUB SWAP1 RETURN JUMPDEST PUSH1 0x78 PUSH1 0x9D JUMP JUMPDEST PUSH1 0x40 MLOAD PUSH1 0x83 SWAP2 SWAP1 PUSH1 0xBB JUMP JUMPDEST PUSH1 0x40 MLOAD DUP1 SWAP2 SUB SWAP1 RETURN JUMPDEST PUSH0 SLOAD DUP2 JUMP JUMPDEST PUSH0 PUSH1 0x98 PUSH1 0x9D JUMP JUMPDEST SWAP1 POP SWAP1 JUMP JUMPDEST PUSH0 DUP1 SLOAD SWAP1 POP SWAP1 JUMP JUMPDEST PUSH0 DUP2 SWAP1 POP SWAP2 SWAP1 POP JUMP JUMPDEST PUSH1 0xB5 DUP2 PUSH1 0xA5 JUMP JUMPDEST DUP3 MSTORE POP POP JUMP JUMPDEST PUSH0 PUSH1 0x20 DUP3 ADD SWAP1 POP PUSH1 0xCC PUSH0 DUP4 ADD DUP5 PUSH1 0xAE JUMP JUMPDEST SWAP3 SWAP2 POP POP JUMP INVALID LOG2 PUSH5 0x6970667358 0x22 SLT KECCAK256 0xEE SDIV 0x29 ORIGIN CALLCODE 0xC3 SHL RETURN SWAP14 SWAP9 PUSH0 PUSH15 0xD30198A7888A3B1D62FF8D155AB757 0xE LOG0 SWAP13 EXTCODESIZE COINBASE PUSH5 0x736F6C6343 STOP ADDMOD XOR STOP CALLER LOG2 PUSH5 0x6970667358 0x22 SLT KECCAK256 SWAP8 0xB1 DUP3 PREVRANDAO 0xB3 0xDC PUSH5 0xEEA64C4F58 CODESIZE PUSH20 0x4038905B4BA96E3508EE59084859CE397CAE6473 PUSH16 0x6C634300081800330000000000000000 "
		},
		"gasEstimates": {
			"creation": {
				"codeDepositCost": "220400",
				"executionCost": "261",
				"totalCost": "220661"
			},
			"external": {
				"Init_AnotherContract()": "infinite",
				"b()": "2403",
				"obj()": "infinite"
			}
		},
		"methodIdentifiers": {
			"Init_AnotherContract()": "c45f5744",
			"b()": "4df7e3d0",
			"obj()": "e31f2d6e"
		}
	},
	"abi": [
		{
			"inputs": [],
			"name": "Init_AnotherContract",
			"outputs": [
				{
					"internalType": "uint256",
					"name": "",
					"type": "uint256"
				}
			],
			"stateMutability": "nonpayable",
			"type": "function"
		},
		{
			"inputs": [],
			"name": "b",
			"outputs": [
				{
					"internalType": "uint256",
					"name": "",
					"type": "uint256"
				}
			],
			"stateMutability": "view",
			"type": "function"
		},
		{
			"inputs": [],
			"name": "obj",
			"outputs": [
				{
					"internalType": "contract Derived_contract",
					"name": "",
					"type": "address"
				}
			],
			"stateMutability": "view",
			"type": "function"
		}
	]
}