{
	"data": {
		"bytecode": {
			"linkReferences": {},
			"object": "608060405234801561000f575f80fd5b50335f806101000a81548173ffffffffffffffffffffffffffffffffffffffff021916908373ffffffffffffffffffffffffffffffffffffffff16021790555061117c8061005c5f395ff3fe608060405234801562000010575f80fd5b506004361062000050575f3560e01c80638da5cb5b14620000545780638ff1bfbc1462000076578063a28948fa14620000ac578063a5e57b4714620000ce575b5f80fd5b6200005e620000ee565b6040516200006d919062000398565b60405180910390f35b6200009460048036038101906200008e9190620003fc565b62000111565b604051620000a3919062000398565b60405180910390f35b620000b66200014d565b604051620000c59190620004f3565b60405180910390f35b620000ec6004803603810190620000e691906200069c565b620001da565b005b5f8054906101000a900473ffffffffffffffffffffffffffffffffffffffff1681565b6001818154811062000121575f80fd5b905f5260205f20015f915054906101000a900473ffffffffffffffffffffffffffffffffffffffff1681565b60606001805480602002602001604051908101604052809291908181526020018280548015620001d057602002820191905f5260205f20905b815f9054906101000a900473ffffffffffffffffffffffffffffffffffffffff1673ffffffffffffffffffffffffffffffffffffffff168152602001906001019080831162000186575b5050505050905090565b5f8054906101000a900473ffffffffffffffffffffffffffffffffffffffff1673ffffffffffffffffffffffffffffffffffffffff163373ffffffffffffffffffffffffffffffffffffffff16146200026a576040517f08c379a0000000000000000000000000000000000000000000000000000000008152600401620002619062000784565b60405180910390fd5b5f82826040516200027b9062000347565b6200028892919062000818565b604051809103905ff080158015620002a2573d5f803e3d5ffd5b509050600181908060018154018082558091505060019003905f5260205f20015f9091909190916101000a81548173ffffffffffffffffffffffffffffffffffffffff021916908373ffffffffffffffffffffffffffffffffffffffff1602179055507fc53af763a7835e6075c030671e2afd8d1111b901e2f4f25c3c37f6df481207e18184846040516200033a939291906200084a565b60405180910390a1505050565b6108ba806200088d83390190565b5f73ffffffffffffffffffffffffffffffffffffffff82169050919050565b5f620003808262000355565b9050919050565b620003928162000374565b82525050565b5f602082019050620003ad5f83018462000387565b92915050565b5f604051905090565b5f80fd5b5f80fd5b5f819050919050565b620003d881620003c4565b8114620003e3575f80fd5b50565b5f81359050620003f681620003cd565b92915050565b5f60208284031215620004145762000413620003bc565b5b5f6200042384828501620003e6565b91505092915050565b5f81519050919050565b5f82825260208201905092915050565b5f819050602082019050919050565b620004608162000374565b82525050565b5f62000473838362000455565b60208301905092915050565b5f602082019050919050565b5f62000497826200042c565b620004a3818562000436565b9350620004b08362000446565b805f5b83811015620004e6578151620004ca888262000466565b9750620004d7836200047f565b925050600181019050620004b3565b5085935050505092915050565b5f6020820190508181035f8301526200050d81846200048b565b905092915050565b620005208162000374565b81146200052b575f80fd5b50565b5f813590506200053e8162000515565b92915050565b5f80fd5b5f80fd5b5f601f19601f8301169050919050565b7f4e487b71000000000000000000000000000000000000000000000000000000005f52604160045260245ffd5b62000594826200054c565b810181811067ffffffffffffffff82111715620005b657620005b56200055c565b5b80604052505050565b5f620005ca620003b3565b9050620005d8828262000589565b919050565b5f67ffffffffffffffff821115620005fa57620005f96200055c565b5b62000605826200054c565b9050602081019050919050565b828183375f83830152505050565b5f620006366200063084620005dd565b620005bf565b90508281526020810184848401111562000655576200065462000548565b5b6200066284828562000612565b509392505050565b5f82601f83011262000681576200068062000544565b5b81356200069384826020860162000620565b91505092915050565b5f8060408385031215620006b557620006b4620003bc565b5b5f620006c4858286016200052e565b925050602083013567ffffffffffffffff811115620006e857620006e7620003c0565b5b620006f6858286016200066a565b9150509250929050565b5f82825260208201905092915050565b7f4f6e6c7920746865206f776e65722063616e20706572666f726d2074686973205f8201527f616374696f6e0000000000000000000000000000000000000000000000000000602082015250565b5f6200076c60268362000700565b9150620007798262000710565b604082019050919050565b5f6020820190508181035f8301526200079d816200075e565b9050919050565b5f81519050919050565b5f5b83811015620007cd578082015181840152602081019050620007b0565b5f8484015250505050565b5f620007e482620007a4565b620007f0818562000700565b935062000802818560208601620007ae565b6200080d816200054c565b840191505092915050565b5f6040820190506200082d5f83018562000387565b8181036020830152620008418184620007d8565b90509392505050565b5f6060820190506200085f5f83018662000387565b6200086e602083018562000387565b8181036040830152620008828184620007d8565b905094935050505056fe608060405234801562000010575f80fd5b50604051620008ba380380620008ba833981810160405281019062000036919062000275565b815f806101000a81548173ffffffffffffffffffffffffffffffffffffffff021916908373ffffffffffffffffffffffffffffffffffffffff160217905550806001908162000086919062000510565b505050620005f4565b5f604051905090565b5f80fd5b5f80fd5b5f73ffffffffffffffffffffffffffffffffffffffff82169050919050565b5f620000cb82620000a0565b9050919050565b620000dd81620000bf565b8114620000e8575f80fd5b50565b5f81519050620000fb81620000d2565b92915050565b5f80fd5b5f80fd5b5f601f19601f8301169050919050565b7f4e487b71000000000000000000000000000000000000000000000000000000005f52604160045260245ffd5b620001518262000109565b810181811067ffffffffffffffff8211171562000173576200017262000119565b5b80604052505050565b5f620001876200008f565b905062000195828262000146565b919050565b5f67ffffffffffffffff821115620001b757620001b662000119565b5b620001c28262000109565b9050602081019050919050565b5f5b83811015620001ee578082015181840152602081019050620001d1565b5f8484015250505050565b5f6200020f62000209846200019a565b6200017c565b9050828152602081018484840111156200022e576200022d62000105565b5b6200023b848285620001cf565b509392505050565b5f82601f8301126200025a576200025962000101565b5b81516200026c848260208601620001f9565b91505092915050565b5f80604083850312156200028e576200028d62000098565b5b5f6200029d85828601620000eb565b925050602083015167ffffffffffffffff811115620002c157620002c06200009c565b5b620002cf8582860162000243565b9150509250929050565b5f81519050919050565b7f4e487b71000000000000000000000000000000000000000000000000000000005f52602260045260245ffd5b5f60028204905060018216806200032857607f821691505b6020821081036200033e576200033d620002e3565b5b50919050565b5f819050815f5260205f209050919050565b5f6020601f8301049050919050565b5f82821b905092915050565b5f60088302620003a27fffffffffffffffffffffffffffffffffffffffffffffffffffffffffffffffff8262000365565b620003ae868362000365565b95508019841693508086168417925050509392505050565b5f819050919050565b5f819050919050565b5f620003f8620003f2620003ec84620003c6565b620003cf565b620003c6565b9050919050565b5f819050919050565b6200041383620003d8565b6200042b6200042282620003ff565b84845462000371565b825550505050565b5f90565b6200044162000433565b6200044e81848462000408565b505050565b5b818110156200047557620004695f8262000437565b60018101905062000454565b5050565b601f821115620004c4576200048e8162000344565b620004998462000356565b81016020851015620004a9578190505b620004c1620004b88562000356565b83018262000453565b50505b505050565b5f82821c905092915050565b5f620004e65f1984600802620004c9565b1980831691505092915050565b5f620005008383620004d5565b9150826002028217905092915050565b6200051b82620002d9565b67ffffffffffffffff81111562000537576200053662000119565b5b62000543825462000310565b6200055082828562000479565b5f60209050601f83116001811462000586575f841562000571578287015190505b6200057d8582620004f3565b865550620005ec565b601f198416620005968662000344565b5f5b82811015620005bf5784890151825560018201915060208501945060208101905062000598565b86831015620005df5784890151620005db601f891682620004d5565b8355505b6001600288020188555050505b505050505050565b6102b880620006025f395ff3fe608060405234801561000f575f80fd5b5060043610610034575f3560e01c80630ad9d052146100385780638da5cb5b14610056575b5f80fd5b610040610074565b60405161004d91906101ad565b60405180910390f35b61005e610100565b60405161006b919061020c565b60405180910390f35b6001805461008190610252565b80601f01602080910402602001604051908101604052809291908181526020018280546100ad90610252565b80156100f85780601f106100cf576101008083540402835291602001916100f8565b820191905f5260205f20905b8154815290600101906020018083116100db57829003601f168201915b505050505081565b5f8054906101000a900473ffffffffffffffffffffffffffffffffffffffff1681565b5f81519050919050565b5f82825260208201905092915050565b5f5b8381101561015a57808201518184015260208101905061013f565b5f8484015250505050565b5f601f19601f8301169050919050565b5f61017f82610123565b610189818561012d565b935061019981856020860161013d565b6101a281610165565b840191505092915050565b5f6020820190508181035f8301526101c58184610175565b905092915050565b5f73ffffffffffffffffffffffffffffffffffffffff82169050919050565b5f6101f6826101cd565b9050919050565b610206816101ec565b82525050565b5f60208201905061021f5f8301846101fd565b92915050565b7f4e487b71000000000000000000000000000000000000000000000000000000005f52602260045260245ffd5b5f600282049050600182168061026957607f821691505b60208210810361027c5761027b610225565b5b5091905056fea264697066735822122027952e8494a4f2c3e06100beaa0a8f5ea2840ac8973e028dfe75e763963588ea64736f6c63430008180033a26469706673582212201cfe8854e595ae868da192bf62370e7677491e183f6e3bac1ea7c141ea313c7464736f6c63430008180033",
			"opcodes": "PUSH1 0x80 PUSH1 0x40 MSTORE CALLVALUE DUP1 ISZERO PUSH2 0xF JUMPI PUSH0 DUP1 REVERT JUMPDEST POP CALLER PUSH0 DUP1 PUSH2 0x100 EXP DUP2 SLOAD DUP2 PUSH20 0xFFFFFFFFFFFFFFFFFFFFFFFFFFFFFFFFFFFFFFFF MUL NOT AND SWAP1 DUP4 PUSH20 0xFFFFFFFFFFFFFFFFFFFFFFFFFFFFFFFFFFFFFFFF AND MUL OR SWAP1 SSTORE POP PUSH2 0x117C DUP1 PUSH2 0x5C PUSH0 CODECOPY PUSH0 RETURN INVALID PUSH1 0x80 PUSH1 0x40 MSTORE CALLVALUE DUP1 ISZERO PUSH3 0x10 JUMPI PUSH0 DUP1 REVERT JUMPDEST POP PUSH1 0x4 CALLDATASIZE LT PUSH3 0x50 JUMPI PUSH0 CALLDATALOAD PUSH1 0xE0 SHR DUP1 PUSH4 0x8DA5CB5B EQ PUSH3 0x54 JUMPI DUP1 PUSH4 0x8FF1BFBC EQ PUSH3 0x76 JUMPI DUP1 PUSH4 0xA28948FA EQ PUSH3 0xAC JUMPI DUP1 PUSH4 0xA5E57B47 EQ PUSH3 0xCE JUMPI JUMPDEST PUSH0 DUP1 REVERT JUMPDEST PUSH3 0x5E PUSH3 0xEE JUMP JUMPDEST PUSH1 0x40 MLOAD PUSH3 0x6D SWAP2 SWAP1 PUSH3 0x398 JUMP JUMPDEST PUSH1 0x40 MLOAD DUP1 SWAP2 SUB SWAP1 RETURN JUMPDEST PUSH3 0x94 PUSH1 0x4 DUP1 CALLDATASIZE SUB DUP2 ADD SWAP1 PUSH3 0x8E SWAP2 SWAP1 PUSH3 0x3FC JUMP JUMPDEST PUSH3 0x111 JUMP JUMPDEST PUSH1 0x40 MLOAD PUSH3 0xA3 SWAP2 SWAP1 PUSH3 0x398 JUMP JUMPDEST PUSH1 0x40 MLOAD DUP1 SWAP2 SUB SWAP1 RETURN JUMPDEST PUSH3 0xB6 PUSH3 0x14D JUMP JUMPDEST PUSH1 0x40 MLOAD PUSH3 0xC5 SWAP2 SWAP1 PUSH3 0x4F3 JUMP JUMPDEST PUSH1 0x40 MLOAD DUP1 SWAP2 SUB SWAP1 RETURN JUMPDEST PUSH3 0xEC PUSH1 0x4 DUP1 CALLDATASIZE SUB DUP2 ADD SWAP1 PUSH3 0xE6 SWAP2 SWAP1 PUSH3 0x69C JUMP JUMPDEST PUSH3 0x1DA JUMP JUMPDEST STOP JUMPDEST PUSH0 DUP1 SLOAD SWAP1 PUSH2 0x100 EXP SWAP1 DIV PUSH20 0xFFFFFFFFFFFFFFFFFFFFFFFFFFFFFFFFFFFFFFFF AND DUP2 JUMP JUMPDEST PUSH1 0x1 DUP2 DUP2 SLOAD DUP2 LT PUSH3 0x121 JUMPI PUSH0 DUP1 REVERT JUMPDEST SWAP1 PUSH0 MSTORE PUSH1 0x20 PUSH0 KECCAK256 ADD PUSH0 SWAP2 POP SLOAD SWAP1 PUSH2 0x100 EXP SWAP1 DIV PUSH20 0xFFFFFFFFFFFFFFFFFFFFFFFFFFFFFFFFFFFFFFFF AND DUP2 JUMP JUMPDEST PUSH1 0x60 PUSH1 0x1 DUP1 SLOAD DUP1 PUSH1 0x20 MUL PUSH1 0x20 ADD PUSH1 0x40 MLOAD SWAP1 DUP2 ADD PUSH1 0x40 MSTORE DUP1 SWAP3 SWAP2 SWAP1 DUP2 DUP2 MSTORE PUSH1 0x20 ADD DUP3 DUP1 SLOAD DUP1 ISZERO PUSH3 0x1D0 JUMPI PUSH1 0x20 MUL DUP3 ADD SWAP2 SWAP1 PUSH0 MSTORE PUSH1 0x20 PUSH0 KECCAK256 SWAP1 JUMPDEST DUP2 PUSH0 SWAP1 SLOAD SWAP1 PUSH2 0x100 EXP SWAP1 DIV PUSH20 0xFFFFFFFFFFFFFFFFFFFFFFFFFFFFFFFFFFFFFFFF AND PUSH20 0xFFFFFFFFFFFFFFFFFFFFFFFFFFFFFFFFFFFFFFFF AND DUP2 MSTORE PUSH1 0x20 ADD SWAP1 PUSH1 0x1 ADD SWAP1 DUP1 DUP4 GT PUSH3 0x186 JUMPI JUMPDEST POP POP POP POP POP SWAP1 POP SWAP1 JUMP JUMPDEST PUSH0 DUP1 SLOAD SWAP1 PUSH2 0x100 EXP SWAP1 DIV PUSH20 0xFFFFFFFFFFFFFFFFFFFFFFFFFFFFFFFFFFFFFFFF AND PUSH20 0xFFFFFFFFFFFFFFFFFFFFFFFFFFFFFFFFFFFFFFFF AND CALLER PUSH20 0xFFFFFFFFFFFFFFFFFFFFFFFFFFFFFFFFFFFFFFFF AND EQ PUSH3 0x26A JUMPI PUSH1 0x40 MLOAD PUSH32 0x8C379A000000000000000000000000000000000000000000000000000000000 DUP2 MSTORE PUSH1 0x4 ADD PUSH3 0x261 SWAP1 PUSH3 0x784 JUMP JUMPDEST PUSH1 0x40 MLOAD DUP1 SWAP2 SUB SWAP1 REVERT JUMPDEST PUSH0 DUP3 DUP3 PUSH1 0x40 MLOAD PUSH3 0x27B SWAP1 PUSH3 0x347 JUMP JUMPDEST PUSH3 0x288 SWAP3 SWAP2 SWAP1 PUSH3 0x818 JUMP JUMPDEST PUSH1 0x40 MLOAD DUP1 SWAP2 SUB SWAP1 PUSH0 CREATE DUP1 ISZERO DUP1 ISZERO PUSH3 0x2A2 JUMPI RETURNDATASIZE PUSH0 DUP1 RETURNDATACOPY RETURNDATASIZE PUSH0 REVERT JUMPDEST POP SWAP1 POP PUSH1 0x1 DUP2 SWAP1 DUP1 PUSH1 0x1 DUP2 SLOAD ADD DUP1 DUP3 SSTORE DUP1 SWAP2 POP POP PUSH1 0x1 SWAP1 SUB SWAP1 PUSH0 MSTORE PUSH1 0x20 PUSH0 KECCAK256 ADD PUSH0 SWAP1 SWAP2 SWAP1 SWAP2 SWAP1 SWAP2 PUSH2 0x100 EXP DUP2 SLOAD DUP2 PUSH20 0xFFFFFFFFFFFFFFFFFFFFFFFFFFFFFFFFFFFFFFFF MUL NOT AND SWAP1 DUP4 PUSH20 0xFFFFFFFFFFFFFFFFFFFFFFFFFFFFFFFFFFFFFFFF AND MUL OR SWAP1 SSTORE POP PUSH32 0xC53AF763A7835E6075C030671E2AFD8D1111B901E2F4F25C3C37F6DF481207E1 DUP2 DUP5 DUP5 PUSH1 0x40 MLOAD PUSH3 0x33A SWAP4 SWAP3 SWAP2 SWAP1 PUSH3 0x84A JUMP JUMPDEST PUSH1 0x40 MLOAD DUP1 SWAP2 SUB SWAP1 LOG1 POP POP POP JUMP JUMPDEST PUSH2 0x8BA DUP1 PUSH3 0x88D DUP4 CODECOPY ADD SWAP1 JUMP JUMPDEST PUSH0 PUSH20 0xFFFFFFFFFFFFFFFFFFFFFFFFFFFFFFFFFFFFFFFF DUP3 AND SWAP1 POP SWAP2 SWAP1 POP JUMP JUMPDEST PUSH0 PUSH3 0x380 DUP3 PUSH3 0x355 JUMP JUMPDEST SWAP1 POP SWAP2 SWAP1 POP JUMP JUMPDEST PUSH3 0x392 DUP2 PUSH3 0x374 JUMP JUMPDEST DUP3 MSTORE POP POP JUMP JUMPDEST PUSH0 PUSH1 0x20 DUP3 ADD SWAP1 POP PUSH3 0x3AD PUSH0 DUP4 ADD DUP5 PUSH3 0x387 JUMP JUMPDEST SWAP3 SWAP2 POP POP JUMP JUMPDEST PUSH0 PUSH1 0x40 MLOAD SWAP1 POP SWAP1 JUMP JUMPDEST PUSH0 DUP1 REVERT JUMPDEST PUSH0 DUP1 REVERT JUMPDEST PUSH0 DUP2 SWAP1 POP SWAP2 SWAP1 POP JUMP JUMPDEST PUSH3 0x3D8 DUP2 PUSH3 0x3C4 JUMP JUMPDEST DUP2 EQ PUSH3 0x3E3 JUMPI PUSH0 DUP1 REVERT JUMPDEST POP JUMP JUMPDEST PUSH0 DUP2 CALLDATALOAD SWAP1 POP PUSH3 0x3F6 DUP2 PUSH3 0x3CD JUMP JUMPDEST SWAP3 SWAP2 POP POP JUMP JUMPDEST PUSH0 PUSH1 0x20 DUP3 DUP5 SUB SLT ISZERO PUSH3 0x414 JUMPI PUSH3 0x413 PUSH3 0x3BC JUMP JUMPDEST JUMPDEST PUSH0 PUSH3 0x423 DUP5 DUP3 DUP6 ADD PUSH3 0x3E6 JUMP JUMPDEST SWAP2 POP POP SWAP3 SWAP2 POP POP JUMP JUMPDEST PUSH0 DUP2 MLOAD SWAP1 POP SWAP2 SWAP1 POP JUMP JUMPDEST PUSH0 DUP3 DUP3 MSTORE PUSH1 0x20 DUP3 ADD SWAP1 POP SWAP3 SWAP2 POP POP JUMP JUMPDEST PUSH0 DUP2 SWAP1 POP PUSH1 0x20 DUP3 ADD SWAP1 POP SWAP2 SWAP1 POP JUMP JUMPDEST PUSH3 0x460 DUP2 PUSH3 0x374 JUMP JUMPDEST DUP3 MSTORE POP POP JUMP JUMPDEST PUSH0 PUSH3 0x473 DUP4 DUP4 PUSH3 0x455 JUMP JUMPDEST PUSH1 0x20 DUP4 ADD SWAP1 POP SWAP3 SWAP2 POP POP JUMP JUMPDEST PUSH0 PUSH1 0x20 DUP3 ADD SWAP1 POP SWAP2 SWAP1 POP JUMP JUMPDEST PUSH0 PUSH3 0x497 DUP3 PUSH3 0x42C JUMP JUMPDEST PUSH3 0x4A3 DUP2 DUP6 PUSH3 0x436 JUMP JUMPDEST SWAP4 POP PUSH3 0x4B0 DUP4 PUSH3 0x446 JUMP JUMPDEST DUP1 PUSH0 JUMPDEST DUP4 DUP2 LT ISZERO PUSH3 0x4E6 JUMPI DUP2 MLOAD PUSH3 0x4CA DUP9 DUP3 PUSH3 0x466 JUMP JUMPDEST SWAP8 POP PUSH3 0x4D7 DUP4 PUSH3 0x47F JUMP JUMPDEST SWAP3 POP POP PUSH1 0x1 DUP2 ADD SWAP1 POP PUSH3 0x4B3 JUMP JUMPDEST POP DUP6 SWAP4 POP POP POP POP SWAP3 SWAP2 POP POP JUMP JUMPDEST PUSH0 PUSH1 0x20 DUP3 ADD SWAP1 POP DUP2 DUP2 SUB PUSH0 DUP4 ADD MSTORE PUSH3 0x50D DUP2 DUP5 PUSH3 0x48B JUMP JUMPDEST SWAP1 POP SWAP3 SWAP2 POP POP JUMP JUMPDEST PUSH3 0x520 DUP2 PUSH3 0x374 JUMP JUMPDEST DUP2 EQ PUSH3 0x52B JUMPI PUSH0 DUP1 REVERT JUMPDEST POP JUMP JUMPDEST PUSH0 DUP2 CALLDATALOAD SWAP1 POP PUSH3 0x53E DUP2 PUSH3 0x515 JUMP JUMPDEST SWAP3 SWAP2 POP POP JUMP JUMPDEST PUSH0 DUP1 REVERT JUMPDEST PUSH0 DUP1 REVERT JUMPDEST PUSH0 PUSH1 0x1F NOT PUSH1 0x1F DUP4 ADD AND SWAP1 POP SWAP2 SWAP1 POP JUMP JUMPDEST PUSH32 0x4E487B7100000000000000000000000000000000000000000000000000000000 PUSH0 MSTORE PUSH1 0x41 PUSH1 0x4 MSTORE PUSH1 0x24 PUSH0 REVERT JUMPDEST PUSH3 0x594 DUP3 PUSH3 0x54C JUMP JUMPDEST DUP2 ADD DUP2 DUP2 LT PUSH8 0xFFFFFFFFFFFFFFFF DUP3 GT OR ISZERO PUSH3 0x5B6 JUMPI PUSH3 0x5B5 PUSH3 0x55C JUMP JUMPDEST JUMPDEST DUP1 PUSH1 0x40 MSTORE POP POP POP JUMP JUMPDEST PUSH0 PUSH3 0x5CA PUSH3 0x3B3 JUMP JUMPDEST SWAP1 POP PUSH3 0x5D8 DUP3 DUP3 PUSH3 0x589 JUMP JUMPDEST SWAP2 SWAP1 POP JUMP JUMPDEST PUSH0 PUSH8 0xFFFFFFFFFFFFFFFF DUP3 GT ISZERO PUSH3 0x5FA JUMPI PUSH3 0x5F9 PUSH3 0x55C JUMP JUMPDEST JUMPDEST PUSH3 0x605 DUP3 PUSH3 0x54C JUMP JUMPDEST SWAP1 POP PUSH1 0x20 DUP2 ADD SWAP1 POP SWAP2 SWAP1 POP JUMP JUMPDEST DUP3 DUP2 DUP4 CALLDATACOPY PUSH0 DUP4 DUP4 ADD MSTORE POP POP POP JUMP JUMPDEST PUSH0 PUSH3 0x636 PUSH3 0x630 DUP5 PUSH3 0x5DD JUMP JUMPDEST PUSH3 0x5BF JUMP JUMPDEST SWAP1 POP DUP3 DUP2 MSTORE PUSH1 0x20 DUP2 ADD DUP5 DUP5 DUP5 ADD GT ISZERO PUSH3 0x655 JUMPI PUSH3 0x654 PUSH3 0x548 JUMP JUMPDEST JUMPDEST PUSH3 0x662 DUP5 DUP3 DUP6 PUSH3 0x612 JUMP JUMPDEST POP SWAP4 SWAP3 POP POP POP JUMP JUMPDEST PUSH0 DUP3 PUSH1 0x1F DUP4 ADD SLT PUSH3 0x681 JUMPI PUSH3 0x680 PUSH3 0x544 JUMP JUMPDEST JUMPDEST DUP2 CALLDATALOAD PUSH3 0x693 DUP5 DUP3 PUSH1 0x20 DUP7 ADD PUSH3 0x620 JUMP JUMPDEST SWAP2 POP POP SWAP3 SWAP2 POP POP JUMP JUMPDEST PUSH0 DUP1 PUSH1 0x40 DUP4 DUP6 SUB SLT ISZERO PUSH3 0x6B5 JUMPI PUSH3 0x6B4 PUSH3 0x3BC JUMP JUMPDEST JUMPDEST PUSH0 PUSH3 0x6C4 DUP6 DUP3 DUP7 ADD PUSH3 0x52E JUMP JUMPDEST SWAP3 POP POP PUSH1 0x20 DUP4 ADD CALLDATALOAD PUSH8 0xFFFFFFFFFFFFFFFF DUP2 GT ISZERO PUSH3 0x6E8 JUMPI PUSH3 0x6E7 PUSH3 0x3C0 JUMP JUMPDEST JUMPDEST PUSH3 0x6F6 DUP6 DUP3 DUP7 ADD PUSH3 0x66A JUMP JUMPDEST SWAP2 POP POP SWAP3 POP SWAP3 SWAP1 POP JUMP JUMPDEST PUSH0 DUP3 DUP3 MSTORE PUSH1 0x20 DUP3 ADD SWAP1 POP SWAP3 SWAP2 POP POP JUMP JUMPDEST PUSH32 0x4F6E6C7920746865206F776E65722063616E20706572666F726D207468697320 PUSH0 DUP3 ADD MSTORE PUSH32 0x616374696F6E0000000000000000000000000000000000000000000000000000 PUSH1 0x20 DUP3 ADD MSTORE POP JUMP JUMPDEST PUSH0 PUSH3 0x76C PUSH1 0x26 DUP4 PUSH3 0x700 JUMP JUMPDEST SWAP2 POP PUSH3 0x779 DUP3 PUSH3 0x710 JUMP JUMPDEST PUSH1 0x40 DUP3 ADD SWAP1 POP SWAP2 SWAP1 POP JUMP JUMPDEST PUSH0 PUSH1 0x20 DUP3 ADD SWAP1 POP DUP2 DUP2 SUB PUSH0 DUP4 ADD MSTORE PUSH3 0x79D DUP2 PUSH3 0x75E JUMP JUMPDEST SWAP1 POP SWAP2 SWAP1 POP JUMP JUMPDEST PUSH0 DUP2 MLOAD SWAP1 POP SWAP2 SWAP1 POP JUMP JUMPDEST PUSH0 JUMPDEST DUP4 DUP2 LT ISZERO PUSH3 0x7CD JUMPI DUP1 DUP3 ADD MLOAD DUP2 DUP5 ADD MSTORE PUSH1 0x20 DUP2 ADD SWAP1 POP PUSH3 0x7B0 JUMP JUMPDEST PUSH0 DUP5 DUP5 ADD MSTORE POP POP POP POP JUMP JUMPDEST PUSH0 PUSH3 0x7E4 DUP3 PUSH3 0x7A4 JUMP JUMPDEST PUSH3 0x7F0 DUP2 DUP6 PUSH3 0x700 JUMP JUMPDEST SWAP4 POP PUSH3 0x802 DUP2 DUP6 PUSH1 0x20 DUP7 ADD PUSH3 0x7AE JUMP JUMPDEST PUSH3 0x80D DUP2 PUSH3 0x54C JUMP JUMPDEST DUP5 ADD SWAP2 POP POP SWAP3 SWAP2 POP POP JUMP JUMPDEST PUSH0 PUSH1 0x40 DUP3 ADD SWAP1 POP PUSH3 0x82D PUSH0 DUP4 ADD DUP6 PUSH3 0x387 JUMP JUMPDEST DUP2 DUP2 SUB PUSH1 0x20 DUP4 ADD MSTORE PUSH3 0x841 DUP2 DUP5 PUSH3 0x7D8 JUMP JUMPDEST SWAP1 POP SWAP4 SWAP3 POP POP POP JUMP JUMPDEST PUSH0 PUSH1 0x60 DUP3 ADD SWAP1 POP PUSH3 0x85F PUSH0 DUP4 ADD DUP7 PUSH3 0x387 JUMP JUMPDEST PUSH3 0x86E PUSH1 0x20 DUP4 ADD DUP6 PUSH3 0x387 JUMP JUMPDEST DUP2 DUP2 SUB PUSH1 0x40 DUP4 ADD MSTORE PUSH3 0x882 DUP2 DUP5 PUSH3 0x7D8 JUMP JUMPDEST SWAP1 POP SWAP5 SWAP4 POP POP POP POP JUMP INVALID PUSH1 0x80 PUSH1 0x40 MSTORE CALLVALUE DUP1 ISZERO PUSH3 0x10 JUMPI PUSH0 DUP1 REVERT JUMPDEST POP PUSH1 0x40 MLOAD PUSH3 0x8BA CODESIZE SUB DUP1 PUSH3 0x8BA DUP4 CODECOPY DUP2 DUP2 ADD PUSH1 0x40 MSTORE DUP2 ADD SWAP1 PUSH3 0x36 SWAP2 SWAP1 PUSH3 0x275 JUMP JUMPDEST DUP2 PUSH0 DUP1 PUSH2 0x100 EXP DUP2 SLOAD DUP2 PUSH20 0xFFFFFFFFFFFFFFFFFFFFFFFFFFFFFFFFFFFFFFFF MUL NOT AND SWAP1 DUP4 PUSH20 0xFFFFFFFFFFFFFFFFFFFFFFFFFFFFFFFFFFFFFFFF AND MUL OR SWAP1 SSTORE POP DUP1 PUSH1 0x1 SWAP1 DUP2 PUSH3 0x86 SWAP2 SWAP1 PUSH3 0x510 JUMP JUMPDEST POP POP POP PUSH3 0x5F4 JUMP JUMPDEST PUSH0 PUSH1 0x40 MLOAD SWAP1 POP SWAP1 JUMP JUMPDEST PUSH0 DUP1 REVERT JUMPDEST PUSH0 DUP1 REVERT JUMPDEST PUSH0 PUSH20 0xFFFFFFFFFFFFFFFFFFFFFFFFFFFFFFFFFFFFFFFF DUP3 AND SWAP1 POP SWAP2 SWAP1 POP JUMP JUMPDEST PUSH0 PUSH3 0xCB DUP3 PUSH3 0xA0 JUMP JUMPDEST SWAP1 POP SWAP2 SWAP1 POP JUMP JUMPDEST PUSH3 0xDD DUP2 PUSH3 0xBF JUMP JUMPDEST DUP2 EQ PUSH3 0xE8 JUMPI PUSH0 DUP1 REVERT JUMPDEST POP JUMP JUMPDEST PUSH0 DUP2 MLOAD SWAP1 POP PUSH3 0xFB DUP2 PUSH3 0xD2 JUMP JUMPDEST SWAP3 SWAP2 POP POP JUMP JUMPDEST PUSH0 DUP1 REVERT JUMPDEST PUSH0 DUP1 REVERT JUMPDEST PUSH0 PUSH1 0x1F NOT PUSH1 0x1F DUP4 ADD AND SWAP1 POP SWAP2 SWAP1 POP JUMP JUMPDEST PUSH32 0x4E487B7100000000000000000000000000000000000000000000000000000000 PUSH0 MSTORE PUSH1 0x41 PUSH1 0x4 MSTORE PUSH1 0x24 PUSH0 REVERT JUMPDEST PUSH3 0x151 DUP3 PUSH3 0x109 JUMP JUMPDEST DUP2 ADD DUP2 DUP2 LT PUSH8 0xFFFFFFFFFFFFFFFF DUP3 GT OR ISZERO PUSH3 0x173 JUMPI PUSH3 0x172 PUSH3 0x119 JUMP JUMPDEST JUMPDEST DUP1 PUSH1 0x40 MSTORE POP POP POP JUMP JUMPDEST PUSH0 PUSH3 0x187 PUSH3 0x8F JUMP JUMPDEST SWAP1 POP PUSH3 0x195 DUP3 DUP3 PUSH3 0x146 JUMP JUMPDEST SWAP2 SWAP1 POP JUMP JUMPDEST PUSH0 PUSH8 0xFFFFFFFFFFFFFFFF DUP3 GT ISZERO PUSH3 0x1B7 JUMPI PUSH3 0x1B6 PUSH3 0x119 JUMP JUMPDEST JUMPDEST PUSH3 0x1C2 DUP3 PUSH3 0x109 JUMP JUMPDEST SWAP1 POP PUSH1 0x20 DUP2 ADD SWAP1 POP SWAP2 SWAP1 POP JUMP JUMPDEST PUSH0 JUMPDEST DUP4 DUP2 LT ISZERO PUSH3 0x1EE JUMPI DUP1 DUP3 ADD MLOAD DUP2 DUP5 ADD MSTORE PUSH1 0x20 DUP2 ADD SWAP1 POP PUSH3 0x1D1 JUMP JUMPDEST PUSH0 DUP5 DUP5 ADD MSTORE POP POP POP POP JUMP JUMPDEST PUSH0 PUSH3 0x20F PUSH3 0x209 DUP5 PUSH3 0x19A JUMP JUMPDEST PUSH3 0x17C JUMP JUMPDEST SWAP1 POP DUP3 DUP2 MSTORE PUSH1 0x20 DUP2 ADD DUP5 DUP5 DUP5 ADD GT ISZERO PUSH3 0x22E JUMPI PUSH3 0x22D PUSH3 0x105 JUMP JUMPDEST JUMPDEST PUSH3 0x23B DUP5 DUP3 DUP6 PUSH3 0x1CF JUMP JUMPDEST POP SWAP4 SWAP3 POP POP POP JUMP JUMPDEST PUSH0 DUP3 PUSH1 0x1F DUP4 ADD SLT PUSH3 0x25A JUMPI PUSH3 0x259 PUSH3 0x101 JUMP JUMPDEST JUMPDEST DUP2 MLOAD PUSH3 0x26C DUP5 DUP3 PUSH1 0x20 DUP7 ADD PUSH3 0x1F9 JUMP JUMPDEST SWAP2 POP POP SWAP3 SWAP2 POP POP JUMP JUMPDEST PUSH0 DUP1 PUSH1 0x40 DUP4 DUP6 SUB SLT ISZERO PUSH3 0x28E JUMPI PUSH3 0x28D PUSH3 0x98 JUMP JUMPDEST JUMPDEST PUSH0 PUSH3 0x29D DUP6 DUP3 DUP7 ADD PUSH3 0xEB JUMP JUMPDEST SWAP3 POP POP PUSH1 0x20 DUP4 ADD MLOAD PUSH8 0xFFFFFFFFFFFFFFFF DUP2 GT ISZERO PUSH3 0x2C1 JUMPI PUSH3 0x2C0 PUSH3 0x9C JUMP JUMPDEST JUMPDEST PUSH3 0x2CF DUP6 DUP3 DUP7 ADD PUSH3 0x243 JUMP JUMPDEST SWAP2 POP POP SWAP3 POP SWAP3 SWAP1 POP JUMP JUMPDEST PUSH0 DUP2 MLOAD SWAP1 POP SWAP2 SWAP1 POP JUMP JUMPDEST PUSH32 0x4E487B7100000000000000000000000000000000000000000000000000000000 PUSH0 MSTORE PUSH1 0x22 PUSH1 0x4 MSTORE PUSH1 0x24 PUSH0 REVERT JUMPDEST PUSH0 PUSH1 0x2 DUP3 DIV SWAP1 POP PUSH1 0x1 DUP3 AND DUP1 PUSH3 0x328 JUMPI PUSH1 0x7F DUP3 AND SWAP2 POP JUMPDEST PUSH1 0x20 DUP3 LT DUP2 SUB PUSH3 0x33E JUMPI PUSH3 0x33D PUSH3 0x2E3 JUMP JUMPDEST JUMPDEST POP SWAP2 SWAP1 POP JUMP JUMPDEST PUSH0 DUP2 SWAP1 POP DUP2 PUSH0 MSTORE PUSH1 0x20 PUSH0 KECCAK256 SWAP1 POP SWAP2 SWAP1 POP JUMP JUMPDEST PUSH0 PUSH1 0x20 PUSH1 0x1F DUP4 ADD DIV SWAP1 POP SWAP2 SWAP1 POP JUMP JUMPDEST PUSH0 DUP3 DUP3 SHL SWAP1 POP SWAP3 SWAP2 POP POP JUMP JUMPDEST PUSH0 PUSH1 0x8 DUP4 MUL PUSH3 0x3A2 PUSH32 0xFFFFFFFFFFFFFFFFFFFFFFFFFFFFFFFFFFFFFFFFFFFFFFFFFFFFFFFFFFFFFFFF DUP3 PUSH3 0x365 JUMP JUMPDEST PUSH3 0x3AE DUP7 DUP4 PUSH3 0x365 JUMP JUMPDEST SWAP6 POP DUP1 NOT DUP5 AND SWAP4 POP DUP1 DUP7 AND DUP5 OR SWAP3 POP POP POP SWAP4 SWAP3 POP POP POP JUMP JUMPDEST PUSH0 DUP2 SWAP1 POP SWAP2 SWAP1 POP JUMP JUMPDEST PUSH0 DUP2 SWAP1 POP SWAP2 SWAP1 POP JUMP JUMPDEST PUSH0 PUSH3 0x3F8 PUSH3 0x3F2 PUSH3 0x3EC DUP5 PUSH3 0x3C6 JUMP JUMPDEST PUSH3 0x3CF JUMP JUMPDEST PUSH3 0x3C6 JUMP JUMPDEST SWAP1 POP SWAP2 SWAP1 POP JUMP JUMPDEST PUSH0 DUP2 SWAP1 POP SWAP2 SWAP1 POP JUMP JUMPDEST PUSH3 0x413 DUP4 PUSH3 0x3D8 JUMP JUMPDEST PUSH3 0x42B PUSH3 0x422 DUP3 PUSH3 0x3FF JUMP JUMPDEST DUP5 DUP5 SLOAD PUSH3 0x371 JUMP JUMPDEST DUP3 SSTORE POP POP POP POP JUMP JUMPDEST PUSH0 SWAP1 JUMP JUMPDEST PUSH3 0x441 PUSH3 0x433 JUMP JUMPDEST PUSH3 0x44E DUP2 DUP5 DUP5 PUSH3 0x408 JUMP JUMPDEST POP POP POP JUMP JUMPDEST JUMPDEST DUP2 DUP2 LT ISZERO PUSH3 0x475 JUMPI PUSH3 0x469 PUSH0 DUP3 PUSH3 0x437 JUMP JUMPDEST PUSH1 0x1 DUP2 ADD SWAP1 POP PUSH3 0x454 JUMP JUMPDEST POP POP JUMP JUMPDEST PUSH1 0x1F DUP3 GT ISZERO PUSH3 0x4C4 JUMPI PUSH3 0x48E DUP2 PUSH3 0x344 JUMP JUMPDEST PUSH3 0x499 DUP5 PUSH3 0x356 JUMP JUMPDEST DUP2 ADD PUSH1 0x20 DUP6 LT ISZERO PUSH3 0x4A9 JUMPI DUP2 SWAP1 POP JUMPDEST PUSH3 0x4C1 PUSH3 0x4B8 DUP6 PUSH3 0x356 JUMP JUMPDEST DUP4 ADD DUP3 PUSH3 0x453 JUMP JUMPDEST POP POP JUMPDEST POP POP POP JUMP JUMPDEST PUSH0 DUP3 DUP3 SHR SWAP1 POP SWAP3 SWAP2 POP POP JUMP JUMPDEST PUSH0 PUSH3 0x4E6 PUSH0 NOT DUP5 PUSH1 0x8 MUL PUSH3 0x4C9 JUMP JUMPDEST NOT DUP1 DUP4 AND SWAP2 POP POP SWAP3 SWAP2 POP POP JUMP JUMPDEST PUSH0 PUSH3 0x500 DUP4 DUP4 PUSH3 0x4D5 JUMP JUMPDEST SWAP2 POP DUP3 PUSH1 0x2 MUL DUP3 OR SWAP1 POP SWAP3 SWAP2 POP POP JUMP JUMPDEST PUSH3 0x51B DUP3 PUSH3 0x2D9 JUMP JUMPDEST PUSH8 0xFFFFFFFFFFFFFFFF DUP2 GT ISZERO PUSH3 0x537 JUMPI PUSH3 0x536 PUSH3 0x119 JUMP JUMPDEST JUMPDEST PUSH3 0x543 DUP3 SLOAD PUSH3 0x310 JUMP JUMPDEST PUSH3 0x550 DUP3 DUP3 DUP6 PUSH3 0x479 JUMP JUMPDEST PUSH0 PUSH1 0x20 SWAP1 POP PUSH1 0x1F DUP4 GT PUSH1 0x1 DUP2 EQ PUSH3 0x586 JUMPI PUSH0 DUP5 ISZERO PUSH3 0x571 JUMPI DUP3 DUP8 ADD MLOAD SWAP1 POP JUMPDEST PUSH3 0x57D DUP6 DUP3 PUSH3 0x4F3 JUMP JUMPDEST DUP7 SSTORE POP PUSH3 0x5EC JUMP JUMPDEST PUSH1 0x1F NOT DUP5 AND PUSH3 0x596 DUP7 PUSH3 0x344 JUMP JUMPDEST PUSH0 JUMPDEST DUP3 DUP2 LT ISZERO PUSH3 0x5BF JUMPI DUP5 DUP10 ADD MLOAD DUP3 SSTORE PUSH1 0x1 DUP3 ADD SWAP2 POP PUSH1 0x20 DUP6 ADD SWAP5 POP PUSH1 0x20 DUP2 ADD SWAP1 POP PUSH3 0x598 JUMP JUMPDEST DUP7 DUP4 LT ISZERO PUSH3 0x5DF JUMPI DUP5 DUP10 ADD MLOAD PUSH3 0x5DB PUSH1 0x1F DUP10 AND DUP3 PUSH3 0x4D5 JUMP JUMPDEST DUP4 SSTORE POP JUMPDEST PUSH1 0x1 PUSH1 0x2 DUP9 MUL ADD DUP9 SSTORE POP POP POP JUMPDEST POP POP POP POP POP POP JUMP JUMPDEST PUSH2 0x2B8 DUP1 PUSH3 0x602 PUSH0 CODECOPY PUSH0 RETURN INVALID PUSH1 0x80 PUSH1 0x40 MSTORE CALLVALUE DUP1 ISZERO PUSH2 0xF JUMPI PUSH0 DUP1 REVERT JUMPDEST POP PUSH1 0x4 CALLDATASIZE LT PUSH2 0x34 JUMPI PUSH0 CALLDATALOAD PUSH1 0xE0 SHR DUP1 PUSH4 0xAD9D052 EQ PUSH2 0x38 JUMPI DUP1 PUSH4 0x8DA5CB5B EQ PUSH2 0x56 JUMPI JUMPDEST PUSH0 DUP1 REVERT JUMPDEST PUSH2 0x40 PUSH2 0x74 JUMP JUMPDEST PUSH1 0x40 MLOAD PUSH2 0x4D SWAP2 SWAP1 PUSH2 0x1AD JUMP JUMPDEST PUSH1 0x40 MLOAD DUP1 SWAP2 SUB SWAP1 RETURN JUMPDEST PUSH2 0x5E PUSH2 0x100 JUMP JUMPDEST PUSH1 0x40 MLOAD PUSH2 0x6B SWAP2 SWAP1 PUSH2 0x20C JUMP JUMPDEST PUSH1 0x40 MLOAD DUP1 SWAP2 SUB SWAP1 RETURN JUMPDEST PUSH1 0x1 DUP1 SLOAD PUSH2 0x81 SWAP1 PUSH2 0x252 JUMP JUMPDEST DUP1 PUSH1 0x1F ADD PUSH1 0x20 DUP1 SWAP2 DIV MUL PUSH1 0x20 ADD PUSH1 0x40 MLOAD SWAP1 DUP2 ADD PUSH1 0x40 MSTORE DUP1 SWAP3 SWAP2 SWAP1 DUP2 DUP2 MSTORE PUSH1 0x20 ADD DUP3 DUP1 SLOAD PUSH2 0xAD SWAP1 PUSH2 0x252 JUMP JUMPDEST DUP1 ISZERO PUSH2 0xF8 JUMPI DUP1 PUSH1 0x1F LT PUSH2 0xCF JUMPI PUSH2 0x100 DUP1 DUP4 SLOAD DIV MUL DUP4 MSTORE SWAP2 PUSH1 0x20 ADD SWAP2 PUSH2 0xF8 JUMP JUMPDEST DUP3 ADD SWAP2 SWAP1 PUSH0 MSTORE PUSH1 0x20 PUSH0 KECCAK256 SWAP1 JUMPDEST DUP2 SLOAD DUP2 MSTORE SWAP1 PUSH1 0x1 ADD SWAP1 PUSH1 0x20 ADD DUP1 DUP4 GT PUSH2 0xDB JUMPI DUP3 SWAP1 SUB PUSH1 0x1F AND DUP3 ADD SWAP2 JUMPDEST POP POP POP POP POP DUP2 JUMP JUMPDEST PUSH0 DUP1 SLOAD SWAP1 PUSH2 0x100 EXP SWAP1 DIV PUSH20 0xFFFFFFFFFFFFFFFFFFFFFFFFFFFFFFFFFFFFFFFF AND DUP2 JUMP JUMPDEST PUSH0 DUP2 MLOAD SWAP1 POP SWAP2 SWAP1 POP JUMP JUMPDEST PUSH0 DUP3 DUP3 MSTORE PUSH1 0x20 DUP3 ADD SWAP1 POP SWAP3 SWAP2 POP POP JUMP JUMPDEST PUSH0 JUMPDEST DUP4 DUP2 LT ISZERO PUSH2 0x15A JUMPI DUP1 DUP3 ADD MLOAD DUP2 DUP5 ADD MSTORE PUSH1 0x20 DUP2 ADD SWAP1 POP PUSH2 0x13F JUMP JUMPDEST PUSH0 DUP5 DUP5 ADD MSTORE POP POP POP POP JUMP JUMPDEST PUSH0 PUSH1 0x1F NOT PUSH1 0x1F DUP4 ADD AND SWAP1 POP SWAP2 SWAP1 POP JUMP JUMPDEST PUSH0 PUSH2 0x17F DUP3 PUSH2 0x123 JUMP JUMPDEST PUSH2 0x189 DUP2 DUP6 PUSH2 0x12D JUMP JUMPDEST SWAP4 POP PUSH2 0x199 DUP2 DUP6 PUSH1 0x20 DUP7 ADD PUSH2 0x13D JUMP JUMPDEST PUSH2 0x1A2 DUP2 PUSH2 0x165 JUMP JUMPDEST DUP5 ADD SWAP2 POP POP SWAP3 SWAP2 POP POP JUMP JUMPDEST PUSH0 PUSH1 0x20 DUP3 ADD SWAP1 POP DUP2 DUP2 SUB PUSH0 DUP4 ADD MSTORE PUSH2 0x1C5 DUP2 DUP5 PUSH2 0x175 JUMP JUMPDEST SWAP1 POP SWAP3 SWAP2 POP POP JUMP JUMPDEST PUSH0 PUSH20 0xFFFFFFFFFFFFFFFFFFFFFFFFFFFFFFFFFFFFFFFF DUP3 AND SWAP1 POP SWAP2 SWAP1 POP JUMP JUMPDEST PUSH0 PUSH2 0x1F6 DUP3 PUSH2 0x1CD JUMP JUMPDEST SWAP1 POP SWAP2 SWAP1 POP JUMP JUMPDEST PUSH2 0x206 DUP2 PUSH2 0x1EC JUMP JUMPDEST DUP3 MSTORE POP POP JUMP JUMPDEST PUSH0 PUSH1 0x20 DUP3 ADD SWAP1 POP PUSH2 0x21F PUSH0 DUP4 ADD DUP5 PUSH2 0x1FD JUMP JUMPDEST SWAP3 SWAP2 POP POP JUMP JUMPDEST PUSH32 0x4E487B7100000000000000000000000000000000000000000000000000000000 PUSH0 MSTORE PUSH1 0x22 PUSH1 0x4 MSTORE PUSH1 0x24 PUSH0 REVERT JUMPDEST PUSH0 PUSH1 0x2 DUP3 DIV SWAP1 POP PUSH1 0x1 DUP3 AND DUP1 PUSH2 0x269 JUMPI PUSH1 0x7F DUP3 AND SWAP2 POP JUMPDEST PUSH1 0x20 DUP3 LT DUP2 SUB PUSH2 0x27C JUMPI PUSH2 0x27B PUSH2 0x225 JUMP JUMPDEST JUMPDEST POP SWAP2 SWAP1 POP JUMP INVALID LOG2 PUSH5 0x6970667358 0x22 SLT KECCAK256 0x27 SWAP6 0x2E DUP5 SWAP5 LOG4 CALLCODE 0xC3 0xE0 PUSH2 0xBE 0xAA EXP DUP16 MCOPY LOG2 DUP5 EXP 0xC8 SWAP8 RETURNDATACOPY MUL DUP14 INVALID PUSH22 0xE763963588EA64736F6C63430008180033A264697066 PUSH20 0x582212201CFE8854E595AE868DA192BF62370E76 PUSH24 0x491E183F6E3BAC1EA7C141EA313C7464736F6C6343000818 STOP CALLER "
		},
		"gasEstimates": {
			"creation": {
				"codeDepositCost": "895200",
				"executionCost": "25192",
				"totalCost": "920392"
			},
			"external": {
				"createCar(address,string)": "infinite",
				"deployedCars(uint256)": "4944",
				"getDeployedCars()": "infinite",
				"owner()": "2483"
			}
		},
		"methodIdentifiers": {
			"createCar(address,string)": "a5e57b47",
			"deployedCars(uint256)": "8ff1bfbc",
			"getDeployedCars()": "a28948fa",
			"owner()": "8da5cb5b"
		}
	},
	"abi": [
		{
			"inputs": [],
			"stateMutability": "nonpayable",
			"type": "constructor"
		},
		{
			"anonymous": false,
			"inputs": [
				{
					"indexed": false,
					"internalType": "address",
					"name": "carAddress",
					"type": "address"
				},
				{
					"indexed": false,
					"internalType": "address",
					"name": "carOwner",
					"type": "address"
				},
				{
					"indexed": false,
					"internalType": "string",
					"name": "carModel",
					"type": "string"
				}
			],
			"name": "CarCreated",
			"type": "event"
		},
		{
			"inputs": [
				{
					"internalType": "address",
					"name": "_owner",
					"type": "address"
				},
				{
					"internalType": "string",
					"name": "_model",
					"type": "string"
				}
			],
			"name": "createCar",
			"outputs": [],
			"stateMutability": "nonpayable",
			"type": "function"
		},
		{
			"inputs": [
				{
					"internalType": "uint256",
					"name": "",
					"type": "uint256"
				}
			],
			"name": "deployedCars",
			"outputs": [
				{
					"internalType": "address",
					"name": "",
					"type": "address"
				}
			],
			"stateMutability": "view",
			"type": "function"
		},
		{
			"inputs": [],
			"name": "getDeployedCars",
			"outputs": [
				{
					"internalType": "address[]",
					"name": "",
					"type": "address[]"
				}
			],
			"stateMutability": "view",
			"type": "function"
		},
		{
			"inputs": [],
			"name": "owner",
			"outputs": [
				{
					"internalType": "address",
					"name": "",
					"type": "address"
				}
			],
			"stateMutability": "view",
			"type": "function"
		}
	]
}