{
	"data": {
		"bytecode": {
			"linkReferences": {},
			"object": "608060405234801561000f575f80fd5b505f805f6101000a81548160ff021916908360048111156100335761003261003d565b5b021790555061006a565b7f4e487b71000000000000000000000000000000000000000000000000000000005f52602160045260245ffd5b610730806100775f395ff3fe608060405234801561000f575f80fd5b506004361061007b575f3560e01c8063b6bef7b311610059578063b6bef7b3146100b1578063d826f88f146100bb578063ea8a1af0146100c5578063ef8a9235146100cf5761007b565b80632852b71c1461007f5780634dc415de146100895780634e69d56014610093575b5f80fd5b6100876100ed565b005b6100916101ce565b005b61009b6102af565b6040516100a89190610573565b60405180910390f35b6100b96102c3565b005b6100c36103a3565b005b6100cd610410565b005b6100d76104f0565b6040516100e49190610573565b60405180910390f35b6001600481111561010157610100610500565b5b5f8054906101000a900460ff1660048111156101205761011f610500565b5b14610160576040517f08c379a0000000000000000000000000000000000000000000000000000000008152600401610157906105e6565b60405180910390fd5b60025f806101000a81548160ff0219169083600481111561018457610183610500565b5b02179055507fafa725e7f44cadb687a7043853fa1a7e7b8f0da74ce87ec546e9420f04da8c1e5f8054906101000a900460ff166040516101c49190610573565b60405180910390a1565b600160048111156101e2576101e1610500565b5b5f8054906101000a900460ff16600481111561020157610200610500565b5b14610241576040517f08c379a0000000000000000000000000000000000000000000000000000000008152600401610238906105e6565b60405180910390fd5b60035f806101000a81548160ff0219169083600481111561026557610264610500565b5b02179055507fafa725e7f44cadb687a7043853fa1a7e7b8f0da74ce87ec546e9420f04da8c1e5f8054906101000a900460ff166040516102a59190610573565b60405180910390a1565b5f805f9054906101000a900460ff16905090565b5f60048111156102d6576102d5610500565b5b5f8054906101000a900460ff1660048111156102f5576102f4610500565b5b14610335576040517f08c379a000000000000000000000000000000000000000000000000000000000815260040161032c9061064e565b60405180910390fd5b60015f806101000a81548160ff0219169083600481111561035957610358610500565b5b02179055507fafa725e7f44cadb687a7043853fa1a7e7b8f0da74ce87ec546e9420f04da8c1e5f8054906101000a900460ff166040516103999190610573565b60405180910390a1565b5f805f6101000a81548160ff021916908360048111156103c6576103c5610500565b5b02179055507fafa725e7f44cadb687a7043853fa1a7e7b8f0da74ce87ec546e9420f04da8c1e5f8054906101000a900460ff166040516104069190610573565b60405180910390a1565b5f600481111561042357610422610500565b5b5f8054906101000a900460ff16600481111561044257610441610500565b5b14610482576040517f08c379a0000000000000000000000000000000000000000000000000000000008152600401610479906106dc565b60405180910390fd5b60045f806101000a81548160ff021916908360048111156104a6576104a5610500565b5b02179055507fafa725e7f44cadb687a7043853fa1a7e7b8f0da74ce87ec546e9420f04da8c1e5f8054906101000a900460ff166040516104e69190610573565b60405180910390a1565b5f8054906101000a900460ff1681565b7f4e487b71000000000000000000000000000000000000000000000000000000005f52602160045260245ffd5b6005811061053e5761053d610500565b5b50565b5f81905061054e8261052d565b919050565b5f61055d82610541565b9050919050565b61056d81610553565b82525050565b5f6020820190506105865f830184610564565b92915050565b5f82825260208201905092915050565b7f4f72646572206973206e6f7420736869707065640000000000000000000000005f82015250565b5f6105d060148361058c565b91506105db8261059c565b602082019050919050565b5f6020820190508181035f8301526105fd816105c4565b9050919050565b7f4f72646572206973206e6f742070656e64696e670000000000000000000000005f82015250565b5f61063860148361058c565b915061064382610604565b602082019050919050565b5f6020820190508181035f8301526106658161062c565b9050919050565b7f4f726465722063616e206f6e6c792062652063616e63656c65642069662070655f8201527f6e64696e67000000000000000000000000000000000000000000000000000000602082015250565b5f6106c660258361058c565b91506106d18261066c565b604082019050919050565b5f6020820190508181035f8301526106f3816106ba565b905091905056fea2646970667358221220a323f2261cb157439c14fb77af1f1530c9a3a215b7d39bf2e844f7223fb1257364736f6c63430008180033",
			"opcodes": "PUSH1 0x80 PUSH1 0x40 MSTORE CALLVALUE DUP1 ISZERO PUSH2 0xF JUMPI PUSH0 DUP1 REVERT JUMPDEST POP PUSH0 DUP1 PUSH0 PUSH2 0x100 EXP DUP2 SLOAD DUP2 PUSH1 0xFF MUL NOT AND SWAP1 DUP4 PUSH1 0x4 DUP2 GT ISZERO PUSH2 0x33 JUMPI PUSH2 0x32 PUSH2 0x3D JUMP JUMPDEST JUMPDEST MUL OR SWAP1 SSTORE POP PUSH2 0x6A JUMP JUMPDEST PUSH32 0x4E487B7100000000000000000000000000000000000000000000000000000000 PUSH0 MSTORE PUSH1 0x21 PUSH1 0x4 MSTORE PUSH1 0x24 PUSH0 REVERT JUMPDEST PUSH2 0x730 DUP1 PUSH2 0x77 PUSH0 CODECOPY PUSH0 RETURN INVALID PUSH1 0x80 PUSH1 0x40 MSTORE CALLVALUE DUP1 ISZERO PUSH2 0xF JUMPI PUSH0 DUP1 REVERT JUMPDEST POP PUSH1 0x4 CALLDATASIZE LT PUSH2 0x7B JUMPI PUSH0 CALLDATALOAD PUSH1 0xE0 SHR DUP1 PUSH4 0xB6BEF7B3 GT PUSH2 0x59 JUMPI DUP1 PUSH4 0xB6BEF7B3 EQ PUSH2 0xB1 JUMPI DUP1 PUSH4 0xD826F88F EQ PUSH2 0xBB JUMPI DUP1 PUSH4 0xEA8A1AF0 EQ PUSH2 0xC5 JUMPI DUP1 PUSH4 0xEF8A9235 EQ PUSH2 0xCF JUMPI PUSH2 0x7B JUMP JUMPDEST DUP1 PUSH4 0x2852B71C EQ PUSH2 0x7F JUMPI DUP1 PUSH4 0x4DC415DE EQ PUSH2 0x89 JUMPI DUP1 PUSH4 0x4E69D560 EQ PUSH2 0x93 JUMPI JUMPDEST PUSH0 DUP1 REVERT JUMPDEST PUSH2 0x87 PUSH2 0xED JUMP JUMPDEST STOP JUMPDEST PUSH2 0x91 PUSH2 0x1CE JUMP JUMPDEST STOP JUMPDEST PUSH2 0x9B PUSH2 0x2AF JUMP JUMPDEST PUSH1 0x40 MLOAD PUSH2 0xA8 SWAP2 SWAP1 PUSH2 0x573 JUMP JUMPDEST PUSH1 0x40 MLOAD DUP1 SWAP2 SUB SWAP1 RETURN JUMPDEST PUSH2 0xB9 PUSH2 0x2C3 JUMP JUMPDEST STOP JUMPDEST PUSH2 0xC3 PUSH2 0x3A3 JUMP JUMPDEST STOP JUMPDEST PUSH2 0xCD PUSH2 0x410 JUMP JUMPDEST STOP JUMPDEST PUSH2 0xD7 PUSH2 0x4F0 JUMP JUMPDEST PUSH1 0x40 MLOAD PUSH2 0xE4 SWAP2 SWAP1 PUSH2 0x573 JUMP JUMPDEST PUSH1 0x40 MLOAD DUP1 SWAP2 SUB SWAP1 RETURN JUMPDEST PUSH1 0x1 PUSH1 0x4 DUP2 GT ISZERO PUSH2 0x101 JUMPI PUSH2 0x100 PUSH2 0x500 JUMP JUMPDEST JUMPDEST PUSH0 DUP1 SLOAD SWAP1 PUSH2 0x100 EXP SWAP1 DIV PUSH1 0xFF AND PUSH1 0x4 DUP2 GT ISZERO PUSH2 0x120 JUMPI PUSH2 0x11F PUSH2 0x500 JUMP JUMPDEST JUMPDEST EQ PUSH2 0x160 JUMPI PUSH1 0x40 MLOAD PUSH32 0x8C379A000000000000000000000000000000000000000000000000000000000 DUP2 MSTORE PUSH1 0x4 ADD PUSH2 0x157 SWAP1 PUSH2 0x5E6 JUMP JUMPDEST PUSH1 0x40 MLOAD DUP1 SWAP2 SUB SWAP1 REVERT JUMPDEST PUSH1 0x2 PUSH0 DUP1 PUSH2 0x100 EXP DUP2 SLOAD DUP2 PUSH1 0xFF MUL NOT AND SWAP1 DUP4 PUSH1 0x4 DUP2 GT ISZERO PUSH2 0x184 JUMPI PUSH2 0x183 PUSH2 0x500 JUMP JUMPDEST JUMPDEST MUL OR SWAP1 SSTORE POP PUSH32 0xAFA725E7F44CADB687A7043853FA1A7E7B8F0DA74CE87EC546E9420F04DA8C1E PUSH0 DUP1 SLOAD SWAP1 PUSH2 0x100 EXP SWAP1 DIV PUSH1 0xFF AND PUSH1 0x40 MLOAD PUSH2 0x1C4 SWAP2 SWAP1 PUSH2 0x573 JUMP JUMPDEST PUSH1 0x40 MLOAD DUP1 SWAP2 SUB SWAP1 LOG1 JUMP JUMPDEST PUSH1 0x1 PUSH1 0x4 DUP2 GT ISZERO PUSH2 0x1E2 JUMPI PUSH2 0x1E1 PUSH2 0x500 JUMP JUMPDEST JUMPDEST PUSH0 DUP1 SLOAD SWAP1 PUSH2 0x100 EXP SWAP1 DIV PUSH1 0xFF AND PUSH1 0x4 DUP2 GT ISZERO PUSH2 0x201 JUMPI PUSH2 0x200 PUSH2 0x500 JUMP JUMPDEST JUMPDEST EQ PUSH2 0x241 JUMPI PUSH1 0x40 MLOAD PUSH32 0x8C379A000000000000000000000000000000000000000000000000000000000 DUP2 MSTORE PUSH1 0x4 ADD PUSH2 0x238 SWAP1 PUSH2 0x5E6 JUMP JUMPDEST PUSH1 0x40 MLOAD DUP1 SWAP2 SUB SWAP1 REVERT JUMPDEST PUSH1 0x3 PUSH0 DUP1 PUSH2 0x100 EXP DUP2 SLOAD DUP2 PUSH1 0xFF MUL NOT AND SWAP1 DUP4 PUSH1 0x4 DUP2 GT ISZERO PUSH2 0x265 JUMPI PUSH2 0x264 PUSH2 0x500 JUMP JUMPDEST JUMPDEST MUL OR SWAP1 SSTORE POP PUSH32 0xAFA725E7F44CADB687A7043853FA1A7E7B8F0DA74CE87EC546E9420F04DA8C1E PUSH0 DUP1 SLOAD SWAP1 PUSH2 0x100 EXP SWAP1 DIV PUSH1 0xFF AND PUSH1 0x40 MLOAD PUSH2 0x2A5 SWAP2 SWAP1 PUSH2 0x573 JUMP JUMPDEST PUSH1 0x40 MLOAD DUP1 SWAP2 SUB SWAP1 LOG1 JUMP JUMPDEST PUSH0 DUP1 PUSH0 SWAP1 SLOAD SWAP1 PUSH2 0x100 EXP SWAP1 DIV PUSH1 0xFF AND SWAP1 POP SWAP1 JUMP JUMPDEST PUSH0 PUSH1 0x4 DUP2 GT ISZERO PUSH2 0x2D6 JUMPI PUSH2 0x2D5 PUSH2 0x500 JUMP JUMPDEST JUMPDEST PUSH0 DUP1 SLOAD SWAP1 PUSH2 0x100 EXP SWAP1 DIV PUSH1 0xFF AND PUSH1 0x4 DUP2 GT ISZERO PUSH2 0x2F5 JUMPI PUSH2 0x2F4 PUSH2 0x500 JUMP JUMPDEST JUMPDEST EQ PUSH2 0x335 JUMPI PUSH1 0x40 MLOAD PUSH32 0x8C379A000000000000000000000000000000000000000000000000000000000 DUP2 MSTORE PUSH1 0x4 ADD PUSH2 0x32C SWAP1 PUSH2 0x64E JUMP JUMPDEST PUSH1 0x40 MLOAD DUP1 SWAP2 SUB SWAP1 REVERT JUMPDEST PUSH1 0x1 PUSH0 DUP1 PUSH2 0x100 EXP DUP2 SLOAD DUP2 PUSH1 0xFF MUL NOT AND SWAP1 DUP4 PUSH1 0x4 DUP2 GT ISZERO PUSH2 0x359 JUMPI PUSH2 0x358 PUSH2 0x500 JUMP JUMPDEST JUMPDEST MUL OR SWAP1 SSTORE POP PUSH32 0xAFA725E7F44CADB687A7043853FA1A7E7B8F0DA74CE87EC546E9420F04DA8C1E PUSH0 DUP1 SLOAD SWAP1 PUSH2 0x100 EXP SWAP1 DIV PUSH1 0xFF AND PUSH1 0x40 MLOAD PUSH2 0x399 SWAP2 SWAP1 PUSH2 0x573 JUMP JUMPDEST PUSH1 0x40 MLOAD DUP1 SWAP2 SUB SWAP1 LOG1 JUMP JUMPDEST PUSH0 DUP1 PUSH0 PUSH2 0x100 EXP DUP2 SLOAD DUP2 PUSH1 0xFF MUL NOT AND SWAP1 DUP4 PUSH1 0x4 DUP2 GT ISZERO PUSH2 0x3C6 JUMPI PUSH2 0x3C5 PUSH2 0x500 JUMP JUMPDEST JUMPDEST MUL OR SWAP1 SSTORE POP PUSH32 0xAFA725E7F44CADB687A7043853FA1A7E7B8F0DA74CE87EC546E9420F04DA8C1E PUSH0 DUP1 SLOAD SWAP1 PUSH2 0x100 EXP SWAP1 DIV PUSH1 0xFF AND PUSH1 0x40 MLOAD PUSH2 0x406 SWAP2 SWAP1 PUSH2 0x573 JUMP JUMPDEST PUSH1 0x40 MLOAD DUP1 SWAP2 SUB SWAP1 LOG1 JUMP JUMPDEST PUSH0 PUSH1 0x4 DUP2 GT ISZERO PUSH2 0x423 JUMPI PUSH2 0x422 PUSH2 0x500 JUMP JUMPDEST JUMPDEST PUSH0 DUP1 SLOAD SWAP1 PUSH2 0x100 EXP SWAP1 DIV PUSH1 0xFF AND PUSH1 0x4 DUP2 GT ISZERO PUSH2 0x442 JUMPI PUSH2 0x441 PUSH2 0x500 JUMP JUMPDEST JUMPDEST EQ PUSH2 0x482 JUMPI PUSH1 0x40 MLOAD PUSH32 0x8C379A000000000000000000000000000000000000000000000000000000000 DUP2 MSTORE PUSH1 0x4 ADD PUSH2 0x479 SWAP1 PUSH2 0x6DC JUMP JUMPDEST PUSH1 0x40 MLOAD DUP1 SWAP2 SUB SWAP1 REVERT JUMPDEST PUSH1 0x4 PUSH0 DUP1 PUSH2 0x100 EXP DUP2 SLOAD DUP2 PUSH1 0xFF MUL NOT AND SWAP1 DUP4 PUSH1 0x4 DUP2 GT ISZERO PUSH2 0x4A6 JUMPI PUSH2 0x4A5 PUSH2 0x500 JUMP JUMPDEST JUMPDEST MUL OR SWAP1 SSTORE POP PUSH32 0xAFA725E7F44CADB687A7043853FA1A7E7B8F0DA74CE87EC546E9420F04DA8C1E PUSH0 DUP1 SLOAD SWAP1 PUSH2 0x100 EXP SWAP1 DIV PUSH1 0xFF AND PUSH1 0x40 MLOAD PUSH2 0x4E6 SWAP2 SWAP1 PUSH2 0x573 JUMP JUMPDEST PUSH1 0x40 MLOAD DUP1 SWAP2 SUB SWAP1 LOG1 JUMP JUMPDEST PUSH0 DUP1 SLOAD SWAP1 PUSH2 0x100 EXP SWAP1 DIV PUSH1 0xFF AND DUP2 JUMP JUMPDEST PUSH32 0x4E487B7100000000000000000000000000000000000000000000000000000000 PUSH0 MSTORE PUSH1 0x21 PUSH1 0x4 MSTORE PUSH1 0x24 PUSH0 REVERT JUMPDEST PUSH1 0x5 DUP2 LT PUSH2 0x53E JUMPI PUSH2 0x53D PUSH2 0x500 JUMP JUMPDEST JUMPDEST POP JUMP JUMPDEST PUSH0 DUP2 SWAP1 POP PUSH2 0x54E DUP3 PUSH2 0x52D JUMP JUMPDEST SWAP2 SWAP1 POP JUMP JUMPDEST PUSH0 PUSH2 0x55D DUP3 PUSH2 0x541 JUMP JUMPDEST SWAP1 POP SWAP2 SWAP1 POP JUMP JUMPDEST PUSH2 0x56D DUP2 PUSH2 0x553 JUMP JUMPDEST DUP3 MSTORE POP POP JUMP JUMPDEST PUSH0 PUSH1 0x20 DUP3 ADD SWAP1 POP PUSH2 0x586 PUSH0 DUP4 ADD DUP5 PUSH2 0x564 JUMP JUMPDEST SWAP3 SWAP2 POP POP JUMP JUMPDEST PUSH0 DUP3 DUP3 MSTORE PUSH1 0x20 DUP3 ADD SWAP1 POP SWAP3 SWAP2 POP POP JUMP JUMPDEST PUSH32 0x4F72646572206973206E6F742073686970706564000000000000000000000000 PUSH0 DUP3 ADD MSTORE POP JUMP JUMPDEST PUSH0 PUSH2 0x5D0 PUSH1 0x14 DUP4 PUSH2 0x58C JUMP JUMPDEST SWAP2 POP PUSH2 0x5DB DUP3 PUSH2 0x59C JUMP JUMPDEST PUSH1 0x20 DUP3 ADD SWAP1 POP SWAP2 SWAP1 POP JUMP JUMPDEST PUSH0 PUSH1 0x20 DUP3 ADD SWAP1 POP DUP2 DUP2 SUB PUSH0 DUP4 ADD MSTORE PUSH2 0x5FD DUP2 PUSH2 0x5C4 JUMP JUMPDEST SWAP1 POP SWAP2 SWAP1 POP JUMP JUMPDEST PUSH32 0x4F72646572206973206E6F742070656E64696E67000000000000000000000000 PUSH0 DUP3 ADD MSTORE POP JUMP JUMPDEST PUSH0 PUSH2 0x638 PUSH1 0x14 DUP4 PUSH2 0x58C JUMP JUMPDEST SWAP2 POP PUSH2 0x643 DUP3 PUSH2 0x604 JUMP JUMPDEST PUSH1 0x20 DUP3 ADD SWAP1 POP SWAP2 SWAP1 POP JUMP JUMPDEST PUSH0 PUSH1 0x20 DUP3 ADD SWAP1 POP DUP2 DUP2 SUB PUSH0 DUP4 ADD MSTORE PUSH2 0x665 DUP2 PUSH2 0x62C JUMP JUMPDEST SWAP1 POP SWAP2 SWAP1 POP JUMP JUMPDEST PUSH32 0x4F726465722063616E206F6E6C792062652063616E63656C6564206966207065 PUSH0 DUP3 ADD MSTORE PUSH32 0x6E64696E67000000000000000000000000000000000000000000000000000000 PUSH1 0x20 DUP3 ADD MSTORE POP JUMP JUMPDEST PUSH0 PUSH2 0x6C6 PUSH1 0x25 DUP4 PUSH2 0x58C JUMP JUMPDEST SWAP2 POP PUSH2 0x6D1 DUP3 PUSH2 0x66C JUMP JUMPDEST PUSH1 0x40 DUP3 ADD SWAP1 POP SWAP2 SWAP1 POP JUMP JUMPDEST PUSH0 PUSH1 0x20 DUP3 ADD SWAP1 POP DUP2 DUP2 SUB PUSH0 DUP4 ADD MSTORE PUSH2 0x6F3 DUP2 PUSH2 0x6BA JUMP JUMPDEST SWAP1 POP SWAP2 SWAP1 POP JUMP INVALID LOG2 PUSH5 0x6970667358 0x22 SLT KECCAK256 LOG3 0x23 CALLCODE 0x26 SHR 0xB1 JUMPI NUMBER SWAP13 EQ 0xFB PUSH24 0xAF1F1530C9A3A215B7D39BF2E844F7223FB1257364736F6C PUSH4 0x43000818 STOP CALLER "
		},
		"gasEstimates": {
			"creation": {
				"codeDepositCost": "368000",
				"executionCost": "24700",
				"totalCost": "392700"
			},
			"external": {
				"accept()": "30051",
				"cancel()": "30093",
				"currentStatus()": "2617",
				"getStatus()": "2606",
				"reject()": "30073",
				"reset()": "27864",
				"ship()": "30049"
			}
		},
		"methodIdentifiers": {
			"accept()": "2852b71c",
			"cancel()": "ea8a1af0",
			"currentStatus()": "ef8a9235",
			"getStatus()": "4e69d560",
			"reject()": "4dc415de",
			"reset()": "d826f88f",
			"ship()": "b6bef7b3"
		}
	},
	"abi": [
		{
			"inputs": [],
			"stateMutability": "nonpayable",
			"type": "constructor"
		},
		{
			"anonymous": false,
			"inputs": [
				{
					"indexed": false,
					"internalType": "enum EnumExample.Status",
					"name": "newStatus",
					"type": "uint8"
				}
			],
			"name": "StatusChanged",
			"type": "event"
		},
		{
			"inputs": [],
			"name": "accept",
			"outputs": [],
			"stateMutability": "nonpayable",
			"type": "function"
		},
		{
			"inputs": [],
			"name": "cancel",
			"outputs": [],
			"stateMutability": "nonpayable",
			"type": "function"
		},
		{
			"inputs": [],
			"name": "currentStatus",
			"outputs": [
				{
					"internalType": "enum EnumExample.Status",
					"name": "",
					"type": "uint8"
				}
			],
			"stateMutability": "view",
			"type": "function"
		},
		{
			"inputs": [],
			"name": "getStatus",
			"outputs": [
				{
					"internalType": "enum EnumExample.Status",
					"name": "",
					"type": "uint8"
				}
			],
			"stateMutability": "view",
			"type": "function"
		},
		{
			"inputs": [],
			"name": "reject",
			"outputs": [],
			"stateMutability": "nonpayable",
			"type": "function"
		},
		{
			"inputs": [],
			"name": "reset",
			"outputs": [],
			"stateMutability": "nonpayable",
			"type": "function"
		},
		{
			"inputs": [],
			"name": "ship",
			"outputs": [],
			"stateMutability": "nonpayable",
			"type": "function"
		}
	]
}