{
	"data": {
		"bytecode": {
			"linkReferences": {},
			"object": "608060405234801561000f575f80fd5b50610d4e8061001d5f395ff3fe608060405234801561000f575f80fd5b506004361061003f575f3560e01c806306ead22e1461004357806386a9b36414610076578063c96465f4146100a9575b5f80fd5b61005d60048036038101906100589190610633565b6100c5565b60405161006d94939291906106f7565b60405180910390f35b610090600480360381019061008b9190610633565b610282565b6040516100a094939291906106f7565b60405180910390f35b6100c360048036038101906100be919061087b565b6104d5565b005b5f602052805f5260405f205f91509050805f0154908060010180546100e990610960565b80601f016020809104026020016040519081016040528092919081815260200182805461011590610960565b80156101605780601f1061013757610100808354040283529160200191610160565b820191905f5260205f20905b81548152906001019060200180831161014357829003601f168201915b50505050509080600201805461017590610960565b80601f01602080910402602001604051908101604052809291908181526020018280546101a190610960565b80156101ec5780601f106101c3576101008083540402835291602001916101ec565b820191905f5260205f20905b8154815290600101906020018083116101cf57829003601f168201915b50505050509080600301805461020190610960565b80601f016020809104026020016040519081016040528092919081815260200182805461022d90610960565b80156102785780601f1061024f57610100808354040283529160200191610278565b820191905f5260205f20905b81548152906001019060200180831161025b57829003601f168201915b5050505050905084565b5f60608060605f805f8781526020019081526020015f205f0154036102dc576040517f08c379a00000000000000000000000000000000000000000000000000000000081526004016102d390610a00565b60405180910390fd5b5f808681526020019081526020015f205f01545f808781526020019081526020015f206001015f808881526020019081526020015f206002015f808981526020019081526020015f2060030182805461033490610960565b80601f016020809104026020016040519081016040528092919081815260200182805461036090610960565b80156103ab5780601f10610382576101008083540402835291602001916103ab565b820191905f5260205f20905b81548152906001019060200180831161038e57829003601f168201915b505050505092508180546103be90610960565b80601f01602080910402602001604051908101604052809291908181526020018280546103ea90610960565b80156104355780601f1061040c57610100808354040283529160200191610435565b820191905f5260205f20905b81548152906001019060200180831161041857829003601f168201915b5050505050915080805461044890610960565b80601f016020809104026020016040519081016040528092919081815260200182805461047490610960565b80156104bf5780601f10610496576101008083540402835291602001916104bf565b820191905f5260205f20905b8154815290600101906020018083116104a257829003601f168201915b5050505050905093509350935093509193509193565b5f805f8681526020019081526020015f205f015414610529576040517f08c379a000000000000000000000000000000000000000000000000000000000815260040161052090610a8e565b60405180910390fd5b5f6040518060800160405280868152602001858152602001848152602001838152509050805f808781526020019081526020015f205f820151815f0155602082015181600101908161057b9190610c49565b5060408201518160020190816105919190610c49565b5060608201518160030190816105a79190610c49565b509050507f7088daf7725d7a45931e0c17e8c51b0a05f3dbb960b7e8997ff69db30e9c59a2858585856040516105e094939291906106f7565b60405180910390a15050505050565b5f604051905090565b5f80fd5b5f80fd5b5f819050919050565b61061281610600565b811461061c575f80fd5b50565b5f8135905061062d81610609565b92915050565b5f60208284031215610648576106476105f8565b5b5f6106558482850161061f565b91505092915050565b61066781610600565b82525050565b5f81519050919050565b5f82825260208201905092915050565b5f5b838110156106a4578082015181840152602081019050610689565b5f8484015250505050565b5f601f19601f8301169050919050565b5f6106c98261066d565b6106d38185610677565b93506106e3818560208601610687565b6106ec816106af565b840191505092915050565b5f60808201905061070a5f83018761065e565b818103602083015261071c81866106bf565b9050818103604083015261073081856106bf565b9050818103606083015261074481846106bf565b905095945050505050565b5f80fd5b5f80fd5b7f4e487b71000000000000000000000000000000000000000000000000000000005f52604160045260245ffd5b61078d826106af565b810181811067ffffffffffffffff821117156107ac576107ab610757565b5b80604052505050565b5f6107be6105ef565b90506107ca8282610784565b919050565b5f67ffffffffffffffff8211156107e9576107e8610757565b5b6107f2826106af565b9050602081019050919050565b828183375f83830152505050565b5f61081f61081a846107cf565b6107b5565b90508281526020810184848401111561083b5761083a610753565b5b6108468482856107ff565b509392505050565b5f82601f8301126108625761086161074f565b5b813561087284826020860161080d565b91505092915050565b5f805f8060808587031215610893576108926105f8565b5b5f6108a08782880161061f565b945050602085013567ffffffffffffffff8111156108c1576108c06105fc565b5b6108cd8782880161084e565b935050604085013567ffffffffffffffff8111156108ee576108ed6105fc565b5b6108fa8782880161084e565b925050606085013567ffffffffffffffff81111561091b5761091a6105fc565b5b6109278782880161084e565b91505092959194509250565b7f4e487b71000000000000000000000000000000000000000000000000000000005f52602260045260245ffd5b5f600282049050600182168061097757607f821691505b60208210810361098a57610989610933565b5b50919050565b7f53747564656e742077697468207468697320726567697374726174696f6e20495f8201527f4420646f6573206e6f7420657869737400000000000000000000000000000000602082015250565b5f6109ea603083610677565b91506109f582610990565b604082019050919050565b5f6020820190508181035f830152610a17816109de565b9050919050565b7f53747564656e742077697468207468697320726567697374726174696f6e20495f8201527f4420616c72656164792065786973747300000000000000000000000000000000602082015250565b5f610a78603083610677565b9150610a8382610a1e565b604082019050919050565b5f6020820190508181035f830152610aa581610a6c565b9050919050565b5f819050815f5260205f209050919050565b5f6020601f8301049050919050565b5f82821b905092915050565b5f60088302610b087fffffffffffffffffffffffffffffffffffffffffffffffffffffffffffffffff82610acd565b610b128683610acd565b95508019841693508086168417925050509392505050565b5f819050919050565b5f610b4d610b48610b4384610600565b610b2a565b610600565b9050919050565b5f819050919050565b610b6683610b33565b610b7a610b7282610b54565b848454610ad9565b825550505050565b5f90565b610b8e610b82565b610b99818484610b5d565b505050565b5b81811015610bbc57610bb15f82610b86565b600181019050610b9f565b5050565b601f821115610c0157610bd281610aac565b610bdb84610abe565b81016020851015610bea578190505b610bfe610bf685610abe565b830182610b9e565b50505b505050565b5f82821c905092915050565b5f610c215f1984600802610c06565b1980831691505092915050565b5f610c398383610c12565b9150826002028217905092915050565b610c528261066d565b67ffffffffffffffff811115610c6b57610c6a610757565b5b610c758254610960565b610c80828285610bc0565b5f60209050601f831160018114610cb1575f8415610c9f578287015190505b610ca98582610c2e565b865550610d10565b601f198416610cbf86610aac565b5f5b82811015610ce657848901518255600182019150602085019450602081019050610cc1565b86831015610d035784890151610cff601f891682610c12565b8355505b6001600288020188555050505b50505050505056fea26469706673582212203ad42448bd816962ae3b619707f7e81d2b01c599e2183b6771db9b48ccaaa67e64736f6c63430008180033",
			"opcodes": "PUSH1 0x80 PUSH1 0x40 MSTORE CALLVALUE DUP1 ISZERO PUSH2 0xF JUMPI PUSH0 DUP1 REVERT JUMPDEST POP PUSH2 0xD4E DUP1 PUSH2 0x1D PUSH0 CODECOPY PUSH0 RETURN INVALID PUSH1 0x80 PUSH1 0x40 MSTORE CALLVALUE DUP1 ISZERO PUSH2 0xF JUMPI PUSH0 DUP1 REVERT JUMPDEST POP PUSH1 0x4 CALLDATASIZE LT PUSH2 0x3F JUMPI PUSH0 CALLDATALOAD PUSH1 0xE0 SHR DUP1 PUSH4 0x6EAD22E EQ PUSH2 0x43 JUMPI DUP1 PUSH4 0x86A9B364 EQ PUSH2 0x76 JUMPI DUP1 PUSH4 0xC96465F4 EQ PUSH2 0xA9 JUMPI JUMPDEST PUSH0 DUP1 REVERT JUMPDEST PUSH2 0x5D PUSH1 0x4 DUP1 CALLDATASIZE SUB DUP2 ADD SWAP1 PUSH2 0x58 SWAP2 SWAP1 PUSH2 0x633 JUMP JUMPDEST PUSH2 0xC5 JUMP JUMPDEST PUSH1 0x40 MLOAD PUSH2 0x6D SWAP5 SWAP4 SWAP3 SWAP2 SWAP1 PUSH2 0x6F7 JUMP JUMPDEST PUSH1 0x40 MLOAD DUP1 SWAP2 SUB SWAP1 RETURN JUMPDEST PUSH2 0x90 PUSH1 0x4 DUP1 CALLDATASIZE SUB DUP2 ADD SWAP1 PUSH2 0x8B SWAP2 SWAP1 PUSH2 0x633 JUMP JUMPDEST PUSH2 0x282 JUMP JUMPDEST PUSH1 0x40 MLOAD PUSH2 0xA0 SWAP5 SWAP4 SWAP3 SWAP2 SWAP1 PUSH2 0x6F7 JUMP JUMPDEST PUSH1 0x40 MLOAD DUP1 SWAP2 SUB SWAP1 RETURN JUMPDEST PUSH2 0xC3 PUSH1 0x4 DUP1 CALLDATASIZE SUB DUP2 ADD SWAP1 PUSH2 0xBE SWAP2 SWAP1 PUSH2 0x87B JUMP JUMPDEST PUSH2 0x4D5 JUMP JUMPDEST STOP JUMPDEST PUSH0 PUSH1 0x20 MSTORE DUP1 PUSH0 MSTORE PUSH1 0x40 PUSH0 KECCAK256 PUSH0 SWAP2 POP SWAP1 POP DUP1 PUSH0 ADD SLOAD SWAP1 DUP1 PUSH1 0x1 ADD DUP1 SLOAD PUSH2 0xE9 SWAP1 PUSH2 0x960 JUMP JUMPDEST DUP1 PUSH1 0x1F ADD PUSH1 0x20 DUP1 SWAP2 DIV MUL PUSH1 0x20 ADD PUSH1 0x40 MLOAD SWAP1 DUP2 ADD PUSH1 0x40 MSTORE DUP1 SWAP3 SWAP2 SWAP1 DUP2 DUP2 MSTORE PUSH1 0x20 ADD DUP3 DUP1 SLOAD PUSH2 0x115 SWAP1 PUSH2 0x960 JUMP JUMPDEST DUP1 ISZERO PUSH2 0x160 JUMPI DUP1 PUSH1 0x1F LT PUSH2 0x137 JUMPI PUSH2 0x100 DUP1 DUP4 SLOAD DIV MUL DUP4 MSTORE SWAP2 PUSH1 0x20 ADD SWAP2 PUSH2 0x160 JUMP JUMPDEST DUP3 ADD SWAP2 SWAP1 PUSH0 MSTORE PUSH1 0x20 PUSH0 KECCAK256 SWAP1 JUMPDEST DUP2 SLOAD DUP2 MSTORE SWAP1 PUSH1 0x1 ADD SWAP1 PUSH1 0x20 ADD DUP1 DUP4 GT PUSH2 0x143 JUMPI DUP3 SWAP1 SUB PUSH1 0x1F AND DUP3 ADD SWAP2 JUMPDEST POP POP POP POP POP SWAP1 DUP1 PUSH1 0x2 ADD DUP1 SLOAD PUSH2 0x175 SWAP1 PUSH2 0x960 JUMP JUMPDEST DUP1 PUSH1 0x1F ADD PUSH1 0x20 DUP1 SWAP2 DIV MUL PUSH1 0x20 ADD PUSH1 0x40 MLOAD SWAP1 DUP2 ADD PUSH1 0x40 MSTORE DUP1 SWAP3 SWAP2 SWAP1 DUP2 DUP2 MSTORE PUSH1 0x20 ADD DUP3 DUP1 SLOAD PUSH2 0x1A1 SWAP1 PUSH2 0x960 JUMP JUMPDEST DUP1 ISZERO PUSH2 0x1EC JUMPI DUP1 PUSH1 0x1F LT PUSH2 0x1C3 JUMPI PUSH2 0x100 DUP1 DUP4 SLOAD DIV MUL DUP4 MSTORE SWAP2 PUSH1 0x20 ADD SWAP2 PUSH2 0x1EC JUMP JUMPDEST DUP3 ADD SWAP2 SWAP1 PUSH0 MSTORE PUSH1 0x20 PUSH0 KECCAK256 SWAP1 JUMPDEST DUP2 SLOAD DUP2 MSTORE SWAP1 PUSH1 0x1 ADD SWAP1 PUSH1 0x20 ADD DUP1 DUP4 GT PUSH2 0x1CF JUMPI DUP3 SWAP1 SUB PUSH1 0x1F AND DUP3 ADD SWAP2 JUMPDEST POP POP POP POP POP SWAP1 DUP1 PUSH1 0x3 ADD DUP1 SLOAD PUSH2 0x201 SWAP1 PUSH2 0x960 JUMP JUMPDEST DUP1 PUSH1 0x1F ADD PUSH1 0x20 DUP1 SWAP2 DIV MUL PUSH1 0x20 ADD PUSH1 0x40 MLOAD SWAP1 DUP2 ADD PUSH1 0x40 MSTORE DUP1 SWAP3 SWAP2 SWAP1 DUP2 DUP2 MSTORE PUSH1 0x20 ADD DUP3 DUP1 SLOAD PUSH2 0x22D SWAP1 PUSH2 0x960 JUMP JUMPDEST DUP1 ISZERO PUSH2 0x278 JUMPI DUP1 PUSH1 0x1F LT PUSH2 0x24F JUMPI PUSH2 0x100 DUP1 DUP4 SLOAD DIV MUL DUP4 MSTORE SWAP2 PUSH1 0x20 ADD SWAP2 PUSH2 0x278 JUMP JUMPDEST DUP3 ADD SWAP2 SWAP1 PUSH0 MSTORE PUSH1 0x20 PUSH0 KECCAK256 SWAP1 JUMPDEST DUP2 SLOAD DUP2 MSTORE SWAP1 PUSH1 0x1 ADD SWAP1 PUSH1 0x20 ADD DUP1 DUP4 GT PUSH2 0x25B JUMPI DUP3 SWAP1 SUB PUSH1 0x1F AND DUP3 ADD SWAP2 JUMPDEST POP POP POP POP POP SWAP1 POP DUP5 JUMP JUMPDEST PUSH0 PUSH1 0x60 DUP1 PUSH1 0x60 PUSH0 DUP1 PUSH0 DUP8 DUP2 MSTORE PUSH1 0x20 ADD SWAP1 DUP2 MSTORE PUSH1 0x20 ADD PUSH0 KECCAK256 PUSH0 ADD SLOAD SUB PUSH2 0x2DC JUMPI PUSH1 0x40 MLOAD PUSH32 0x8C379A000000000000000000000000000000000000000000000000000000000 DUP2 MSTORE PUSH1 0x4 ADD PUSH2 0x2D3 SWAP1 PUSH2 0xA00 JUMP JUMPDEST PUSH1 0x40 MLOAD DUP1 SWAP2 SUB SWAP1 REVERT JUMPDEST PUSH0 DUP1 DUP7 DUP2 MSTORE PUSH1 0x20 ADD SWAP1 DUP2 MSTORE PUSH1 0x20 ADD PUSH0 KECCAK256 PUSH0 ADD SLOAD PUSH0 DUP1 DUP8 DUP2 MSTORE PUSH1 0x20 ADD SWAP1 DUP2 MSTORE PUSH1 0x20 ADD PUSH0 KECCAK256 PUSH1 0x1 ADD PUSH0 DUP1 DUP9 DUP2 MSTORE PUSH1 0x20 ADD SWAP1 DUP2 MSTORE PUSH1 0x20 ADD PUSH0 KECCAK256 PUSH1 0x2 ADD PUSH0 DUP1 DUP10 DUP2 MSTORE PUSH1 0x20 ADD SWAP1 DUP2 MSTORE PUSH1 0x20 ADD PUSH0 KECCAK256 PUSH1 0x3 ADD DUP3 DUP1 SLOAD PUSH2 0x334 SWAP1 PUSH2 0x960 JUMP JUMPDEST DUP1 PUSH1 0x1F ADD PUSH1 0x20 DUP1 SWAP2 DIV MUL PUSH1 0x20 ADD PUSH1 0x40 MLOAD SWAP1 DUP2 ADD PUSH1 0x40 MSTORE DUP1 SWAP3 SWAP2 SWAP1 DUP2 DUP2 MSTORE PUSH1 0x20 ADD DUP3 DUP1 SLOAD PUSH2 0x360 SWAP1 PUSH2 0x960 JUMP JUMPDEST DUP1 ISZERO PUSH2 0x3AB JUMPI DUP1 PUSH1 0x1F LT PUSH2 0x382 JUMPI PUSH2 0x100 DUP1 DUP4 SLOAD DIV MUL DUP4 MSTORE SWAP2 PUSH1 0x20 ADD SWAP2 PUSH2 0x3AB JUMP JUMPDEST DUP3 ADD SWAP2 SWAP1 PUSH0 MSTORE PUSH1 0x20 PUSH0 KECCAK256 SWAP1 JUMPDEST DUP2 SLOAD DUP2 MSTORE SWAP1 PUSH1 0x1 ADD SWAP1 PUSH1 0x20 ADD DUP1 DUP4 GT PUSH2 0x38E JUMPI DUP3 SWAP1 SUB PUSH1 0x1F AND DUP3 ADD SWAP2 JUMPDEST POP POP POP POP POP SWAP3 POP DUP2 DUP1 SLOAD PUSH2 0x3BE SWAP1 PUSH2 0x960 JUMP JUMPDEST DUP1 PUSH1 0x1F ADD PUSH1 0x20 DUP1 SWAP2 DIV MUL PUSH1 0x20 ADD PUSH1 0x40 MLOAD SWAP1 DUP2 ADD PUSH1 0x40 MSTORE DUP1 SWAP3 SWAP2 SWAP1 DUP2 DUP2 MSTORE PUSH1 0x20 ADD DUP3 DUP1 SLOAD PUSH2 0x3EA SWAP1 PUSH2 0x960 JUMP JUMPDEST DUP1 ISZERO PUSH2 0x435 JUMPI DUP1 PUSH1 0x1F LT PUSH2 0x40C JUMPI PUSH2 0x100 DUP1 DUP4 SLOAD DIV MUL DUP4 MSTORE SWAP2 PUSH1 0x20 ADD SWAP2 PUSH2 0x435 JUMP JUMPDEST DUP3 ADD SWAP2 SWAP1 PUSH0 MSTORE PUSH1 0x20 PUSH0 KECCAK256 SWAP1 JUMPDEST DUP2 SLOAD DUP2 MSTORE SWAP1 PUSH1 0x1 ADD SWAP1 PUSH1 0x20 ADD DUP1 DUP4 GT PUSH2 0x418 JUMPI DUP3 SWAP1 SUB PUSH1 0x1F AND DUP3 ADD SWAP2 JUMPDEST POP POP POP POP POP SWAP2 POP DUP1 DUP1 SLOAD PUSH2 0x448 SWAP1 PUSH2 0x960 JUMP JUMPDEST DUP1 PUSH1 0x1F ADD PUSH1 0x20 DUP1 SWAP2 DIV MUL PUSH1 0x20 ADD PUSH1 0x40 MLOAD SWAP1 DUP2 ADD PUSH1 0x40 MSTORE DUP1 SWAP3 SWAP2 SWAP1 DUP2 DUP2 MSTORE PUSH1 0x20 ADD DUP3 DUP1 SLOAD PUSH2 0x474 SWAP1 PUSH2 0x960 JUMP JUMPDEST DUP1 ISZERO PUSH2 0x4BF JUMPI DUP1 PUSH1 0x1F LT PUSH2 0x496 JUMPI PUSH2 0x100 DUP1 DUP4 SLOAD DIV MUL DUP4 MSTORE SWAP2 PUSH1 0x20 ADD SWAP2 PUSH2 0x4BF JUMP JUMPDEST DUP3 ADD SWAP2 SWAP1 PUSH0 MSTORE PUSH1 0x20 PUSH0 KECCAK256 SWAP1 JUMPDEST DUP2 SLOAD DUP2 MSTORE SWAP1 PUSH1 0x1 ADD SWAP1 PUSH1 0x20 ADD DUP1 DUP4 GT PUSH2 0x4A2 JUMPI DUP3 SWAP1 SUB PUSH1 0x1F AND DUP3 ADD SWAP2 JUMPDEST POP POP POP POP POP SWAP1 POP SWAP4 POP SWAP4 POP SWAP4 POP SWAP4 POP SWAP2 SWAP4 POP SWAP2 SWAP4 JUMP JUMPDEST PUSH0 DUP1 PUSH0 DUP7 DUP2 MSTORE PUSH1 0x20 ADD SWAP1 DUP2 MSTORE PUSH1 0x20 ADD PUSH0 KECCAK256 PUSH0 ADD SLOAD EQ PUSH2 0x529 JUMPI PUSH1 0x40 MLOAD PUSH32 0x8C379A000000000000000000000000000000000000000000000000000000000 DUP2 MSTORE PUSH1 0x4 ADD PUSH2 0x520 SWAP1 PUSH2 0xA8E JUMP JUMPDEST PUSH1 0x40 MLOAD DUP1 SWAP2 SUB SWAP1 REVERT JUMPDEST PUSH0 PUSH1 0x40 MLOAD DUP1 PUSH1 0x80 ADD PUSH1 0x40 MSTORE DUP1 DUP7 DUP2 MSTORE PUSH1 0x20 ADD DUP6 DUP2 MSTORE PUSH1 0x20 ADD DUP5 DUP2 MSTORE PUSH1 0x20 ADD DUP4 DUP2 MSTORE POP SWAP1 POP DUP1 PUSH0 DUP1 DUP8 DUP2 MSTORE PUSH1 0x20 ADD SWAP1 DUP2 MSTORE PUSH1 0x20 ADD PUSH0 KECCAK256 PUSH0 DUP3 ADD MLOAD DUP2 PUSH0 ADD SSTORE PUSH1 0x20 DUP3 ADD MLOAD DUP2 PUSH1 0x1 ADD SWAP1 DUP2 PUSH2 0x57B SWAP2 SWAP1 PUSH2 0xC49 JUMP JUMPDEST POP PUSH1 0x40 DUP3 ADD MLOAD DUP2 PUSH1 0x2 ADD SWAP1 DUP2 PUSH2 0x591 SWAP2 SWAP1 PUSH2 0xC49 JUMP JUMPDEST POP PUSH1 0x60 DUP3 ADD MLOAD DUP2 PUSH1 0x3 ADD SWAP1 DUP2 PUSH2 0x5A7 SWAP2 SWAP1 PUSH2 0xC49 JUMP JUMPDEST POP SWAP1 POP POP PUSH32 0x7088DAF7725D7A45931E0C17E8C51B0A05F3DBB960B7E8997FF69DB30E9C59A2 DUP6 DUP6 DUP6 DUP6 PUSH1 0x40 MLOAD PUSH2 0x5E0 SWAP5 SWAP4 SWAP3 SWAP2 SWAP1 PUSH2 0x6F7 JUMP JUMPDEST PUSH1 0x40 MLOAD DUP1 SWAP2 SUB SWAP1 LOG1 POP POP POP POP POP JUMP JUMPDEST PUSH0 PUSH1 0x40 MLOAD SWAP1 POP SWAP1 JUMP JUMPDEST PUSH0 DUP1 REVERT JUMPDEST PUSH0 DUP1 REVERT JUMPDEST PUSH0 DUP2 SWAP1 POP SWAP2 SWAP1 POP JUMP JUMPDEST PUSH2 0x612 DUP2 PUSH2 0x600 JUMP JUMPDEST DUP2 EQ PUSH2 0x61C JUMPI PUSH0 DUP1 REVERT JUMPDEST POP JUMP JUMPDEST PUSH0 DUP2 CALLDATALOAD SWAP1 POP PUSH2 0x62D DUP2 PUSH2 0x609 JUMP JUMPDEST SWAP3 SWAP2 POP POP JUMP JUMPDEST PUSH0 PUSH1 0x20 DUP3 DUP5 SUB SLT ISZERO PUSH2 0x648 JUMPI PUSH2 0x647 PUSH2 0x5F8 JUMP JUMPDEST JUMPDEST PUSH0 PUSH2 0x655 DUP5 DUP3 DUP6 ADD PUSH2 0x61F JUMP JUMPDEST SWAP2 POP POP SWAP3 SWAP2 POP POP JUMP JUMPDEST PUSH2 0x667 DUP2 PUSH2 0x600 JUMP JUMPDEST DUP3 MSTORE POP POP JUMP JUMPDEST PUSH0 DUP2 MLOAD SWAP1 POP SWAP2 SWAP1 POP JUMP JUMPDEST PUSH0 DUP3 DUP3 MSTORE PUSH1 0x20 DUP3 ADD SWAP1 POP SWAP3 SWAP2 POP POP JUMP JUMPDEST PUSH0 JUMPDEST DUP4 DUP2 LT ISZERO PUSH2 0x6A4 JUMPI DUP1 DUP3 ADD MLOAD DUP2 DUP5 ADD MSTORE PUSH1 0x20 DUP2 ADD SWAP1 POP PUSH2 0x689 JUMP JUMPDEST PUSH0 DUP5 DUP5 ADD MSTORE POP POP POP POP JUMP JUMPDEST PUSH0 PUSH1 0x1F NOT PUSH1 0x1F DUP4 ADD AND SWAP1 POP SWAP2 SWAP1 POP JUMP JUMPDEST PUSH0 PUSH2 0x6C9 DUP3 PUSH2 0x66D JUMP JUMPDEST PUSH2 0x6D3 DUP2 DUP6 PUSH2 0x677 JUMP JUMPDEST SWAP4 POP PUSH2 0x6E3 DUP2 DUP6 PUSH1 0x20 DUP7 ADD PUSH2 0x687 JUMP JUMPDEST PUSH2 0x6EC DUP2 PUSH2 0x6AF JUMP JUMPDEST DUP5 ADD SWAP2 POP POP SWAP3 SWAP2 POP POP JUMP JUMPDEST PUSH0 PUSH1 0x80 DUP3 ADD SWAP1 POP PUSH2 0x70A PUSH0 DUP4 ADD DUP8 PUSH2 0x65E JUMP JUMPDEST DUP2 DUP2 SUB PUSH1 0x20 DUP4 ADD MSTORE PUSH2 0x71C DUP2 DUP7 PUSH2 0x6BF JUMP JUMPDEST SWAP1 POP DUP2 DUP2 SUB PUSH1 0x40 DUP4 ADD MSTORE PUSH2 0x730 DUP2 DUP6 PUSH2 0x6BF JUMP JUMPDEST SWAP1 POP DUP2 DUP2 SUB PUSH1 0x60 DUP4 ADD MSTORE PUSH2 0x744 DUP2 DUP5 PUSH2 0x6BF JUMP JUMPDEST SWAP1 POP SWAP6 SWAP5 POP POP POP POP POP JUMP JUMPDEST PUSH0 DUP1 REVERT JUMPDEST PUSH0 DUP1 REVERT JUMPDEST PUSH32 0x4E487B7100000000000000000000000000000000000000000000000000000000 PUSH0 MSTORE PUSH1 0x41 PUSH1 0x4 MSTORE PUSH1 0x24 PUSH0 REVERT JUMPDEST PUSH2 0x78D DUP3 PUSH2 0x6AF JUMP JUMPDEST DUP2 ADD DUP2 DUP2 LT PUSH8 0xFFFFFFFFFFFFFFFF DUP3 GT OR ISZERO PUSH2 0x7AC JUMPI PUSH2 0x7AB PUSH2 0x757 JUMP JUMPDEST JUMPDEST DUP1 PUSH1 0x40 MSTORE POP POP POP JUMP JUMPDEST PUSH0 PUSH2 0x7BE PUSH2 0x5EF JUMP JUMPDEST SWAP1 POP PUSH2 0x7CA DUP3 DUP3 PUSH2 0x784 JUMP JUMPDEST SWAP2 SWAP1 POP JUMP JUMPDEST PUSH0 PUSH8 0xFFFFFFFFFFFFFFFF DUP3 GT ISZERO PUSH2 0x7E9 JUMPI PUSH2 0x7E8 PUSH2 0x757 JUMP JUMPDEST JUMPDEST PUSH2 0x7F2 DUP3 PUSH2 0x6AF JUMP JUMPDEST SWAP1 POP PUSH1 0x20 DUP2 ADD SWAP1 POP SWAP2 SWAP1 POP JUMP JUMPDEST DUP3 DUP2 DUP4 CALLDATACOPY PUSH0 DUP4 DUP4 ADD MSTORE POP POP POP JUMP JUMPDEST PUSH0 PUSH2 0x81F PUSH2 0x81A DUP5 PUSH2 0x7CF JUMP JUMPDEST PUSH2 0x7B5 JUMP JUMPDEST SWAP1 POP DUP3 DUP2 MSTORE PUSH1 0x20 DUP2 ADD DUP5 DUP5 DUP5 ADD GT ISZERO PUSH2 0x83B JUMPI PUSH2 0x83A PUSH2 0x753 JUMP JUMPDEST JUMPDEST PUSH2 0x846 DUP5 DUP3 DUP6 PUSH2 0x7FF JUMP JUMPDEST POP SWAP4 SWAP3 POP POP POP JUMP JUMPDEST PUSH0 DUP3 PUSH1 0x1F DUP4 ADD SLT PUSH2 0x862 JUMPI PUSH2 0x861 PUSH2 0x74F JUMP JUMPDEST JUMPDEST DUP2 CALLDATALOAD PUSH2 0x872 DUP5 DUP3 PUSH1 0x20 DUP7 ADD PUSH2 0x80D JUMP JUMPDEST SWAP2 POP POP SWAP3 SWAP2 POP POP JUMP JUMPDEST PUSH0 DUP1 PUSH0 DUP1 PUSH1 0x80 DUP6 DUP8 SUB SLT ISZERO PUSH2 0x893 JUMPI PUSH2 0x892 PUSH2 0x5F8 JUMP JUMPDEST JUMPDEST PUSH0 PUSH2 0x8A0 DUP8 DUP3 DUP9 ADD PUSH2 0x61F JUMP JUMPDEST SWAP5 POP POP PUSH1 0x20 DUP6 ADD CALLDATALOAD PUSH8 0xFFFFFFFFFFFFFFFF DUP2 GT ISZERO PUSH2 0x8C1 JUMPI PUSH2 0x8C0 PUSH2 0x5FC JUMP JUMPDEST JUMPDEST PUSH2 0x8CD DUP8 DUP3 DUP9 ADD PUSH2 0x84E JUMP JUMPDEST SWAP4 POP POP PUSH1 0x40 DUP6 ADD CALLDATALOAD PUSH8 0xFFFFFFFFFFFFFFFF DUP2 GT ISZERO PUSH2 0x8EE JUMPI PUSH2 0x8ED PUSH2 0x5FC JUMP JUMPDEST JUMPDEST PUSH2 0x8FA DUP8 DUP3 DUP9 ADD PUSH2 0x84E JUMP JUMPDEST SWAP3 POP POP PUSH1 0x60 DUP6 ADD CALLDATALOAD PUSH8 0xFFFFFFFFFFFFFFFF DUP2 GT ISZERO PUSH2 0x91B JUMPI PUSH2 0x91A PUSH2 0x5FC JUMP JUMPDEST JUMPDEST PUSH2 0x927 DUP8 DUP3 DUP9 ADD PUSH2 0x84E JUMP JUMPDEST SWAP2 POP POP SWAP3 SWAP6 SWAP2 SWAP5 POP SWAP3 POP JUMP JUMPDEST PUSH32 0x4E487B7100000000000000000000000000000000000000000000000000000000 PUSH0 MSTORE PUSH1 0x22 PUSH1 0x4 MSTORE PUSH1 0x24 PUSH0 REVERT JUMPDEST PUSH0 PUSH1 0x2 DUP3 DIV SWAP1 POP PUSH1 0x1 DUP3 AND DUP1 PUSH2 0x977 JUMPI PUSH1 0x7F DUP3 AND SWAP2 POP JUMPDEST PUSH1 0x20 DUP3 LT DUP2 SUB PUSH2 0x98A JUMPI PUSH2 0x989 PUSH2 0x933 JUMP JUMPDEST JUMPDEST POP SWAP2 SWAP1 POP JUMP JUMPDEST PUSH32 0x53747564656E742077697468207468697320726567697374726174696F6E2049 PUSH0 DUP3 ADD MSTORE PUSH32 0x4420646F6573206E6F7420657869737400000000000000000000000000000000 PUSH1 0x20 DUP3 ADD MSTORE POP JUMP JUMPDEST PUSH0 PUSH2 0x9EA PUSH1 0x30 DUP4 PUSH2 0x677 JUMP JUMPDEST SWAP2 POP PUSH2 0x9F5 DUP3 PUSH2 0x990 JUMP JUMPDEST PUSH1 0x40 DUP3 ADD SWAP1 POP SWAP2 SWAP1 POP JUMP JUMPDEST PUSH0 PUSH1 0x20 DUP3 ADD SWAP1 POP DUP2 DUP2 SUB PUSH0 DUP4 ADD MSTORE PUSH2 0xA17 DUP2 PUSH2 0x9DE JUMP JUMPDEST SWAP1 POP SWAP2 SWAP1 POP JUMP JUMPDEST PUSH32 0x53747564656E742077697468207468697320726567697374726174696F6E2049 PUSH0 DUP3 ADD MSTORE PUSH32 0x4420616C72656164792065786973747300000000000000000000000000000000 PUSH1 0x20 DUP3 ADD MSTORE POP JUMP JUMPDEST PUSH0 PUSH2 0xA78 PUSH1 0x30 DUP4 PUSH2 0x677 JUMP JUMPDEST SWAP2 POP PUSH2 0xA83 DUP3 PUSH2 0xA1E JUMP JUMPDEST PUSH1 0x40 DUP3 ADD SWAP1 POP SWAP2 SWAP1 POP JUMP JUMPDEST PUSH0 PUSH1 0x20 DUP3 ADD SWAP1 POP DUP2 DUP2 SUB PUSH0 DUP4 ADD MSTORE PUSH2 0xAA5 DUP2 PUSH2 0xA6C JUMP JUMPDEST SWAP1 POP SWAP2 SWAP1 POP JUMP JUMPDEST PUSH0 DUP2 SWAP1 POP DUP2 PUSH0 MSTORE PUSH1 0x20 PUSH0 KECCAK256 SWAP1 POP SWAP2 SWAP1 POP JUMP JUMPDEST PUSH0 PUSH1 0x20 PUSH1 0x1F DUP4 ADD DIV SWAP1 POP SWAP2 SWAP1 POP JUMP JUMPDEST PUSH0 DUP3 DUP3 SHL SWAP1 POP SWAP3 SWAP2 POP POP JUMP JUMPDEST PUSH0 PUSH1 0x8 DUP4 MUL PUSH2 0xB08 PUSH32 0xFFFFFFFFFFFFFFFFFFFFFFFFFFFFFFFFFFFFFFFFFFFFFFFFFFFFFFFFFFFFFFFF DUP3 PUSH2 0xACD JUMP JUMPDEST PUSH2 0xB12 DUP7 DUP4 PUSH2 0xACD JUMP JUMPDEST SWAP6 POP DUP1 NOT DUP5 AND SWAP4 POP DUP1 DUP7 AND DUP5 OR SWAP3 POP POP POP SWAP4 SWAP3 POP POP POP JUMP JUMPDEST PUSH0 DUP2 SWAP1 POP SWAP2 SWAP1 POP JUMP JUMPDEST PUSH0 PUSH2 0xB4D PUSH2 0xB48 PUSH2 0xB43 DUP5 PUSH2 0x600 JUMP JUMPDEST PUSH2 0xB2A JUMP JUMPDEST PUSH2 0x600 JUMP JUMPDEST SWAP1 POP SWAP2 SWAP1 POP JUMP JUMPDEST PUSH0 DUP2 SWAP1 POP SWAP2 SWAP1 POP JUMP JUMPDEST PUSH2 0xB66 DUP4 PUSH2 0xB33 JUMP JUMPDEST PUSH2 0xB7A PUSH2 0xB72 DUP3 PUSH2 0xB54 JUMP JUMPDEST DUP5 DUP5 SLOAD PUSH2 0xAD9 JUMP JUMPDEST DUP3 SSTORE POP POP POP POP JUMP JUMPDEST PUSH0 SWAP1 JUMP JUMPDEST PUSH2 0xB8E PUSH2 0xB82 JUMP JUMPDEST PUSH2 0xB99 DUP2 DUP5 DUP5 PUSH2 0xB5D JUMP JUMPDEST POP POP POP JUMP JUMPDEST JUMPDEST DUP2 DUP2 LT ISZERO PUSH2 0xBBC JUMPI PUSH2 0xBB1 PUSH0 DUP3 PUSH2 0xB86 JUMP JUMPDEST PUSH1 0x1 DUP2 ADD SWAP1 POP PUSH2 0xB9F JUMP JUMPDEST POP POP JUMP JUMPDEST PUSH1 0x1F DUP3 GT ISZERO PUSH2 0xC01 JUMPI PUSH2 0xBD2 DUP2 PUSH2 0xAAC JUMP JUMPDEST PUSH2 0xBDB DUP5 PUSH2 0xABE JUMP JUMPDEST DUP2 ADD PUSH1 0x20 DUP6 LT ISZERO PUSH2 0xBEA JUMPI DUP2 SWAP1 POP JUMPDEST PUSH2 0xBFE PUSH2 0xBF6 DUP6 PUSH2 0xABE JUMP JUMPDEST DUP4 ADD DUP3 PUSH2 0xB9E JUMP JUMPDEST POP POP JUMPDEST POP POP POP JUMP JUMPDEST PUSH0 DUP3 DUP3 SHR SWAP1 POP SWAP3 SWAP2 POP POP JUMP JUMPDEST PUSH0 PUSH2 0xC21 PUSH0 NOT DUP5 PUSH1 0x8 MUL PUSH2 0xC06 JUMP JUMPDEST NOT DUP1 DUP4 AND SWAP2 POP POP SWAP3 SWAP2 POP POP JUMP JUMPDEST PUSH0 PUSH2 0xC39 DUP4 DUP4 PUSH2 0xC12 JUMP JUMPDEST SWAP2 POP DUP3 PUSH1 0x2 MUL DUP3 OR SWAP1 POP SWAP3 SWAP2 POP POP JUMP JUMPDEST PUSH2 0xC52 DUP3 PUSH2 0x66D JUMP JUMPDEST PUSH8 0xFFFFFFFFFFFFFFFF DUP2 GT ISZERO PUSH2 0xC6B JUMPI PUSH2 0xC6A PUSH2 0x757 JUMP JUMPDEST JUMPDEST PUSH2 0xC75 DUP3 SLOAD PUSH2 0x960 JUMP JUMPDEST PUSH2 0xC80 DUP3 DUP3 DUP6 PUSH2 0xBC0 JUMP JUMPDEST PUSH0 PUSH1 0x20 SWAP1 POP PUSH1 0x1F DUP4 GT PUSH1 0x1 DUP2 EQ PUSH2 0xCB1 JUMPI PUSH0 DUP5 ISZERO PUSH2 0xC9F JUMPI DUP3 DUP8 ADD MLOAD SWAP1 POP JUMPDEST PUSH2 0xCA9 DUP6 DUP3 PUSH2 0xC2E JUMP JUMPDEST DUP7 SSTORE POP PUSH2 0xD10 JUMP JUMPDEST PUSH1 0x1F NOT DUP5 AND PUSH2 0xCBF DUP7 PUSH2 0xAAC JUMP JUMPDEST PUSH0 JUMPDEST DUP3 DUP2 LT ISZERO PUSH2 0xCE6 JUMPI DUP5 DUP10 ADD MLOAD DUP3 SSTORE PUSH1 0x1 DUP3 ADD SWAP2 POP PUSH1 0x20 DUP6 ADD SWAP5 POP PUSH1 0x20 DUP2 ADD SWAP1 POP PUSH2 0xCC1 JUMP JUMPDEST DUP7 DUP4 LT ISZERO PUSH2 0xD03 JUMPI DUP5 DUP10 ADD MLOAD PUSH2 0xCFF PUSH1 0x1F DUP10 AND DUP3 PUSH2 0xC12 JUMP JUMPDEST DUP4 SSTORE POP JUMPDEST PUSH1 0x1 PUSH1 0x2 DUP9 MUL ADD DUP9 SSTORE POP POP POP JUMPDEST POP POP POP POP POP POP JUMP INVALID LOG2 PUSH5 0x6970667358 0x22 SLT KECCAK256 GASPRICE 0xD4 0x24 BASEFEE 0xBD DUP2 PUSH10 0x62AE3B619707F7E81D2B ADD 0xC5 SWAP10 0xE2 XOR EXTCODESIZE PUSH8 0x71DB9B48CCAAA67E PUSH5 0x736F6C6343 STOP ADDMOD XOR STOP CALLER "
		},
		"gasEstimates": {
			"creation": {
				"codeDepositCost": "681200",
				"executionCost": "713",
				"totalCost": "681913"
			},
			"external": {
				"getStudentDetails(uint256)": "infinite",
				"registerStudent(uint256,string,string,string)": "infinite",
				"students(uint256)": "infinite"
			}
		},
		"methodIdentifiers": {
			"getStudentDetails(uint256)": "86a9b364",
			"registerStudent(uint256,string,string,string)": "c96465f4",
			"students(uint256)": "06ead22e"
		}
	},
	"abi": [
		{
			"anonymous": false,
			"inputs": [
				{
					"indexed": false,
					"internalType": "uint256",
					"name": "regID",
					"type": "uint256"
				},
				{
					"indexed": false,
					"internalType": "string",
					"name": "name",
					"type": "string"
				},
				{
					"indexed": false,
					"internalType": "string",
					"name": "course",
					"type": "string"
				},
				{
					"indexed": false,
					"internalType": "string",
					"name": "mobileNo",
					"type": "string"
				}
			],
			"name": "StudentRegistered",
			"type": "event"
		},
		{
			"inputs": [
				{
					"internalType": "uint256",
					"name": "_regID",
					"type": "uint256"
				}
			],
			"name": "getStudentDetails",
			"outputs": [
				{
					"internalType": "uint256",
					"name": "",
					"type": "uint256"
				},
				{
					"internalType": "string",
					"name": "",
					"type": "string"
				},
				{
					"internalType": "string",
					"name": "",
					"type": "string"
				},
				{
					"internalType": "string",
					"name": "",
					"type": "string"
				}
			],
			"stateMutability": "view",
			"type": "function"
		},
		{
			"inputs": [
				{
					"internalType": "uint256",
					"name": "_regID",
					"type": "uint256"
				},
				{
					"internalType": "string",
					"name": "_name",
					"type": "string"
				},
				{
					"internalType": "string",
					"name": "_course",
					"type": "string"
				},
				{
					"internalType": "string",
					"name": "_mobileNo",
					"type": "string"
				}
			],
			"name": "registerStudent",
			"outputs": [],
			"stateMutability": "nonpayable",
			"type": "function"
		},
		{
			"inputs": [
				{
					"internalType": "uint256",
					"name": "",
					"type": "uint256"
				}
			],
			"name": "students",
			"outputs": [
				{
					"internalType": "uint256",
					"name": "regID",
					"type": "uint256"
				},
				{
					"internalType": "string",
					"name": "name",
					"type": "string"
				},
				{
					"internalType": "string",
					"name": "course",
					"type": "string"
				},
				{
					"internalType": "string",
					"name": "mobileNo",
					"type": "string"
				}
			],
			"stateMutability": "view",
			"type": "function"
		}
	]
}