{
	"data": {
		"bytecode": {
			"linkReferences": {},
			"object": "608060405234801561000f575f80fd5b5061039c8061001d5f395ff3fe608060405234801561000f575f80fd5b5060043610610029575f3560e01c8063f7f936411461002d575b5f80fd5b61004760048036038101906100429190610208565b610049565b005b7fb2ed2d58058ca5d7ad0b9581df3c6cba93716de21501c0bff3f561b8dc37ceef33838360405161007c9392919061032a565b60405180910390a15050565b5f604051905090565b5f80fd5b5f80fd5b5f819050919050565b6100ab81610099565b81146100b5575f80fd5b50565b5f813590506100c6816100a2565b92915050565b5f80fd5b5f80fd5b5f601f19601f8301169050919050565b7f4e487b71000000000000000000000000000000000000000000000000000000005f52604160045260245ffd5b61011a826100d4565b810181811067ffffffffffffffff82111715610139576101386100e4565b5b80604052505050565b5f61014b610088565b90506101578282610111565b919050565b5f67ffffffffffffffff821115610176576101756100e4565b5b61017f826100d4565b9050602081019050919050565b828183375f83830152505050565b5f6101ac6101a78461015c565b610142565b9050828152602081018484840111156101c8576101c76100d0565b5b6101d384828561018c565b509392505050565b5f82601f8301126101ef576101ee6100cc565b5b81356101ff84826020860161019a565b91505092915050565b5f806040838503121561021e5761021d610091565b5b5f61022b858286016100b8565b925050602083013567ffffffffffffffff81111561024c5761024b610095565b5b610258858286016101db565b9150509250929050565b5f73ffffffffffffffffffffffffffffffffffffffff82169050919050565b5f61028b82610262565b9050919050565b61029b81610281565b82525050565b6102aa81610099565b82525050565b5f81519050919050565b5f82825260208201905092915050565b5f5b838110156102e75780820151818401526020810190506102cc565b5f8484015250505050565b5f6102fc826102b0565b61030681856102ba565b93506103168185602086016102ca565b61031f816100d4565b840191505092915050565b5f60608201905061033d5f830186610292565b61034a60208301856102a1565b818103604083015261035c81846102f2565b905094935050505056fea2646970667358221220846a465d398a28110b9627680b6b3ad9edf0a900108138475600d62b55ea07a464736f6c63430008180033",
			"opcodes": "PUSH1 0x80 PUSH1 0x40 MSTORE CALLVALUE DUP1 ISZERO PUSH2 0xF JUMPI PUSH0 DUP1 REVERT JUMPDEST POP PUSH2 0x39C DUP1 PUSH2 0x1D PUSH0 CODECOPY PUSH0 RETURN INVALID PUSH1 0x80 PUSH1 0x40 MSTORE CALLVALUE DUP1 ISZERO PUSH2 0xF JUMPI PUSH0 DUP1 REVERT JUMPDEST POP PUSH1 0x4 CALLDATASIZE LT PUSH2 0x29 JUMPI PUSH0 CALLDATALOAD PUSH1 0xE0 SHR DUP1 PUSH4 0xF7F93641 EQ PUSH2 0x2D JUMPI JUMPDEST PUSH0 DUP1 REVERT JUMPDEST PUSH2 0x47 PUSH1 0x4 DUP1 CALLDATASIZE SUB DUP2 ADD SWAP1 PUSH2 0x42 SWAP2 SWAP1 PUSH2 0x208 JUMP JUMPDEST PUSH2 0x49 JUMP JUMPDEST STOP JUMPDEST PUSH32 0xB2ED2D58058CA5D7AD0B9581DF3C6CBA93716DE21501C0BFF3F561B8DC37CEEF CALLER DUP4 DUP4 PUSH1 0x40 MLOAD PUSH2 0x7C SWAP4 SWAP3 SWAP2 SWAP1 PUSH2 0x32A JUMP JUMPDEST PUSH1 0x40 MLOAD DUP1 SWAP2 SUB SWAP1 LOG1 POP POP JUMP JUMPDEST PUSH0 PUSH1 0x40 MLOAD SWAP1 POP SWAP1 JUMP JUMPDEST PUSH0 DUP1 REVERT JUMPDEST PUSH0 DUP1 REVERT JUMPDEST PUSH0 DUP2 SWAP1 POP SWAP2 SWAP1 POP JUMP JUMPDEST PUSH2 0xAB DUP2 PUSH2 0x99 JUMP JUMPDEST DUP2 EQ PUSH2 0xB5 JUMPI PUSH0 DUP1 REVERT JUMPDEST POP JUMP JUMPDEST PUSH0 DUP2 CALLDATALOAD SWAP1 POP PUSH2 0xC6 DUP2 PUSH2 0xA2 JUMP JUMPDEST SWAP3 SWAP2 POP POP JUMP JUMPDEST PUSH0 DUP1 REVERT JUMPDEST PUSH0 DUP1 REVERT JUMPDEST PUSH0 PUSH1 0x1F NOT PUSH1 0x1F DUP4 ADD AND SWAP1 POP SWAP2 SWAP1 POP JUMP JUMPDEST PUSH32 0x4E487B7100000000000000000000000000000000000000000000000000000000 PUSH0 MSTORE PUSH1 0x41 PUSH1 0x4 MSTORE PUSH1 0x24 PUSH0 REVERT JUMPDEST PUSH2 0x11A DUP3 PUSH2 0xD4 JUMP JUMPDEST DUP2 ADD DUP2 DUP2 LT PUSH8 0xFFFFFFFFFFFFFFFF DUP3 GT OR ISZERO PUSH2 0x139 JUMPI PUSH2 0x138 PUSH2 0xE4 JUMP JUMPDEST JUMPDEST DUP1 PUSH1 0x40 MSTORE POP POP POP JUMP JUMPDEST PUSH0 PUSH2 0x14B PUSH2 0x88 JUMP JUMPDEST SWAP1 POP PUSH2 0x157 DUP3 DUP3 PUSH2 0x111 JUMP JUMPDEST SWAP2 SWAP1 POP JUMP JUMPDEST PUSH0 PUSH8 0xFFFFFFFFFFFFFFFF DUP3 GT ISZERO PUSH2 0x176 JUMPI PUSH2 0x175 PUSH2 0xE4 JUMP JUMPDEST JUMPDEST PUSH2 0x17F DUP3 PUSH2 0xD4 JUMP JUMPDEST SWAP1 POP PUSH1 0x20 DUP2 ADD SWAP1 POP SWAP2 SWAP1 POP JUMP JUMPDEST DUP3 DUP2 DUP4 CALLDATACOPY PUSH0 DUP4 DUP4 ADD MSTORE POP POP POP JUMP JUMPDEST PUSH0 PUSH2 0x1AC PUSH2 0x1A7 DUP5 PUSH2 0x15C JUMP JUMPDEST PUSH2 0x142 JUMP JUMPDEST SWAP1 POP DUP3 DUP2 MSTORE PUSH1 0x20 DUP2 ADD DUP5 DUP5 DUP5 ADD GT ISZERO PUSH2 0x1C8 JUMPI PUSH2 0x1C7 PUSH2 0xD0 JUMP JUMPDEST JUMPDEST PUSH2 0x1D3 DUP5 DUP3 DUP6 PUSH2 0x18C JUMP JUMPDEST POP SWAP4 SWAP3 POP POP POP JUMP JUMPDEST PUSH0 DUP3 PUSH1 0x1F DUP4 ADD SLT PUSH2 0x1EF JUMPI PUSH2 0x1EE PUSH2 0xCC JUMP JUMPDEST JUMPDEST DUP2 CALLDATALOAD PUSH2 0x1FF DUP5 DUP3 PUSH1 0x20 DUP7 ADD PUSH2 0x19A JUMP JUMPDEST SWAP2 POP POP SWAP3 SWAP2 POP POP JUMP JUMPDEST PUSH0 DUP1 PUSH1 0x40 DUP4 DUP6 SUB SLT ISZERO PUSH2 0x21E JUMPI PUSH2 0x21D PUSH2 0x91 JUMP JUMPDEST JUMPDEST PUSH0 PUSH2 0x22B DUP6 DUP3 DUP7 ADD PUSH2 0xB8 JUMP JUMPDEST SWAP3 POP POP PUSH1 0x20 DUP4 ADD CALLDATALOAD PUSH8 0xFFFFFFFFFFFFFFFF DUP2 GT ISZERO PUSH2 0x24C JUMPI PUSH2 0x24B PUSH2 0x95 JUMP JUMPDEST JUMPDEST PUSH2 0x258 DUP6 DUP3 DUP7 ADD PUSH2 0x1DB JUMP JUMPDEST SWAP2 POP POP SWAP3 POP SWAP3 SWAP1 POP JUMP JUMPDEST PUSH0 PUSH20 0xFFFFFFFFFFFFFFFFFFFFFFFFFFFFFFFFFFFFFFFF DUP3 AND SWAP1 POP SWAP2 SWAP1 POP JUMP JUMPDEST PUSH0 PUSH2 0x28B DUP3 PUSH2 0x262 JUMP JUMPDEST SWAP1 POP SWAP2 SWAP1 POP JUMP JUMPDEST PUSH2 0x29B DUP2 PUSH2 0x281 JUMP JUMPDEST DUP3 MSTORE POP POP JUMP JUMPDEST PUSH2 0x2AA DUP2 PUSH2 0x99 JUMP JUMPDEST DUP3 MSTORE POP POP JUMP JUMPDEST PUSH0 DUP2 MLOAD SWAP1 POP SWAP2 SWAP1 POP JUMP JUMPDEST PUSH0 DUP3 DUP3 MSTORE PUSH1 0x20 DUP3 ADD SWAP1 POP SWAP3 SWAP2 POP POP JUMP JUMPDEST PUSH0 JUMPDEST DUP4 DUP2 LT ISZERO PUSH2 0x2E7 JUMPI DUP1 DUP3 ADD MLOAD DUP2 DUP5 ADD MSTORE PUSH1 0x20 DUP2 ADD SWAP1 POP PUSH2 0x2CC JUMP JUMPDEST PUSH0 DUP5 DUP5 ADD MSTORE POP POP POP POP JUMP JUMPDEST PUSH0 PUSH2 0x2FC DUP3 PUSH2 0x2B0 JUMP JUMPDEST PUSH2 0x306 DUP2 DUP6 PUSH2 0x2BA JUMP JUMPDEST SWAP4 POP PUSH2 0x316 DUP2 DUP6 PUSH1 0x20 DUP7 ADD PUSH2 0x2CA JUMP JUMPDEST PUSH2 0x31F DUP2 PUSH2 0xD4 JUMP JUMPDEST DUP5 ADD SWAP2 POP POP SWAP3 SWAP2 POP POP JUMP JUMPDEST PUSH0 PUSH1 0x60 DUP3 ADD SWAP1 POP PUSH2 0x33D PUSH0 DUP4 ADD DUP7 PUSH2 0x292 JUMP JUMPDEST PUSH2 0x34A PUSH1 0x20 DUP4 ADD DUP6 PUSH2 0x2A1 JUMP JUMPDEST DUP2 DUP2 SUB PUSH1 0x40 DUP4 ADD MSTORE PUSH2 0x35C DUP2 DUP5 PUSH2 0x2F2 JUMP JUMPDEST SWAP1 POP SWAP5 SWAP4 POP POP POP POP JUMP INVALID LOG2 PUSH5 0x6970667358 0x22 SLT KECCAK256 DUP5 PUSH11 0x465D398A28110B9627680B PUSH12 0x3AD9EDF0A900108138475600 0xD6 0x2B SSTORE 0xEA SMOD LOG4 PUSH5 0x736F6C6343 STOP ADDMOD XOR STOP CALLER "
		},
		"gasEstimates": {
			"creation": {
				"codeDepositCost": "184800",
				"executionCost": "224",
				"totalCost": "185024"
			},
			"external": {
				"receiveData(uint256,string)": "infinite"
			}
		},
		"methodIdentifiers": {
			"receiveData(uint256,string)": "f7f93641"
		}
	},
	"abi": [
		{
			"anonymous": false,
			"inputs": [
				{
					"indexed": false,
					"internalType": "address",
					"name": "sender",
					"type": "address"
				},
				{
					"indexed": false,
					"internalType": "uint256",
					"name": "amount",
					"type": "uint256"
				},
				{
					"indexed": false,
					"internalType": "string",
					"name": "message",
					"type": "string"
				}
			],
			"name": "ReceivedData",
			"type": "event"
		},
		{
			"inputs": [
				{
					"internalType": "uint256",
					"name": "amount",
					"type": "uint256"
				},
				{
					"internalType": "string",
					"name": "message",
					"type": "string"
				}
			],
			"name": "receiveData",
			"outputs": [],
			"stateMutability": "nonpayable",
			"type": "function"
		}
	]
}