{
	"data": {
		"bytecode": {
			"linkReferences": {},
			"object": "608060405234801561000f575f80fd5b50335f806101000a81548173ffffffffffffffffffffffffffffffffffffffff021916908373ffffffffffffffffffffffffffffffffffffffff16021790555061027d8061005c5f395ff3fe608060405260043610610028575f3560e01c80638da5cb5b1461002c578063eb119d8514610056575b5f80fd5b348015610037575f80fd5b50610040610072565b60405161004d919061015d565b60405180910390f35b610070600480360381019061006b91906101a4565b610095565b005b5f8054906101000a900473ffffffffffffffffffffffffffffffffffffffff1681565b5f34116100d7576040517f08c379a00000000000000000000000000000000000000000000000000000000081526004016100ce90610229565b60405180910390fd5b8073ffffffffffffffffffffffffffffffffffffffff166108fc3490811502906040515f60405180830381858888f1935050505015801561011a573d5f803e3d5ffd5b5050565b5f73ffffffffffffffffffffffffffffffffffffffff82169050919050565b5f6101478261011e565b9050919050565b6101578161013d565b82525050565b5f6020820190506101705f83018461014e565b92915050565b5f80fd5b6101838161013d565b811461018d575f80fd5b50565b5f8135905061019e8161017a565b92915050565b5f602082840312156101b9576101b8610176565b5b5f6101c684828501610190565b91505092915050565b5f82825260208201905092915050565b7f4e6f2045746865722073656e74000000000000000000000000000000000000005f82015250565b5f610213600d836101cf565b915061021e826101df565b602082019050919050565b5f6020820190508181035f83015261024081610207565b905091905056fea2646970667358221220ba700fa8bfb79572e1d41d81d9ce642f24549c341272afad2780429fbe81072464736f6c63430008180033",
			"opcodes": "PUSH1 0x80 PUSH1 0x40 MSTORE CALLVALUE DUP1 ISZERO PUSH2 0xF JUMPI PUSH0 DUP1 REVERT JUMPDEST POP CALLER PUSH0 DUP1 PUSH2 0x100 EXP DUP2 SLOAD DUP2 PUSH20 0xFFFFFFFFFFFFFFFFFFFFFFFFFFFFFFFFFFFFFFFF MUL NOT AND SWAP1 DUP4 PUSH20 0xFFFFFFFFFFFFFFFFFFFFFFFFFFFFFFFFFFFFFFFF AND MUL OR SWAP1 SSTORE POP PUSH2 0x27D DUP1 PUSH2 0x5C PUSH0 CODECOPY PUSH0 RETURN INVALID PUSH1 0x80 PUSH1 0x40 MSTORE PUSH1 0x4 CALLDATASIZE LT PUSH2 0x28 JUMPI PUSH0 CALLDATALOAD PUSH1 0xE0 SHR DUP1 PUSH4 0x8DA5CB5B EQ PUSH2 0x2C JUMPI DUP1 PUSH4 0xEB119D85 EQ PUSH2 0x56 JUMPI JUMPDEST PUSH0 DUP1 REVERT JUMPDEST CALLVALUE DUP1 ISZERO PUSH2 0x37 JUMPI PUSH0 DUP1 REVERT JUMPDEST POP PUSH2 0x40 PUSH2 0x72 JUMP JUMPDEST PUSH1 0x40 MLOAD PUSH2 0x4D SWAP2 SWAP1 PUSH2 0x15D JUMP JUMPDEST PUSH1 0x40 MLOAD DUP1 SWAP2 SUB SWAP1 RETURN JUMPDEST PUSH2 0x70 PUSH1 0x4 DUP1 CALLDATASIZE SUB DUP2 ADD SWAP1 PUSH2 0x6B SWAP2 SWAP1 PUSH2 0x1A4 JUMP JUMPDEST PUSH2 0x95 JUMP JUMPDEST STOP JUMPDEST PUSH0 DUP1 SLOAD SWAP1 PUSH2 0x100 EXP SWAP1 DIV PUSH20 0xFFFFFFFFFFFFFFFFFFFFFFFFFFFFFFFFFFFFFFFF AND DUP2 JUMP JUMPDEST PUSH0 CALLVALUE GT PUSH2 0xD7 JUMPI PUSH1 0x40 MLOAD PUSH32 0x8C379A000000000000000000000000000000000000000000000000000000000 DUP2 MSTORE PUSH1 0x4 ADD PUSH2 0xCE SWAP1 PUSH2 0x229 JUMP JUMPDEST PUSH1 0x40 MLOAD DUP1 SWAP2 SUB SWAP1 REVERT JUMPDEST DUP1 PUSH20 0xFFFFFFFFFFFFFFFFFFFFFFFFFFFFFFFFFFFFFFFF AND PUSH2 0x8FC CALLVALUE SWAP1 DUP2 ISZERO MUL SWAP1 PUSH1 0x40 MLOAD PUSH0 PUSH1 0x40 MLOAD DUP1 DUP4 SUB DUP2 DUP6 DUP9 DUP9 CALL SWAP4 POP POP POP POP ISZERO DUP1 ISZERO PUSH2 0x11A JUMPI RETURNDATASIZE PUSH0 DUP1 RETURNDATACOPY RETURNDATASIZE PUSH0 REVERT JUMPDEST POP POP JUMP JUMPDEST PUSH0 PUSH20 0xFFFFFFFFFFFFFFFFFFFFFFFFFFFFFFFFFFFFFFFF DUP3 AND SWAP1 POP SWAP2 SWAP1 POP JUMP JUMPDEST PUSH0 PUSH2 0x147 DUP3 PUSH2 0x11E JUMP JUMPDEST SWAP1 POP SWAP2 SWAP1 POP JUMP JUMPDEST PUSH2 0x157 DUP2 PUSH2 0x13D JUMP JUMPDEST DUP3 MSTORE POP POP JUMP JUMPDEST PUSH0 PUSH1 0x20 DUP3 ADD SWAP1 POP PUSH2 0x170 PUSH0 DUP4 ADD DUP5 PUSH2 0x14E JUMP JUMPDEST SWAP3 SWAP2 POP POP JUMP JUMPDEST PUSH0 DUP1 REVERT JUMPDEST PUSH2 0x183 DUP2 PUSH2 0x13D JUMP JUMPDEST DUP2 EQ PUSH2 0x18D JUMPI PUSH0 DUP1 REVERT JUMPDEST POP JUMP JUMPDEST PUSH0 DUP2 CALLDATALOAD SWAP1 POP PUSH2 0x19E DUP2 PUSH2 0x17A JUMP JUMPDEST SWAP3 SWAP2 POP POP JUMP JUMPDEST PUSH0 PUSH1 0x20 DUP3 DUP5 SUB SLT ISZERO PUSH2 0x1B9 JUMPI PUSH2 0x1B8 PUSH2 0x176 JUMP JUMPDEST JUMPDEST PUSH0 PUSH2 0x1C6 DUP5 DUP3 DUP6 ADD PUSH2 0x190 JUMP JUMPDEST SWAP2 POP POP SWAP3 SWAP2 POP POP JUMP JUMPDEST PUSH0 DUP3 DUP3 MSTORE PUSH1 0x20 DUP3 ADD SWAP1 POP SWAP3 SWAP2 POP POP JUMP JUMPDEST PUSH32 0x4E6F2045746865722073656E7400000000000000000000000000000000000000 PUSH0 DUP3 ADD MSTORE POP JUMP JUMPDEST PUSH0 PUSH2 0x213 PUSH1 0xD DUP4 PUSH2 0x1CF JUMP JUMPDEST SWAP2 POP PUSH2 0x21E DUP3 PUSH2 0x1DF JUMP JUMPDEST PUSH1 0x20 DUP3 ADD SWAP1 POP SWAP2 SWAP1 POP JUMP JUMPDEST PUSH0 PUSH1 0x20 DUP3 ADD SWAP1 POP DUP2 DUP2 SUB PUSH0 DUP4 ADD MSTORE PUSH2 0x240 DUP2 PUSH2 0x207 JUMP JUMPDEST SWAP1 POP SWAP2 SWAP1 POP JUMP INVALID LOG2 PUSH5 0x6970667358 0x22 SLT KECCAK256 0xBA PUSH17 0xFA8BFB79572E1D41D81D9CE642F24549C CALLVALUE SLT PUSH19 0xAFAD2780429FBE81072464736F6C6343000818 STOP CALLER "
		},
		"gasEstimates": {
			"creation": {
				"codeDepositCost": "127400",
				"executionCost": "24434",
				"totalCost": "151834"
			},
			"external": {
				"owner()": "2483",
				"transferfunds(address)": "infinite"
			}
		},
		"methodIdentifiers": {
			"owner()": "8da5cb5b",
			"transferfunds(address)": "eb119d85"
		}
	},
	"abi": [
		{
			"inputs": [],
			"stateMutability": "nonpayable",
			"type": "constructor"
		},
		{
			"inputs": [],
			"name": "owner",
			"outputs": [
				{
					"internalType": "address payable",
					"name": "",
					"type": "address"
				}
			],
			"stateMutability": "view",
			"type": "function"
		},
		{
			"inputs": [
				{
					"internalType": "address payable",
					"name": "add2",
					"type": "address"
				}
			],
			"name": "transferfunds",
			"outputs": [],
			"stateMutability": "payable",
			"type": "function"
		}
	]
}